{
	"contracts/1_KipuBankV2.sol": {
		"KipuBankV2": {
			"abi": [
				{
					"inputs": [
						{
							"internalType": "address",
							"name": "ethPriceFeedAddress",
							"type": "address"
						},
						{
							"internalType": "uint256",
							"name": "bankCap",
							"type": "uint256"
						}
					],
					"stateMutability": "nonpayable",
					"type": "constructor"
				},
				{
					"inputs": [],
					"name": "AccessControlBadConfirmation",
					"type": "error"
				},
				{
					"inputs": [
						{
							"internalType": "address",
							"name": "account",
							"type": "address"
						},
						{
							"internalType": "bytes32",
							"name": "neededRole",
							"type": "bytes32"
						}
					],
					"name": "AccessControlUnauthorizedAccount",
					"type": "error"
				},
				{
					"inputs": [],
					"name": "Bank_AccountAlreadyExists",
					"type": "error"
				},
				{
					"inputs": [],
					"name": "Bank_AccountNotExists",
					"type": "error"
				},
				{
					"inputs": [],
					"name": "Bank_ExceedBankCap",
					"type": "error"
				},
				{
					"inputs": [
						{
							"internalType": "uint256",
							"name": "limit",
							"type": "uint256"
						},
						{
							"internalType": "uint256",
							"name": "requested",
							"type": "uint256"
						}
					],
					"name": "Bank_ExceedWithdrawAmount",
					"type": "error"
				},
				{
					"inputs": [
						{
							"internalType": "uint256",
							"name": "available",
							"type": "uint256"
						},
						{
							"internalType": "uint256",
							"name": "requested",
							"type": "uint256"
						}
					],
					"name": "Bank_InsufficientFunds",
					"type": "error"
				},
				{
					"inputs": [],
					"name": "Bank_InvalidDeposit",
					"type": "error"
				},
				{
					"inputs": [],
					"name": "Bank_TokenNotSupported",
					"type": "error"
				},
				{
					"inputs": [],
					"name": "Bank_TransferError",
					"type": "error"
				},
				{
					"inputs": [
						{
							"internalType": "address",
							"name": "token",
							"type": "address"
						}
					],
					"name": "SafeERC20FailedOperation",
					"type": "error"
				},
				{
					"anonymous": false,
					"inputs": [
						{
							"indexed": true,
							"internalType": "address",
							"name": "user",
							"type": "address"
						},
						{
							"indexed": true,
							"internalType": "address",
							"name": "token",
							"type": "address"
						},
						{
							"indexed": false,
							"internalType": "uint256",
							"name": "amount",
							"type": "uint256"
						}
					],
					"name": "Bank_Deposit",
					"type": "event"
				},
				{
					"anonymous": false,
					"inputs": [
						{
							"indexed": true,
							"internalType": "address",
							"name": "user",
							"type": "address"
						},
						{
							"indexed": true,
							"internalType": "address",
							"name": "token",
							"type": "address"
						},
						{
							"indexed": false,
							"internalType": "uint256",
							"name": "amount",
							"type": "uint256"
						}
					],
					"name": "Bank_Withdraw",
					"type": "event"
				},
				{
					"anonymous": false,
					"inputs": [
						{
							"indexed": true,
							"internalType": "bytes32",
							"name": "role",
							"type": "bytes32"
						},
						{
							"indexed": true,
							"internalType": "bytes32",
							"name": "previousAdminRole",
							"type": "bytes32"
						},
						{
							"indexed": true,
							"internalType": "bytes32",
							"name": "newAdminRole",
							"type": "bytes32"
						}
					],
					"name": "RoleAdminChanged",
					"type": "event"
				},
				{
					"anonymous": false,
					"inputs": [
						{
							"indexed": true,
							"internalType": "bytes32",
							"name": "role",
							"type": "bytes32"
						},
						{
							"indexed": true,
							"internalType": "address",
							"name": "account",
							"type": "address"
						},
						{
							"indexed": true,
							"internalType": "address",
							"name": "sender",
							"type": "address"
						}
					],
					"name": "RoleGranted",
					"type": "event"
				},
				{
					"anonymous": false,
					"inputs": [
						{
							"indexed": true,
							"internalType": "bytes32",
							"name": "role",
							"type": "bytes32"
						},
						{
							"indexed": true,
							"internalType": "address",
							"name": "account",
							"type": "address"
						},
						{
							"indexed": true,
							"internalType": "address",
							"name": "sender",
							"type": "address"
						}
					],
					"name": "RoleRevoked",
					"type": "event"
				},
				{
					"anonymous": false,
					"inputs": [
						{
							"indexed": true,
							"internalType": "address",
							"name": "token",
							"type": "address"
						},
						{
							"indexed": false,
							"internalType": "enum KipuBankV2.TokenState",
							"name": "state",
							"type": "uint8"
						}
					],
					"name": "TokenUpdated",
					"type": "event"
				},
				{
					"inputs": [],
					"name": "ADMIN_ROLE",
					"outputs": [
						{
							"internalType": "bytes32",
							"name": "",
							"type": "bytes32"
						}
					],
					"stateMutability": "view",
					"type": "function"
				},
				{
					"inputs": [],
					"name": "DEFAULT_ADMIN_ROLE",
					"outputs": [
						{
							"internalType": "bytes32",
							"name": "",
							"type": "bytes32"
						}
					],
					"stateMutability": "view",
					"type": "function"
				},
				{
					"inputs": [],
					"name": "MAX_WITHDRAW_AMOUNT",
					"outputs": [
						{
							"internalType": "uint256",
							"name": "",
							"type": "uint256"
						}
					],
					"stateMutability": "view",
					"type": "function"
				},
				{
					"inputs": [],
					"name": "NATIVE_TOKEN",
					"outputs": [
						{
							"internalType": "address",
							"name": "",
							"type": "address"
						}
					],
					"stateMutability": "view",
					"type": "function"
				},
				{
					"inputs": [],
					"name": "USD_FEED_DECIMALS",
					"outputs": [
						{
							"internalType": "uint256",
							"name": "",
							"type": "uint256"
						}
					],
					"stateMutability": "view",
					"type": "function"
				},
				{
					"inputs": [
						{
							"internalType": "uint256",
							"name": "weiAmount",
							"type": "uint256"
						}
					],
					"name": "convertWeiToUsd",
					"outputs": [
						{
							"internalType": "uint256",
							"name": "",
							"type": "uint256"
						}
					],
					"stateMutability": "view",
					"type": "function"
				},
				{
					"inputs": [
						{
							"internalType": "string",
							"name": "email",
							"type": "string"
						},
						{
							"internalType": "string",
							"name": "name",
							"type": "string"
						}
					],
					"name": "createAccount",
					"outputs": [],
					"stateMutability": "payable",
					"type": "function"
				},
				{
					"inputs": [],
					"name": "deposit",
					"outputs": [],
					"stateMutability": "payable",
					"type": "function"
				},
				{
					"inputs": [
						{
							"internalType": "address",
							"name": "token",
							"type": "address"
						},
						{
							"internalType": "uint256",
							"name": "amount",
							"type": "uint256"
						}
					],
					"name": "depositToken",
					"outputs": [],
					"stateMutability": "nonpayable",
					"type": "function"
				},
				{
					"inputs": [
						{
							"internalType": "address",
							"name": "user",
							"type": "address"
						},
						{
							"internalType": "address",
							"name": "token",
							"type": "address"
						}
					],
					"name": "getBalance",
					"outputs": [
						{
							"internalType": "uint256",
							"name": "",
							"type": "uint256"
						}
					],
					"stateMutability": "view",
					"type": "function"
				},
				{
					"inputs": [],
					"name": "getDepositCount",
					"outputs": [
						{
							"internalType": "uint256",
							"name": "",
							"type": "uint256"
						}
					],
					"stateMutability": "view",
					"type": "function"
				},
				{
					"inputs": [],
					"name": "getEthPriceInUsd",
					"outputs": [
						{
							"internalType": "uint256",
							"name": "",
							"type": "uint256"
						}
					],
					"stateMutability": "view",
					"type": "function"
				},
				{
					"inputs": [
						{
							"internalType": "bytes32",
							"name": "role",
							"type": "bytes32"
						}
					],
					"name": "getRoleAdmin",
					"outputs": [
						{
							"internalType": "bytes32",
							"name": "",
							"type": "bytes32"
						}
					],
					"stateMutability": "view",
					"type": "function"
				},
				{
					"inputs": [],
					"name": "getWithdrawCount",
					"outputs": [
						{
							"internalType": "uint256",
							"name": "",
							"type": "uint256"
						}
					],
					"stateMutability": "view",
					"type": "function"
				},
				{
					"inputs": [
						{
							"internalType": "bytes32",
							"name": "role",
							"type": "bytes32"
						},
						{
							"internalType": "address",
							"name": "account",
							"type": "address"
						}
					],
					"name": "grantRole",
					"outputs": [],
					"stateMutability": "nonpayable",
					"type": "function"
				},
				{
					"inputs": [
						{
							"internalType": "bytes32",
							"name": "role",
							"type": "bytes32"
						},
						{
							"internalType": "address",
							"name": "account",
							"type": "address"
						}
					],
					"name": "hasRole",
					"outputs": [
						{
							"internalType": "bool",
							"name": "",
							"type": "bool"
						}
					],
					"stateMutability": "view",
					"type": "function"
				},
				{
					"inputs": [],
					"name": "i_bankCap",
					"outputs": [
						{
							"internalType": "uint256",
							"name": "",
							"type": "uint256"
						}
					],
					"stateMutability": "view",
					"type": "function"
				},
				{
					"inputs": [],
					"name": "i_ethPriceFeed",
					"outputs": [
						{
							"internalType": "contract AggregatorV3Interface",
							"name": "",
							"type": "address"
						}
					],
					"stateMutability": "view",
					"type": "function"
				},
				{
					"inputs": [
						{
							"internalType": "bytes32",
							"name": "role",
							"type": "bytes32"
						},
						{
							"internalType": "address",
							"name": "callerConfirmation",
							"type": "address"
						}
					],
					"name": "renounceRole",
					"outputs": [],
					"stateMutability": "nonpayable",
					"type": "function"
				},
				{
					"inputs": [
						{
							"internalType": "bytes32",
							"name": "role",
							"type": "bytes32"
						},
						{
							"internalType": "address",
							"name": "account",
							"type": "address"
						}
					],
					"name": "revokeRole",
					"outputs": [],
					"stateMutability": "nonpayable",
					"type": "function"
				},
				{
					"inputs": [
						{
							"internalType": "address",
							"name": "token",
							"type": "address"
						},
						{
							"internalType": "uint8",
							"name": "decimals",
							"type": "uint8"
						},
						{
							"internalType": "address",
							"name": "priceFeed",
							"type": "address"
						},
						{
							"internalType": "bool",
							"name": "supported",
							"type": "bool"
						}
					],
					"name": "setToken",
					"outputs": [],
					"stateMutability": "nonpayable",
					"type": "function"
				},
				{
					"inputs": [
						{
							"internalType": "bytes4",
							"name": "interfaceId",
							"type": "bytes4"
						}
					],
					"name": "supportsInterface",
					"outputs": [
						{
							"internalType": "bool",
							"name": "",
							"type": "bool"
						}
					],
					"stateMutability": "view",
					"type": "function"
				},
				{
					"inputs": [
						{
							"internalType": "uint256",
							"name": "amount",
							"type": "uint256"
						}
					],
					"name": "withdraw",
					"outputs": [],
					"stateMutability": "nonpayable",
					"type": "function"
				},
				{
					"inputs": [
						{
							"internalType": "address",
							"name": "token",
							"type": "address"
						},
						{
							"internalType": "uint256",
							"name": "amount",
							"type": "uint256"
						}
					],
					"name": "withdrawToken",
					"outputs": [],
					"stateMutability": "nonpayable",
					"type": "function"
				}
			],
			"devdoc": {
				"errors": {
					"AccessControlBadConfirmation()": [
						{
							"details": "The caller of a function is not the expected one. NOTE: Don't confuse with {AccessControlUnauthorizedAccount}."
						}
					],
					"AccessControlUnauthorizedAccount(address,bytes32)": [
						{
							"details": "The `account` is missing a role."
						}
					],
					"Bank_ExceedWithdrawAmount(uint256,uint256)": [
						{
							"params": {
								"limit": "Límite máximo permitido",
								"requested": "Monto solicitado"
							}
						}
					],
					"Bank_InsufficientFunds(uint256,uint256)": [
						{
							"params": {
								"available": "Saldo disponible",
								"requested": "Monto solicitado"
							}
						}
					],
					"SafeERC20FailedOperation(address)": [
						{
							"details": "An operation with an ERC-20 token failed."
						}
					]
				},
				"events": {
					"RoleAdminChanged(bytes32,bytes32,bytes32)": {
						"details": "Emitted when `newAdminRole` is set as ``role``'s admin role, replacing `previousAdminRole` `DEFAULT_ADMIN_ROLE` is the starting admin for all roles, despite {RoleAdminChanged} not being emitted to signal this."
					},
					"RoleGranted(bytes32,address,address)": {
						"details": "Emitted when `account` is granted `role`. `sender` is the account that originated the contract call. This account bears the admin role (for the granted role). Expected in cases where the role was granted using the internal {AccessControl-_grantRole}."
					},
					"RoleRevoked(bytes32,address,address)": {
						"details": "Emitted when `account` is revoked `role`. `sender` is the account that originated the contract call:   - if using `revokeRole`, it is the admin role bearer   - if using `renounceRole`, it is the role bearer (i.e. `account`)"
					}
				},
				"kind": "dev",
				"methods": {
					"constructor": {
						"params": {
							"bankCap": "Límite global del banco (USD-feed decimales)",
							"ethPriceFeedAddress": "Dirección del oráculo ETH/USD"
						}
					},
					"createAccount(string,string)": {
						"params": {
							"email": "Email del usuario",
							"name": "Nombre del usuario"
						}
					},
					"getRoleAdmin(bytes32)": {
						"details": "Returns the admin role that controls `role`. See {grantRole} and {revokeRole}. To change a role's admin, use {_setRoleAdmin}."
					},
					"grantRole(bytes32,address)": {
						"details": "Grants `role` to `account`. If `account` had not been already granted `role`, emits a {RoleGranted} event. Requirements: - the caller must have ``role``'s admin role. May emit a {RoleGranted} event."
					},
					"hasRole(bytes32,address)": {
						"details": "Returns `true` if `account` has been granted `role`."
					},
					"renounceRole(bytes32,address)": {
						"details": "Revokes `role` from the calling account. Roles are often managed via {grantRole} and {revokeRole}: this function's purpose is to provide a mechanism for accounts to lose their privileges if they are compromised (such as when a trusted device is misplaced). If the calling account had been revoked `role`, emits a {RoleRevoked} event. Requirements: - the caller must be `callerConfirmation`. May emit a {RoleRevoked} event."
					},
					"revokeRole(bytes32,address)": {
						"details": "Revokes `role` from `account`. If `account` had been granted `role`, emits a {RoleRevoked} event. Requirements: - the caller must have ``role``'s admin role. May emit a {RoleRevoked} event."
					},
					"supportsInterface(bytes4)": {
						"details": "Returns true if this contract implements the interface defined by `interfaceId`. See the corresponding https://eips.ethereum.org/EIPS/eip-165#how-interfaces-are-identified[ERC section] to learn more about how these ids are created. This function call must use less than 30 000 gas."
					}
				},
				"version": 1
			},
			"evm": {
				"assembly": "    /* \"contracts/1_KipuBankV2.sol\":549:10446  contract KipuBankV2 is AccessControl, ReentrancyGuard {... */\n  mstore(0x40, 0xc0)\n    /* \"contracts/1_KipuBankV2.sol\":4622:4829  constructor(address ethPriceFeedAddress, uint256 bankCap) {... */\n  callvalue\n  dup1\n  iszero\n  tag_1\n  jumpi\n  0x00\n  dup1\n  revert\ntag_1:\n  pop\n  mload(0x40)\n  sub(codesize, bytecodeSize)\n  dup1\n  bytecodeSize\n  dup4\n  codecopy\n  dup2\n  dup2\n  add\n  0x40\n  mstore\n  dup2\n  add\n  swap1\n  tag_2\n  swap2\n  swap1\n  tag_3\n  jump\t// in\ntag_2:\n    /* \"@openzeppelin/contracts/security/ReentrancyGuard.sol\":1716:1717  1 */\n  0x01\n    /* \"@openzeppelin/contracts/security/ReentrancyGuard.sol\":1821:1828  _status */\n  dup1\n    /* \"@openzeppelin/contracts/security/ReentrancyGuard.sol\":1821:1843  _status = _NOT_ENTERED */\n  dup2\n  swap1\n  sstore\n  pop\n    /* \"contracts/1_KipuBankV2.sol\":4690:4724  _grantRole(ADMIN_ROLE, msg.sender) */\n  tag_8\n    /* \"@openzeppelin/contracts/access/AccessControl.sol\":2241:2245  0x00 */\n  0x00\n    /* \"contracts/1_KipuBankV2.sol\":827:845  DEFAULT_ADMIN_ROLE */\n  dup1\n  shl\n    /* \"contracts/1_KipuBankV2.sol\":4713:4723  msg.sender */\n  caller\n    /* \"contracts/1_KipuBankV2.sol\":4690:4700  _grantRole */\n  shl(0x20, tag_9)\n    /* \"contracts/1_KipuBankV2.sol\":4690:4724  _grantRole(ADMIN_ROLE, msg.sender) */\n  0x20\n  shr\n  jump\t// in\ntag_8:\n  pop\n    /* \"contracts/1_KipuBankV2.sol\":4773:4792  ethPriceFeedAddress */\n  dup2\n    /* \"contracts/1_KipuBankV2.sol\":4734:4793  i_ethPriceFeed = AggregatorV3Interface(ethPriceFeedAddress) */\n  0xffffffffffffffffffffffffffffffffffffffff\n  and\n  0xa0\n  dup2\n  0xffffffffffffffffffffffffffffffffffffffff\n  and\n  dup2\n  mstore\n  pop\n  pop\n    /* \"contracts/1_KipuBankV2.sol\":4815:4822  bankCap */\n  dup1\n    /* \"contracts/1_KipuBankV2.sol\":4803:4822  i_bankCap = bankCap */\n  0x80\n  dup2\n  dup2\n  mstore\n  pop\n  pop\n    /* \"contracts/1_KipuBankV2.sol\":4622:4829  constructor(address ethPriceFeedAddress, uint256 bankCap) {... */\n  pop\n  pop\n    /* \"contracts/1_KipuBankV2.sol\":549:10446  contract KipuBankV2 is AccessControl, ReentrancyGuard {... */\n  jump(tag_10)\n    /* \"@openzeppelin/contracts/access/AccessControl.sol\":6155:6471  function _grantRole(bytes32 role, address account) internal virtual returns (bool) {... */\ntag_9:\n    /* \"@openzeppelin/contracts/access/AccessControl.sol\":6232:6236  bool */\n  0x00\n    /* \"@openzeppelin/contracts/access/AccessControl.sol\":6253:6275  hasRole(role, account) */\n  tag_12\n    /* \"@openzeppelin/contracts/access/AccessControl.sol\":6261:6265  role */\n  dup4\n    /* \"@openzeppelin/contracts/access/AccessControl.sol\":6267:6274  account */\n  dup4\n    /* \"@openzeppelin/contracts/access/AccessControl.sol\":6253:6260  hasRole */\n  shl(0x20, tag_13)\n    /* \"@openzeppelin/contracts/access/AccessControl.sol\":6253:6275  hasRole(role, account) */\n  0x20\n  shr\n  jump\t// in\ntag_12:\n    /* \"@openzeppelin/contracts/access/AccessControl.sol\":6248:6465  if (!hasRole(role, account)) {... */\n  tag_14\n  jumpi\n    /* \"@openzeppelin/contracts/access/AccessControl.sol\":6323:6327  true */\n  0x01\n    /* \"@openzeppelin/contracts/access/AccessControl.sol\":6291:6297  _roles */\n  0x00\n    /* \"@openzeppelin/contracts/access/AccessControl.sol\":6291:6303  _roles[role] */\n  dup1\n    /* \"@openzeppelin/contracts/access/AccessControl.sol\":6298:6302  role */\n  dup6\n    /* \"@openzeppelin/contracts/access/AccessControl.sol\":6291:6303  _roles[role] */\n  dup2\n  mstore\n  0x20\n  add\n  swap1\n  dup2\n  mstore\n  0x20\n  add\n  0x00\n  keccak256\n    /* \"@openzeppelin/contracts/access/AccessControl.sol\":6291:6311  _roles[role].hasRole */\n  0x00\n  add\n    /* \"@openzeppelin/contracts/access/AccessControl.sol\":6291:6320  _roles[role].hasRole[account] */\n  0x00\n    /* \"@openzeppelin/contracts/access/AccessControl.sol\":6312:6319  account */\n  dup5\n    /* \"@openzeppelin/contracts/access/AccessControl.sol\":6291:6320  _roles[role].hasRole[account] */\n  0xffffffffffffffffffffffffffffffffffffffff\n  and\n  0xffffffffffffffffffffffffffffffffffffffff\n  and\n  dup2\n  mstore\n  0x20\n  add\n  swap1\n  dup2\n  mstore\n  0x20\n  add\n  0x00\n  keccak256\n  0x00\n    /* \"@openzeppelin/contracts/access/AccessControl.sol\":6291:6327  _roles[role].hasRole[account] = true */\n  0x0100\n  exp\n  dup2\n  sload\n  dup2\n  0xff\n  mul\n  not\n  and\n  swap1\n  dup4\n  iszero\n  iszero\n  mul\n  or\n  swap1\n  sstore\n  pop\n    /* \"@openzeppelin/contracts/access/AccessControl.sol\":6373:6385  _msgSender() */\n  tag_15\n    /* \"@openzeppelin/contracts/access/AccessControl.sol\":6373:6383  _msgSender */\n  shl(0x20, tag_16)\n    /* \"@openzeppelin/contracts/access/AccessControl.sol\":6373:6385  _msgSender() */\n  0x20\n  shr\n  jump\t// in\ntag_15:\n    /* \"@openzeppelin/contracts/access/AccessControl.sol\":6346:6386  RoleGranted(role, account, _msgSender()) */\n  0xffffffffffffffffffffffffffffffffffffffff\n  and\n    /* \"@openzeppelin/contracts/access/AccessControl.sol\":6364:6371  account */\n  dup3\n    /* \"@openzeppelin/contracts/access/AccessControl.sol\":6346:6386  RoleGranted(role, account, _msgSender()) */\n  0xffffffffffffffffffffffffffffffffffffffff\n  and\n    /* \"@openzeppelin/contracts/access/AccessControl.sol\":6358:6362  role */\n  dup5\n    /* \"@openzeppelin/contracts/access/AccessControl.sol\":6346:6386  RoleGranted(role, account, _msgSender()) */\n  0x2f8788117e7eff1d82e926ec794901d17c78024a50270940304540a733656f0d\n  mload(0x40)\n  mload(0x40)\n  dup1\n  swap2\n  sub\n  swap1\n  log4\n    /* \"@openzeppelin/contracts/access/AccessControl.sol\":6407:6411  true */\n  0x01\n    /* \"@openzeppelin/contracts/access/AccessControl.sol\":6400:6411  return true */\n  swap1\n  pop\n  jump(tag_11)\n    /* \"@openzeppelin/contracts/access/AccessControl.sol\":6248:6465  if (!hasRole(role, account)) {... */\ntag_14:\n    /* \"@openzeppelin/contracts/access/AccessControl.sol\":6449:6454  false */\n  0x00\n    /* \"@openzeppelin/contracts/access/AccessControl.sol\":6442:6454  return false */\n  swap1\n  pop\n    /* \"@openzeppelin/contracts/access/AccessControl.sol\":6155:6471  function _grantRole(bytes32 role, address account) internal virtual returns (bool) {... */\ntag_11:\n  swap3\n  swap2\n  pop\n  pop\n  jump\t// out\n    /* \"@openzeppelin/contracts/access/AccessControl.sol\":2830:2966  function hasRole(bytes32 role, address account) public view virtual returns (bool) {... */\ntag_13:\n    /* \"@openzeppelin/contracts/access/AccessControl.sol\":2907:2911  bool */\n  0x00\n    /* \"@openzeppelin/contracts/access/AccessControl.sol\":2930:2936  _roles */\n  dup1\n    /* \"@openzeppelin/contracts/access/AccessControl.sol\":2930:2942  _roles[role] */\n  0x00\n    /* \"@openzeppelin/contracts/access/AccessControl.sol\":2937:2941  role */\n  dup5\n    /* \"@openzeppelin/contracts/access/AccessControl.sol\":2930:2942  _roles[role] */\n  dup2\n  mstore\n  0x20\n  add\n  swap1\n  dup2\n  mstore\n  0x20\n  add\n  0x00\n  keccak256\n    /* \"@openzeppelin/contracts/access/AccessControl.sol\":2930:2950  _roles[role].hasRole */\n  0x00\n  add\n    /* \"@openzeppelin/contracts/access/AccessControl.sol\":2930:2959  _roles[role].hasRole[account] */\n  0x00\n    /* \"@openzeppelin/contracts/access/AccessControl.sol\":2951:2958  account */\n  dup4\n    /* \"@openzeppelin/contracts/access/AccessControl.sol\":2930:2959  _roles[role].hasRole[account] */\n  0xffffffffffffffffffffffffffffffffffffffff\n  and\n  0xffffffffffffffffffffffffffffffffffffffff\n  and\n  dup2\n  mstore\n  0x20\n  add\n  swap1\n  dup2\n  mstore\n  0x20\n  add\n  0x00\n  keccak256\n  0x00\n  swap1\n  sload\n  swap1\n  0x0100\n  exp\n  swap1\n  div\n  0xff\n  and\n    /* \"@openzeppelin/contracts/access/AccessControl.sol\":2923:2959  return _roles[role].hasRole[account] */\n  swap1\n  pop\n    /* \"@openzeppelin/contracts/access/AccessControl.sol\":2830:2966  function hasRole(bytes32 role, address account) public view virtual returns (bool) {... */\n  swap3\n  swap2\n  pop\n  pop\n  jump\t// out\n    /* \"@openzeppelin/contracts/utils/Context.sol\":656:752  function _msgSender() internal view virtual returns (address) {... */\ntag_16:\n    /* \"@openzeppelin/contracts/utils/Context.sol\":709:716  address */\n  0x00\n    /* \"@openzeppelin/contracts/utils/Context.sol\":735:745  msg.sender */\n  caller\n    /* \"@openzeppelin/contracts/utils/Context.sol\":728:745  return msg.sender */\n  swap1\n  pop\n    /* \"@openzeppelin/contracts/utils/Context.sol\":656:752  function _msgSender() internal view virtual returns (address) {... */\n  swap1\n  jump\t// out\n    /* \"#utility.yul\":88:205   */\ntag_21:\n    /* \"#utility.yul\":197:198   */\n  0x00\n    /* \"#utility.yul\":194:195   */\n  dup1\n    /* \"#utility.yul\":187:199   */\n  revert\n    /* \"#utility.yul\":334:460   */\ntag_23:\n    /* \"#utility.yul\":371:378   */\n  0x00\n    /* \"#utility.yul\":411:453   */\n  0xffffffffffffffffffffffffffffffffffffffff\n    /* \"#utility.yul\":404:409   */\n  dup3\n    /* \"#utility.yul\":400:454   */\n  and\n    /* \"#utility.yul\":389:454   */\n  swap1\n  pop\n    /* \"#utility.yul\":334:460   */\n  swap2\n  swap1\n  pop\n  jump\t// out\n    /* \"#utility.yul\":466:562   */\ntag_24:\n    /* \"#utility.yul\":503:510   */\n  0x00\n    /* \"#utility.yul\":532:556   */\n  tag_36\n    /* \"#utility.yul\":550:555   */\n  dup3\n    /* \"#utility.yul\":532:556   */\n  tag_23\n  jump\t// in\ntag_36:\n    /* \"#utility.yul\":521:556   */\n  swap1\n  pop\n    /* \"#utility.yul\":466:562   */\n  swap2\n  swap1\n  pop\n  jump\t// out\n    /* \"#utility.yul\":568:690   */\ntag_25:\n    /* \"#utility.yul\":641:665   */\n  tag_38\n    /* \"#utility.yul\":659:664   */\n  dup2\n    /* \"#utility.yul\":641:665   */\n  tag_24\n  jump\t// in\ntag_38:\n    /* \"#utility.yul\":634:639   */\n  dup2\n    /* \"#utility.yul\":631:666   */\n  eq\n    /* \"#utility.yul\":621:684   */\n  tag_39\n  jumpi\n    /* \"#utility.yul\":680:681   */\n  0x00\n    /* \"#utility.yul\":677:678   */\n  dup1\n    /* \"#utility.yul\":670:682   */\n  revert\n    /* \"#utility.yul\":621:684   */\ntag_39:\n    /* \"#utility.yul\":568:690   */\n  pop\n  jump\t// out\n    /* \"#utility.yul\":696:839   */\ntag_26:\n    /* \"#utility.yul\":753:758   */\n  0x00\n    /* \"#utility.yul\":784:790   */\n  dup2\n    /* \"#utility.yul\":778:791   */\n  mload\n    /* \"#utility.yul\":769:791   */\n  swap1\n  pop\n    /* \"#utility.yul\":800:833   */\n  tag_41\n    /* \"#utility.yul\":827:832   */\n  dup2\n    /* \"#utility.yul\":800:833   */\n  tag_25\n  jump\t// in\ntag_41:\n    /* \"#utility.yul\":696:839   */\n  swap3\n  swap2\n  pop\n  pop\n  jump\t// out\n    /* \"#utility.yul\":845:922   */\ntag_27:\n    /* \"#utility.yul\":882:889   */\n  0x00\n    /* \"#utility.yul\":911:916   */\n  dup2\n    /* \"#utility.yul\":900:916   */\n  swap1\n  pop\n    /* \"#utility.yul\":845:922   */\n  swap2\n  swap1\n  pop\n  jump\t// out\n    /* \"#utility.yul\":928:1050   */\ntag_28:\n    /* \"#utility.yul\":1001:1025   */\n  tag_44\n    /* \"#utility.yul\":1019:1024   */\n  dup2\n    /* \"#utility.yul\":1001:1025   */\n  tag_27\n  jump\t// in\ntag_44:\n    /* \"#utility.yul\":994:999   */\n  dup2\n    /* \"#utility.yul\":991:1026   */\n  eq\n    /* \"#utility.yul\":981:1044   */\n  tag_45\n  jumpi\n    /* \"#utility.yul\":1040:1041   */\n  0x00\n    /* \"#utility.yul\":1037:1038   */\n  dup1\n    /* \"#utility.yul\":1030:1042   */\n  revert\n    /* \"#utility.yul\":981:1044   */\ntag_45:\n    /* \"#utility.yul\":928:1050   */\n  pop\n  jump\t// out\n    /* \"#utility.yul\":1056:1199   */\ntag_29:\n    /* \"#utility.yul\":1113:1118   */\n  0x00\n    /* \"#utility.yul\":1144:1150   */\n  dup2\n    /* \"#utility.yul\":1138:1151   */\n  mload\n    /* \"#utility.yul\":1129:1151   */\n  swap1\n  pop\n    /* \"#utility.yul\":1160:1193   */\n  tag_47\n    /* \"#utility.yul\":1187:1192   */\n  dup2\n    /* \"#utility.yul\":1160:1193   */\n  tag_28\n  jump\t// in\ntag_47:\n    /* \"#utility.yul\":1056:1199   */\n  swap3\n  swap2\n  pop\n  pop\n  jump\t// out\n    /* \"#utility.yul\":1205:1712   */\ntag_3:\n    /* \"#utility.yul\":1284:1290   */\n  0x00\n    /* \"#utility.yul\":1292:1298   */\n  dup1\n    /* \"#utility.yul\":1341:1343   */\n  0x40\n    /* \"#utility.yul\":1329:1338   */\n  dup4\n    /* \"#utility.yul\":1320:1327   */\n  dup6\n    /* \"#utility.yul\":1316:1339   */\n  sub\n    /* \"#utility.yul\":1312:1344   */\n  slt\n    /* \"#utility.yul\":1309:1428   */\n  iszero\n  tag_49\n  jumpi\n    /* \"#utility.yul\":1347:1426   */\n  tag_50\n  tag_21\n  jump\t// in\ntag_50:\n    /* \"#utility.yul\":1309:1428   */\ntag_49:\n    /* \"#utility.yul\":1467:1468   */\n  0x00\n    /* \"#utility.yul\":1492:1556   */\n  tag_51\n    /* \"#utility.yul\":1548:1555   */\n  dup6\n    /* \"#utility.yul\":1539:1545   */\n  dup3\n    /* \"#utility.yul\":1528:1537   */\n  dup7\n    /* \"#utility.yul\":1524:1546   */\n  add\n    /* \"#utility.yul\":1492:1556   */\n  tag_26\n  jump\t// in\ntag_51:\n    /* \"#utility.yul\":1482:1556   */\n  swap3\n  pop\n    /* \"#utility.yul\":1438:1566   */\n  pop\n    /* \"#utility.yul\":1605:1607   */\n  0x20\n    /* \"#utility.yul\":1631:1695   */\n  tag_52\n    /* \"#utility.yul\":1687:1694   */\n  dup6\n    /* \"#utility.yul\":1678:1684   */\n  dup3\n    /* \"#utility.yul\":1667:1676   */\n  dup7\n    /* \"#utility.yul\":1663:1685   */\n  add\n    /* \"#utility.yul\":1631:1695   */\n  tag_29\n  jump\t// in\ntag_52:\n    /* \"#utility.yul\":1621:1695   */\n  swap2\n  pop\n    /* \"#utility.yul\":1576:1705   */\n  pop\n    /* \"#utility.yul\":1205:1712   */\n  swap3\n  pop\n  swap3\n  swap1\n  pop\n  jump\t// out\n    /* \"contracts/1_KipuBankV2.sol\":549:10446  contract KipuBankV2 is AccessControl, ReentrancyGuard {... */\ntag_10:\n  mload(0x80)\n  mload(0xa0)\n  codecopy(0x00, dataOffset(sub_0), dataSize(sub_0))\n  0x00\n  assignImmutable(\"0x15f577349cb01f168943032d44e6ff6a22a9210e99c5a2f5c4ba968be0e1fe66\")\n  0x00\n  assignImmutable(\"0x46612c86431bf839553975c6871c96460d6b955d2f53301921ef55c1ad868ef7\")\n  return(0x00, dataSize(sub_0))\nstop\n\nsub_0: assembly {\n        /* \"contracts/1_KipuBankV2.sol\":549:10446  contract KipuBankV2 is AccessControl, ReentrancyGuard {... */\n      mstore(0x40, 0x80)\n      jumpi(tag_1, lt(calldatasize, 0x04))\n      shr(0xe0, calldataload(0x00))\n      dup1\n      0x75b238fc\n      gt\n      tag_26\n      jumpi\n      dup1\n      0xd0e30db0\n      gt\n      tag_27\n      jumpi\n      dup1\n      0xd0e30db0\n      eq\n      tag_20\n      jumpi\n      dup1\n      0xd4fac45d\n      eq\n      tag_21\n      jumpi\n      dup1\n      0xd547741f\n      eq\n      tag_22\n      jumpi\n      dup1\n      0xd67b98a9\n      eq\n      tag_23\n      jumpi\n      dup1\n      0xd7128c58\n      eq\n      tag_24\n      jumpi\n      dup1\n      0xf6687af7\n      eq\n      tag_25\n      jumpi\n      jump(tag_1)\n    tag_27:\n      dup1\n      0x75b238fc\n      eq\n      tag_14\n      jumpi\n      dup1\n      0x91d14854\n      eq\n      tag_15\n      jumpi\n      dup1\n      0x9363a141\n      eq\n      tag_16\n      jumpi\n      dup1\n      0x9e281a98\n      eq\n      tag_17\n      jumpi\n      dup1\n      0xa217fddf\n      eq\n      tag_18\n      jumpi\n      dup1\n      0xb60fc72e\n      eq\n      tag_19\n      jumpi\n      jump(tag_1)\n    tag_26:\n      dup1\n      0x31f7d964\n      gt\n      tag_28\n      jumpi\n      dup1\n      0x31f7d964\n      eq\n      tag_8\n      jumpi\n      dup1\n      0x338b5dea\n      eq\n      tag_9\n      jumpi\n      dup1\n      0x36568abe\n      eq\n      tag_10\n      jumpi\n      dup1\n      0x44ba0ea2\n      eq\n      tag_11\n      jumpi\n      dup1\n      0x47d04c71\n      eq\n      tag_12\n      jumpi\n      dup1\n      0x4914e2ce\n      eq\n      tag_13\n      jumpi\n      jump(tag_1)\n    tag_28:\n      dup1\n      0x01ffc9a7\n      eq\n      tag_2\n      jumpi\n      dup1\n      0x19289287\n      eq\n      tag_3\n      jumpi\n      dup1\n      0x248a9ca3\n      eq\n      tag_4\n      jumpi\n      dup1\n      0x27281025\n      eq\n      tag_5\n      jumpi\n      dup1\n      0x2e1a7d4d\n      eq\n      tag_6\n      jumpi\n      dup1\n      0x2f2ff15d\n      eq\n      tag_7\n      jumpi\n    tag_1:\n      0x00\n      dup1\n      revert\n        /* \"@openzeppelin/contracts/access/AccessControl.sol\":2541:2743  function supportsInterface(bytes4 interfaceId) public view virtual override returns (bool) {... */\n    tag_2:\n      callvalue\n      dup1\n      iszero\n      tag_29\n      jumpi\n      0x00\n      dup1\n      revert\n    tag_29:\n      pop\n      tag_30\n      0x04\n      dup1\n      calldatasize\n      sub\n      dup2\n      add\n      swap1\n      tag_31\n      swap2\n      swap1\n      tag_32\n      jump\t// in\n    tag_31:\n      tag_33\n      jump\t// in\n    tag_30:\n      mload(0x40)\n      tag_34\n      swap2\n      swap1\n      tag_35\n      jump\t// in\n    tag_34:\n      mload(0x40)\n      dup1\n      swap2\n      sub\n      swap1\n      return\n        /* \"contracts/1_KipuBankV2.sol\":5773:6422  function createAccount(string memory email, string memory name) external payable {... */\n    tag_3:\n      tag_36\n      0x04\n      dup1\n      calldatasize\n      sub\n      dup2\n      add\n      swap1\n      tag_37\n      swap2\n      swap1\n      tag_38\n      jump\t// in\n    tag_37:\n      tag_39\n      jump\t// in\n    tag_36:\n      stop\n        /* \"@openzeppelin/contracts/access/AccessControl.sol\":3786:3906  function getRoleAdmin(bytes32 role) public view virtual returns (bytes32) {... */\n    tag_4:\n      callvalue\n      dup1\n      iszero\n      tag_40\n      jumpi\n      0x00\n      dup1\n      revert\n    tag_40:\n      pop\n      tag_41\n      0x04\n      dup1\n      calldatasize\n      sub\n      dup2\n      add\n      swap1\n      tag_42\n      swap2\n      swap1\n      tag_43\n      jump\t// in\n    tag_42:\n      tag_44\n      jump\t// in\n    tag_41:\n      mload(0x40)\n      tag_45\n      swap2\n      swap1\n      tag_46\n      jump\t// in\n    tag_45:\n      mload(0x40)\n      dup1\n      swap2\n      sub\n      swap1\n      return\n        /* \"contracts/1_KipuBankV2.sol\":9934:10103  function convertWeiToUsd(uint256 weiAmount) external view returns(uint256) {... */\n    tag_5:\n      callvalue\n      dup1\n      iszero\n      tag_47\n      jumpi\n      0x00\n      dup1\n      revert\n    tag_47:\n      pop\n      tag_48\n      0x04\n      dup1\n      calldatasize\n      sub\n      dup2\n      add\n      swap1\n      tag_49\n      swap2\n      swap1\n      tag_50\n      jump\t// in\n    tag_49:\n      tag_51\n      jump\t// in\n    tag_48:\n      mload(0x40)\n      tag_52\n      swap2\n      swap1\n      tag_53\n      jump\t// in\n    tag_52:\n      mload(0x40)\n      dup1\n      swap2\n      sub\n      swap1\n      return\n        /* \"contracts/1_KipuBankV2.sol\":7741:8442  function withdraw(uint256 amount) external nonReentrant {... */\n    tag_6:\n      callvalue\n      dup1\n      iszero\n      tag_54\n      jumpi\n      0x00\n      dup1\n      revert\n    tag_54:\n      pop\n      tag_55\n      0x04\n      dup1\n      calldatasize\n      sub\n      dup2\n      add\n      swap1\n      tag_56\n      swap2\n      swap1\n      tag_50\n      jump\t// in\n    tag_56:\n      tag_57\n      jump\t// in\n    tag_55:\n      stop\n        /* \"@openzeppelin/contracts/access/AccessControl.sol\":4202:4338  function grantRole(bytes32 role, address account) public virtual onlyRole(getRoleAdmin(role)) {... */\n    tag_7:\n      callvalue\n      dup1\n      iszero\n      tag_58\n      jumpi\n      0x00\n      dup1\n      revert\n    tag_58:\n      pop\n      tag_59\n      0x04\n      dup1\n      calldatasize\n      sub\n      dup2\n      add\n      swap1\n      tag_60\n      swap2\n      swap1\n      tag_61\n      jump\t// in\n    tag_60:\n      tag_62\n      jump\t// in\n    tag_59:\n      stop\n        /* \"contracts/1_KipuBankV2.sol\":1920:1969  address public constant NATIVE_TOKEN = address(0) */\n    tag_8:\n      callvalue\n      dup1\n      iszero\n      tag_63\n      jumpi\n      0x00\n      dup1\n      revert\n    tag_63:\n      pop\n      tag_64\n      tag_65\n      jump\t// in\n    tag_64:\n      mload(0x40)\n      tag_66\n      swap2\n      swap1\n      tag_67\n      jump\t// in\n    tag_66:\n      mload(0x40)\n      dup1\n      swap2\n      sub\n      swap1\n      return\n        /* \"contracts/1_KipuBankV2.sol\":6989:7522  function depositToken(address token, uint256 amount) external {... */\n    tag_9:\n      callvalue\n      dup1\n      iszero\n      tag_68\n      jumpi\n      0x00\n      dup1\n      revert\n    tag_68:\n      pop\n      tag_69\n      0x04\n      dup1\n      calldatasize\n      sub\n      dup2\n      add\n      swap1\n      tag_70\n      swap2\n      swap1\n      tag_71\n      jump\t// in\n    tag_70:\n      tag_72\n      jump\t// in\n    tag_69:\n      stop\n        /* \"@openzeppelin/contracts/access/AccessControl.sol\":5304:5549  function renounceRole(bytes32 role, address callerConfirmation) public virtual {... */\n    tag_10:\n      callvalue\n      dup1\n      iszero\n      tag_73\n      jumpi\n      0x00\n      dup1\n      revert\n    tag_73:\n      pop\n      tag_74\n      0x04\n      dup1\n      calldatasize\n      sub\n      dup2\n      add\n      swap1\n      tag_75\n      swap2\n      swap1\n      tag_61\n      jump\t// in\n    tag_75:\n      tag_76\n      jump\t// in\n    tag_74:\n      stop\n        /* \"contracts/1_KipuBankV2.sol\":1831:1886  uint256 public constant MAX_WITHDRAW_AMOUNT = 0.1 ether */\n    tag_11:\n      callvalue\n      dup1\n      iszero\n      tag_77\n      jumpi\n      0x00\n      dup1\n      revert\n    tag_77:\n      pop\n      tag_78\n      tag_79\n      jump\t// in\n    tag_78:\n      mload(0x40)\n      tag_80\n      swap2\n      swap1\n      tag_53\n      jump\t// in\n    tag_80:\n      mload(0x40)\n      dup1\n      swap2\n      sub\n      swap1\n      return\n        /* \"contracts/1_KipuBankV2.sol\":10344:10444  function getWithdrawCount() external view returns(uint256) {... */\n    tag_12:\n      callvalue\n      dup1\n      iszero\n      tag_81\n      jumpi\n      0x00\n      dup1\n      revert\n    tag_81:\n      pop\n      tag_82\n      tag_83\n      jump\t// in\n    tag_82:\n      mload(0x40)\n      tag_84\n      swap2\n      swap1\n      tag_53\n      jump\t// in\n    tag_84:\n      mload(0x40)\n      dup1\n      swap2\n      sub\n      swap1\n      return\n        /* \"contracts/1_KipuBankV2.sol\":5046:5463  function setToken(... */\n    tag_13:\n      callvalue\n      dup1\n      iszero\n      tag_85\n      jumpi\n      0x00\n      dup1\n      revert\n    tag_85:\n      pop\n      tag_86\n      0x04\n      dup1\n      calldatasize\n      sub\n      dup2\n      add\n      swap1\n      tag_87\n      swap2\n      swap1\n      tag_88\n      jump\t// in\n    tag_87:\n      tag_89\n      jump\t// in\n    tag_86:\n      stop\n        /* \"contracts/1_KipuBankV2.sol\":790:845  bytes32 public constant ADMIN_ROLE = DEFAULT_ADMIN_ROLE */\n    tag_14:\n      callvalue\n      dup1\n      iszero\n      tag_90\n      jumpi\n      0x00\n      dup1\n      revert\n    tag_90:\n      pop\n      tag_91\n      tag_92\n      jump\t// in\n    tag_91:\n      mload(0x40)\n      tag_93\n      swap2\n      swap1\n      tag_46\n      jump\t// in\n    tag_93:\n      mload(0x40)\n      dup1\n      swap2\n      sub\n      swap1\n      return\n        /* \"@openzeppelin/contracts/access/AccessControl.sol\":2830:2966  function hasRole(bytes32 role, address account) public view virtual returns (bool) {... */\n    tag_15:\n      callvalue\n      dup1\n      iszero\n      tag_94\n      jumpi\n      0x00\n      dup1\n      revert\n    tag_94:\n      pop\n      tag_95\n      0x04\n      dup1\n      calldatasize\n      sub\n      dup2\n      add\n      swap1\n      tag_96\n      swap2\n      swap1\n      tag_61\n      jump\t// in\n    tag_96:\n      tag_97\n      jump\t// in\n    tag_95:\n      mload(0x40)\n      tag_98\n      swap2\n      swap1\n      tag_35\n      jump\t// in\n    tag_98:\n      mload(0x40)\n      dup1\n      swap2\n      sub\n      swap1\n      return\n        /* \"contracts/1_KipuBankV2.sol\":10176:10274  function getDepositCount() external view returns(uint256) {... */\n    tag_16:\n      callvalue\n      dup1\n      iszero\n      tag_99\n      jumpi\n      0x00\n      dup1\n      revert\n    tag_99:\n      pop\n      tag_100\n      tag_101\n      jump\t// in\n    tag_100:\n      mload(0x40)\n      tag_102\n      swap2\n      swap1\n      tag_53\n      jump\t// in\n    tag_102:\n      mload(0x40)\n      dup1\n      swap2\n      sub\n      swap1\n      return\n        /* \"contracts/1_KipuBankV2.sol\":8504:9230  function withdrawToken(address token, uint256 amount) external nonReentrant {... */\n    tag_17:\n      callvalue\n      dup1\n      iszero\n      tag_103\n      jumpi\n      0x00\n      dup1\n      revert\n    tag_103:\n      pop\n      tag_104\n      0x04\n      dup1\n      calldatasize\n      sub\n      dup2\n      add\n      swap1\n      tag_105\n      swap2\n      swap1\n      tag_71\n      jump\t// in\n    tag_105:\n      tag_106\n      jump\t// in\n    tag_104:\n      stop\n        /* \"@openzeppelin/contracts/access/AccessControl.sol\":2196:2245  bytes32 public constant DEFAULT_ADMIN_ROLE = 0x00 */\n    tag_18:\n      callvalue\n      dup1\n      iszero\n      tag_107\n      jumpi\n      0x00\n      dup1\n      revert\n    tag_107:\n      pop\n      tag_108\n      tag_109\n      jump\t// in\n    tag_108:\n      mload(0x40)\n      tag_110\n      swap2\n      swap1\n      tag_46\n      jump\t// in\n    tag_110:\n      mload(0x40)\n      dup1\n      swap2\n      sub\n      swap1\n      return\n        /* \"contracts/1_KipuBankV2.sol\":2086:2139  AggregatorV3Interface public immutable i_ethPriceFeed */\n    tag_19:\n      callvalue\n      dup1\n      iszero\n      tag_111\n      jumpi\n      0x00\n      dup1\n      revert\n    tag_111:\n      pop\n      tag_112\n      tag_113\n      jump\t// in\n    tag_112:\n      mload(0x40)\n      tag_114\n      swap2\n      swap1\n      tag_115\n      jump\t// in\n    tag_114:\n      mload(0x40)\n      dup1\n      swap2\n      sub\n      swap1\n      return\n        /* \"contracts/1_KipuBankV2.sol\":6483:6934  function deposit() external payable {... */\n    tag_20:\n      tag_116\n      tag_117\n      jump\t// in\n    tag_116:\n      stop\n        /* \"contracts/1_KipuBankV2.sol\":9459:9652  function getBalance(address user, address token) external view returns(uint256) {... */\n    tag_21:\n      callvalue\n      dup1\n      iszero\n      tag_118\n      jumpi\n      0x00\n      dup1\n      revert\n    tag_118:\n      pop\n      tag_119\n      0x04\n      dup1\n      calldatasize\n      sub\n      dup2\n      add\n      swap1\n      tag_120\n      swap2\n      swap1\n      tag_121\n      jump\t// in\n    tag_120:\n      tag_122\n      jump\t// in\n    tag_119:\n      mload(0x40)\n      tag_123\n      swap2\n      swap1\n      tag_53\n      jump\t// in\n    tag_123:\n      mload(0x40)\n      dup1\n      swap2\n      sub\n      swap1\n      return\n        /* \"@openzeppelin/contracts/access/AccessControl.sol\":4618:4756  function revokeRole(bytes32 role, address account) public virtual onlyRole(getRoleAdmin(role)) {... */\n    tag_22:\n      callvalue\n      dup1\n      iszero\n      tag_124\n      jumpi\n      0x00\n      dup1\n      revert\n    tag_124:\n      pop\n      tag_125\n      0x04\n      dup1\n      calldatasize\n      sub\n      dup2\n      add\n      swap1\n      tag_126\n      swap2\n      swap1\n      tag_61\n      jump\t// in\n    tag_126:\n      tag_127\n      jump\t// in\n    tag_125:\n      stop\n        /* \"contracts/1_KipuBankV2.sol\":9714:9873  function getEthPriceInUsd() public view returns(uint256) {... */\n    tag_23:\n      callvalue\n      dup1\n      iszero\n      tag_128\n      jumpi\n      0x00\n      dup1\n      revert\n    tag_128:\n      pop\n      tag_129\n      tag_130\n      jump\t// in\n    tag_129:\n      mload(0x40)\n      tag_131\n      swap2\n      swap1\n      tag_53\n      jump\t// in\n    tag_131:\n      mload(0x40)\n      dup1\n      swap2\n      sub\n      swap1\n      return\n        /* \"contracts/1_KipuBankV2.sol\":1740:1787  uint256 public constant USD_FEED_DECIMALS = 1e8 */\n    tag_24:\n      callvalue\n      dup1\n      iszero\n      tag_132\n      jumpi\n      0x00\n      dup1\n      revert\n    tag_132:\n      pop\n      tag_133\n      tag_134\n      jump\t// in\n    tag_133:\n      mload(0x40)\n      tag_135\n      swap2\n      swap1\n      tag_53\n      jump\t// in\n    tag_135:\n      mload(0x40)\n      dup1\n      swap2\n      sub\n      swap1\n      return\n        /* \"contracts/1_KipuBankV2.sol\":1998:2032  uint256 public immutable i_bankCap */\n    tag_25:\n      callvalue\n      dup1\n      iszero\n      tag_136\n      jumpi\n      0x00\n      dup1\n      revert\n    tag_136:\n      pop\n      tag_137\n      tag_138\n      jump\t// in\n    tag_137:\n      mload(0x40)\n      tag_139\n      swap2\n      swap1\n      tag_53\n      jump\t// in\n    tag_139:\n      mload(0x40)\n      dup1\n      swap2\n      sub\n      swap1\n      return\n        /* \"@openzeppelin/contracts/access/AccessControl.sol\":2541:2743  function supportsInterface(bytes4 interfaceId) public view virtual override returns (bool) {... */\n    tag_33:\n        /* \"@openzeppelin/contracts/access/AccessControl.sol\":2626:2630  bool */\n      0x00\n        /* \"@openzeppelin/contracts/access/AccessControl.sol\":2664:2696  type(IAccessControl).interfaceId */\n      0x7965db0b00000000000000000000000000000000000000000000000000000000\n        /* \"@openzeppelin/contracts/access/AccessControl.sol\":2649:2696  interfaceId == type(IAccessControl).interfaceId */\n      not(0xffffffffffffffffffffffffffffffffffffffffffffffffffffffff)\n      and\n        /* \"@openzeppelin/contracts/access/AccessControl.sol\":2649:2660  interfaceId */\n      dup3\n        /* \"@openzeppelin/contracts/access/AccessControl.sol\":2649:2696  interfaceId == type(IAccessControl).interfaceId */\n      not(0xffffffffffffffffffffffffffffffffffffffffffffffffffffffff)\n      and\n      eq\n        /* \"@openzeppelin/contracts/access/AccessControl.sol\":2649:2736  interfaceId == type(IAccessControl).interfaceId || super.supportsInterface(interfaceId) */\n      dup1\n      tag_141\n      jumpi\n      pop\n        /* \"@openzeppelin/contracts/access/AccessControl.sol\":2700:2736  super.supportsInterface(interfaceId) */\n      tag_142\n        /* \"@openzeppelin/contracts/access/AccessControl.sol\":2724:2735  interfaceId */\n      dup3\n        /* \"@openzeppelin/contracts/access/AccessControl.sol\":2700:2723  super.supportsInterface */\n      tag_143\n        /* \"@openzeppelin/contracts/access/AccessControl.sol\":2700:2736  super.supportsInterface(interfaceId) */\n      jump\t// in\n    tag_142:\n        /* \"@openzeppelin/contracts/access/AccessControl.sol\":2649:2736  interfaceId == type(IAccessControl).interfaceId || super.supportsInterface(interfaceId) */\n    tag_141:\n        /* \"@openzeppelin/contracts/access/AccessControl.sol\":2642:2736  return interfaceId == type(IAccessControl).interfaceId || super.supportsInterface(interfaceId) */\n      swap1\n      pop\n        /* \"@openzeppelin/contracts/access/AccessControl.sol\":2541:2743  function supportsInterface(bytes4 interfaceId) public view virtual override returns (bool) {... */\n      swap2\n      swap1\n      pop\n      jump\t// out\n        /* \"contracts/1_KipuBankV2.sol\":5773:6422  function createAccount(string memory email, string memory name) external payable {... */\n    tag_39:\n        /* \"contracts/1_KipuBankV2.sol\":5868:5876  accounts */\n      0x02\n        /* \"contracts/1_KipuBankV2.sol\":5868:5888  accounts[msg.sender] */\n      0x00\n        /* \"contracts/1_KipuBankV2.sol\":5877:5887  msg.sender */\n      caller\n        /* \"contracts/1_KipuBankV2.sol\":5868:5888  accounts[msg.sender] */\n      0xffffffffffffffffffffffffffffffffffffffff\n      and\n      0xffffffffffffffffffffffffffffffffffffffff\n      and\n      dup2\n      mstore\n      0x20\n      add\n      swap1\n      dup2\n      mstore\n      0x20\n      add\n      0x00\n      keccak256\n        /* \"contracts/1_KipuBankV2.sol\":5868:5895  accounts[msg.sender].exists */\n      0x03\n      add\n      0x00\n      swap1\n      sload\n      swap1\n      0x0100\n      exp\n      swap1\n      div\n      0xff\n      and\n        /* \"contracts/1_KipuBankV2.sol\":5864:5931  if (accounts[msg.sender].exists) revert Bank_AccountAlreadyExists() */\n      iszero\n      tag_145\n      jumpi\n        /* \"contracts/1_KipuBankV2.sol\":5904:5931  Bank_AccountAlreadyExists() */\n      mload(0x40)\n      0x7845597700000000000000000000000000000000000000000000000000000000\n      dup2\n      mstore\n      0x04\n      add\n      mload(0x40)\n      dup1\n      swap2\n      sub\n      swap1\n      revert\n        /* \"contracts/1_KipuBankV2.sol\":5864:5931  if (accounts[msg.sender].exists) revert Bank_AccountAlreadyExists() */\n    tag_145:\n        /* \"contracts/1_KipuBankV2.sol\":5978:5987  i_bankCap */\n      immutable(\"0x46612c86431bf839553975c6871c96460d6b955d2f53301921ef55c1ad868ef7\")\n        /* \"contracts/1_KipuBankV2.sol\":5966:5975  msg.value */\n      callvalue\n        /* \"contracts/1_KipuBankV2.sol\":5945:5963  s_totalBankBalance */\n      sload(0x07)\n        /* \"contracts/1_KipuBankV2.sol\":5945:5975  s_totalBankBalance + msg.value */\n      tag_146\n      swap2\n      swap1\n      tag_147\n      jump\t// in\n    tag_146:\n        /* \"contracts/1_KipuBankV2.sol\":5945:5987  s_totalBankBalance + msg.value > i_bankCap */\n      gt\n        /* \"contracts/1_KipuBankV2.sol\":5941:6016  if (s_totalBankBalance + msg.value > i_bankCap) revert Bank_ExceedBankCap() */\n      iszero\n      tag_148\n      jumpi\n        /* \"contracts/1_KipuBankV2.sol\":5996:6016  Bank_ExceedBankCap() */\n      mload(0x40)\n      0x97651d1e00000000000000000000000000000000000000000000000000000000\n      dup2\n      mstore\n      0x04\n      add\n      mload(0x40)\n      dup1\n      swap2\n      sub\n      swap1\n      revert\n        /* \"contracts/1_KipuBankV2.sol\":5941:6016  if (s_totalBankBalance + msg.value > i_bankCap) revert Bank_ExceedBankCap() */\n    tag_148:\n        /* \"contracts/1_KipuBankV2.sol\":6050:6169  Account({... */\n      mload(0x40)\n      dup1\n      0x80\n      add\n      0x40\n      mstore\n      dup1\n        /* \"contracts/1_KipuBankV2.sol\":6081:6082  0 */\n      0x00\n        /* \"contracts/1_KipuBankV2.sol\":6050:6169  Account({... */\n      dup2\n      mstore\n      0x20\n      add\n        /* \"contracts/1_KipuBankV2.sol\":6128:6132  name */\n      dup3\n        /* \"contracts/1_KipuBankV2.sol\":6050:6169  Account({... */\n      dup2\n      mstore\n      0x20\n      add\n        /* \"contracts/1_KipuBankV2.sol\":6103:6108  email */\n      dup4\n        /* \"contracts/1_KipuBankV2.sol\":6050:6169  Account({... */\n      dup2\n      mstore\n      0x20\n      add\n        /* \"contracts/1_KipuBankV2.sol\":6154:6158  true */\n      0x01\n        /* \"contracts/1_KipuBankV2.sol\":6050:6169  Account({... */\n      iszero\n      iszero\n      dup2\n      mstore\n      pop\n        /* \"contracts/1_KipuBankV2.sol\":6027:6035  accounts */\n      0x02\n        /* \"contracts/1_KipuBankV2.sol\":6027:6047  accounts[msg.sender] */\n      0x00\n        /* \"contracts/1_KipuBankV2.sol\":6036:6046  msg.sender */\n      caller\n        /* \"contracts/1_KipuBankV2.sol\":6027:6047  accounts[msg.sender] */\n      0xffffffffffffffffffffffffffffffffffffffff\n      and\n      0xffffffffffffffffffffffffffffffffffffffff\n      and\n      dup2\n      mstore\n      0x20\n      add\n      swap1\n      dup2\n      mstore\n      0x20\n      add\n      0x00\n      keccak256\n        /* \"contracts/1_KipuBankV2.sol\":6027:6169  accounts[msg.sender] = Account({... */\n      0x00\n      dup3\n      add\n      mload\n      dup2\n      0x00\n      add\n      sstore\n      0x20\n      dup3\n      add\n      mload\n      dup2\n      0x01\n      add\n      swap1\n      dup2\n      tag_149\n      swap2\n      swap1\n      tag_150\n      jump\t// in\n    tag_149:\n      pop\n      0x40\n      dup3\n      add\n      mload\n      dup2\n      0x02\n      add\n      swap1\n      dup2\n      tag_151\n      swap2\n      swap1\n      tag_150\n      jump\t// in\n    tag_151:\n      pop\n      0x60\n      dup3\n      add\n      mload\n      dup2\n      0x03\n      add\n      exp(0x0100, 0x00)\n      dup2\n      sload\n      dup2\n      0xff\n      mul\n      not\n      and\n      swap1\n      dup4\n      iszero\n      iszero\n      mul\n      or\n      swap1\n      sstore\n      pop\n      swap1\n      pop\n      pop\n        /* \"contracts/1_KipuBankV2.sol\":6196:6197  0 */\n      0x00\n        /* \"contracts/1_KipuBankV2.sol\":6184:6193  msg.value */\n      callvalue\n        /* \"contracts/1_KipuBankV2.sol\":6184:6197  msg.value > 0 */\n      gt\n        /* \"contracts/1_KipuBankV2.sol\":6180:6416  if (msg.value > 0) {... */\n      iszero\n      tag_152\n      jumpi\n        /* \"contracts/1_KipuBankV2.sol\":6251:6260  msg.value */\n      callvalue\n        /* \"contracts/1_KipuBankV2.sol\":6213:6221  balances */\n      0x03\n        /* \"contracts/1_KipuBankV2.sol\":6213:6233  balances[msg.sender] */\n      0x00\n        /* \"contracts/1_KipuBankV2.sol\":6222:6232  msg.sender */\n      caller\n        /* \"contracts/1_KipuBankV2.sol\":6213:6233  balances[msg.sender] */\n      0xffffffffffffffffffffffffffffffffffffffff\n      and\n      0xffffffffffffffffffffffffffffffffffffffff\n      and\n      dup2\n      mstore\n      0x20\n      add\n      swap1\n      dup2\n      mstore\n      0x20\n      add\n      0x00\n      keccak256\n        /* \"contracts/1_KipuBankV2.sol\":6213:6247  balances[msg.sender][NATIVE_TOKEN] */\n      0x00\n        /* \"contracts/1_KipuBankV2.sol\":1967:1968  0 */\n      dup1\n        /* \"contracts/1_KipuBankV2.sol\":6213:6247  balances[msg.sender][NATIVE_TOKEN] */\n      0xffffffffffffffffffffffffffffffffffffffff\n      and\n      0xffffffffffffffffffffffffffffffffffffffff\n      and\n      dup2\n      mstore\n      0x20\n      add\n      swap1\n      dup2\n      mstore\n      0x20\n      add\n      0x00\n      keccak256\n      0x00\n        /* \"contracts/1_KipuBankV2.sol\":6213:6260  balances[msg.sender][NATIVE_TOKEN] += msg.value */\n      dup3\n      dup3\n      sload\n      tag_153\n      swap2\n      swap1\n      tag_147\n      jump\t// in\n    tag_153:\n      swap3\n      pop\n      pop\n      dup2\n      swap1\n      sstore\n      pop\n        /* \"contracts/1_KipuBankV2.sol\":6296:6305  msg.value */\n      callvalue\n        /* \"contracts/1_KipuBankV2.sol\":6274:6292  s_totalBankBalance */\n      0x07\n      0x00\n        /* \"contracts/1_KipuBankV2.sol\":6274:6305  s_totalBankBalance += msg.value */\n      dup3\n      dup3\n      sload\n      tag_154\n      swap2\n      swap1\n      tag_147\n      jump\t// in\n    tag_154:\n      swap3\n      pop\n      pop\n      dup2\n      swap1\n      sstore\n      pop\n        /* \"contracts/1_KipuBankV2.sol\":6319:6335  s_depositCounter */\n      0x05\n      0x00\n        /* \"contracts/1_KipuBankV2.sol\":6319:6337  s_depositCounter++ */\n      dup2\n      sload\n      dup1\n      swap3\n      swap2\n      swap1\n      tag_155\n      swap1\n      tag_156\n      jump\t// in\n    tag_155:\n      swap2\n      swap1\n      pop\n      sstore\n      pop\n        /* \"contracts/1_KipuBankV2.sol\":1967:1968  0 */\n      0x00\n        /* \"contracts/1_KipuBankV2.sol\":6356:6405  Bank_Deposit(msg.sender, NATIVE_TOKEN, msg.value) */\n      0xffffffffffffffffffffffffffffffffffffffff\n      and\n        /* \"contracts/1_KipuBankV2.sol\":6369:6379  msg.sender */\n      caller\n        /* \"contracts/1_KipuBankV2.sol\":6356:6405  Bank_Deposit(msg.sender, NATIVE_TOKEN, msg.value) */\n      0xffffffffffffffffffffffffffffffffffffffff\n      and\n      0x01ece9c685ac991a7352754de4bb96f7d41fdbc35b4bc423326539149879c008\n        /* \"contracts/1_KipuBankV2.sol\":6395:6404  msg.value */\n      callvalue\n        /* \"contracts/1_KipuBankV2.sol\":6356:6405  Bank_Deposit(msg.sender, NATIVE_TOKEN, msg.value) */\n      mload(0x40)\n      tag_157\n      swap2\n      swap1\n      tag_53\n      jump\t// in\n    tag_157:\n      mload(0x40)\n      dup1\n      swap2\n      sub\n      swap1\n      log3\n        /* \"contracts/1_KipuBankV2.sol\":6180:6416  if (msg.value > 0) {... */\n    tag_152:\n        /* \"contracts/1_KipuBankV2.sol\":5773:6422  function createAccount(string memory email, string memory name) external payable {... */\n      pop\n      pop\n      jump\t// out\n        /* \"@openzeppelin/contracts/access/AccessControl.sol\":3786:3906  function getRoleAdmin(bytes32 role) public view virtual returns (bytes32) {... */\n    tag_44:\n        /* \"@openzeppelin/contracts/access/AccessControl.sol\":3851:3858  bytes32 */\n      0x00\n        /* \"@openzeppelin/contracts/access/AccessControl.sol\":3877:3883  _roles */\n      dup1\n        /* \"@openzeppelin/contracts/access/AccessControl.sol\":3877:3889  _roles[role] */\n      0x00\n        /* \"@openzeppelin/contracts/access/AccessControl.sol\":3884:3888  role */\n      dup4\n        /* \"@openzeppelin/contracts/access/AccessControl.sol\":3877:3889  _roles[role] */\n      dup2\n      mstore\n      0x20\n      add\n      swap1\n      dup2\n      mstore\n      0x20\n      add\n      0x00\n      keccak256\n        /* \"@openzeppelin/contracts/access/AccessControl.sol\":3877:3899  _roles[role].adminRole */\n      0x01\n      add\n      sload\n        /* \"@openzeppelin/contracts/access/AccessControl.sol\":3870:3899  return _roles[role].adminRole */\n      swap1\n      pop\n        /* \"@openzeppelin/contracts/access/AccessControl.sol\":3786:3906  function getRoleAdmin(bytes32 role) public view virtual returns (bytes32) {... */\n      swap2\n      swap1\n      pop\n      jump\t// out\n        /* \"contracts/1_KipuBankV2.sol\":9934:10103  function convertWeiToUsd(uint256 weiAmount) external view returns(uint256) {... */\n    tag_51:\n        /* \"contracts/1_KipuBankV2.sol\":10000:10007  uint256 */\n      0x00\n        /* \"contracts/1_KipuBankV2.sol\":10019:10032  uint256 price */\n      dup1\n        /* \"contracts/1_KipuBankV2.sol\":10035:10053  getEthPriceInUsd() */\n      tag_160\n        /* \"contracts/1_KipuBankV2.sol\":10035:10051  getEthPriceInUsd */\n      tag_130\n        /* \"contracts/1_KipuBankV2.sol\":10035:10053  getEthPriceInUsd() */\n      jump\t// in\n    tag_160:\n        /* \"contracts/1_KipuBankV2.sol\":10019:10053  uint256 price = getEthPriceInUsd() */\n      swap1\n      pop\n        /* \"contracts/1_KipuBankV2.sol\":10092:10096  1e18 */\n      0x0de0b6b3a7640000\n        /* \"contracts/1_KipuBankV2.sol\":10083:10088  price */\n      dup2\n        /* \"contracts/1_KipuBankV2.sol\":10071:10080  weiAmount */\n      dup5\n        /* \"contracts/1_KipuBankV2.sol\":10071:10088  weiAmount * price */\n      tag_161\n      swap2\n      swap1\n      tag_162\n      jump\t// in\n    tag_161:\n        /* \"contracts/1_KipuBankV2.sol\":10070:10096  (weiAmount * price) / 1e18 */\n      tag_163\n      swap2\n      swap1\n      tag_164\n      jump\t// in\n    tag_163:\n        /* \"contracts/1_KipuBankV2.sol\":10063:10096  return (weiAmount * price) / 1e18 */\n      swap2\n      pop\n      pop\n        /* \"contracts/1_KipuBankV2.sol\":9934:10103  function convertWeiToUsd(uint256 weiAmount) external view returns(uint256) {... */\n      swap2\n      swap1\n      pop\n      jump\t// out\n        /* \"contracts/1_KipuBankV2.sol\":7741:8442  function withdraw(uint256 amount) external nonReentrant {... */\n    tag_57:\n        /* \"@openzeppelin/contracts/security/ReentrancyGuard.sol\":2261:2282  _nonReentrantBefore() */\n      tag_166\n        /* \"@openzeppelin/contracts/security/ReentrancyGuard.sol\":2261:2280  _nonReentrantBefore */\n      tag_167\n        /* \"@openzeppelin/contracts/security/ReentrancyGuard.sol\":2261:2282  _nonReentrantBefore() */\n      jump\t// in\n    tag_166:\n        /* \"contracts/1_KipuBankV2.sol\":7812:7820  accounts */\n      0x02\n        /* \"contracts/1_KipuBankV2.sol\":7812:7832  accounts[msg.sender] */\n      0x00\n        /* \"contracts/1_KipuBankV2.sol\":7821:7831  msg.sender */\n      caller\n        /* \"contracts/1_KipuBankV2.sol\":7812:7832  accounts[msg.sender] */\n      0xffffffffffffffffffffffffffffffffffffffff\n      and\n      0xffffffffffffffffffffffffffffffffffffffff\n      and\n      dup2\n      mstore\n      0x20\n      add\n      swap1\n      dup2\n      mstore\n      0x20\n      add\n      0x00\n      keccak256\n        /* \"contracts/1_KipuBankV2.sol\":7812:7839  accounts[msg.sender].exists */\n      0x03\n      add\n      0x00\n      swap1\n      sload\n      swap1\n      0x0100\n      exp\n      swap1\n      div\n      0xff\n      and\n        /* \"contracts/1_KipuBankV2.sol\":7807:7871  if (!accounts[msg.sender].exists) revert Bank_AccountNotExists() */\n      tag_169\n      jumpi\n        /* \"contracts/1_KipuBankV2.sol\":7848:7871  Bank_AccountNotExists() */\n      mload(0x40)\n      0x566b044000000000000000000000000000000000000000000000000000000000\n      dup2\n      mstore\n      0x04\n      add\n      mload(0x40)\n      dup1\n      swap2\n      sub\n      swap1\n      revert\n        /* \"contracts/1_KipuBankV2.sol\":7807:7871  if (!accounts[msg.sender].exists) revert Bank_AccountNotExists() */\n    tag_169:\n        /* \"contracts/1_KipuBankV2.sol\":1877:1886  0.1 ether */\n      0x016345785d8a0000\n        /* \"contracts/1_KipuBankV2.sol\":7885:7891  amount */\n      dup2\n        /* \"contracts/1_KipuBankV2.sol\":7885:7913  amount > MAX_WITHDRAW_AMOUNT */\n      gt\n        /* \"contracts/1_KipuBankV2.sol\":7881:7976  if (amount > MAX_WITHDRAW_AMOUNT) revert Bank_ExceedWithdrawAmount(MAX_WITHDRAW_AMOUNT, amount) */\n      iszero\n      tag_170\n      jumpi\n        /* \"contracts/1_KipuBankV2.sol\":1877:1886  0.1 ether */\n      0x016345785d8a0000\n        /* \"contracts/1_KipuBankV2.sol\":7969:7975  amount */\n      dup2\n        /* \"contracts/1_KipuBankV2.sol\":7922:7976  Bank_ExceedWithdrawAmount(MAX_WITHDRAW_AMOUNT, amount) */\n      mload(0x40)\n      0xd859cbba00000000000000000000000000000000000000000000000000000000\n      dup2\n      mstore\n      0x04\n      add\n      tag_171\n      swap3\n      swap2\n      swap1\n      tag_172\n      jump\t// in\n    tag_171:\n      mload(0x40)\n      dup1\n      swap2\n      sub\n      swap1\n      revert\n        /* \"contracts/1_KipuBankV2.sol\":7881:7976  if (amount > MAX_WITHDRAW_AMOUNT) revert Bank_ExceedWithdrawAmount(MAX_WITHDRAW_AMOUNT, amount) */\n    tag_170:\n        /* \"contracts/1_KipuBankV2.sol\":7986:8005  uint256 userBalance */\n      0x00\n        /* \"contracts/1_KipuBankV2.sol\":8008:8016  balances */\n      0x03\n        /* \"contracts/1_KipuBankV2.sol\":8008:8028  balances[msg.sender] */\n      0x00\n        /* \"contracts/1_KipuBankV2.sol\":8017:8027  msg.sender */\n      caller\n        /* \"contracts/1_KipuBankV2.sol\":8008:8028  balances[msg.sender] */\n      0xffffffffffffffffffffffffffffffffffffffff\n      and\n      0xffffffffffffffffffffffffffffffffffffffff\n      and\n      dup2\n      mstore\n      0x20\n      add\n      swap1\n      dup2\n      mstore\n      0x20\n      add\n      0x00\n      keccak256\n        /* \"contracts/1_KipuBankV2.sol\":8008:8042  balances[msg.sender][NATIVE_TOKEN] */\n      0x00\n        /* \"contracts/1_KipuBankV2.sol\":1967:1968  0 */\n      dup1\n        /* \"contracts/1_KipuBankV2.sol\":8008:8042  balances[msg.sender][NATIVE_TOKEN] */\n      0xffffffffffffffffffffffffffffffffffffffff\n      and\n      0xffffffffffffffffffffffffffffffffffffffff\n      and\n      dup2\n      mstore\n      0x20\n      add\n      swap1\n      dup2\n      mstore\n      0x20\n      add\n      0x00\n      keccak256\n      sload\n        /* \"contracts/1_KipuBankV2.sol\":7986:8042  uint256 userBalance = balances[msg.sender][NATIVE_TOKEN] */\n      swap1\n      pop\n        /* \"contracts/1_KipuBankV2.sol\":8070:8076  amount */\n      dup2\n        /* \"contracts/1_KipuBankV2.sol\":8056:8067  userBalance */\n      dup2\n        /* \"contracts/1_KipuBankV2.sol\":8056:8076  userBalance < amount */\n      lt\n        /* \"contracts/1_KipuBankV2.sol\":8052:8128  if (userBalance < amount) revert Bank_InsufficientFunds(userBalance, amount) */\n      iszero\n      tag_173\n      jumpi\n        /* \"contracts/1_KipuBankV2.sol\":8108:8119  userBalance */\n      dup1\n        /* \"contracts/1_KipuBankV2.sol\":8121:8127  amount */\n      dup3\n        /* \"contracts/1_KipuBankV2.sol\":8085:8128  Bank_InsufficientFunds(userBalance, amount) */\n      mload(0x40)\n      0x70e6417b00000000000000000000000000000000000000000000000000000000\n      dup2\n      mstore\n      0x04\n      add\n      tag_174\n      swap3\n      swap2\n      swap1\n      tag_172\n      jump\t// in\n    tag_174:\n      mload(0x40)\n      dup1\n      swap2\n      sub\n      swap1\n      revert\n        /* \"contracts/1_KipuBankV2.sol\":8052:8128  if (userBalance < amount) revert Bank_InsufficientFunds(userBalance, amount) */\n    tag_173:\n        /* \"contracts/1_KipuBankV2.sol\":8177:8183  amount */\n      dup2\n        /* \"contracts/1_KipuBankV2.sol\":8139:8147  balances */\n      0x03\n        /* \"contracts/1_KipuBankV2.sol\":8139:8159  balances[msg.sender] */\n      0x00\n        /* \"contracts/1_KipuBankV2.sol\":8148:8158  msg.sender */\n      caller\n        /* \"contracts/1_KipuBankV2.sol\":8139:8159  balances[msg.sender] */\n      0xffffffffffffffffffffffffffffffffffffffff\n      and\n      0xffffffffffffffffffffffffffffffffffffffff\n      and\n      dup2\n      mstore\n      0x20\n      add\n      swap1\n      dup2\n      mstore\n      0x20\n      add\n      0x00\n      keccak256\n        /* \"contracts/1_KipuBankV2.sol\":8139:8173  balances[msg.sender][NATIVE_TOKEN] */\n      0x00\n        /* \"contracts/1_KipuBankV2.sol\":1967:1968  0 */\n      dup1\n        /* \"contracts/1_KipuBankV2.sol\":8139:8173  balances[msg.sender][NATIVE_TOKEN] */\n      0xffffffffffffffffffffffffffffffffffffffff\n      and\n      0xffffffffffffffffffffffffffffffffffffffff\n      and\n      dup2\n      mstore\n      0x20\n      add\n      swap1\n      dup2\n      mstore\n      0x20\n      add\n      0x00\n      keccak256\n      0x00\n        /* \"contracts/1_KipuBankV2.sol\":8139:8183  balances[msg.sender][NATIVE_TOKEN] -= amount */\n      dup3\n      dup3\n      sload\n      tag_175\n      swap2\n      swap1\n      tag_176\n      jump\t// in\n    tag_175:\n      swap3\n      pop\n      pop\n      dup2\n      swap1\n      sstore\n      pop\n        /* \"contracts/1_KipuBankV2.sol\":8215:8221  amount */\n      dup2\n        /* \"contracts/1_KipuBankV2.sol\":8193:8211  s_totalBankBalance */\n      0x07\n      0x00\n        /* \"contracts/1_KipuBankV2.sol\":8193:8221  s_totalBankBalance -= amount */\n      dup3\n      dup3\n      sload\n      tag_177\n      swap2\n      swap1\n      tag_176\n      jump\t// in\n    tag_177:\n      swap3\n      pop\n      pop\n      dup2\n      swap1\n      sstore\n      pop\n        /* \"contracts/1_KipuBankV2.sol\":8231:8248  s_withdrawCounter */\n      0x06\n      0x00\n        /* \"contracts/1_KipuBankV2.sol\":8231:8250  s_withdrawCounter++ */\n      dup2\n      sload\n      dup1\n      swap3\n      swap2\n      swap1\n      tag_178\n      swap1\n      tag_156\n      jump\t// in\n    tag_178:\n      swap2\n      swap1\n      pop\n      sstore\n      pop\n        /* \"contracts/1_KipuBankV2.sol\":8262:8274  bool success */\n      0x00\n        /* \"contracts/1_KipuBankV2.sol\":8287:8297  msg.sender */\n      caller\n        /* \"contracts/1_KipuBankV2.sol\":8279:8303  payable(msg.sender).call */\n      0xffffffffffffffffffffffffffffffffffffffff\n      and\n        /* \"contracts/1_KipuBankV2.sol\":8311:8317  amount */\n      dup4\n        /* \"contracts/1_KipuBankV2.sol\":8279:8322  payable(msg.sender).call{value: amount}(\"\") */\n      mload(0x40)\n      tag_179\n      swap1\n      tag_180\n      jump\t// in\n    tag_179:\n      0x00\n      mload(0x40)\n      dup1\n      dup4\n      sub\n      dup2\n      dup6\n      dup8\n      gas\n      call\n      swap3\n      pop\n      pop\n      pop\n      returndatasize\n      dup1\n      0x00\n      dup2\n      eq\n      tag_183\n      jumpi\n      mload(0x40)\n      swap2\n      pop\n      and(add(returndatasize, 0x3f), not(0x1f))\n      dup3\n      add\n      0x40\n      mstore\n      returndatasize\n      dup3\n      mstore\n      returndatasize\n      0x00\n      0x20\n      dup5\n      add\n      returndatacopy\n      jump(tag_182)\n    tag_183:\n      0x60\n      swap2\n      pop\n    tag_182:\n      pop\n        /* \"contracts/1_KipuBankV2.sol\":8261:8322  (bool success,) = payable(msg.sender).call{value: amount}(\"\") */\n      pop\n      swap1\n      pop\n        /* \"contracts/1_KipuBankV2.sol\":8337:8344  success */\n      dup1\n        /* \"contracts/1_KipuBankV2.sol\":8332:8373  if (!success) revert Bank_TransferError() */\n      tag_184\n      jumpi\n        /* \"contracts/1_KipuBankV2.sol\":8353:8373  Bank_TransferError() */\n      mload(0x40)\n      0xbd6bfd0a00000000000000000000000000000000000000000000000000000000\n      dup2\n      mstore\n      0x04\n      add\n      mload(0x40)\n      dup1\n      swap2\n      sub\n      swap1\n      revert\n        /* \"contracts/1_KipuBankV2.sol\":8332:8373  if (!success) revert Bank_TransferError() */\n    tag_184:\n        /* \"contracts/1_KipuBankV2.sol\":1967:1968  0 */\n      0x00\n        /* \"contracts/1_KipuBankV2.sol\":8388:8435  Bank_Withdraw(msg.sender, NATIVE_TOKEN, amount) */\n      0xffffffffffffffffffffffffffffffffffffffff\n      and\n        /* \"contracts/1_KipuBankV2.sol\":8402:8412  msg.sender */\n      caller\n        /* \"contracts/1_KipuBankV2.sol\":8388:8435  Bank_Withdraw(msg.sender, NATIVE_TOKEN, amount) */\n      0xffffffffffffffffffffffffffffffffffffffff\n      and\n      0xc8b1e2a9be32ce8c5fe81b6681739e4a0016bf546706482b49989431fe3d55ee\n        /* \"contracts/1_KipuBankV2.sol\":8428:8434  amount */\n      dup6\n        /* \"contracts/1_KipuBankV2.sol\":8388:8435  Bank_Withdraw(msg.sender, NATIVE_TOKEN, amount) */\n      mload(0x40)\n      tag_185\n      swap2\n      swap1\n      tag_53\n      jump\t// in\n    tag_185:\n      mload(0x40)\n      dup1\n      swap2\n      sub\n      swap1\n      log3\n        /* \"contracts/1_KipuBankV2.sol\":7797:8442  {... */\n      pop\n      pop\n        /* \"@openzeppelin/contracts/security/ReentrancyGuard.sol\":2303:2323  _nonReentrantAfter() */\n      tag_186\n        /* \"@openzeppelin/contracts/security/ReentrancyGuard.sol\":2303:2321  _nonReentrantAfter */\n      tag_187\n        /* \"@openzeppelin/contracts/security/ReentrancyGuard.sol\":2303:2323  _nonReentrantAfter() */\n      jump\t// in\n    tag_186:\n        /* \"contracts/1_KipuBankV2.sol\":7741:8442  function withdraw(uint256 amount) external nonReentrant {... */\n      pop\n      jump\t// out\n        /* \"@openzeppelin/contracts/access/AccessControl.sol\":4202:4338  function grantRole(bytes32 role, address account) public virtual onlyRole(getRoleAdmin(role)) {... */\n    tag_62:\n        /* \"@openzeppelin/contracts/access/AccessControl.sol\":4276:4294  getRoleAdmin(role) */\n      tag_188\n        /* \"@openzeppelin/contracts/access/AccessControl.sol\":4289:4293  role */\n      dup3\n        /* \"@openzeppelin/contracts/access/AccessControl.sol\":4276:4288  getRoleAdmin */\n      tag_44\n        /* \"@openzeppelin/contracts/access/AccessControl.sol\":4276:4294  getRoleAdmin(role) */\n      jump\t// in\n    tag_188:\n        /* \"@openzeppelin/contracts/access/AccessControl.sol\":2473:2489  _checkRole(role) */\n      tag_190\n        /* \"@openzeppelin/contracts/access/AccessControl.sol\":2484:2488  role */\n      dup2\n        /* \"@openzeppelin/contracts/access/AccessControl.sol\":2473:2483  _checkRole */\n      tag_191\n        /* \"@openzeppelin/contracts/access/AccessControl.sol\":2473:2489  _checkRole(role) */\n      jump\t// in\n    tag_190:\n        /* \"@openzeppelin/contracts/access/AccessControl.sol\":4306:4331  _grantRole(role, account) */\n      tag_193\n        /* \"@openzeppelin/contracts/access/AccessControl.sol\":4317:4321  role */\n      dup4\n        /* \"@openzeppelin/contracts/access/AccessControl.sol\":4323:4330  account */\n      dup4\n        /* \"@openzeppelin/contracts/access/AccessControl.sol\":4306:4316  _grantRole */\n      tag_194\n        /* \"@openzeppelin/contracts/access/AccessControl.sol\":4306:4331  _grantRole(role, account) */\n      jump\t// in\n    tag_193:\n      pop\n        /* \"@openzeppelin/contracts/access/AccessControl.sol\":4202:4338  function grantRole(bytes32 role, address account) public virtual onlyRole(getRoleAdmin(role)) {... */\n      pop\n      pop\n      pop\n      jump\t// out\n        /* \"contracts/1_KipuBankV2.sol\":1920:1969  address public constant NATIVE_TOKEN = address(0) */\n    tag_65:\n        /* \"contracts/1_KipuBankV2.sol\":1967:1968  0 */\n      0x00\n        /* \"contracts/1_KipuBankV2.sol\":1920:1969  address public constant NATIVE_TOKEN = address(0) */\n      dup2\n      jump\t// out\n        /* \"contracts/1_KipuBankV2.sol\":6989:7522  function depositToken(address token, uint256 amount) external {... */\n    tag_72:\n        /* \"contracts/1_KipuBankV2.sol\":7066:7074  accounts */\n      0x02\n        /* \"contracts/1_KipuBankV2.sol\":7066:7086  accounts[msg.sender] */\n      0x00\n        /* \"contracts/1_KipuBankV2.sol\":7075:7085  msg.sender */\n      caller\n        /* \"contracts/1_KipuBankV2.sol\":7066:7086  accounts[msg.sender] */\n      0xffffffffffffffffffffffffffffffffffffffff\n      and\n      0xffffffffffffffffffffffffffffffffffffffff\n      and\n      dup2\n      mstore\n      0x20\n      add\n      swap1\n      dup2\n      mstore\n      0x20\n      add\n      0x00\n      keccak256\n        /* \"contracts/1_KipuBankV2.sol\":7066:7093  accounts[msg.sender].exists */\n      0x03\n      add\n      0x00\n      swap1\n      sload\n      swap1\n      0x0100\n      exp\n      swap1\n      div\n      0xff\n      and\n        /* \"contracts/1_KipuBankV2.sol\":7061:7125  if (!accounts[msg.sender].exists) revert Bank_AccountNotExists() */\n      tag_196\n      jumpi\n        /* \"contracts/1_KipuBankV2.sol\":7102:7125  Bank_AccountNotExists() */\n      mload(0x40)\n      0x566b044000000000000000000000000000000000000000000000000000000000\n      dup2\n      mstore\n      0x04\n      add\n      mload(0x40)\n      dup1\n      swap2\n      sub\n      swap1\n      revert\n        /* \"contracts/1_KipuBankV2.sol\":7061:7125  if (!accounts[msg.sender].exists) revert Bank_AccountNotExists() */\n    tag_196:\n        /* \"contracts/1_KipuBankV2.sol\":7135:7154  TokenData memory td */\n      0x00\n        /* \"contracts/1_KipuBankV2.sol\":7157:7169  tokenCatalog */\n      0x04\n        /* \"contracts/1_KipuBankV2.sol\":7157:7176  tokenCatalog[token] */\n      0x00\n        /* \"contracts/1_KipuBankV2.sol\":7170:7175  token */\n      dup5\n        /* \"contracts/1_KipuBankV2.sol\":7157:7176  tokenCatalog[token] */\n      0xffffffffffffffffffffffffffffffffffffffff\n      and\n      0xffffffffffffffffffffffffffffffffffffffff\n      and\n      dup2\n      mstore\n      0x20\n      add\n      swap1\n      dup2\n      mstore\n      0x20\n      add\n      0x00\n      keccak256\n        /* \"contracts/1_KipuBankV2.sol\":7135:7176  TokenData memory td = tokenCatalog[token] */\n      mload(0x40)\n      dup1\n      0x60\n      add\n      0x40\n      mstore\n      swap1\n      dup2\n      0x00\n      dup3\n      add\n      0x00\n      swap1\n      sload\n      swap1\n      0x0100\n      exp\n      swap1\n      div\n      0xff\n      and\n      0x01\n      dup2\n      gt\n      iszero\n      tag_197\n      jumpi\n      tag_198\n      tag_199\n      jump\t// in\n    tag_198:\n    tag_197:\n      0x01\n      dup2\n      gt\n      iszero\n      tag_200\n      jumpi\n      tag_201\n      tag_199\n      jump\t// in\n    tag_201:\n    tag_200:\n      dup2\n      mstore\n      0x20\n      add\n      0x00\n      dup3\n      add\n      0x01\n      swap1\n      sload\n      swap1\n      0x0100\n      exp\n      swap1\n      div\n      0xff\n      and\n      0xff\n      and\n      0xff\n      and\n      dup2\n      mstore\n      0x20\n      add\n      0x00\n      dup3\n      add\n      0x02\n      swap1\n      sload\n      swap1\n      0x0100\n      exp\n      swap1\n      div\n      0xffffffffffffffffffffffffffffffffffffffff\n      and\n      0xffffffffffffffffffffffffffffffffffffffff\n      and\n      0xffffffffffffffffffffffffffffffffffffffff\n      and\n      dup2\n      mstore\n      pop\n      pop\n      swap1\n      pop\n        /* \"contracts/1_KipuBankV2.sol\":7202:7222  TokenState.Supported */\n      0x01\n        /* \"contracts/1_KipuBankV2.sol\":7190:7222  td.state != TokenState.Supported */\n      dup1\n      dup2\n      gt\n      iszero\n      tag_202\n      jumpi\n      tag_203\n      tag_199\n      jump\t// in\n    tag_203:\n    tag_202:\n        /* \"contracts/1_KipuBankV2.sol\":7190:7192  td */\n      dup2\n        /* \"contracts/1_KipuBankV2.sol\":7190:7198  td.state */\n      0x00\n      add\n      mload\n        /* \"contracts/1_KipuBankV2.sol\":7190:7222  td.state != TokenState.Supported */\n      0x01\n      dup2\n      gt\n      iszero\n      tag_204\n      jumpi\n      tag_205\n      tag_199\n      jump\t// in\n    tag_205:\n    tag_204:\n      eq\n        /* \"contracts/1_KipuBankV2.sol\":7186:7255  if (td.state != TokenState.Supported) revert Bank_TokenNotSupported() */\n      tag_206\n      jumpi\n        /* \"contracts/1_KipuBankV2.sol\":7231:7255  Bank_TokenNotSupported() */\n      mload(0x40)\n      0x5694952100000000000000000000000000000000000000000000000000000000\n      dup2\n      mstore\n      0x04\n      add\n      mload(0x40)\n      dup1\n      swap2\n      sub\n      swap1\n      revert\n        /* \"contracts/1_KipuBankV2.sol\":7186:7255  if (td.state != TokenState.Supported) revert Bank_TokenNotSupported() */\n    tag_206:\n        /* \"contracts/1_KipuBankV2.sol\":7279:7280  0 */\n      0x00\n        /* \"contracts/1_KipuBankV2.sol\":7269:7275  amount */\n      dup3\n        /* \"contracts/1_KipuBankV2.sol\":7269:7280  amount == 0 */\n      sub\n        /* \"contracts/1_KipuBankV2.sol\":7265:7310  if (amount == 0) revert Bank_InvalidDeposit() */\n      tag_207\n      jumpi\n        /* \"contracts/1_KipuBankV2.sol\":7289:7310  Bank_InvalidDeposit() */\n      mload(0x40)\n      0x7803844200000000000000000000000000000000000000000000000000000000\n      dup2\n      mstore\n      0x04\n      add\n      mload(0x40)\n      dup1\n      swap2\n      sub\n      swap1\n      revert\n        /* \"contracts/1_KipuBankV2.sol\":7265:7310  if (amount == 0) revert Bank_InvalidDeposit() */\n    tag_207:\n        /* \"contracts/1_KipuBankV2.sol\":7352:7358  amount */\n      dup2\n        /* \"contracts/1_KipuBankV2.sol\":7321:7329  balances */\n      0x03\n        /* \"contracts/1_KipuBankV2.sol\":7321:7341  balances[msg.sender] */\n      0x00\n        /* \"contracts/1_KipuBankV2.sol\":7330:7340  msg.sender */\n      caller\n        /* \"contracts/1_KipuBankV2.sol\":7321:7341  balances[msg.sender] */\n      0xffffffffffffffffffffffffffffffffffffffff\n      and\n      0xffffffffffffffffffffffffffffffffffffffff\n      and\n      dup2\n      mstore\n      0x20\n      add\n      swap1\n      dup2\n      mstore\n      0x20\n      add\n      0x00\n      keccak256\n        /* \"contracts/1_KipuBankV2.sol\":7321:7348  balances[msg.sender][token] */\n      0x00\n        /* \"contracts/1_KipuBankV2.sol\":7342:7347  token */\n      dup6\n        /* \"contracts/1_KipuBankV2.sol\":7321:7348  balances[msg.sender][token] */\n      0xffffffffffffffffffffffffffffffffffffffff\n      and\n      0xffffffffffffffffffffffffffffffffffffffff\n      and\n      dup2\n      mstore\n      0x20\n      add\n      swap1\n      dup2\n      mstore\n      0x20\n      add\n      0x00\n      keccak256\n      0x00\n        /* \"contracts/1_KipuBankV2.sol\":7321:7358  balances[msg.sender][token] += amount */\n      dup3\n      dup3\n      sload\n      tag_208\n      swap2\n      swap1\n      tag_147\n      jump\t// in\n    tag_208:\n      swap3\n      pop\n      pop\n      dup2\n      swap1\n      sstore\n      pop\n        /* \"contracts/1_KipuBankV2.sol\":7368:7384  s_depositCounter */\n      0x05\n      0x00\n        /* \"contracts/1_KipuBankV2.sol\":7368:7386  s_depositCounter++ */\n      dup2\n      sload\n      dup1\n      swap3\n      swap2\n      swap1\n      tag_209\n      swap1\n      tag_156\n      jump\t// in\n    tag_209:\n      swap2\n      swap1\n      pop\n      sstore\n      pop\n        /* \"contracts/1_KipuBankV2.sol\":7396:7461  IERC20(token).safeTransferFrom(msg.sender, address(this), amount) */\n      tag_210\n        /* \"contracts/1_KipuBankV2.sol\":7427:7437  msg.sender */\n      caller\n        /* \"contracts/1_KipuBankV2.sol\":7447:7451  this */\n      address\n        /* \"contracts/1_KipuBankV2.sol\":7454:7460  amount */\n      dup5\n        /* \"contracts/1_KipuBankV2.sol\":7403:7408  token */\n      dup7\n        /* \"contracts/1_KipuBankV2.sol\":7396:7426  IERC20(token).safeTransferFrom */\n      0xffffffffffffffffffffffffffffffffffffffff\n      and\n      tag_211\n      swap1\n        /* \"contracts/1_KipuBankV2.sol\":7396:7461  IERC20(token).safeTransferFrom(msg.sender, address(this), amount) */\n      swap4\n      swap3\n      swap2\n      swap1\n      0xffffffff\n      and\n      jump\t// in\n    tag_210:\n        /* \"contracts/1_KipuBankV2.sol\":7501:7506  token */\n      dup3\n        /* \"contracts/1_KipuBankV2.sol\":7476:7515  Bank_Deposit(msg.sender, token, amount) */\n      0xffffffffffffffffffffffffffffffffffffffff\n      and\n        /* \"contracts/1_KipuBankV2.sol\":7489:7499  msg.sender */\n      caller\n        /* \"contracts/1_KipuBankV2.sol\":7476:7515  Bank_Deposit(msg.sender, token, amount) */\n      0xffffffffffffffffffffffffffffffffffffffff\n      and\n      0x01ece9c685ac991a7352754de4bb96f7d41fdbc35b4bc423326539149879c008\n        /* \"contracts/1_KipuBankV2.sol\":7508:7514  amount */\n      dup5\n        /* \"contracts/1_KipuBankV2.sol\":7476:7515  Bank_Deposit(msg.sender, token, amount) */\n      mload(0x40)\n      tag_212\n      swap2\n      swap1\n      tag_53\n      jump\t// in\n    tag_212:\n      mload(0x40)\n      dup1\n      swap2\n      sub\n      swap1\n      log3\n        /* \"contracts/1_KipuBankV2.sol\":7051:7522  {... */\n      pop\n        /* \"contracts/1_KipuBankV2.sol\":6989:7522  function depositToken(address token, uint256 amount) external {... */\n      pop\n      pop\n      jump\t// out\n        /* \"@openzeppelin/contracts/access/AccessControl.sol\":5304:5549  function renounceRole(bytes32 role, address callerConfirmation) public virtual {... */\n    tag_76:\n        /* \"@openzeppelin/contracts/access/AccessControl.sol\":5419:5431  _msgSender() */\n      tag_214\n        /* \"@openzeppelin/contracts/access/AccessControl.sol\":5419:5429  _msgSender */\n      tag_215\n        /* \"@openzeppelin/contracts/access/AccessControl.sol\":5419:5431  _msgSender() */\n      jump\t// in\n    tag_214:\n        /* \"@openzeppelin/contracts/access/AccessControl.sol\":5397:5431  callerConfirmation != _msgSender() */\n      0xffffffffffffffffffffffffffffffffffffffff\n      and\n        /* \"@openzeppelin/contracts/access/AccessControl.sol\":5397:5415  callerConfirmation */\n      dup2\n        /* \"@openzeppelin/contracts/access/AccessControl.sol\":5397:5431  callerConfirmation != _msgSender() */\n      0xffffffffffffffffffffffffffffffffffffffff\n      and\n      eq\n        /* \"@openzeppelin/contracts/access/AccessControl.sol\":5393:5495  if (callerConfirmation != _msgSender()) {... */\n      tag_216\n      jumpi\n        /* \"@openzeppelin/contracts/access/AccessControl.sol\":5454:5484  AccessControlBadConfirmation() */\n      mload(0x40)\n      0x6697b23200000000000000000000000000000000000000000000000000000000\n      dup2\n      mstore\n      0x04\n      add\n      mload(0x40)\n      dup1\n      swap2\n      sub\n      swap1\n      revert\n        /* \"@openzeppelin/contracts/access/AccessControl.sol\":5393:5495  if (callerConfirmation != _msgSender()) {... */\n    tag_216:\n        /* \"@openzeppelin/contracts/access/AccessControl.sol\":5505:5542  _revokeRole(role, callerConfirmation) */\n      tag_217\n        /* \"@openzeppelin/contracts/access/AccessControl.sol\":5517:5521  role */\n      dup3\n        /* \"@openzeppelin/contracts/access/AccessControl.sol\":5523:5541  callerConfirmation */\n      dup3\n        /* \"@openzeppelin/contracts/access/AccessControl.sol\":5505:5516  _revokeRole */\n      tag_218\n        /* \"@openzeppelin/contracts/access/AccessControl.sol\":5505:5542  _revokeRole(role, callerConfirmation) */\n      jump\t// in\n    tag_217:\n      pop\n        /* \"@openzeppelin/contracts/access/AccessControl.sol\":5304:5549  function renounceRole(bytes32 role, address callerConfirmation) public virtual {... */\n      pop\n      pop\n      jump\t// out\n        /* \"contracts/1_KipuBankV2.sol\":1831:1886  uint256 public constant MAX_WITHDRAW_AMOUNT = 0.1 ether */\n    tag_79:\n        /* \"contracts/1_KipuBankV2.sol\":1877:1886  0.1 ether */\n      0x016345785d8a0000\n        /* \"contracts/1_KipuBankV2.sol\":1831:1886  uint256 public constant MAX_WITHDRAW_AMOUNT = 0.1 ether */\n      dup2\n      jump\t// out\n        /* \"contracts/1_KipuBankV2.sol\":10344:10444  function getWithdrawCount() external view returns(uint256) {... */\n    tag_83:\n        /* \"contracts/1_KipuBankV2.sol\":10394:10401  uint256 */\n      0x00\n        /* \"contracts/1_KipuBankV2.sol\":10420:10437  s_withdrawCounter */\n      sload(0x06)\n        /* \"contracts/1_KipuBankV2.sol\":10413:10437  return s_withdrawCounter */\n      swap1\n      pop\n        /* \"contracts/1_KipuBankV2.sol\":10344:10444  function getWithdrawCount() external view returns(uint256) {... */\n      swap1\n      jump\t// out\n        /* \"contracts/1_KipuBankV2.sol\":5046:5463  function setToken(... */\n    tag_89:\n        /* \"@openzeppelin/contracts/access/AccessControl.sol\":2241:2245  0x00 */\n      0x00\n        /* \"contracts/1_KipuBankV2.sol\":827:845  DEFAULT_ADMIN_ROLE */\n      dup1\n      shl\n        /* \"@openzeppelin/contracts/access/AccessControl.sol\":2473:2489  _checkRole(role) */\n      tag_221\n        /* \"@openzeppelin/contracts/access/AccessControl.sol\":2484:2488  role */\n      dup2\n        /* \"@openzeppelin/contracts/access/AccessControl.sol\":2473:2483  _checkRole */\n      tag_191\n        /* \"@openzeppelin/contracts/access/AccessControl.sol\":2473:2489  _checkRole(role) */\n      jump\t// in\n    tag_221:\n        /* \"contracts/1_KipuBankV2.sol\":5230:5395  TokenData({... */\n      mload(0x40)\n      dup1\n      0x60\n      add\n      0x40\n      mstore\n      dup1\n        /* \"contracts/1_KipuBankV2.sol\":5261:5270  supported */\n      dup4\n        /* \"contracts/1_KipuBankV2.sol\":5261:5318  supported ? TokenState.Supported : TokenState.Unsupported */\n      tag_223\n      jumpi\n        /* \"contracts/1_KipuBankV2.sol\":5296:5318  TokenState.Unsupported */\n      0x00\n        /* \"contracts/1_KipuBankV2.sol\":5261:5318  supported ? TokenState.Supported : TokenState.Unsupported */\n      jump(tag_224)\n    tag_223:\n        /* \"contracts/1_KipuBankV2.sol\":5273:5293  TokenState.Supported */\n      0x01\n        /* \"contracts/1_KipuBankV2.sol\":5261:5318  supported ? TokenState.Supported : TokenState.Unsupported */\n    tag_224:\n        /* \"contracts/1_KipuBankV2.sol\":5230:5395  TokenData({... */\n      0x01\n      dup2\n      gt\n      iszero\n      tag_225\n      jumpi\n      tag_226\n      tag_199\n      jump\t// in\n    tag_226:\n    tag_225:\n      dup2\n      mstore\n      0x20\n      add\n        /* \"contracts/1_KipuBankV2.sol\":5342:5350  decimals */\n      dup6\n        /* \"contracts/1_KipuBankV2.sol\":5230:5395  TokenData({... */\n      0xff\n      and\n      dup2\n      mstore\n      0x20\n      add\n        /* \"contracts/1_KipuBankV2.sol\":5375:5384  priceFeed */\n      dup5\n        /* \"contracts/1_KipuBankV2.sol\":5230:5395  TokenData({... */\n      0xffffffffffffffffffffffffffffffffffffffff\n      and\n      dup2\n      mstore\n      pop\n        /* \"contracts/1_KipuBankV2.sol\":5208:5220  tokenCatalog */\n      0x04\n        /* \"contracts/1_KipuBankV2.sol\":5208:5227  tokenCatalog[token] */\n      0x00\n        /* \"contracts/1_KipuBankV2.sol\":5221:5226  token */\n      dup8\n        /* \"contracts/1_KipuBankV2.sol\":5208:5227  tokenCatalog[token] */\n      0xffffffffffffffffffffffffffffffffffffffff\n      and\n      0xffffffffffffffffffffffffffffffffffffffff\n      and\n      dup2\n      mstore\n      0x20\n      add\n      swap1\n      dup2\n      mstore\n      0x20\n      add\n      0x00\n      keccak256\n        /* \"contracts/1_KipuBankV2.sol\":5208:5395  tokenCatalog[token] = TokenData({... */\n      0x00\n      dup3\n      add\n      mload\n      dup2\n      0x00\n      add\n      exp(0x0100, 0x00)\n      dup2\n      sload\n      dup2\n      0xff\n      mul\n      not\n      and\n      swap1\n      dup4\n      0x01\n      dup2\n      gt\n      iszero\n      tag_227\n      jumpi\n      tag_228\n      tag_199\n      jump\t// in\n    tag_228:\n    tag_227:\n      mul\n      or\n      swap1\n      sstore\n      pop\n      0x20\n      dup3\n      add\n      mload\n      dup2\n      0x00\n      add\n      exp(0x0100, 0x01)\n      dup2\n      sload\n      dup2\n      0xff\n      mul\n      not\n      and\n      swap1\n      dup4\n      0xff\n      and\n      mul\n      or\n      swap1\n      sstore\n      pop\n      0x40\n      dup3\n      add\n      mload\n      dup2\n      0x00\n      add\n      exp(0x0100, 0x02)\n      dup2\n      sload\n      dup2\n      0xffffffffffffffffffffffffffffffffffffffff\n      mul\n      not\n      and\n      swap1\n      dup4\n      0xffffffffffffffffffffffffffffffffffffffff\n      and\n      mul\n      or\n      swap1\n      sstore\n      pop\n      swap1\n      pop\n      pop\n        /* \"contracts/1_KipuBankV2.sol\":5423:5428  token */\n      dup5\n        /* \"contracts/1_KipuBankV2.sol\":5410:5456  TokenUpdated(token, tokenCatalog[token].state) */\n      0xffffffffffffffffffffffffffffffffffffffff\n      and\n      0x243c26e9467b186d248bf33b7722de99a559aceda24c02928c2636071be4d992\n        /* \"contracts/1_KipuBankV2.sol\":5430:5442  tokenCatalog */\n      0x04\n        /* \"contracts/1_KipuBankV2.sol\":5430:5449  tokenCatalog[token] */\n      0x00\n        /* \"contracts/1_KipuBankV2.sol\":5443:5448  token */\n      dup9\n        /* \"contracts/1_KipuBankV2.sol\":5430:5449  tokenCatalog[token] */\n      0xffffffffffffffffffffffffffffffffffffffff\n      and\n      0xffffffffffffffffffffffffffffffffffffffff\n      and\n      dup2\n      mstore\n      0x20\n      add\n      swap1\n      dup2\n      mstore\n      0x20\n      add\n      0x00\n      keccak256\n        /* \"contracts/1_KipuBankV2.sol\":5430:5455  tokenCatalog[token].state */\n      0x00\n      add\n      0x00\n      swap1\n      sload\n      swap1\n      0x0100\n      exp\n      swap1\n      div\n      0xff\n      and\n        /* \"contracts/1_KipuBankV2.sol\":5410:5456  TokenUpdated(token, tokenCatalog[token].state) */\n      mload(0x40)\n      tag_229\n      swap2\n      swap1\n      tag_230\n      jump\t// in\n    tag_229:\n      mload(0x40)\n      dup1\n      swap2\n      sub\n      swap1\n      log2\n        /* \"contracts/1_KipuBankV2.sol\":5046:5463  function setToken(... */\n      pop\n      pop\n      pop\n      pop\n      pop\n      jump\t// out\n        /* \"contracts/1_KipuBankV2.sol\":790:845  bytes32 public constant ADMIN_ROLE = DEFAULT_ADMIN_ROLE */\n    tag_92:\n        /* \"@openzeppelin/contracts/access/AccessControl.sol\":2241:2245  0x00 */\n      0x00\n        /* \"contracts/1_KipuBankV2.sol\":827:845  DEFAULT_ADMIN_ROLE */\n      dup1\n      shl\n        /* \"contracts/1_KipuBankV2.sol\":790:845  bytes32 public constant ADMIN_ROLE = DEFAULT_ADMIN_ROLE */\n      dup2\n      jump\t// out\n        /* \"@openzeppelin/contracts/access/AccessControl.sol\":2830:2966  function hasRole(bytes32 role, address account) public view virtual returns (bool) {... */\n    tag_97:\n        /* \"@openzeppelin/contracts/access/AccessControl.sol\":2907:2911  bool */\n      0x00\n        /* \"@openzeppelin/contracts/access/AccessControl.sol\":2930:2936  _roles */\n      dup1\n        /* \"@openzeppelin/contracts/access/AccessControl.sol\":2930:2942  _roles[role] */\n      0x00\n        /* \"@openzeppelin/contracts/access/AccessControl.sol\":2937:2941  role */\n      dup5\n        /* \"@openzeppelin/contracts/access/AccessControl.sol\":2930:2942  _roles[role] */\n      dup2\n      mstore\n      0x20\n      add\n      swap1\n      dup2\n      mstore\n      0x20\n      add\n      0x00\n      keccak256\n        /* \"@openzeppelin/contracts/access/AccessControl.sol\":2930:2950  _roles[role].hasRole */\n      0x00\n      add\n        /* \"@openzeppelin/contracts/access/AccessControl.sol\":2930:2959  _roles[role].hasRole[account] */\n      0x00\n        /* \"@openzeppelin/contracts/access/AccessControl.sol\":2951:2958  account */\n      dup4\n        /* \"@openzeppelin/contracts/access/AccessControl.sol\":2930:2959  _roles[role].hasRole[account] */\n      0xffffffffffffffffffffffffffffffffffffffff\n      and\n      0xffffffffffffffffffffffffffffffffffffffff\n      and\n      dup2\n      mstore\n      0x20\n      add\n      swap1\n      dup2\n      mstore\n      0x20\n      add\n      0x00\n      keccak256\n      0x00\n      swap1\n      sload\n      swap1\n      0x0100\n      exp\n      swap1\n      div\n      0xff\n      and\n        /* \"@openzeppelin/contracts/access/AccessControl.sol\":2923:2959  return _roles[role].hasRole[account] */\n      swap1\n      pop\n        /* \"@openzeppelin/contracts/access/AccessControl.sol\":2830:2966  function hasRole(bytes32 role, address account) public view virtual returns (bool) {... */\n      swap3\n      swap2\n      pop\n      pop\n      jump\t// out\n        /* \"contracts/1_KipuBankV2.sol\":10176:10274  function getDepositCount() external view returns(uint256) {... */\n    tag_101:\n        /* \"contracts/1_KipuBankV2.sol\":10225:10232  uint256 */\n      0x00\n        /* \"contracts/1_KipuBankV2.sol\":10251:10267  s_depositCounter */\n      sload(0x05)\n        /* \"contracts/1_KipuBankV2.sol\":10244:10267  return s_depositCounter */\n      swap1\n      pop\n        /* \"contracts/1_KipuBankV2.sol\":10176:10274  function getDepositCount() external view returns(uint256) {... */\n      swap1\n      jump\t// out\n        /* \"contracts/1_KipuBankV2.sol\":8504:9230  function withdrawToken(address token, uint256 amount) external nonReentrant {... */\n    tag_106:\n        /* \"@openzeppelin/contracts/security/ReentrancyGuard.sol\":2261:2282  _nonReentrantBefore() */\n      tag_234\n        /* \"@openzeppelin/contracts/security/ReentrancyGuard.sol\":2261:2280  _nonReentrantBefore */\n      tag_167\n        /* \"@openzeppelin/contracts/security/ReentrancyGuard.sol\":2261:2282  _nonReentrantBefore() */\n      jump\t// in\n    tag_234:\n        /* \"contracts/1_KipuBankV2.sol\":8595:8603  accounts */\n      0x02\n        /* \"contracts/1_KipuBankV2.sol\":8595:8615  accounts[msg.sender] */\n      0x00\n        /* \"contracts/1_KipuBankV2.sol\":8604:8614  msg.sender */\n      caller\n        /* \"contracts/1_KipuBankV2.sol\":8595:8615  accounts[msg.sender] */\n      0xffffffffffffffffffffffffffffffffffffffff\n      and\n      0xffffffffffffffffffffffffffffffffffffffff\n      and\n      dup2\n      mstore\n      0x20\n      add\n      swap1\n      dup2\n      mstore\n      0x20\n      add\n      0x00\n      keccak256\n        /* \"contracts/1_KipuBankV2.sol\":8595:8622  accounts[msg.sender].exists */\n      0x03\n      add\n      0x00\n      swap1\n      sload\n      swap1\n      0x0100\n      exp\n      swap1\n      div\n      0xff\n      and\n        /* \"contracts/1_KipuBankV2.sol\":8590:8654  if (!accounts[msg.sender].exists) revert Bank_AccountNotExists() */\n      tag_236\n      jumpi\n        /* \"contracts/1_KipuBankV2.sol\":8631:8654  Bank_AccountNotExists() */\n      mload(0x40)\n      0x566b044000000000000000000000000000000000000000000000000000000000\n      dup2\n      mstore\n      0x04\n      add\n      mload(0x40)\n      dup1\n      swap2\n      sub\n      swap1\n      revert\n        /* \"contracts/1_KipuBankV2.sol\":8590:8654  if (!accounts[msg.sender].exists) revert Bank_AccountNotExists() */\n    tag_236:\n        /* \"contracts/1_KipuBankV2.sol\":8664:8683  TokenData memory td */\n      0x00\n        /* \"contracts/1_KipuBankV2.sol\":8686:8698  tokenCatalog */\n      0x04\n        /* \"contracts/1_KipuBankV2.sol\":8686:8705  tokenCatalog[token] */\n      0x00\n        /* \"contracts/1_KipuBankV2.sol\":8699:8704  token */\n      dup5\n        /* \"contracts/1_KipuBankV2.sol\":8686:8705  tokenCatalog[token] */\n      0xffffffffffffffffffffffffffffffffffffffff\n      and\n      0xffffffffffffffffffffffffffffffffffffffff\n      and\n      dup2\n      mstore\n      0x20\n      add\n      swap1\n      dup2\n      mstore\n      0x20\n      add\n      0x00\n      keccak256\n        /* \"contracts/1_KipuBankV2.sol\":8664:8705  TokenData memory td = tokenCatalog[token] */\n      mload(0x40)\n      dup1\n      0x60\n      add\n      0x40\n      mstore\n      swap1\n      dup2\n      0x00\n      dup3\n      add\n      0x00\n      swap1\n      sload\n      swap1\n      0x0100\n      exp\n      swap1\n      div\n      0xff\n      and\n      0x01\n      dup2\n      gt\n      iszero\n      tag_237\n      jumpi\n      tag_238\n      tag_199\n      jump\t// in\n    tag_238:\n    tag_237:\n      0x01\n      dup2\n      gt\n      iszero\n      tag_239\n      jumpi\n      tag_240\n      tag_199\n      jump\t// in\n    tag_240:\n    tag_239:\n      dup2\n      mstore\n      0x20\n      add\n      0x00\n      dup3\n      add\n      0x01\n      swap1\n      sload\n      swap1\n      0x0100\n      exp\n      swap1\n      div\n      0xff\n      and\n      0xff\n      and\n      0xff\n      and\n      dup2\n      mstore\n      0x20\n      add\n      0x00\n      dup3\n      add\n      0x02\n      swap1\n      sload\n      swap1\n      0x0100\n      exp\n      swap1\n      div\n      0xffffffffffffffffffffffffffffffffffffffff\n      and\n      0xffffffffffffffffffffffffffffffffffffffff\n      and\n      0xffffffffffffffffffffffffffffffffffffffff\n      and\n      dup2\n      mstore\n      pop\n      pop\n      swap1\n      pop\n        /* \"contracts/1_KipuBankV2.sol\":8731:8751  TokenState.Supported */\n      0x01\n        /* \"contracts/1_KipuBankV2.sol\":8719:8751  td.state != TokenState.Supported */\n      dup1\n      dup2\n      gt\n      iszero\n      tag_241\n      jumpi\n      tag_242\n      tag_199\n      jump\t// in\n    tag_242:\n    tag_241:\n        /* \"contracts/1_KipuBankV2.sol\":8719:8721  td */\n      dup2\n        /* \"contracts/1_KipuBankV2.sol\":8719:8727  td.state */\n      0x00\n      add\n      mload\n        /* \"contracts/1_KipuBankV2.sol\":8719:8751  td.state != TokenState.Supported */\n      0x01\n      dup2\n      gt\n      iszero\n      tag_243\n      jumpi\n      tag_244\n      tag_199\n      jump\t// in\n    tag_244:\n    tag_243:\n      eq\n        /* \"contracts/1_KipuBankV2.sol\":8715:8784  if (td.state != TokenState.Supported) revert Bank_TokenNotSupported() */\n      tag_245\n      jumpi\n        /* \"contracts/1_KipuBankV2.sol\":8760:8784  Bank_TokenNotSupported() */\n      mload(0x40)\n      0x5694952100000000000000000000000000000000000000000000000000000000\n      dup2\n      mstore\n      0x04\n      add\n      mload(0x40)\n      dup1\n      swap2\n      sub\n      swap1\n      revert\n        /* \"contracts/1_KipuBankV2.sol\":8715:8784  if (td.state != TokenState.Supported) revert Bank_TokenNotSupported() */\n    tag_245:\n        /* \"contracts/1_KipuBankV2.sol\":1877:1886  0.1 ether */\n      0x016345785d8a0000\n        /* \"contracts/1_KipuBankV2.sol\":8798:8804  amount */\n      dup3\n        /* \"contracts/1_KipuBankV2.sol\":8798:8826  amount > MAX_WITHDRAW_AMOUNT */\n      gt\n        /* \"contracts/1_KipuBankV2.sol\":8794:8889  if (amount > MAX_WITHDRAW_AMOUNT) revert Bank_ExceedWithdrawAmount(MAX_WITHDRAW_AMOUNT, amount) */\n      iszero\n      tag_246\n      jumpi\n        /* \"contracts/1_KipuBankV2.sol\":1877:1886  0.1 ether */\n      0x016345785d8a0000\n        /* \"contracts/1_KipuBankV2.sol\":8882:8888  amount */\n      dup3\n        /* \"contracts/1_KipuBankV2.sol\":8835:8889  Bank_ExceedWithdrawAmount(MAX_WITHDRAW_AMOUNT, amount) */\n      mload(0x40)\n      0xd859cbba00000000000000000000000000000000000000000000000000000000\n      dup2\n      mstore\n      0x04\n      add\n      tag_247\n      swap3\n      swap2\n      swap1\n      tag_172\n      jump\t// in\n    tag_247:\n      mload(0x40)\n      dup1\n      swap2\n      sub\n      swap1\n      revert\n        /* \"contracts/1_KipuBankV2.sol\":8794:8889  if (amount > MAX_WITHDRAW_AMOUNT) revert Bank_ExceedWithdrawAmount(MAX_WITHDRAW_AMOUNT, amount) */\n    tag_246:\n        /* \"contracts/1_KipuBankV2.sol\":8900:8919  uint256 userBalance */\n      0x00\n        /* \"contracts/1_KipuBankV2.sol\":8922:8930  balances */\n      0x03\n        /* \"contracts/1_KipuBankV2.sol\":8922:8942  balances[msg.sender] */\n      0x00\n        /* \"contracts/1_KipuBankV2.sol\":8931:8941  msg.sender */\n      caller\n        /* \"contracts/1_KipuBankV2.sol\":8922:8942  balances[msg.sender] */\n      0xffffffffffffffffffffffffffffffffffffffff\n      and\n      0xffffffffffffffffffffffffffffffffffffffff\n      and\n      dup2\n      mstore\n      0x20\n      add\n      swap1\n      dup2\n      mstore\n      0x20\n      add\n      0x00\n      keccak256\n        /* \"contracts/1_KipuBankV2.sol\":8922:8949  balances[msg.sender][token] */\n      0x00\n        /* \"contracts/1_KipuBankV2.sol\":8943:8948  token */\n      dup6\n        /* \"contracts/1_KipuBankV2.sol\":8922:8949  balances[msg.sender][token] */\n      0xffffffffffffffffffffffffffffffffffffffff\n      and\n      0xffffffffffffffffffffffffffffffffffffffff\n      and\n      dup2\n      mstore\n      0x20\n      add\n      swap1\n      dup2\n      mstore\n      0x20\n      add\n      0x00\n      keccak256\n      sload\n        /* \"contracts/1_KipuBankV2.sol\":8900:8949  uint256 userBalance = balances[msg.sender][token] */\n      swap1\n      pop\n        /* \"contracts/1_KipuBankV2.sol\":8977:8983  amount */\n      dup3\n        /* \"contracts/1_KipuBankV2.sol\":8963:8974  userBalance */\n      dup2\n        /* \"contracts/1_KipuBankV2.sol\":8963:8983  userBalance < amount */\n      lt\n        /* \"contracts/1_KipuBankV2.sol\":8959:9035  if (userBalance < amount) revert Bank_InsufficientFunds(userBalance, amount) */\n      iszero\n      tag_248\n      jumpi\n        /* \"contracts/1_KipuBankV2.sol\":9015:9026  userBalance */\n      dup1\n        /* \"contracts/1_KipuBankV2.sol\":9028:9034  amount */\n      dup4\n        /* \"contracts/1_KipuBankV2.sol\":8992:9035  Bank_InsufficientFunds(userBalance, amount) */\n      mload(0x40)\n      0x70e6417b00000000000000000000000000000000000000000000000000000000\n      dup2\n      mstore\n      0x04\n      add\n      tag_249\n      swap3\n      swap2\n      swap1\n      tag_172\n      jump\t// in\n    tag_249:\n      mload(0x40)\n      dup1\n      swap2\n      sub\n      swap1\n      revert\n        /* \"contracts/1_KipuBankV2.sol\":8959:9035  if (userBalance < amount) revert Bank_InsufficientFunds(userBalance, amount) */\n    tag_248:\n        /* \"contracts/1_KipuBankV2.sol\":9077:9083  amount */\n      dup3\n        /* \"contracts/1_KipuBankV2.sol\":9046:9054  balances */\n      0x03\n        /* \"contracts/1_KipuBankV2.sol\":9046:9066  balances[msg.sender] */\n      0x00\n        /* \"contracts/1_KipuBankV2.sol\":9055:9065  msg.sender */\n      caller\n        /* \"contracts/1_KipuBankV2.sol\":9046:9066  balances[msg.sender] */\n      0xffffffffffffffffffffffffffffffffffffffff\n      and\n      0xffffffffffffffffffffffffffffffffffffffff\n      and\n      dup2\n      mstore\n      0x20\n      add\n      swap1\n      dup2\n      mstore\n      0x20\n      add\n      0x00\n      keccak256\n        /* \"contracts/1_KipuBankV2.sol\":9046:9073  balances[msg.sender][token] */\n      0x00\n        /* \"contracts/1_KipuBankV2.sol\":9067:9072  token */\n      dup7\n        /* \"contracts/1_KipuBankV2.sol\":9046:9073  balances[msg.sender][token] */\n      0xffffffffffffffffffffffffffffffffffffffff\n      and\n      0xffffffffffffffffffffffffffffffffffffffff\n      and\n      dup2\n      mstore\n      0x20\n      add\n      swap1\n      dup2\n      mstore\n      0x20\n      add\n      0x00\n      keccak256\n      0x00\n        /* \"contracts/1_KipuBankV2.sol\":9046:9083  balances[msg.sender][token] -= amount */\n      dup3\n      dup3\n      sload\n      tag_250\n      swap2\n      swap1\n      tag_176\n      jump\t// in\n    tag_250:\n      swap3\n      pop\n      pop\n      dup2\n      swap1\n      sstore\n      pop\n        /* \"contracts/1_KipuBankV2.sol\":9093:9110  s_withdrawCounter */\n      0x06\n      0x00\n        /* \"contracts/1_KipuBankV2.sol\":9093:9112  s_withdrawCounter++ */\n      dup2\n      sload\n      dup1\n      swap3\n      swap2\n      swap1\n      tag_251\n      swap1\n      tag_156\n      jump\t// in\n    tag_251:\n      swap2\n      swap1\n      pop\n      sstore\n      pop\n        /* \"contracts/1_KipuBankV2.sol\":9122:9168  IERC20(token).safeTransfer(msg.sender, amount) */\n      tag_252\n        /* \"contracts/1_KipuBankV2.sol\":9149:9159  msg.sender */\n      caller\n        /* \"contracts/1_KipuBankV2.sol\":9161:9167  amount */\n      dup5\n        /* \"contracts/1_KipuBankV2.sol\":9129:9134  token */\n      dup7\n        /* \"contracts/1_KipuBankV2.sol\":9122:9148  IERC20(token).safeTransfer */\n      0xffffffffffffffffffffffffffffffffffffffff\n      and\n      tag_253\n      swap1\n        /* \"contracts/1_KipuBankV2.sol\":9122:9168  IERC20(token).safeTransfer(msg.sender, amount) */\n      swap3\n      swap2\n      swap1\n      0xffffffff\n      and\n      jump\t// in\n    tag_252:\n        /* \"contracts/1_KipuBankV2.sol\":9209:9214  token */\n      dup4\n        /* \"contracts/1_KipuBankV2.sol\":9183:9223  Bank_Withdraw(msg.sender, token, amount) */\n      0xffffffffffffffffffffffffffffffffffffffff\n      and\n        /* \"contracts/1_KipuBankV2.sol\":9197:9207  msg.sender */\n      caller\n        /* \"contracts/1_KipuBankV2.sol\":9183:9223  Bank_Withdraw(msg.sender, token, amount) */\n      0xffffffffffffffffffffffffffffffffffffffff\n      and\n      0xc8b1e2a9be32ce8c5fe81b6681739e4a0016bf546706482b49989431fe3d55ee\n        /* \"contracts/1_KipuBankV2.sol\":9216:9222  amount */\n      dup6\n        /* \"contracts/1_KipuBankV2.sol\":9183:9223  Bank_Withdraw(msg.sender, token, amount) */\n      mload(0x40)\n      tag_254\n      swap2\n      swap1\n      tag_53\n      jump\t// in\n    tag_254:\n      mload(0x40)\n      dup1\n      swap2\n      sub\n      swap1\n      log3\n        /* \"contracts/1_KipuBankV2.sol\":8580:9230  {... */\n      pop\n      pop\n        /* \"@openzeppelin/contracts/security/ReentrancyGuard.sol\":2303:2323  _nonReentrantAfter() */\n      tag_255\n        /* \"@openzeppelin/contracts/security/ReentrancyGuard.sol\":2303:2321  _nonReentrantAfter */\n      tag_187\n        /* \"@openzeppelin/contracts/security/ReentrancyGuard.sol\":2303:2323  _nonReentrantAfter() */\n      jump\t// in\n    tag_255:\n        /* \"contracts/1_KipuBankV2.sol\":8504:9230  function withdrawToken(address token, uint256 amount) external nonReentrant {... */\n      pop\n      pop\n      jump\t// out\n        /* \"@openzeppelin/contracts/access/AccessControl.sol\":2196:2245  bytes32 public constant DEFAULT_ADMIN_ROLE = 0x00 */\n    tag_109:\n        /* \"@openzeppelin/contracts/access/AccessControl.sol\":2241:2245  0x00 */\n      0x00\n        /* \"@openzeppelin/contracts/access/AccessControl.sol\":2196:2245  bytes32 public constant DEFAULT_ADMIN_ROLE = 0x00 */\n      dup1\n      shl\n      dup2\n      jump\t// out\n        /* \"contracts/1_KipuBankV2.sol\":2086:2139  AggregatorV3Interface public immutable i_ethPriceFeed */\n    tag_113:\n      immutable(\"0x15f577349cb01f168943032d44e6ff6a22a9210e99c5a2f5c4ba968be0e1fe66\")\n      dup2\n      jump\t// out\n        /* \"contracts/1_KipuBankV2.sol\":6483:6934  function deposit() external payable {... */\n    tag_117:\n        /* \"contracts/1_KipuBankV2.sol\":6534:6542  accounts */\n      0x02\n        /* \"contracts/1_KipuBankV2.sol\":6534:6554  accounts[msg.sender] */\n      0x00\n        /* \"contracts/1_KipuBankV2.sol\":6543:6553  msg.sender */\n      caller\n        /* \"contracts/1_KipuBankV2.sol\":6534:6554  accounts[msg.sender] */\n      0xffffffffffffffffffffffffffffffffffffffff\n      and\n      0xffffffffffffffffffffffffffffffffffffffff\n      and\n      dup2\n      mstore\n      0x20\n      add\n      swap1\n      dup2\n      mstore\n      0x20\n      add\n      0x00\n      keccak256\n        /* \"contracts/1_KipuBankV2.sol\":6534:6561  accounts[msg.sender].exists */\n      0x03\n      add\n      0x00\n      swap1\n      sload\n      swap1\n      0x0100\n      exp\n      swap1\n      div\n      0xff\n      and\n        /* \"contracts/1_KipuBankV2.sol\":6529:6593  if (!accounts[msg.sender].exists) revert Bank_AccountNotExists() */\n      tag_257\n      jumpi\n        /* \"contracts/1_KipuBankV2.sol\":6570:6593  Bank_AccountNotExists() */\n      mload(0x40)\n      0x566b044000000000000000000000000000000000000000000000000000000000\n      dup2\n      mstore\n      0x04\n      add\n      mload(0x40)\n      dup1\n      swap2\n      sub\n      swap1\n      revert\n        /* \"contracts/1_KipuBankV2.sol\":6529:6593  if (!accounts[msg.sender].exists) revert Bank_AccountNotExists() */\n    tag_257:\n        /* \"contracts/1_KipuBankV2.sol\":6620:6621  0 */\n      0x00\n        /* \"contracts/1_KipuBankV2.sol\":6607:6616  msg.value */\n      callvalue\n        /* \"contracts/1_KipuBankV2.sol\":6607:6621  msg.value == 0 */\n      sub\n        /* \"contracts/1_KipuBankV2.sol\":6603:6651  if (msg.value == 0) revert Bank_InvalidDeposit() */\n      tag_258\n      jumpi\n        /* \"contracts/1_KipuBankV2.sol\":6630:6651  Bank_InvalidDeposit() */\n      mload(0x40)\n      0x7803844200000000000000000000000000000000000000000000000000000000\n      dup2\n      mstore\n      0x04\n      add\n      mload(0x40)\n      dup1\n      swap2\n      sub\n      swap1\n      revert\n        /* \"contracts/1_KipuBankV2.sol\":6603:6651  if (msg.value == 0) revert Bank_InvalidDeposit() */\n    tag_258:\n        /* \"contracts/1_KipuBankV2.sol\":6698:6707  i_bankCap */\n      immutable(\"0x46612c86431bf839553975c6871c96460d6b955d2f53301921ef55c1ad868ef7\")\n        /* \"contracts/1_KipuBankV2.sol\":6686:6695  msg.value */\n      callvalue\n        /* \"contracts/1_KipuBankV2.sol\":6665:6683  s_totalBankBalance */\n      sload(0x07)\n        /* \"contracts/1_KipuBankV2.sol\":6665:6695  s_totalBankBalance + msg.value */\n      tag_259\n      swap2\n      swap1\n      tag_147\n      jump\t// in\n    tag_259:\n        /* \"contracts/1_KipuBankV2.sol\":6665:6707  s_totalBankBalance + msg.value > i_bankCap */\n      gt\n        /* \"contracts/1_KipuBankV2.sol\":6661:6736  if (s_totalBankBalance + msg.value > i_bankCap) revert Bank_ExceedBankCap() */\n      iszero\n      tag_260\n      jumpi\n        /* \"contracts/1_KipuBankV2.sol\":6716:6736  Bank_ExceedBankCap() */\n      mload(0x40)\n      0x97651d1e00000000000000000000000000000000000000000000000000000000\n      dup2\n      mstore\n      0x04\n      add\n      mload(0x40)\n      dup1\n      swap2\n      sub\n      swap1\n      revert\n        /* \"contracts/1_KipuBankV2.sol\":6661:6736  if (s_totalBankBalance + msg.value > i_bankCap) revert Bank_ExceedBankCap() */\n    tag_260:\n        /* \"contracts/1_KipuBankV2.sol\":6785:6794  msg.value */\n      callvalue\n        /* \"contracts/1_KipuBankV2.sol\":6747:6755  balances */\n      0x03\n        /* \"contracts/1_KipuBankV2.sol\":6747:6767  balances[msg.sender] */\n      0x00\n        /* \"contracts/1_KipuBankV2.sol\":6756:6766  msg.sender */\n      caller\n        /* \"contracts/1_KipuBankV2.sol\":6747:6767  balances[msg.sender] */\n      0xffffffffffffffffffffffffffffffffffffffff\n      and\n      0xffffffffffffffffffffffffffffffffffffffff\n      and\n      dup2\n      mstore\n      0x20\n      add\n      swap1\n      dup2\n      mstore\n      0x20\n      add\n      0x00\n      keccak256\n        /* \"contracts/1_KipuBankV2.sol\":6747:6781  balances[msg.sender][NATIVE_TOKEN] */\n      0x00\n        /* \"contracts/1_KipuBankV2.sol\":1967:1968  0 */\n      dup1\n        /* \"contracts/1_KipuBankV2.sol\":6747:6781  balances[msg.sender][NATIVE_TOKEN] */\n      0xffffffffffffffffffffffffffffffffffffffff\n      and\n      0xffffffffffffffffffffffffffffffffffffffff\n      and\n      dup2\n      mstore\n      0x20\n      add\n      swap1\n      dup2\n      mstore\n      0x20\n      add\n      0x00\n      keccak256\n      0x00\n        /* \"contracts/1_KipuBankV2.sol\":6747:6794  balances[msg.sender][NATIVE_TOKEN] += msg.value */\n      dup3\n      dup3\n      sload\n      tag_261\n      swap2\n      swap1\n      tag_147\n      jump\t// in\n    tag_261:\n      swap3\n      pop\n      pop\n      dup2\n      swap1\n      sstore\n      pop\n        /* \"contracts/1_KipuBankV2.sol\":6826:6835  msg.value */\n      callvalue\n        /* \"contracts/1_KipuBankV2.sol\":6804:6822  s_totalBankBalance */\n      0x07\n      0x00\n        /* \"contracts/1_KipuBankV2.sol\":6804:6835  s_totalBankBalance += msg.value */\n      dup3\n      dup3\n      sload\n      tag_262\n      swap2\n      swap1\n      tag_147\n      jump\t// in\n    tag_262:\n      swap3\n      pop\n      pop\n      dup2\n      swap1\n      sstore\n      pop\n        /* \"contracts/1_KipuBankV2.sol\":6845:6861  s_depositCounter */\n      0x05\n      0x00\n        /* \"contracts/1_KipuBankV2.sol\":6845:6863  s_depositCounter++ */\n      dup2\n      sload\n      dup1\n      swap3\n      swap2\n      swap1\n      tag_263\n      swap1\n      tag_156\n      jump\t// in\n    tag_263:\n      swap2\n      swap1\n      pop\n      sstore\n      pop\n        /* \"contracts/1_KipuBankV2.sol\":1967:1968  0 */\n      0x00\n        /* \"contracts/1_KipuBankV2.sol\":6878:6927  Bank_Deposit(msg.sender, NATIVE_TOKEN, msg.value) */\n      0xffffffffffffffffffffffffffffffffffffffff\n      and\n        /* \"contracts/1_KipuBankV2.sol\":6891:6901  msg.sender */\n      caller\n        /* \"contracts/1_KipuBankV2.sol\":6878:6927  Bank_Deposit(msg.sender, NATIVE_TOKEN, msg.value) */\n      0xffffffffffffffffffffffffffffffffffffffff\n      and\n      0x01ece9c685ac991a7352754de4bb96f7d41fdbc35b4bc423326539149879c008\n        /* \"contracts/1_KipuBankV2.sol\":6917:6926  msg.value */\n      callvalue\n        /* \"contracts/1_KipuBankV2.sol\":6878:6927  Bank_Deposit(msg.sender, NATIVE_TOKEN, msg.value) */\n      mload(0x40)\n      tag_264\n      swap2\n      swap1\n      tag_53\n      jump\t// in\n    tag_264:\n      mload(0x40)\n      dup1\n      swap2\n      sub\n      swap1\n      log3\n        /* \"contracts/1_KipuBankV2.sol\":6483:6934  function deposit() external payable {... */\n      jump\t// out\n        /* \"contracts/1_KipuBankV2.sol\":9459:9652  function getBalance(address user, address token) external view returns(uint256) {... */\n    tag_122:\n        /* \"contracts/1_KipuBankV2.sol\":9530:9537  uint256 */\n      0x00\n        /* \"contracts/1_KipuBankV2.sol\":9554:9562  accounts */\n      0x02\n        /* \"contracts/1_KipuBankV2.sol\":9554:9568  accounts[user] */\n      0x00\n        /* \"contracts/1_KipuBankV2.sol\":9563:9567  user */\n      dup5\n        /* \"contracts/1_KipuBankV2.sol\":9554:9568  accounts[user] */\n      0xffffffffffffffffffffffffffffffffffffffff\n      and\n      0xffffffffffffffffffffffffffffffffffffffff\n      and\n      dup2\n      mstore\n      0x20\n      add\n      swap1\n      dup2\n      mstore\n      0x20\n      add\n      0x00\n      keccak256\n        /* \"contracts/1_KipuBankV2.sol\":9554:9575  accounts[user].exists */\n      0x03\n      add\n      0x00\n      swap1\n      sload\n      swap1\n      0x0100\n      exp\n      swap1\n      div\n      0xff\n      and\n        /* \"contracts/1_KipuBankV2.sol\":9549:9607  if (!accounts[user].exists) revert Bank_AccountNotExists() */\n      tag_266\n      jumpi\n        /* \"contracts/1_KipuBankV2.sol\":9584:9607  Bank_AccountNotExists() */\n      mload(0x40)\n      0x566b044000000000000000000000000000000000000000000000000000000000\n      dup2\n      mstore\n      0x04\n      add\n      mload(0x40)\n      dup1\n      swap2\n      sub\n      swap1\n      revert\n        /* \"contracts/1_KipuBankV2.sol\":9549:9607  if (!accounts[user].exists) revert Bank_AccountNotExists() */\n    tag_266:\n        /* \"contracts/1_KipuBankV2.sol\":9624:9632  balances */\n      0x03\n        /* \"contracts/1_KipuBankV2.sol\":9624:9638  balances[user] */\n      0x00\n        /* \"contracts/1_KipuBankV2.sol\":9633:9637  user */\n      dup5\n        /* \"contracts/1_KipuBankV2.sol\":9624:9638  balances[user] */\n      0xffffffffffffffffffffffffffffffffffffffff\n      and\n      0xffffffffffffffffffffffffffffffffffffffff\n      and\n      dup2\n      mstore\n      0x20\n      add\n      swap1\n      dup2\n      mstore\n      0x20\n      add\n      0x00\n      keccak256\n        /* \"contracts/1_KipuBankV2.sol\":9624:9645  balances[user][token] */\n      0x00\n        /* \"contracts/1_KipuBankV2.sol\":9639:9644  token */\n      dup4\n        /* \"contracts/1_KipuBankV2.sol\":9624:9645  balances[user][token] */\n      0xffffffffffffffffffffffffffffffffffffffff\n      and\n      0xffffffffffffffffffffffffffffffffffffffff\n      and\n      dup2\n      mstore\n      0x20\n      add\n      swap1\n      dup2\n      mstore\n      0x20\n      add\n      0x00\n      keccak256\n      sload\n        /* \"contracts/1_KipuBankV2.sol\":9617:9645  return balances[user][token] */\n      swap1\n      pop\n        /* \"contracts/1_KipuBankV2.sol\":9459:9652  function getBalance(address user, address token) external view returns(uint256) {... */\n      swap3\n      swap2\n      pop\n      pop\n      jump\t// out\n        /* \"@openzeppelin/contracts/access/AccessControl.sol\":4618:4756  function revokeRole(bytes32 role, address account) public virtual onlyRole(getRoleAdmin(role)) {... */\n    tag_127:\n        /* \"@openzeppelin/contracts/access/AccessControl.sol\":4693:4711  getRoleAdmin(role) */\n      tag_267\n        /* \"@openzeppelin/contracts/access/AccessControl.sol\":4706:4710  role */\n      dup3\n        /* \"@openzeppelin/contracts/access/AccessControl.sol\":4693:4705  getRoleAdmin */\n      tag_44\n        /* \"@openzeppelin/contracts/access/AccessControl.sol\":4693:4711  getRoleAdmin(role) */\n      jump\t// in\n    tag_267:\n        /* \"@openzeppelin/contracts/access/AccessControl.sol\":2473:2489  _checkRole(role) */\n      tag_269\n        /* \"@openzeppelin/contracts/access/AccessControl.sol\":2484:2488  role */\n      dup2\n        /* \"@openzeppelin/contracts/access/AccessControl.sol\":2473:2483  _checkRole */\n      tag_191\n        /* \"@openzeppelin/contracts/access/AccessControl.sol\":2473:2489  _checkRole(role) */\n      jump\t// in\n    tag_269:\n        /* \"@openzeppelin/contracts/access/AccessControl.sol\":4723:4749  _revokeRole(role, account) */\n      tag_271\n        /* \"@openzeppelin/contracts/access/AccessControl.sol\":4735:4739  role */\n      dup4\n        /* \"@openzeppelin/contracts/access/AccessControl.sol\":4741:4748  account */\n      dup4\n        /* \"@openzeppelin/contracts/access/AccessControl.sol\":4723:4734  _revokeRole */\n      tag_218\n        /* \"@openzeppelin/contracts/access/AccessControl.sol\":4723:4749  _revokeRole(role, account) */\n      jump\t// in\n    tag_271:\n      pop\n        /* \"@openzeppelin/contracts/access/AccessControl.sol\":4618:4756  function revokeRole(bytes32 role, address account) public virtual onlyRole(getRoleAdmin(role)) {... */\n      pop\n      pop\n      pop\n      jump\t// out\n        /* \"contracts/1_KipuBankV2.sol\":9714:9873  function getEthPriceInUsd() public view returns(uint256) {... */\n    tag_130:\n        /* \"contracts/1_KipuBankV2.sol\":9762:9769  uint256 */\n      0x00\n        /* \"contracts/1_KipuBankV2.sol\":9784:9796  int256 price */\n      dup1\n        /* \"contracts/1_KipuBankV2.sol\":9803:9817  i_ethPriceFeed */\n      immutable(\"0x15f577349cb01f168943032d44e6ff6a22a9210e99c5a2f5c4ba968be0e1fe66\")\n        /* \"contracts/1_KipuBankV2.sol\":9803:9833  i_ethPriceFeed.latestRoundData */\n      0xffffffffffffffffffffffffffffffffffffffff\n      and\n      0xfeaf968c\n        /* \"contracts/1_KipuBankV2.sol\":9803:9835  i_ethPriceFeed.latestRoundData() */\n      mload(0x40)\n      dup2\n      0xffffffff\n      and\n      0xe0\n      shl\n      dup2\n      mstore\n      0x04\n      add\n      0xa0\n      mload(0x40)\n      dup1\n      dup4\n      sub\n      dup2\n      dup7\n      gas\n      staticcall\n      iszero\n      dup1\n      iszero\n      tag_274\n      jumpi\n      returndatasize\n      0x00\n      dup1\n      returndatacopy\n      revert(0x00, returndatasize)\n    tag_274:\n      pop\n      pop\n      pop\n      pop\n      mload(0x40)\n      returndatasize\n      not(0x1f)\n      0x1f\n      dup3\n      add\n      and\n      dup3\n      add\n      dup1\n      0x40\n      mstore\n      pop\n      dup2\n      add\n      swap1\n      tag_275\n      swap2\n      swap1\n      tag_276\n      jump\t// in\n    tag_275:\n        /* \"contracts/1_KipuBankV2.sol\":9781:9835  (, int256 price,,,) = i_ethPriceFeed.latestRoundData() */\n      pop\n      pop\n      pop\n      swap2\n      pop\n      pop\n        /* \"contracts/1_KipuBankV2.sol\":9860:9865  price */\n      dup1\n        /* \"contracts/1_KipuBankV2.sol\":9845:9866  return uint256(price) */\n      swap2\n      pop\n      pop\n        /* \"contracts/1_KipuBankV2.sol\":9714:9873  function getEthPriceInUsd() public view returns(uint256) {... */\n      swap1\n      jump\t// out\n        /* \"contracts/1_KipuBankV2.sol\":1740:1787  uint256 public constant USD_FEED_DECIMALS = 1e8 */\n    tag_134:\n        /* \"contracts/1_KipuBankV2.sol\":1784:1787  1e8 */\n      0x05f5e100\n        /* \"contracts/1_KipuBankV2.sol\":1740:1787  uint256 public constant USD_FEED_DECIMALS = 1e8 */\n      dup2\n      jump\t// out\n        /* \"contracts/1_KipuBankV2.sol\":1998:2032  uint256 public immutable i_bankCap */\n    tag_138:\n      immutable(\"0x46612c86431bf839553975c6871c96460d6b955d2f53301921ef55c1ad868ef7\")\n      dup2\n      jump\t// out\n        /* \"@openzeppelin/contracts/utils/introspection/ERC165.sol\":730:876  function supportsInterface(bytes4 interfaceId) public view virtual returns (bool) {... */\n    tag_143:\n        /* \"@openzeppelin/contracts/utils/introspection/ERC165.sol\":806:810  bool */\n      0x00\n        /* \"@openzeppelin/contracts/utils/introspection/ERC165.sol\":844:869  type(IERC165).interfaceId */\n      0x01ffc9a700000000000000000000000000000000000000000000000000000000\n        /* \"@openzeppelin/contracts/utils/introspection/ERC165.sol\":829:869  interfaceId == type(IERC165).interfaceId */\n      not(0xffffffffffffffffffffffffffffffffffffffffffffffffffffffff)\n      and\n        /* \"@openzeppelin/contracts/utils/introspection/ERC165.sol\":829:840  interfaceId */\n      dup3\n        /* \"@openzeppelin/contracts/utils/introspection/ERC165.sol\":829:869  interfaceId == type(IERC165).interfaceId */\n      not(0xffffffffffffffffffffffffffffffffffffffffffffffffffffffff)\n      and\n      eq\n        /* \"@openzeppelin/contracts/utils/introspection/ERC165.sol\":822:869  return interfaceId == type(IERC165).interfaceId */\n      swap1\n      pop\n        /* \"@openzeppelin/contracts/utils/introspection/ERC165.sol\":730:876  function supportsInterface(bytes4 interfaceId) public view virtual returns (bool) {... */\n      swap2\n      swap1\n      pop\n      jump\t// out\n        /* \"@openzeppelin/contracts/security/ReentrancyGuard.sol\":2336:2623  function _nonReentrantBefore() private {... */\n    tag_167:\n        /* \"@openzeppelin/contracts/security/ReentrancyGuard.sol\":1759:1760  2 */\n      0x02\n        /* \"@openzeppelin/contracts/security/ReentrancyGuard.sol\":2468:2475  _status */\n      sload(0x01)\n        /* \"@openzeppelin/contracts/security/ReentrancyGuard.sol\":2468:2487  _status != _ENTERED */\n      sub\n        /* \"@openzeppelin/contracts/security/ReentrancyGuard.sol\":2460:2523  require(_status != _ENTERED, \"ReentrancyGuard: reentrant call\") */\n      tag_279\n      jumpi\n      mload(0x40)\n      0x08c379a000000000000000000000000000000000000000000000000000000000\n      dup2\n      mstore\n      0x04\n      add\n      tag_280\n      swap1\n      tag_281\n      jump\t// in\n    tag_280:\n      mload(0x40)\n      dup1\n      swap2\n      sub\n      swap1\n      revert\n    tag_279:\n        /* \"@openzeppelin/contracts/security/ReentrancyGuard.sol\":1759:1760  2 */\n      0x02\n        /* \"@openzeppelin/contracts/security/ReentrancyGuard.sol\":2598:2605  _status */\n      0x01\n        /* \"@openzeppelin/contracts/security/ReentrancyGuard.sol\":2598:2616  _status = _ENTERED */\n      dup2\n      swap1\n      sstore\n      pop\n        /* \"@openzeppelin/contracts/security/ReentrancyGuard.sol\":2336:2623  function _nonReentrantBefore() private {... */\n      jump\t// out\n        /* \"@openzeppelin/contracts/security/ReentrancyGuard.sol\":2629:2838  function _nonReentrantAfter() private {... */\n    tag_187:\n        /* \"@openzeppelin/contracts/security/ReentrancyGuard.sol\":1716:1717  1 */\n      0x01\n        /* \"@openzeppelin/contracts/security/ReentrancyGuard.sol\":2809:2816  _status */\n      dup1\n        /* \"@openzeppelin/contracts/security/ReentrancyGuard.sol\":2809:2831  _status = _NOT_ENTERED */\n      dup2\n      swap1\n      sstore\n      pop\n        /* \"@openzeppelin/contracts/security/ReentrancyGuard.sol\":2629:2838  function _nonReentrantAfter() private {... */\n      jump\t// out\n        /* \"@openzeppelin/contracts/access/AccessControl.sol\":3175:3278  function _checkRole(bytes32 role) internal view virtual {... */\n    tag_191:\n        /* \"@openzeppelin/contracts/access/AccessControl.sol\":3241:3271  _checkRole(role, _msgSender()) */\n      tag_284\n        /* \"@openzeppelin/contracts/access/AccessControl.sol\":3252:3256  role */\n      dup2\n        /* \"@openzeppelin/contracts/access/AccessControl.sol\":3258:3270  _msgSender() */\n      tag_285\n        /* \"@openzeppelin/contracts/access/AccessControl.sol\":3258:3268  _msgSender */\n      tag_215\n        /* \"@openzeppelin/contracts/access/AccessControl.sol\":3258:3270  _msgSender() */\n      jump\t// in\n    tag_285:\n        /* \"@openzeppelin/contracts/access/AccessControl.sol\":3241:3251  _checkRole */\n      tag_286\n        /* \"@openzeppelin/contracts/access/AccessControl.sol\":3241:3271  _checkRole(role, _msgSender()) */\n      jump\t// in\n    tag_284:\n        /* \"@openzeppelin/contracts/access/AccessControl.sol\":3175:3278  function _checkRole(bytes32 role) internal view virtual {... */\n      pop\n      jump\t// out\n        /* \"@openzeppelin/contracts/access/AccessControl.sol\":6155:6471  function _grantRole(bytes32 role, address account) internal virtual returns (bool) {... */\n    tag_194:\n        /* \"@openzeppelin/contracts/access/AccessControl.sol\":6232:6236  bool */\n      0x00\n        /* \"@openzeppelin/contracts/access/AccessControl.sol\":6253:6275  hasRole(role, account) */\n      tag_288\n        /* \"@openzeppelin/contracts/access/AccessControl.sol\":6261:6265  role */\n      dup4\n        /* \"@openzeppelin/contracts/access/AccessControl.sol\":6267:6274  account */\n      dup4\n        /* \"@openzeppelin/contracts/access/AccessControl.sol\":6253:6260  hasRole */\n      tag_97\n        /* \"@openzeppelin/contracts/access/AccessControl.sol\":6253:6275  hasRole(role, account) */\n      jump\t// in\n    tag_288:\n        /* \"@openzeppelin/contracts/access/AccessControl.sol\":6248:6465  if (!hasRole(role, account)) {... */\n      tag_289\n      jumpi\n        /* \"@openzeppelin/contracts/access/AccessControl.sol\":6323:6327  true */\n      0x01\n        /* \"@openzeppelin/contracts/access/AccessControl.sol\":6291:6297  _roles */\n      0x00\n        /* \"@openzeppelin/contracts/access/AccessControl.sol\":6291:6303  _roles[role] */\n      dup1\n        /* \"@openzeppelin/contracts/access/AccessControl.sol\":6298:6302  role */\n      dup6\n        /* \"@openzeppelin/contracts/access/AccessControl.sol\":6291:6303  _roles[role] */\n      dup2\n      mstore\n      0x20\n      add\n      swap1\n      dup2\n      mstore\n      0x20\n      add\n      0x00\n      keccak256\n        /* \"@openzeppelin/contracts/access/AccessControl.sol\":6291:6311  _roles[role].hasRole */\n      0x00\n      add\n        /* \"@openzeppelin/contracts/access/AccessControl.sol\":6291:6320  _roles[role].hasRole[account] */\n      0x00\n        /* \"@openzeppelin/contracts/access/AccessControl.sol\":6312:6319  account */\n      dup5\n        /* \"@openzeppelin/contracts/access/AccessControl.sol\":6291:6320  _roles[role].hasRole[account] */\n      0xffffffffffffffffffffffffffffffffffffffff\n      and\n      0xffffffffffffffffffffffffffffffffffffffff\n      and\n      dup2\n      mstore\n      0x20\n      add\n      swap1\n      dup2\n      mstore\n      0x20\n      add\n      0x00\n      keccak256\n      0x00\n        /* \"@openzeppelin/contracts/access/AccessControl.sol\":6291:6327  _roles[role].hasRole[account] = true */\n      0x0100\n      exp\n      dup2\n      sload\n      dup2\n      0xff\n      mul\n      not\n      and\n      swap1\n      dup4\n      iszero\n      iszero\n      mul\n      or\n      swap1\n      sstore\n      pop\n        /* \"@openzeppelin/contracts/access/AccessControl.sol\":6373:6385  _msgSender() */\n      tag_290\n        /* \"@openzeppelin/contracts/access/AccessControl.sol\":6373:6383  _msgSender */\n      tag_215\n        /* \"@openzeppelin/contracts/access/AccessControl.sol\":6373:6385  _msgSender() */\n      jump\t// in\n    tag_290:\n        /* \"@openzeppelin/contracts/access/AccessControl.sol\":6346:6386  RoleGranted(role, account, _msgSender()) */\n      0xffffffffffffffffffffffffffffffffffffffff\n      and\n        /* \"@openzeppelin/contracts/access/AccessControl.sol\":6364:6371  account */\n      dup3\n        /* \"@openzeppelin/contracts/access/AccessControl.sol\":6346:6386  RoleGranted(role, account, _msgSender()) */\n      0xffffffffffffffffffffffffffffffffffffffff\n      and\n        /* \"@openzeppelin/contracts/access/AccessControl.sol\":6358:6362  role */\n      dup5\n        /* \"@openzeppelin/contracts/access/AccessControl.sol\":6346:6386  RoleGranted(role, account, _msgSender()) */\n      0x2f8788117e7eff1d82e926ec794901d17c78024a50270940304540a733656f0d\n      mload(0x40)\n      mload(0x40)\n      dup1\n      swap2\n      sub\n      swap1\n      log4\n        /* \"@openzeppelin/contracts/access/AccessControl.sol\":6407:6411  true */\n      0x01\n        /* \"@openzeppelin/contracts/access/AccessControl.sol\":6400:6411  return true */\n      swap1\n      pop\n      jump(tag_287)\n        /* \"@openzeppelin/contracts/access/AccessControl.sol\":6248:6465  if (!hasRole(role, account)) {... */\n    tag_289:\n        /* \"@openzeppelin/contracts/access/AccessControl.sol\":6449:6454  false */\n      0x00\n        /* \"@openzeppelin/contracts/access/AccessControl.sol\":6442:6454  return false */\n      swap1\n      pop\n        /* \"@openzeppelin/contracts/access/AccessControl.sol\":6155:6471  function _grantRole(bytes32 role, address account) internal virtual returns (bool) {... */\n    tag_287:\n      swap3\n      swap2\n      pop\n      pop\n      jump\t// out\n        /* \"@openzeppelin/contracts/token/ERC20/utils/SafeERC20.sol\":1618:1806  function safeTransferFrom(IERC20 token, address from, address to, uint256 value) internal {... */\n    tag_211:\n        /* \"@openzeppelin/contracts/token/ERC20/utils/SafeERC20.sol\":1718:1799  _callOptionalReturn(token, abi.encodeCall(token.transferFrom, (from, to, value))) */\n      tag_293\n        /* \"@openzeppelin/contracts/token/ERC20/utils/SafeERC20.sol\":1738:1743  token */\n      dup5\n        /* \"@openzeppelin/contracts/token/ERC20/utils/SafeERC20.sol\":1760:1765  token */\n      dup6\n        /* \"@openzeppelin/contracts/token/ERC20/utils/SafeERC20.sol\":1760:1778  token.transferFrom */\n      0xffffffffffffffffffffffffffffffffffffffff\n      and\n      0x23b872dd\n        /* \"@openzeppelin/contracts/token/ERC20/utils/SafeERC20.sol\":1781:1785  from */\n      dup7\n        /* \"@openzeppelin/contracts/token/ERC20/utils/SafeERC20.sol\":1787:1789  to */\n      dup7\n        /* \"@openzeppelin/contracts/token/ERC20/utils/SafeERC20.sol\":1791:1796  value */\n      dup7\n        /* \"@openzeppelin/contracts/token/ERC20/utils/SafeERC20.sol\":1745:1798  abi.encodeCall(token.transferFrom, (from, to, value)) */\n      add(0x24, mload(0x40))\n      tag_294\n      swap4\n      swap3\n      swap2\n      swap1\n      tag_295\n      jump\t// in\n    tag_294:\n      mload(0x40)\n      0x20\n      dup2\n      dup4\n      sub\n      sub\n      dup2\n      mstore\n      swap1\n      0x40\n      mstore\n      swap2\n      pop\n      0xe0\n      shl\n      0x20\n      dup3\n      add\n      dup1\n      mload\n      0xffffffffffffffffffffffffffffffffffffffffffffffffffffffff\n      dup4\n      dup2\n      dup4\n      and\n      or\n      dup4\n      mstore\n      pop\n      pop\n      pop\n      pop\n        /* \"@openzeppelin/contracts/token/ERC20/utils/SafeERC20.sol\":1718:1737  _callOptionalReturn */\n      tag_296\n        /* \"@openzeppelin/contracts/token/ERC20/utils/SafeERC20.sol\":1718:1799  _callOptionalReturn(token, abi.encodeCall(token.transferFrom, (from, to, value))) */\n      jump\t// in\n    tag_293:\n        /* \"@openzeppelin/contracts/token/ERC20/utils/SafeERC20.sol\":1618:1806  function safeTransferFrom(IERC20 token, address from, address to, uint256 value) internal {... */\n      pop\n      pop\n      pop\n      pop\n      jump\t// out\n        /* \"@openzeppelin/contracts/utils/Context.sol\":656:752  function _msgSender() internal view virtual returns (address) {... */\n    tag_215:\n        /* \"@openzeppelin/contracts/utils/Context.sol\":709:716  address */\n      0x00\n        /* \"@openzeppelin/contracts/utils/Context.sol\":735:745  msg.sender */\n      caller\n        /* \"@openzeppelin/contracts/utils/Context.sol\":728:745  return msg.sender */\n      swap1\n      pop\n        /* \"@openzeppelin/contracts/utils/Context.sol\":656:752  function _msgSender() internal view virtual returns (address) {... */\n      swap1\n      jump\t// out\n        /* \"@openzeppelin/contracts/access/AccessControl.sol\":6708:7025  function _revokeRole(bytes32 role, address account) internal virtual returns (bool) {... */\n    tag_218:\n        /* \"@openzeppelin/contracts/access/AccessControl.sol\":6786:6790  bool */\n      0x00\n        /* \"@openzeppelin/contracts/access/AccessControl.sol\":6806:6828  hasRole(role, account) */\n      tag_299\n        /* \"@openzeppelin/contracts/access/AccessControl.sol\":6814:6818  role */\n      dup4\n        /* \"@openzeppelin/contracts/access/AccessControl.sol\":6820:6827  account */\n      dup4\n        /* \"@openzeppelin/contracts/access/AccessControl.sol\":6806:6813  hasRole */\n      tag_97\n        /* \"@openzeppelin/contracts/access/AccessControl.sol\":6806:6828  hasRole(role, account) */\n      jump\t// in\n    tag_299:\n        /* \"@openzeppelin/contracts/access/AccessControl.sol\":6802:7019  if (hasRole(role, account)) {... */\n      iszero\n      tag_300\n      jumpi\n        /* \"@openzeppelin/contracts/access/AccessControl.sol\":6876:6881  false */\n      0x00\n        /* \"@openzeppelin/contracts/access/AccessControl.sol\":6844:6850  _roles */\n      dup1\n        /* \"@openzeppelin/contracts/access/AccessControl.sol\":6844:6856  _roles[role] */\n      0x00\n        /* \"@openzeppelin/contracts/access/AccessControl.sol\":6851:6855  role */\n      dup6\n        /* \"@openzeppelin/contracts/access/AccessControl.sol\":6844:6856  _roles[role] */\n      dup2\n      mstore\n      0x20\n      add\n      swap1\n      dup2\n      mstore\n      0x20\n      add\n      0x00\n      keccak256\n        /* \"@openzeppelin/contracts/access/AccessControl.sol\":6844:6864  _roles[role].hasRole */\n      0x00\n      add\n        /* \"@openzeppelin/contracts/access/AccessControl.sol\":6844:6873  _roles[role].hasRole[account] */\n      0x00\n        /* \"@openzeppelin/contracts/access/AccessControl.sol\":6865:6872  account */\n      dup5\n        /* \"@openzeppelin/contracts/access/AccessControl.sol\":6844:6873  _roles[role].hasRole[account] */\n      0xffffffffffffffffffffffffffffffffffffffff\n      and\n      0xffffffffffffffffffffffffffffffffffffffff\n      and\n      dup2\n      mstore\n      0x20\n      add\n      swap1\n      dup2\n      mstore\n      0x20\n      add\n      0x00\n      keccak256\n      0x00\n        /* \"@openzeppelin/contracts/access/AccessControl.sol\":6844:6881  _roles[role].hasRole[account] = false */\n      0x0100\n      exp\n      dup2\n      sload\n      dup2\n      0xff\n      mul\n      not\n      and\n      swap1\n      dup4\n      iszero\n      iszero\n      mul\n      or\n      swap1\n      sstore\n      pop\n        /* \"@openzeppelin/contracts/access/AccessControl.sol\":6927:6939  _msgSender() */\n      tag_301\n        /* \"@openzeppelin/contracts/access/AccessControl.sol\":6927:6937  _msgSender */\n      tag_215\n        /* \"@openzeppelin/contracts/access/AccessControl.sol\":6927:6939  _msgSender() */\n      jump\t// in\n    tag_301:\n        /* \"@openzeppelin/contracts/access/AccessControl.sol\":6900:6940  RoleRevoked(role, account, _msgSender()) */\n      0xffffffffffffffffffffffffffffffffffffffff\n      and\n        /* \"@openzeppelin/contracts/access/AccessControl.sol\":6918:6925  account */\n      dup3\n        /* \"@openzeppelin/contracts/access/AccessControl.sol\":6900:6940  RoleRevoked(role, account, _msgSender()) */\n      0xffffffffffffffffffffffffffffffffffffffff\n      and\n        /* \"@openzeppelin/contracts/access/AccessControl.sol\":6912:6916  role */\n      dup5\n        /* \"@openzeppelin/contracts/access/AccessControl.sol\":6900:6940  RoleRevoked(role, account, _msgSender()) */\n      0xf6391f5c32d9c69d2a47ea670b442974b53935d1edc7fd64eb21e047a839171b\n      mload(0x40)\n      mload(0x40)\n      dup1\n      swap2\n      sub\n      swap1\n      log4\n        /* \"@openzeppelin/contracts/access/AccessControl.sol\":6961:6965  true */\n      0x01\n        /* \"@openzeppelin/contracts/access/AccessControl.sol\":6954:6965  return true */\n      swap1\n      pop\n      jump(tag_298)\n        /* \"@openzeppelin/contracts/access/AccessControl.sol\":6802:7019  if (hasRole(role, account)) {... */\n    tag_300:\n        /* \"@openzeppelin/contracts/access/AccessControl.sol\":7003:7008  false */\n      0x00\n        /* \"@openzeppelin/contracts/access/AccessControl.sol\":6996:7008  return false */\n      swap1\n      pop\n        /* \"@openzeppelin/contracts/access/AccessControl.sol\":6708:7025  function _revokeRole(bytes32 role, address account) internal virtual returns (bool) {... */\n    tag_298:\n      swap3\n      swap2\n      pop\n      pop\n      jump\t// out\n        /* \"@openzeppelin/contracts/token/ERC20/utils/SafeERC20.sol\":1219:1379  function safeTransfer(IERC20 token, address to, uint256 value) internal {... */\n    tag_253:\n        /* \"@openzeppelin/contracts/token/ERC20/utils/SafeERC20.sol\":1301:1372  _callOptionalReturn(token, abi.encodeCall(token.transfer, (to, value))) */\n      tag_304\n        /* \"@openzeppelin/contracts/token/ERC20/utils/SafeERC20.sol\":1321:1326  token */\n      dup4\n        /* \"@openzeppelin/contracts/token/ERC20/utils/SafeERC20.sol\":1343:1348  token */\n      dup5\n        /* \"@openzeppelin/contracts/token/ERC20/utils/SafeERC20.sol\":1343:1357  token.transfer */\n      0xffffffffffffffffffffffffffffffffffffffff\n      and\n      0xa9059cbb\n        /* \"@openzeppelin/contracts/token/ERC20/utils/SafeERC20.sol\":1360:1362  to */\n      dup6\n        /* \"@openzeppelin/contracts/token/ERC20/utils/SafeERC20.sol\":1364:1369  value */\n      dup6\n        /* \"@openzeppelin/contracts/token/ERC20/utils/SafeERC20.sol\":1328:1371  abi.encodeCall(token.transfer, (to, value)) */\n      add(0x24, mload(0x40))\n      tag_305\n      swap3\n      swap2\n      swap1\n      tag_306\n      jump\t// in\n    tag_305:\n      mload(0x40)\n      0x20\n      dup2\n      dup4\n      sub\n      sub\n      dup2\n      mstore\n      swap1\n      0x40\n      mstore\n      swap2\n      pop\n      0xe0\n      shl\n      0x20\n      dup3\n      add\n      dup1\n      mload\n      0xffffffffffffffffffffffffffffffffffffffffffffffffffffffff\n      dup4\n      dup2\n      dup4\n      and\n      or\n      dup4\n      mstore\n      pop\n      pop\n      pop\n      pop\n        /* \"@openzeppelin/contracts/token/ERC20/utils/SafeERC20.sol\":1301:1320  _callOptionalReturn */\n      tag_296\n        /* \"@openzeppelin/contracts/token/ERC20/utils/SafeERC20.sol\":1301:1372  _callOptionalReturn(token, abi.encodeCall(token.transfer, (to, value))) */\n      jump\t// in\n    tag_304:\n        /* \"@openzeppelin/contracts/token/ERC20/utils/SafeERC20.sol\":1219:1379  function safeTransfer(IERC20 token, address to, uint256 value) internal {... */\n      pop\n      pop\n      pop\n      jump\t// out\n        /* \"@openzeppelin/contracts/access/AccessControl.sol\":3408:3605  function _checkRole(bytes32 role, address account) internal view virtual {... */\n    tag_286:\n        /* \"@openzeppelin/contracts/access/AccessControl.sol\":3496:3518  hasRole(role, account) */\n      tag_308\n        /* \"@openzeppelin/contracts/access/AccessControl.sol\":3504:3508  role */\n      dup3\n        /* \"@openzeppelin/contracts/access/AccessControl.sol\":3510:3517  account */\n      dup3\n        /* \"@openzeppelin/contracts/access/AccessControl.sol\":3496:3503  hasRole */\n      tag_97\n        /* \"@openzeppelin/contracts/access/AccessControl.sol\":3496:3518  hasRole(role, account) */\n      jump\t// in\n    tag_308:\n        /* \"@openzeppelin/contracts/access/AccessControl.sol\":3491:3599  if (!hasRole(role, account)) {... */\n      tag_309\n      jumpi\n        /* \"@openzeppelin/contracts/access/AccessControl.sol\":3574:3581  account */\n      dup1\n        /* \"@openzeppelin/contracts/access/AccessControl.sol\":3583:3587  role */\n      dup3\n        /* \"@openzeppelin/contracts/access/AccessControl.sol\":3541:3588  AccessControlUnauthorizedAccount(account, role) */\n      mload(0x40)\n      0xe2517d3f00000000000000000000000000000000000000000000000000000000\n      dup2\n      mstore\n      0x04\n      add\n      tag_310\n      swap3\n      swap2\n      swap1\n      tag_311\n      jump\t// in\n    tag_310:\n      mload(0x40)\n      dup1\n      swap2\n      sub\n      swap1\n      revert\n        /* \"@openzeppelin/contracts/access/AccessControl.sol\":3491:3599  if (!hasRole(role, account)) {... */\n    tag_309:\n        /* \"@openzeppelin/contracts/access/AccessControl.sol\":3408:3605  function _checkRole(bytes32 role, address account) internal view virtual {... */\n      pop\n      pop\n      jump\t// out\n        /* \"@openzeppelin/contracts/token/ERC20/utils/SafeERC20.sol\":8370:9090  function _callOptionalReturn(IERC20 token, bytes memory data) private {... */\n    tag_296:\n        /* \"@openzeppelin/contracts/token/ERC20/utils/SafeERC20.sol\":8450:8468  uint256 returnSize */\n      0x00\n        /* \"@openzeppelin/contracts/token/ERC20/utils/SafeERC20.sol\":8478:8497  uint256 returnValue */\n      dup1\n        /* \"@openzeppelin/contracts/token/ERC20/utils/SafeERC20.sol\":8616:8620  0x20 */\n      0x20\n        /* \"@openzeppelin/contracts/token/ERC20/utils/SafeERC20.sol\":8613:8614  0 */\n      0x00\n        /* \"@openzeppelin/contracts/token/ERC20/utils/SafeERC20.sol\":8606:8610  data */\n      dup5\n        /* \"@openzeppelin/contracts/token/ERC20/utils/SafeERC20.sol\":8600:8611  mload(data) */\n      mload\n        /* \"@openzeppelin/contracts/token/ERC20/utils/SafeERC20.sol\":8593:8597  0x20 */\n      0x20\n        /* \"@openzeppelin/contracts/token/ERC20/utils/SafeERC20.sol\":8587:8591  data */\n      dup7\n        /* \"@openzeppelin/contracts/token/ERC20/utils/SafeERC20.sol\":8583:8598  add(data, 0x20) */\n      add\n        /* \"@openzeppelin/contracts/token/ERC20/utils/SafeERC20.sol\":8580:8581  0 */\n      0x00\n        /* \"@openzeppelin/contracts/token/ERC20/utils/SafeERC20.sol\":8573:8578  token */\n      dup9\n        /* \"@openzeppelin/contracts/token/ERC20/utils/SafeERC20.sol\":8566:8571  gas() */\n      gas\n        /* \"@openzeppelin/contracts/token/ERC20/utils/SafeERC20.sol\":8561:8621  call(gas(), token, 0, add(data, 0x20), mload(data), 0, 0x20) */\n      call\n        /* \"@openzeppelin/contracts/token/ERC20/utils/SafeERC20.sol\":8673:8680  success */\n      dup1\n        /* \"@openzeppelin/contracts/token/ERC20/utils/SafeERC20.sol\":8663:8839  if iszero(success) {... */\n      tag_313\n      jumpi\n        /* \"@openzeppelin/contracts/token/ERC20/utils/SafeERC20.sol\":8717:8721  0x40 */\n      0x40\n        /* \"@openzeppelin/contracts/token/ERC20/utils/SafeERC20.sol\":8711:8722  mload(0x40) */\n      mload\n        /* \"@openzeppelin/contracts/token/ERC20/utils/SafeERC20.sol\":8762:8778  returndatasize() */\n      returndatasize\n        /* \"@openzeppelin/contracts/token/ERC20/utils/SafeERC20.sol\":8759:8760  0 */\n      0x00\n        /* \"@openzeppelin/contracts/token/ERC20/utils/SafeERC20.sol\":8754:8757  ptr */\n      dup3\n        /* \"@openzeppelin/contracts/token/ERC20/utils/SafeERC20.sol\":8739:8779  returndatacopy(ptr, 0, returndatasize()) */\n      returndatacopy\n        /* \"@openzeppelin/contracts/token/ERC20/utils/SafeERC20.sol\":8808:8824  returndatasize() */\n      returndatasize\n        /* \"@openzeppelin/contracts/token/ERC20/utils/SafeERC20.sol\":8803:8806  ptr */\n      dup2\n        /* \"@openzeppelin/contracts/token/ERC20/utils/SafeERC20.sol\":8796:8825  revert(ptr, returndatasize()) */\n      revert\n        /* \"@openzeppelin/contracts/token/ERC20/utils/SafeERC20.sol\":8663:8839  if iszero(success) {... */\n    tag_313:\n        /* \"@openzeppelin/contracts/token/ERC20/utils/SafeERC20.sol\":8866:8882  returndatasize() */\n      returndatasize\n        /* \"@openzeppelin/contracts/token/ERC20/utils/SafeERC20.sol\":8852:8882  returnSize := returndatasize() */\n      swap3\n      pop\n        /* \"@openzeppelin/contracts/token/ERC20/utils/SafeERC20.sol\":8916:8917  0 */\n      0x00\n        /* \"@openzeppelin/contracts/token/ERC20/utils/SafeERC20.sol\":8910:8918  mload(0) */\n      mload\n        /* \"@openzeppelin/contracts/token/ERC20/utils/SafeERC20.sol\":8895:8918  returnValue := mload(0) */\n      swap2\n      pop\n        /* \"@openzeppelin/contracts/token/ERC20/utils/SafeERC20.sol\":8532:8928  {... */\n      pop\n        /* \"@openzeppelin/contracts/token/ERC20/utils/SafeERC20.sol\":8956:8957  0 */\n      0x00\n        /* \"@openzeppelin/contracts/token/ERC20/utils/SafeERC20.sol\":8942:8952  returnSize */\n      dup3\n        /* \"@openzeppelin/contracts/token/ERC20/utils/SafeERC20.sol\":8942:8957  returnSize == 0 */\n      eq\n        /* \"@openzeppelin/contracts/token/ERC20/utils/SafeERC20.sol\":8942:9010  returnSize == 0 ? address(token).code.length == 0 : returnValue != 1 */\n      tag_314\n      jumpi\n        /* \"@openzeppelin/contracts/token/ERC20/utils/SafeERC20.sol\":9009:9010  1 */\n      0x01\n        /* \"@openzeppelin/contracts/token/ERC20/utils/SafeERC20.sol\":8994:9005  returnValue */\n      dup2\n        /* \"@openzeppelin/contracts/token/ERC20/utils/SafeERC20.sol\":8994:9010  returnValue != 1 */\n      eq\n      iszero\n        /* \"@openzeppelin/contracts/token/ERC20/utils/SafeERC20.sol\":8942:9010  returnSize == 0 ? address(token).code.length == 0 : returnValue != 1 */\n      jump(tag_315)\n    tag_314:\n        /* \"@openzeppelin/contracts/token/ERC20/utils/SafeERC20.sol\":8990:8991  0 */\n      0x00\n        /* \"@openzeppelin/contracts/token/ERC20/utils/SafeERC20.sol\":8968:8973  token */\n      dup5\n        /* \"@openzeppelin/contracts/token/ERC20/utils/SafeERC20.sol\":8960:8986  address(token).code.length */\n      0xffffffffffffffffffffffffffffffffffffffff\n      and\n      extcodesize\n        /* \"@openzeppelin/contracts/token/ERC20/utils/SafeERC20.sol\":8960:8991  address(token).code.length == 0 */\n      eq\n        /* \"@openzeppelin/contracts/token/ERC20/utils/SafeERC20.sol\":8942:9010  returnSize == 0 ? address(token).code.length == 0 : returnValue != 1 */\n    tag_315:\n        /* \"@openzeppelin/contracts/token/ERC20/utils/SafeERC20.sol\":8938:9084  if (returnSize == 0 ? address(token).code.length == 0 : returnValue != 1) {... */\n      iszero\n      tag_316\n      jumpi\n        /* \"@openzeppelin/contracts/token/ERC20/utils/SafeERC20.sol\":9066:9071  token */\n      dup4\n        /* \"@openzeppelin/contracts/token/ERC20/utils/SafeERC20.sol\":9033:9073  SafeERC20FailedOperation(address(token)) */\n      mload(0x40)\n      0x5274afe700000000000000000000000000000000000000000000000000000000\n      dup2\n      mstore\n      0x04\n      add\n      tag_317\n      swap2\n      swap1\n      tag_67\n      jump\t// in\n    tag_317:\n      mload(0x40)\n      dup1\n      swap2\n      sub\n      swap1\n      revert\n        /* \"@openzeppelin/contracts/token/ERC20/utils/SafeERC20.sol\":8938:9084  if (returnSize == 0 ? address(token).code.length == 0 : returnValue != 1) {... */\n    tag_316:\n        /* \"@openzeppelin/contracts/token/ERC20/utils/SafeERC20.sol\":8440:9090  {... */\n      pop\n      pop\n        /* \"@openzeppelin/contracts/token/ERC20/utils/SafeERC20.sol\":8370:9090  function _callOptionalReturn(IERC20 token, bytes memory data) private {... */\n      pop\n      pop\n      jump\t// out\n        /* \"#utility.yul\":7:82   */\n    tag_318:\n        /* \"#utility.yul\":40:46   */\n      0x00\n        /* \"#utility.yul\":73:75   */\n      0x40\n        /* \"#utility.yul\":67:76   */\n      mload\n        /* \"#utility.yul\":57:76   */\n      swap1\n      pop\n        /* \"#utility.yul\":7:82   */\n      swap1\n      jump\t// out\n        /* \"#utility.yul\":88:205   */\n    tag_319:\n        /* \"#utility.yul\":197:198   */\n      0x00\n        /* \"#utility.yul\":194:195   */\n      dup1\n        /* \"#utility.yul\":187:199   */\n      revert\n        /* \"#utility.yul\":211:328   */\n    tag_320:\n        /* \"#utility.yul\":320:321   */\n      0x00\n        /* \"#utility.yul\":317:318   */\n      dup1\n        /* \"#utility.yul\":310:322   */\n      revert\n        /* \"#utility.yul\":334:483   */\n    tag_321:\n        /* \"#utility.yul\":370:377   */\n      0x00\n        /* \"#utility.yul\":410:476   */\n      0xffffffff00000000000000000000000000000000000000000000000000000000\n        /* \"#utility.yul\":403:408   */\n      dup3\n        /* \"#utility.yul\":399:477   */\n      and\n        /* \"#utility.yul\":388:477   */\n      swap1\n      pop\n        /* \"#utility.yul\":334:483   */\n      swap2\n      swap1\n      pop\n      jump\t// out\n        /* \"#utility.yul\":489:609   */\n    tag_322:\n        /* \"#utility.yul\":561:584   */\n      tag_401\n        /* \"#utility.yul\":578:583   */\n      dup2\n        /* \"#utility.yul\":561:584   */\n      tag_321\n      jump\t// in\n    tag_401:\n        /* \"#utility.yul\":554:559   */\n      dup2\n        /* \"#utility.yul\":551:585   */\n      eq\n        /* \"#utility.yul\":541:603   */\n      tag_402\n      jumpi\n        /* \"#utility.yul\":599:600   */\n      0x00\n        /* \"#utility.yul\":596:597   */\n      dup1\n        /* \"#utility.yul\":589:601   */\n      revert\n        /* \"#utility.yul\":541:603   */\n    tag_402:\n        /* \"#utility.yul\":489:609   */\n      pop\n      jump\t// out\n        /* \"#utility.yul\":615:752   */\n    tag_323:\n        /* \"#utility.yul\":660:665   */\n      0x00\n        /* \"#utility.yul\":698:704   */\n      dup2\n        /* \"#utility.yul\":685:705   */\n      calldataload\n        /* \"#utility.yul\":676:705   */\n      swap1\n      pop\n        /* \"#utility.yul\":714:746   */\n      tag_404\n        /* \"#utility.yul\":740:745   */\n      dup2\n        /* \"#utility.yul\":714:746   */\n      tag_322\n      jump\t// in\n    tag_404:\n        /* \"#utility.yul\":615:752   */\n      swap3\n      swap2\n      pop\n      pop\n      jump\t// out\n        /* \"#utility.yul\":758:1085   */\n    tag_32:\n        /* \"#utility.yul\":816:822   */\n      0x00\n        /* \"#utility.yul\":865:867   */\n      0x20\n        /* \"#utility.yul\":853:862   */\n      dup3\n        /* \"#utility.yul\":844:851   */\n      dup5\n        /* \"#utility.yul\":840:863   */\n      sub\n        /* \"#utility.yul\":836:868   */\n      slt\n        /* \"#utility.yul\":833:952   */\n      iszero\n      tag_406\n      jumpi\n        /* \"#utility.yul\":871:950   */\n      tag_407\n      tag_319\n      jump\t// in\n    tag_407:\n        /* \"#utility.yul\":833:952   */\n    tag_406:\n        /* \"#utility.yul\":991:992   */\n      0x00\n        /* \"#utility.yul\":1016:1068   */\n      tag_408\n        /* \"#utility.yul\":1060:1067   */\n      dup5\n        /* \"#utility.yul\":1051:1057   */\n      dup3\n        /* \"#utility.yul\":1040:1049   */\n      dup6\n        /* \"#utility.yul\":1036:1058   */\n      add\n        /* \"#utility.yul\":1016:1068   */\n      tag_323\n      jump\t// in\n    tag_408:\n        /* \"#utility.yul\":1006:1068   */\n      swap2\n      pop\n        /* \"#utility.yul\":962:1078   */\n      pop\n        /* \"#utility.yul\":758:1085   */\n      swap3\n      swap2\n      pop\n      pop\n      jump\t// out\n        /* \"#utility.yul\":1091:1181   */\n    tag_324:\n        /* \"#utility.yul\":1125:1132   */\n      0x00\n        /* \"#utility.yul\":1168:1173   */\n      dup2\n        /* \"#utility.yul\":1161:1174   */\n      iszero\n        /* \"#utility.yul\":1154:1175   */\n      iszero\n        /* \"#utility.yul\":1143:1175   */\n      swap1\n      pop\n        /* \"#utility.yul\":1091:1181   */\n      swap2\n      swap1\n      pop\n      jump\t// out\n        /* \"#utility.yul\":1187:1296   */\n    tag_325:\n        /* \"#utility.yul\":1268:1289   */\n      tag_411\n        /* \"#utility.yul\":1283:1288   */\n      dup2\n        /* \"#utility.yul\":1268:1289   */\n      tag_324\n      jump\t// in\n    tag_411:\n        /* \"#utility.yul\":1263:1266   */\n      dup3\n        /* \"#utility.yul\":1256:1290   */\n      mstore\n        /* \"#utility.yul\":1187:1296   */\n      pop\n      pop\n      jump\t// out\n        /* \"#utility.yul\":1302:1512   */\n    tag_35:\n        /* \"#utility.yul\":1389:1393   */\n      0x00\n        /* \"#utility.yul\":1427:1429   */\n      0x20\n        /* \"#utility.yul\":1416:1425   */\n      dup3\n        /* \"#utility.yul\":1412:1430   */\n      add\n        /* \"#utility.yul\":1404:1430   */\n      swap1\n      pop\n        /* \"#utility.yul\":1440:1505   */\n      tag_413\n        /* \"#utility.yul\":1502:1503   */\n      0x00\n        /* \"#utility.yul\":1491:1500   */\n      dup4\n        /* \"#utility.yul\":1487:1504   */\n      add\n        /* \"#utility.yul\":1478:1484   */\n      dup5\n        /* \"#utility.yul\":1440:1505   */\n      tag_325\n      jump\t// in\n    tag_413:\n        /* \"#utility.yul\":1302:1512   */\n      swap3\n      swap2\n      pop\n      pop\n      jump\t// out\n        /* \"#utility.yul\":1518:1635   */\n    tag_326:\n        /* \"#utility.yul\":1627:1628   */\n      0x00\n        /* \"#utility.yul\":1624:1625   */\n      dup1\n        /* \"#utility.yul\":1617:1629   */\n      revert\n        /* \"#utility.yul\":1641:1758   */\n    tag_327:\n        /* \"#utility.yul\":1750:1751   */\n      0x00\n        /* \"#utility.yul\":1747:1748   */\n      dup1\n        /* \"#utility.yul\":1740:1752   */\n      revert\n        /* \"#utility.yul\":1764:1866   */\n    tag_328:\n        /* \"#utility.yul\":1805:1811   */\n      0x00\n        /* \"#utility.yul\":1856:1858   */\n      0x1f\n        /* \"#utility.yul\":1852:1859   */\n      not\n        /* \"#utility.yul\":1847:1849   */\n      0x1f\n        /* \"#utility.yul\":1840:1845   */\n      dup4\n        /* \"#utility.yul\":1836:1850   */\n      add\n        /* \"#utility.yul\":1832:1860   */\n      and\n        /* \"#utility.yul\":1822:1860   */\n      swap1\n      pop\n        /* \"#utility.yul\":1764:1866   */\n      swap2\n      swap1\n      pop\n      jump\t// out\n        /* \"#utility.yul\":1872:2052   */\n    tag_329:\n        /* \"#utility.yul\":1920:1997   */\n      0x4e487b7100000000000000000000000000000000000000000000000000000000\n        /* \"#utility.yul\":1917:1918   */\n      0x00\n        /* \"#utility.yul\":1910:1998   */\n      mstore\n        /* \"#utility.yul\":2017:2021   */\n      0x41\n        /* \"#utility.yul\":2014:2015   */\n      0x04\n        /* \"#utility.yul\":2007:2022   */\n      mstore\n        /* \"#utility.yul\":2041:2045   */\n      0x24\n        /* \"#utility.yul\":2038:2039   */\n      0x00\n        /* \"#utility.yul\":2031:2046   */\n      revert\n        /* \"#utility.yul\":2058:2339   */\n    tag_330:\n        /* \"#utility.yul\":2141:2168   */\n      tag_419\n        /* \"#utility.yul\":2163:2167   */\n      dup3\n        /* \"#utility.yul\":2141:2168   */\n      tag_328\n      jump\t// in\n    tag_419:\n        /* \"#utility.yul\":2133:2139   */\n      dup2\n        /* \"#utility.yul\":2129:2169   */\n      add\n        /* \"#utility.yul\":2271:2277   */\n      dup2\n        /* \"#utility.yul\":2259:2269   */\n      dup2\n        /* \"#utility.yul\":2256:2278   */\n      lt\n        /* \"#utility.yul\":2235:2253   */\n      0xffffffffffffffff\n        /* \"#utility.yul\":2223:2233   */\n      dup3\n        /* \"#utility.yul\":2220:2254   */\n      gt\n        /* \"#utility.yul\":2217:2279   */\n      or\n        /* \"#utility.yul\":2214:2302   */\n      iszero\n      tag_420\n      jumpi\n        /* \"#utility.yul\":2282:2300   */\n      tag_421\n      tag_329\n      jump\t// in\n    tag_421:\n        /* \"#utility.yul\":2214:2302   */\n    tag_420:\n        /* \"#utility.yul\":2322:2332   */\n      dup1\n        /* \"#utility.yul\":2318:2320   */\n      0x40\n        /* \"#utility.yul\":2311:2333   */\n      mstore\n        /* \"#utility.yul\":2101:2339   */\n      pop\n        /* \"#utility.yul\":2058:2339   */\n      pop\n      pop\n      jump\t// out\n        /* \"#utility.yul\":2345:2474   */\n    tag_331:\n        /* \"#utility.yul\":2379:2385   */\n      0x00\n        /* \"#utility.yul\":2406:2426   */\n      tag_423\n      tag_318\n      jump\t// in\n    tag_423:\n        /* \"#utility.yul\":2396:2426   */\n      swap1\n      pop\n        /* \"#utility.yul\":2435:2468   */\n      tag_424\n        /* \"#utility.yul\":2463:2467   */\n      dup3\n        /* \"#utility.yul\":2455:2461   */\n      dup3\n        /* \"#utility.yul\":2435:2468   */\n      tag_330\n      jump\t// in\n    tag_424:\n        /* \"#utility.yul\":2345:2474   */\n      swap2\n      swap1\n      pop\n      jump\t// out\n        /* \"#utility.yul\":2480:2788   */\n    tag_332:\n        /* \"#utility.yul\":2542:2546   */\n      0x00\n        /* \"#utility.yul\":2632:2650   */\n      0xffffffffffffffff\n        /* \"#utility.yul\":2624:2630   */\n      dup3\n        /* \"#utility.yul\":2621:2651   */\n      gt\n        /* \"#utility.yul\":2618:2674   */\n      iszero\n      tag_426\n      jumpi\n        /* \"#utility.yul\":2654:2672   */\n      tag_427\n      tag_329\n      jump\t// in\n    tag_427:\n        /* \"#utility.yul\":2618:2674   */\n    tag_426:\n        /* \"#utility.yul\":2692:2721   */\n      tag_428\n        /* \"#utility.yul\":2714:2720   */\n      dup3\n        /* \"#utility.yul\":2692:2721   */\n      tag_328\n      jump\t// in\n    tag_428:\n        /* \"#utility.yul\":2684:2721   */\n      swap1\n      pop\n        /* \"#utility.yul\":2776:2780   */\n      0x20\n        /* \"#utility.yul\":2770:2774   */\n      dup2\n        /* \"#utility.yul\":2766:2781   */\n      add\n        /* \"#utility.yul\":2758:2781   */\n      swap1\n      pop\n        /* \"#utility.yul\":2480:2788   */\n      swap2\n      swap1\n      pop\n      jump\t// out\n        /* \"#utility.yul\":2794:2942   */\n    tag_333:\n        /* \"#utility.yul\":2892:2898   */\n      dup3\n        /* \"#utility.yul\":2887:2890   */\n      dup2\n        /* \"#utility.yul\":2882:2885   */\n      dup4\n        /* \"#utility.yul\":2869:2899   */\n      calldatacopy\n        /* \"#utility.yul\":2933:2934   */\n      0x00\n        /* \"#utility.yul\":2924:2930   */\n      dup4\n        /* \"#utility.yul\":2919:2922   */\n      dup4\n        /* \"#utility.yul\":2915:2931   */\n      add\n        /* \"#utility.yul\":2908:2935   */\n      mstore\n        /* \"#utility.yul\":2794:2942   */\n      pop\n      pop\n      pop\n      jump\t// out\n        /* \"#utility.yul\":2948:3373   */\n    tag_334:\n        /* \"#utility.yul\":3026:3031   */\n      0x00\n        /* \"#utility.yul\":3051:3117   */\n      tag_431\n        /* \"#utility.yul\":3067:3116   */\n      tag_432\n        /* \"#utility.yul\":3109:3115   */\n      dup5\n        /* \"#utility.yul\":3067:3116   */\n      tag_332\n      jump\t// in\n    tag_432:\n        /* \"#utility.yul\":3051:3117   */\n      tag_331\n      jump\t// in\n    tag_431:\n        /* \"#utility.yul\":3042:3117   */\n      swap1\n      pop\n        /* \"#utility.yul\":3140:3146   */\n      dup3\n        /* \"#utility.yul\":3133:3138   */\n      dup2\n        /* \"#utility.yul\":3126:3147   */\n      mstore\n        /* \"#utility.yul\":3178:3182   */\n      0x20\n        /* \"#utility.yul\":3171:3176   */\n      dup2\n        /* \"#utility.yul\":3167:3183   */\n      add\n        /* \"#utility.yul\":3216:3219   */\n      dup5\n        /* \"#utility.yul\":3207:3213   */\n      dup5\n        /* \"#utility.yul\":3202:3205   */\n      dup5\n        /* \"#utility.yul\":3198:3214   */\n      add\n        /* \"#utility.yul\":3195:3220   */\n      gt\n        /* \"#utility.yul\":3192:3304   */\n      iszero\n      tag_433\n      jumpi\n        /* \"#utility.yul\":3223:3302   */\n      tag_434\n      tag_327\n      jump\t// in\n    tag_434:\n        /* \"#utility.yul\":3192:3304   */\n    tag_433:\n        /* \"#utility.yul\":3313:3367   */\n      tag_435\n        /* \"#utility.yul\":3360:3366   */\n      dup5\n        /* \"#utility.yul\":3355:3358   */\n      dup3\n        /* \"#utility.yul\":3350:3353   */\n      dup6\n        /* \"#utility.yul\":3313:3367   */\n      tag_333\n      jump\t// in\n    tag_435:\n        /* \"#utility.yul\":3032:3373   */\n      pop\n        /* \"#utility.yul\":2948:3373   */\n      swap4\n      swap3\n      pop\n      pop\n      pop\n      jump\t// out\n        /* \"#utility.yul\":3393:3733   */\n    tag_335:\n        /* \"#utility.yul\":3449:3454   */\n      0x00\n        /* \"#utility.yul\":3498:3501   */\n      dup3\n        /* \"#utility.yul\":3491:3495   */\n      0x1f\n        /* \"#utility.yul\":3483:3489   */\n      dup4\n        /* \"#utility.yul\":3479:3496   */\n      add\n        /* \"#utility.yul\":3475:3502   */\n      slt\n        /* \"#utility.yul\":3465:3587   */\n      tag_437\n      jumpi\n        /* \"#utility.yul\":3506:3585   */\n      tag_438\n      tag_326\n      jump\t// in\n    tag_438:\n        /* \"#utility.yul\":3465:3587   */\n    tag_437:\n        /* \"#utility.yul\":3623:3629   */\n      dup2\n        /* \"#utility.yul\":3610:3630   */\n      calldataload\n        /* \"#utility.yul\":3648:3727   */\n      tag_439\n        /* \"#utility.yul\":3723:3726   */\n      dup5\n        /* \"#utility.yul\":3715:3721   */\n      dup3\n        /* \"#utility.yul\":3708:3712   */\n      0x20\n        /* \"#utility.yul\":3700:3706   */\n      dup7\n        /* \"#utility.yul\":3696:3713   */\n      add\n        /* \"#utility.yul\":3648:3727   */\n      tag_334\n      jump\t// in\n    tag_439:\n        /* \"#utility.yul\":3639:3727   */\n      swap2\n      pop\n        /* \"#utility.yul\":3455:3733   */\n      pop\n        /* \"#utility.yul\":3393:3733   */\n      swap3\n      swap2\n      pop\n      pop\n      jump\t// out\n        /* \"#utility.yul\":3739:4573   */\n    tag_38:\n        /* \"#utility.yul\":3827:3833   */\n      0x00\n        /* \"#utility.yul\":3835:3841   */\n      dup1\n        /* \"#utility.yul\":3884:3886   */\n      0x40\n        /* \"#utility.yul\":3872:3881   */\n      dup4\n        /* \"#utility.yul\":3863:3870   */\n      dup6\n        /* \"#utility.yul\":3859:3882   */\n      sub\n        /* \"#utility.yul\":3855:3887   */\n      slt\n        /* \"#utility.yul\":3852:3971   */\n      iszero\n      tag_441\n      jumpi\n        /* \"#utility.yul\":3890:3969   */\n      tag_442\n      tag_319\n      jump\t// in\n    tag_442:\n        /* \"#utility.yul\":3852:3971   */\n    tag_441:\n        /* \"#utility.yul\":4038:4039   */\n      0x00\n        /* \"#utility.yul\":4027:4036   */\n      dup4\n        /* \"#utility.yul\":4023:4040   */\n      add\n        /* \"#utility.yul\":4010:4041   */\n      calldataload\n        /* \"#utility.yul\":4068:4086   */\n      0xffffffffffffffff\n        /* \"#utility.yul\":4060:4066   */\n      dup2\n        /* \"#utility.yul\":4057:4087   */\n      gt\n        /* \"#utility.yul\":4054:4171   */\n      iszero\n      tag_443\n      jumpi\n        /* \"#utility.yul\":4090:4169   */\n      tag_444\n      tag_320\n      jump\t// in\n    tag_444:\n        /* \"#utility.yul\":4054:4171   */\n    tag_443:\n        /* \"#utility.yul\":4195:4258   */\n      tag_445\n        /* \"#utility.yul\":4250:4257   */\n      dup6\n        /* \"#utility.yul\":4241:4247   */\n      dup3\n        /* \"#utility.yul\":4230:4239   */\n      dup7\n        /* \"#utility.yul\":4226:4248   */\n      add\n        /* \"#utility.yul\":4195:4258   */\n      tag_335\n      jump\t// in\n    tag_445:\n        /* \"#utility.yul\":4185:4258   */\n      swap3\n      pop\n        /* \"#utility.yul\":3981:4268   */\n      pop\n        /* \"#utility.yul\":4335:4337   */\n      0x20\n        /* \"#utility.yul\":4324:4333   */\n      dup4\n        /* \"#utility.yul\":4320:4338   */\n      add\n        /* \"#utility.yul\":4307:4339   */\n      calldataload\n        /* \"#utility.yul\":4366:4384   */\n      0xffffffffffffffff\n        /* \"#utility.yul\":4358:4364   */\n      dup2\n        /* \"#utility.yul\":4355:4385   */\n      gt\n        /* \"#utility.yul\":4352:4469   */\n      iszero\n      tag_446\n      jumpi\n        /* \"#utility.yul\":4388:4467   */\n      tag_447\n      tag_320\n      jump\t// in\n    tag_447:\n        /* \"#utility.yul\":4352:4469   */\n    tag_446:\n        /* \"#utility.yul\":4493:4556   */\n      tag_448\n        /* \"#utility.yul\":4548:4555   */\n      dup6\n        /* \"#utility.yul\":4539:4545   */\n      dup3\n        /* \"#utility.yul\":4528:4537   */\n      dup7\n        /* \"#utility.yul\":4524:4546   */\n      add\n        /* \"#utility.yul\":4493:4556   */\n      tag_335\n      jump\t// in\n    tag_448:\n        /* \"#utility.yul\":4483:4556   */\n      swap2\n      pop\n        /* \"#utility.yul\":4278:4566   */\n      pop\n        /* \"#utility.yul\":3739:4573   */\n      swap3\n      pop\n      swap3\n      swap1\n      pop\n      jump\t// out\n        /* \"#utility.yul\":4579:4656   */\n    tag_336:\n        /* \"#utility.yul\":4616:4623   */\n      0x00\n        /* \"#utility.yul\":4645:4650   */\n      dup2\n        /* \"#utility.yul\":4634:4650   */\n      swap1\n      pop\n        /* \"#utility.yul\":4579:4656   */\n      swap2\n      swap1\n      pop\n      jump\t// out\n        /* \"#utility.yul\":4662:4784   */\n    tag_337:\n        /* \"#utility.yul\":4735:4759   */\n      tag_451\n        /* \"#utility.yul\":4753:4758   */\n      dup2\n        /* \"#utility.yul\":4735:4759   */\n      tag_336\n      jump\t// in\n    tag_451:\n        /* \"#utility.yul\":4728:4733   */\n      dup2\n        /* \"#utility.yul\":4725:4760   */\n      eq\n        /* \"#utility.yul\":4715:4778   */\n      tag_452\n      jumpi\n        /* \"#utility.yul\":4774:4775   */\n      0x00\n        /* \"#utility.yul\":4771:4772   */\n      dup1\n        /* \"#utility.yul\":4764:4776   */\n      revert\n        /* \"#utility.yul\":4715:4778   */\n    tag_452:\n        /* \"#utility.yul\":4662:4784   */\n      pop\n      jump\t// out\n        /* \"#utility.yul\":4790:4929   */\n    tag_338:\n        /* \"#utility.yul\":4836:4841   */\n      0x00\n        /* \"#utility.yul\":4874:4880   */\n      dup2\n        /* \"#utility.yul\":4861:4881   */\n      calldataload\n        /* \"#utility.yul\":4852:4881   */\n      swap1\n      pop\n        /* \"#utility.yul\":4890:4923   */\n      tag_454\n        /* \"#utility.yul\":4917:4922   */\n      dup2\n        /* \"#utility.yul\":4890:4923   */\n      tag_337\n      jump\t// in\n    tag_454:\n        /* \"#utility.yul\":4790:4929   */\n      swap3\n      swap2\n      pop\n      pop\n      jump\t// out\n        /* \"#utility.yul\":4935:5264   */\n    tag_43:\n        /* \"#utility.yul\":4994:5000   */\n      0x00\n        /* \"#utility.yul\":5043:5045   */\n      0x20\n        /* \"#utility.yul\":5031:5040   */\n      dup3\n        /* \"#utility.yul\":5022:5029   */\n      dup5\n        /* \"#utility.yul\":5018:5041   */\n      sub\n        /* \"#utility.yul\":5014:5046   */\n      slt\n        /* \"#utility.yul\":5011:5130   */\n      iszero\n      tag_456\n      jumpi\n        /* \"#utility.yul\":5049:5128   */\n      tag_457\n      tag_319\n      jump\t// in\n    tag_457:\n        /* \"#utility.yul\":5011:5130   */\n    tag_456:\n        /* \"#utility.yul\":5169:5170   */\n      0x00\n        /* \"#utility.yul\":5194:5247   */\n      tag_458\n        /* \"#utility.yul\":5239:5246   */\n      dup5\n        /* \"#utility.yul\":5230:5236   */\n      dup3\n        /* \"#utility.yul\":5219:5228   */\n      dup6\n        /* \"#utility.yul\":5215:5237   */\n      add\n        /* \"#utility.yul\":5194:5247   */\n      tag_338\n      jump\t// in\n    tag_458:\n        /* \"#utility.yul\":5184:5247   */\n      swap2\n      pop\n        /* \"#utility.yul\":5140:5257   */\n      pop\n        /* \"#utility.yul\":4935:5264   */\n      swap3\n      swap2\n      pop\n      pop\n      jump\t// out\n        /* \"#utility.yul\":5270:5388   */\n    tag_339:\n        /* \"#utility.yul\":5357:5381   */\n      tag_460\n        /* \"#utility.yul\":5375:5380   */\n      dup2\n        /* \"#utility.yul\":5357:5381   */\n      tag_336\n      jump\t// in\n    tag_460:\n        /* \"#utility.yul\":5352:5355   */\n      dup3\n        /* \"#utility.yul\":5345:5382   */\n      mstore\n        /* \"#utility.yul\":5270:5388   */\n      pop\n      pop\n      jump\t// out\n        /* \"#utility.yul\":5394:5616   */\n    tag_46:\n        /* \"#utility.yul\":5487:5491   */\n      0x00\n        /* \"#utility.yul\":5525:5527   */\n      0x20\n        /* \"#utility.yul\":5514:5523   */\n      dup3\n        /* \"#utility.yul\":5510:5528   */\n      add\n        /* \"#utility.yul\":5502:5528   */\n      swap1\n      pop\n        /* \"#utility.yul\":5538:5609   */\n      tag_462\n        /* \"#utility.yul\":5606:5607   */\n      0x00\n        /* \"#utility.yul\":5595:5604   */\n      dup4\n        /* \"#utility.yul\":5591:5608   */\n      add\n        /* \"#utility.yul\":5582:5588   */\n      dup5\n        /* \"#utility.yul\":5538:5609   */\n      tag_339\n      jump\t// in\n    tag_462:\n        /* \"#utility.yul\":5394:5616   */\n      swap3\n      swap2\n      pop\n      pop\n      jump\t// out\n        /* \"#utility.yul\":5622:5699   */\n    tag_340:\n        /* \"#utility.yul\":5659:5666   */\n      0x00\n        /* \"#utility.yul\":5688:5693   */\n      dup2\n        /* \"#utility.yul\":5677:5693   */\n      swap1\n      pop\n        /* \"#utility.yul\":5622:5699   */\n      swap2\n      swap1\n      pop\n      jump\t// out\n        /* \"#utility.yul\":5705:5827   */\n    tag_341:\n        /* \"#utility.yul\":5778:5802   */\n      tag_465\n        /* \"#utility.yul\":5796:5801   */\n      dup2\n        /* \"#utility.yul\":5778:5802   */\n      tag_340\n      jump\t// in\n    tag_465:\n        /* \"#utility.yul\":5771:5776   */\n      dup2\n        /* \"#utility.yul\":5768:5803   */\n      eq\n        /* \"#utility.yul\":5758:5821   */\n      tag_466\n      jumpi\n        /* \"#utility.yul\":5817:5818   */\n      0x00\n        /* \"#utility.yul\":5814:5815   */\n      dup1\n        /* \"#utility.yul\":5807:5819   */\n      revert\n        /* \"#utility.yul\":5758:5821   */\n    tag_466:\n        /* \"#utility.yul\":5705:5827   */\n      pop\n      jump\t// out\n        /* \"#utility.yul\":5833:5972   */\n    tag_342:\n        /* \"#utility.yul\":5879:5884   */\n      0x00\n        /* \"#utility.yul\":5917:5923   */\n      dup2\n        /* \"#utility.yul\":5904:5924   */\n      calldataload\n        /* \"#utility.yul\":5895:5924   */\n      swap1\n      pop\n        /* \"#utility.yul\":5933:5966   */\n      tag_468\n        /* \"#utility.yul\":5960:5965   */\n      dup2\n        /* \"#utility.yul\":5933:5966   */\n      tag_341\n      jump\t// in\n    tag_468:\n        /* \"#utility.yul\":5833:5972   */\n      swap3\n      swap2\n      pop\n      pop\n      jump\t// out\n        /* \"#utility.yul\":5978:6307   */\n    tag_50:\n        /* \"#utility.yul\":6037:6043   */\n      0x00\n        /* \"#utility.yul\":6086:6088   */\n      0x20\n        /* \"#utility.yul\":6074:6083   */\n      dup3\n        /* \"#utility.yul\":6065:6072   */\n      dup5\n        /* \"#utility.yul\":6061:6084   */\n      sub\n        /* \"#utility.yul\":6057:6089   */\n      slt\n        /* \"#utility.yul\":6054:6173   */\n      iszero\n      tag_470\n      jumpi\n        /* \"#utility.yul\":6092:6171   */\n      tag_471\n      tag_319\n      jump\t// in\n    tag_471:\n        /* \"#utility.yul\":6054:6173   */\n    tag_470:\n        /* \"#utility.yul\":6212:6213   */\n      0x00\n        /* \"#utility.yul\":6237:6290   */\n      tag_472\n        /* \"#utility.yul\":6282:6289   */\n      dup5\n        /* \"#utility.yul\":6273:6279   */\n      dup3\n        /* \"#utility.yul\":6262:6271   */\n      dup6\n        /* \"#utility.yul\":6258:6280   */\n      add\n        /* \"#utility.yul\":6237:6290   */\n      tag_342\n      jump\t// in\n    tag_472:\n        /* \"#utility.yul\":6227:6290   */\n      swap2\n      pop\n        /* \"#utility.yul\":6183:6300   */\n      pop\n        /* \"#utility.yul\":5978:6307   */\n      swap3\n      swap2\n      pop\n      pop\n      jump\t// out\n        /* \"#utility.yul\":6313:6431   */\n    tag_343:\n        /* \"#utility.yul\":6400:6424   */\n      tag_474\n        /* \"#utility.yul\":6418:6423   */\n      dup2\n        /* \"#utility.yul\":6400:6424   */\n      tag_340\n      jump\t// in\n    tag_474:\n        /* \"#utility.yul\":6395:6398   */\n      dup3\n        /* \"#utility.yul\":6388:6425   */\n      mstore\n        /* \"#utility.yul\":6313:6431   */\n      pop\n      pop\n      jump\t// out\n        /* \"#utility.yul\":6437:6659   */\n    tag_53:\n        /* \"#utility.yul\":6530:6534   */\n      0x00\n        /* \"#utility.yul\":6568:6570   */\n      0x20\n        /* \"#utility.yul\":6557:6566   */\n      dup3\n        /* \"#utility.yul\":6553:6571   */\n      add\n        /* \"#utility.yul\":6545:6571   */\n      swap1\n      pop\n        /* \"#utility.yul\":6581:6652   */\n      tag_476\n        /* \"#utility.yul\":6649:6650   */\n      0x00\n        /* \"#utility.yul\":6638:6647   */\n      dup4\n        /* \"#utility.yul\":6634:6651   */\n      add\n        /* \"#utility.yul\":6625:6631   */\n      dup5\n        /* \"#utility.yul\":6581:6652   */\n      tag_343\n      jump\t// in\n    tag_476:\n        /* \"#utility.yul\":6437:6659   */\n      swap3\n      swap2\n      pop\n      pop\n      jump\t// out\n        /* \"#utility.yul\":6665:6791   */\n    tag_344:\n        /* \"#utility.yul\":6702:6709   */\n      0x00\n        /* \"#utility.yul\":6742:6784   */\n      0xffffffffffffffffffffffffffffffffffffffff\n        /* \"#utility.yul\":6735:6740   */\n      dup3\n        /* \"#utility.yul\":6731:6785   */\n      and\n        /* \"#utility.yul\":6720:6785   */\n      swap1\n      pop\n        /* \"#utility.yul\":6665:6791   */\n      swap2\n      swap1\n      pop\n      jump\t// out\n        /* \"#utility.yul\":6797:6893   */\n    tag_345:\n        /* \"#utility.yul\":6834:6841   */\n      0x00\n        /* \"#utility.yul\":6863:6887   */\n      tag_479\n        /* \"#utility.yul\":6881:6886   */\n      dup3\n        /* \"#utility.yul\":6863:6887   */\n      tag_344\n      jump\t// in\n    tag_479:\n        /* \"#utility.yul\":6852:6887   */\n      swap1\n      pop\n        /* \"#utility.yul\":6797:6893   */\n      swap2\n      swap1\n      pop\n      jump\t// out\n        /* \"#utility.yul\":6899:7021   */\n    tag_346:\n        /* \"#utility.yul\":6972:6996   */\n      tag_481\n        /* \"#utility.yul\":6990:6995   */\n      dup2\n        /* \"#utility.yul\":6972:6996   */\n      tag_345\n      jump\t// in\n    tag_481:\n        /* \"#utility.yul\":6965:6970   */\n      dup2\n        /* \"#utility.yul\":6962:6997   */\n      eq\n        /* \"#utility.yul\":6952:7015   */\n      tag_482\n      jumpi\n        /* \"#utility.yul\":7011:7012   */\n      0x00\n        /* \"#utility.yul\":7008:7009   */\n      dup1\n        /* \"#utility.yul\":7001:7013   */\n      revert\n        /* \"#utility.yul\":6952:7015   */\n    tag_482:\n        /* \"#utility.yul\":6899:7021   */\n      pop\n      jump\t// out\n        /* \"#utility.yul\":7027:7166   */\n    tag_347:\n        /* \"#utility.yul\":7073:7078   */\n      0x00\n        /* \"#utility.yul\":7111:7117   */\n      dup2\n        /* \"#utility.yul\":7098:7118   */\n      calldataload\n        /* \"#utility.yul\":7089:7118   */\n      swap1\n      pop\n        /* \"#utility.yul\":7127:7160   */\n      tag_484\n        /* \"#utility.yul\":7154:7159   */\n      dup2\n        /* \"#utility.yul\":7127:7160   */\n      tag_346\n      jump\t// in\n    tag_484:\n        /* \"#utility.yul\":7027:7166   */\n      swap3\n      swap2\n      pop\n      pop\n      jump\t// out\n        /* \"#utility.yul\":7172:7646   */\n    tag_61:\n        /* \"#utility.yul\":7240:7246   */\n      0x00\n        /* \"#utility.yul\":7248:7254   */\n      dup1\n        /* \"#utility.yul\":7297:7299   */\n      0x40\n        /* \"#utility.yul\":7285:7294   */\n      dup4\n        /* \"#utility.yul\":7276:7283   */\n      dup6\n        /* \"#utility.yul\":7272:7295   */\n      sub\n        /* \"#utility.yul\":7268:7300   */\n      slt\n        /* \"#utility.yul\":7265:7384   */\n      iszero\n      tag_486\n      jumpi\n        /* \"#utility.yul\":7303:7382   */\n      tag_487\n      tag_319\n      jump\t// in\n    tag_487:\n        /* \"#utility.yul\":7265:7384   */\n    tag_486:\n        /* \"#utility.yul\":7423:7424   */\n      0x00\n        /* \"#utility.yul\":7448:7501   */\n      tag_488\n        /* \"#utility.yul\":7493:7500   */\n      dup6\n        /* \"#utility.yul\":7484:7490   */\n      dup3\n        /* \"#utility.yul\":7473:7482   */\n      dup7\n        /* \"#utility.yul\":7469:7491   */\n      add\n        /* \"#utility.yul\":7448:7501   */\n      tag_338\n      jump\t// in\n    tag_488:\n        /* \"#utility.yul\":7438:7501   */\n      swap3\n      pop\n        /* \"#utility.yul\":7394:7511   */\n      pop\n        /* \"#utility.yul\":7550:7552   */\n      0x20\n        /* \"#utility.yul\":7576:7629   */\n      tag_489\n        /* \"#utility.yul\":7621:7628   */\n      dup6\n        /* \"#utility.yul\":7612:7618   */\n      dup3\n        /* \"#utility.yul\":7601:7610   */\n      dup7\n        /* \"#utility.yul\":7597:7619   */\n      add\n        /* \"#utility.yul\":7576:7629   */\n      tag_347\n      jump\t// in\n    tag_489:\n        /* \"#utility.yul\":7566:7629   */\n      swap2\n      pop\n        /* \"#utility.yul\":7521:7639   */\n      pop\n        /* \"#utility.yul\":7172:7646   */\n      swap3\n      pop\n      swap3\n      swap1\n      pop\n      jump\t// out\n        /* \"#utility.yul\":7652:7770   */\n    tag_348:\n        /* \"#utility.yul\":7739:7763   */\n      tag_491\n        /* \"#utility.yul\":7757:7762   */\n      dup2\n        /* \"#utility.yul\":7739:7763   */\n      tag_345\n      jump\t// in\n    tag_491:\n        /* \"#utility.yul\":7734:7737   */\n      dup3\n        /* \"#utility.yul\":7727:7764   */\n      mstore\n        /* \"#utility.yul\":7652:7770   */\n      pop\n      pop\n      jump\t// out\n        /* \"#utility.yul\":7776:7998   */\n    tag_67:\n        /* \"#utility.yul\":7869:7873   */\n      0x00\n        /* \"#utility.yul\":7907:7909   */\n      0x20\n        /* \"#utility.yul\":7896:7905   */\n      dup3\n        /* \"#utility.yul\":7892:7910   */\n      add\n        /* \"#utility.yul\":7884:7910   */\n      swap1\n      pop\n        /* \"#utility.yul\":7920:7991   */\n      tag_493\n        /* \"#utility.yul\":7988:7989   */\n      0x00\n        /* \"#utility.yul\":7977:7986   */\n      dup4\n        /* \"#utility.yul\":7973:7990   */\n      add\n        /* \"#utility.yul\":7964:7970   */\n      dup5\n        /* \"#utility.yul\":7920:7991   */\n      tag_348\n      jump\t// in\n    tag_493:\n        /* \"#utility.yul\":7776:7998   */\n      swap3\n      swap2\n      pop\n      pop\n      jump\t// out\n        /* \"#utility.yul\":8004:8478   */\n    tag_71:\n        /* \"#utility.yul\":8072:8078   */\n      0x00\n        /* \"#utility.yul\":8080:8086   */\n      dup1\n        /* \"#utility.yul\":8129:8131   */\n      0x40\n        /* \"#utility.yul\":8117:8126   */\n      dup4\n        /* \"#utility.yul\":8108:8115   */\n      dup6\n        /* \"#utility.yul\":8104:8127   */\n      sub\n        /* \"#utility.yul\":8100:8132   */\n      slt\n        /* \"#utility.yul\":8097:8216   */\n      iszero\n      tag_495\n      jumpi\n        /* \"#utility.yul\":8135:8214   */\n      tag_496\n      tag_319\n      jump\t// in\n    tag_496:\n        /* \"#utility.yul\":8097:8216   */\n    tag_495:\n        /* \"#utility.yul\":8255:8256   */\n      0x00\n        /* \"#utility.yul\":8280:8333   */\n      tag_497\n        /* \"#utility.yul\":8325:8332   */\n      dup6\n        /* \"#utility.yul\":8316:8322   */\n      dup3\n        /* \"#utility.yul\":8305:8314   */\n      dup7\n        /* \"#utility.yul\":8301:8323   */\n      add\n        /* \"#utility.yul\":8280:8333   */\n      tag_347\n      jump\t// in\n    tag_497:\n        /* \"#utility.yul\":8270:8333   */\n      swap3\n      pop\n        /* \"#utility.yul\":8226:8343   */\n      pop\n        /* \"#utility.yul\":8382:8384   */\n      0x20\n        /* \"#utility.yul\":8408:8461   */\n      tag_498\n        /* \"#utility.yul\":8453:8460   */\n      dup6\n        /* \"#utility.yul\":8444:8450   */\n      dup3\n        /* \"#utility.yul\":8433:8442   */\n      dup7\n        /* \"#utility.yul\":8429:8451   */\n      add\n        /* \"#utility.yul\":8408:8461   */\n      tag_342\n      jump\t// in\n    tag_498:\n        /* \"#utility.yul\":8398:8461   */\n      swap2\n      pop\n        /* \"#utility.yul\":8353:8471   */\n      pop\n        /* \"#utility.yul\":8004:8478   */\n      swap3\n      pop\n      swap3\n      swap1\n      pop\n      jump\t// out\n        /* \"#utility.yul\":8484:8570   */\n    tag_349:\n        /* \"#utility.yul\":8519:8526   */\n      0x00\n        /* \"#utility.yul\":8559:8563   */\n      0xff\n        /* \"#utility.yul\":8552:8557   */\n      dup3\n        /* \"#utility.yul\":8548:8564   */\n      and\n        /* \"#utility.yul\":8537:8564   */\n      swap1\n      pop\n        /* \"#utility.yul\":8484:8570   */\n      swap2\n      swap1\n      pop\n      jump\t// out\n        /* \"#utility.yul\":8576:8694   */\n    tag_350:\n        /* \"#utility.yul\":8647:8669   */\n      tag_501\n        /* \"#utility.yul\":8663:8668   */\n      dup2\n        /* \"#utility.yul\":8647:8669   */\n      tag_349\n      jump\t// in\n    tag_501:\n        /* \"#utility.yul\":8640:8645   */\n      dup2\n        /* \"#utility.yul\":8637:8670   */\n      eq\n        /* \"#utility.yul\":8627:8688   */\n      tag_502\n      jumpi\n        /* \"#utility.yul\":8684:8685   */\n      0x00\n        /* \"#utility.yul\":8681:8682   */\n      dup1\n        /* \"#utility.yul\":8674:8686   */\n      revert\n        /* \"#utility.yul\":8627:8688   */\n    tag_502:\n        /* \"#utility.yul\":8576:8694   */\n      pop\n      jump\t// out\n        /* \"#utility.yul\":8700:8835   */\n    tag_351:\n        /* \"#utility.yul\":8744:8749   */\n      0x00\n        /* \"#utility.yul\":8782:8788   */\n      dup2\n        /* \"#utility.yul\":8769:8789   */\n      calldataload\n        /* \"#utility.yul\":8760:8789   */\n      swap1\n      pop\n        /* \"#utility.yul\":8798:8829   */\n      tag_504\n        /* \"#utility.yul\":8823:8828   */\n      dup2\n        /* \"#utility.yul\":8798:8829   */\n      tag_350\n      jump\t// in\n    tag_504:\n        /* \"#utility.yul\":8700:8835   */\n      swap3\n      swap2\n      pop\n      pop\n      jump\t// out\n        /* \"#utility.yul\":8841:8957   */\n    tag_352:\n        /* \"#utility.yul\":8911:8932   */\n      tag_506\n        /* \"#utility.yul\":8926:8931   */\n      dup2\n        /* \"#utility.yul\":8911:8932   */\n      tag_324\n      jump\t// in\n    tag_506:\n        /* \"#utility.yul\":8904:8909   */\n      dup2\n        /* \"#utility.yul\":8901:8933   */\n      eq\n        /* \"#utility.yul\":8891:8951   */\n      tag_507\n      jumpi\n        /* \"#utility.yul\":8947:8948   */\n      0x00\n        /* \"#utility.yul\":8944:8945   */\n      dup1\n        /* \"#utility.yul\":8937:8949   */\n      revert\n        /* \"#utility.yul\":8891:8951   */\n    tag_507:\n        /* \"#utility.yul\":8841:8957   */\n      pop\n      jump\t// out\n        /* \"#utility.yul\":8963:9096   */\n    tag_353:\n        /* \"#utility.yul\":9006:9011   */\n      0x00\n        /* \"#utility.yul\":9044:9050   */\n      dup2\n        /* \"#utility.yul\":9031:9051   */\n      calldataload\n        /* \"#utility.yul\":9022:9051   */\n      swap1\n      pop\n        /* \"#utility.yul\":9060:9090   */\n      tag_509\n        /* \"#utility.yul\":9084:9089   */\n      dup2\n        /* \"#utility.yul\":9060:9090   */\n      tag_352\n      jump\t// in\n    tag_509:\n        /* \"#utility.yul\":8963:9096   */\n      swap3\n      swap2\n      pop\n      pop\n      jump\t// out\n        /* \"#utility.yul\":9102:9857   */\n    tag_88:\n        /* \"#utility.yul\":9183:9189   */\n      0x00\n        /* \"#utility.yul\":9191:9197   */\n      dup1\n        /* \"#utility.yul\":9199:9205   */\n      0x00\n        /* \"#utility.yul\":9207:9213   */\n      dup1\n        /* \"#utility.yul\":9256:9259   */\n      0x80\n        /* \"#utility.yul\":9244:9253   */\n      dup6\n        /* \"#utility.yul\":9235:9242   */\n      dup8\n        /* \"#utility.yul\":9231:9254   */\n      sub\n        /* \"#utility.yul\":9227:9260   */\n      slt\n        /* \"#utility.yul\":9224:9344   */\n      iszero\n      tag_511\n      jumpi\n        /* \"#utility.yul\":9263:9342   */\n      tag_512\n      tag_319\n      jump\t// in\n    tag_512:\n        /* \"#utility.yul\":9224:9344   */\n    tag_511:\n        /* \"#utility.yul\":9383:9384   */\n      0x00\n        /* \"#utility.yul\":9408:9461   */\n      tag_513\n        /* \"#utility.yul\":9453:9460   */\n      dup8\n        /* \"#utility.yul\":9444:9450   */\n      dup3\n        /* \"#utility.yul\":9433:9442   */\n      dup9\n        /* \"#utility.yul\":9429:9451   */\n      add\n        /* \"#utility.yul\":9408:9461   */\n      tag_347\n      jump\t// in\n    tag_513:\n        /* \"#utility.yul\":9398:9461   */\n      swap5\n      pop\n        /* \"#utility.yul\":9354:9471   */\n      pop\n        /* \"#utility.yul\":9510:9512   */\n      0x20\n        /* \"#utility.yul\":9536:9587   */\n      tag_514\n        /* \"#utility.yul\":9579:9586   */\n      dup8\n        /* \"#utility.yul\":9570:9576   */\n      dup3\n        /* \"#utility.yul\":9559:9568   */\n      dup9\n        /* \"#utility.yul\":9555:9577   */\n      add\n        /* \"#utility.yul\":9536:9587   */\n      tag_351\n      jump\t// in\n    tag_514:\n        /* \"#utility.yul\":9526:9587   */\n      swap4\n      pop\n        /* \"#utility.yul\":9481:9597   */\n      pop\n        /* \"#utility.yul\":9636:9638   */\n      0x40\n        /* \"#utility.yul\":9662:9715   */\n      tag_515\n        /* \"#utility.yul\":9707:9714   */\n      dup8\n        /* \"#utility.yul\":9698:9704   */\n      dup3\n        /* \"#utility.yul\":9687:9696   */\n      dup9\n        /* \"#utility.yul\":9683:9705   */\n      add\n        /* \"#utility.yul\":9662:9715   */\n      tag_347\n      jump\t// in\n    tag_515:\n        /* \"#utility.yul\":9652:9715   */\n      swap3\n      pop\n        /* \"#utility.yul\":9607:9725   */\n      pop\n        /* \"#utility.yul\":9764:9766   */\n      0x60\n        /* \"#utility.yul\":9790:9840   */\n      tag_516\n        /* \"#utility.yul\":9832:9839   */\n      dup8\n        /* \"#utility.yul\":9823:9829   */\n      dup3\n        /* \"#utility.yul\":9812:9821   */\n      dup9\n        /* \"#utility.yul\":9808:9830   */\n      add\n        /* \"#utility.yul\":9790:9840   */\n      tag_353\n      jump\t// in\n    tag_516:\n        /* \"#utility.yul\":9780:9840   */\n      swap2\n      pop\n        /* \"#utility.yul\":9735:9850   */\n      pop\n        /* \"#utility.yul\":9102:9857   */\n      swap3\n      swap6\n      swap2\n      swap5\n      pop\n      swap3\n      pop\n      jump\t// out\n        /* \"#utility.yul\":9863:9923   */\n    tag_354:\n        /* \"#utility.yul\":9891:9894   */\n      0x00\n        /* \"#utility.yul\":9912:9917   */\n      dup2\n        /* \"#utility.yul\":9905:9917   */\n      swap1\n      pop\n        /* \"#utility.yul\":9863:9923   */\n      swap2\n      swap1\n      pop\n      jump\t// out\n        /* \"#utility.yul\":9929:10071   */\n    tag_355:\n        /* \"#utility.yul\":9979:9988   */\n      0x00\n        /* \"#utility.yul\":10012:10065   */\n      tag_519\n        /* \"#utility.yul\":10030:10064   */\n      tag_520\n        /* \"#utility.yul\":10039:10063   */\n      tag_521\n        /* \"#utility.yul\":10057:10062   */\n      dup5\n        /* \"#utility.yul\":10039:10063   */\n      tag_344\n      jump\t// in\n    tag_521:\n        /* \"#utility.yul\":10030:10064   */\n      tag_354\n      jump\t// in\n    tag_520:\n        /* \"#utility.yul\":10012:10065   */\n      tag_344\n      jump\t// in\n    tag_519:\n        /* \"#utility.yul\":9999:10065   */\n      swap1\n      pop\n        /* \"#utility.yul\":9929:10071   */\n      swap2\n      swap1\n      pop\n      jump\t// out\n        /* \"#utility.yul\":10077:10203   */\n    tag_356:\n        /* \"#utility.yul\":10127:10136   */\n      0x00\n        /* \"#utility.yul\":10160:10197   */\n      tag_523\n        /* \"#utility.yul\":10191:10196   */\n      dup3\n        /* \"#utility.yul\":10160:10197   */\n      tag_355\n      jump\t// in\n    tag_523:\n        /* \"#utility.yul\":10147:10197   */\n      swap1\n      pop\n        /* \"#utility.yul\":10077:10203   */\n      swap2\n      swap1\n      pop\n      jump\t// out\n        /* \"#utility.yul\":10209:10363   */\n    tag_357:\n        /* \"#utility.yul\":10287:10296   */\n      0x00\n        /* \"#utility.yul\":10320:10357   */\n      tag_525\n        /* \"#utility.yul\":10351:10356   */\n      dup3\n        /* \"#utility.yul\":10320:10357   */\n      tag_356\n      jump\t// in\n    tag_525:\n        /* \"#utility.yul\":10307:10357   */\n      swap1\n      pop\n        /* \"#utility.yul\":10209:10363   */\n      swap2\n      swap1\n      pop\n      jump\t// out\n        /* \"#utility.yul\":10369:10556   */\n    tag_358:\n        /* \"#utility.yul\":10484:10549   */\n      tag_527\n        /* \"#utility.yul\":10543:10548   */\n      dup2\n        /* \"#utility.yul\":10484:10549   */\n      tag_357\n      jump\t// in\n    tag_527:\n        /* \"#utility.yul\":10479:10482   */\n      dup3\n        /* \"#utility.yul\":10472:10550   */\n      mstore\n        /* \"#utility.yul\":10369:10556   */\n      pop\n      pop\n      jump\t// out\n        /* \"#utility.yul\":10562:10840   */\n    tag_115:\n        /* \"#utility.yul\":10683:10687   */\n      0x00\n        /* \"#utility.yul\":10721:10723   */\n      0x20\n        /* \"#utility.yul\":10710:10719   */\n      dup3\n        /* \"#utility.yul\":10706:10724   */\n      add\n        /* \"#utility.yul\":10698:10724   */\n      swap1\n      pop\n        /* \"#utility.yul\":10734:10833   */\n      tag_529\n        /* \"#utility.yul\":10830:10831   */\n      0x00\n        /* \"#utility.yul\":10819:10828   */\n      dup4\n        /* \"#utility.yul\":10815:10832   */\n      add\n        /* \"#utility.yul\":10806:10812   */\n      dup5\n        /* \"#utility.yul\":10734:10833   */\n      tag_358\n      jump\t// in\n    tag_529:\n        /* \"#utility.yul\":10562:10840   */\n      swap3\n      swap2\n      pop\n      pop\n      jump\t// out\n        /* \"#utility.yul\":10846:11320   */\n    tag_121:\n        /* \"#utility.yul\":10914:10920   */\n      0x00\n        /* \"#utility.yul\":10922:10928   */\n      dup1\n        /* \"#utility.yul\":10971:10973   */\n      0x40\n        /* \"#utility.yul\":10959:10968   */\n      dup4\n        /* \"#utility.yul\":10950:10957   */\n      dup6\n        /* \"#utility.yul\":10946:10969   */\n      sub\n        /* \"#utility.yul\":10942:10974   */\n      slt\n        /* \"#utility.yul\":10939:11058   */\n      iszero\n      tag_531\n      jumpi\n        /* \"#utility.yul\":10977:11056   */\n      tag_532\n      tag_319\n      jump\t// in\n    tag_532:\n        /* \"#utility.yul\":10939:11058   */\n    tag_531:\n        /* \"#utility.yul\":11097:11098   */\n      0x00\n        /* \"#utility.yul\":11122:11175   */\n      tag_533\n        /* \"#utility.yul\":11167:11174   */\n      dup6\n        /* \"#utility.yul\":11158:11164   */\n      dup3\n        /* \"#utility.yul\":11147:11156   */\n      dup7\n        /* \"#utility.yul\":11143:11165   */\n      add\n        /* \"#utility.yul\":11122:11175   */\n      tag_347\n      jump\t// in\n    tag_533:\n        /* \"#utility.yul\":11112:11175   */\n      swap3\n      pop\n        /* \"#utility.yul\":11068:11185   */\n      pop\n        /* \"#utility.yul\":11224:11226   */\n      0x20\n        /* \"#utility.yul\":11250:11303   */\n      tag_534\n        /* \"#utility.yul\":11295:11302   */\n      dup6\n        /* \"#utility.yul\":11286:11292   */\n      dup3\n        /* \"#utility.yul\":11275:11284   */\n      dup7\n        /* \"#utility.yul\":11271:11293   */\n      add\n        /* \"#utility.yul\":11250:11303   */\n      tag_347\n      jump\t// in\n    tag_534:\n        /* \"#utility.yul\":11240:11303   */\n      swap2\n      pop\n        /* \"#utility.yul\":11195:11313   */\n      pop\n        /* \"#utility.yul\":10846:11320   */\n      swap3\n      pop\n      swap3\n      swap1\n      pop\n      jump\t// out\n        /* \"#utility.yul\":11326:11506   */\n    tag_359:\n        /* \"#utility.yul\":11374:11451   */\n      0x4e487b7100000000000000000000000000000000000000000000000000000000\n        /* \"#utility.yul\":11371:11372   */\n      0x00\n        /* \"#utility.yul\":11364:11452   */\n      mstore\n        /* \"#utility.yul\":11471:11475   */\n      0x11\n        /* \"#utility.yul\":11468:11469   */\n      0x04\n        /* \"#utility.yul\":11461:11476   */\n      mstore\n        /* \"#utility.yul\":11495:11499   */\n      0x24\n        /* \"#utility.yul\":11492:11493   */\n      0x00\n        /* \"#utility.yul\":11485:11500   */\n      revert\n        /* \"#utility.yul\":11512:11703   */\n    tag_147:\n        /* \"#utility.yul\":11552:11555   */\n      0x00\n        /* \"#utility.yul\":11571:11591   */\n      tag_537\n        /* \"#utility.yul\":11589:11590   */\n      dup3\n        /* \"#utility.yul\":11571:11591   */\n      tag_340\n      jump\t// in\n    tag_537:\n        /* \"#utility.yul\":11566:11591   */\n      swap2\n      pop\n        /* \"#utility.yul\":11605:11625   */\n      tag_538\n        /* \"#utility.yul\":11623:11624   */\n      dup4\n        /* \"#utility.yul\":11605:11625   */\n      tag_340\n      jump\t// in\n    tag_538:\n        /* \"#utility.yul\":11600:11625   */\n      swap3\n      pop\n        /* \"#utility.yul\":11648:11649   */\n      dup3\n        /* \"#utility.yul\":11645:11646   */\n      dup3\n        /* \"#utility.yul\":11641:11650   */\n      add\n        /* \"#utility.yul\":11634:11650   */\n      swap1\n      pop\n        /* \"#utility.yul\":11669:11672   */\n      dup1\n        /* \"#utility.yul\":11666:11667   */\n      dup3\n        /* \"#utility.yul\":11663:11673   */\n      gt\n        /* \"#utility.yul\":11660:11696   */\n      iszero\n      tag_539\n      jumpi\n        /* \"#utility.yul\":11676:11694   */\n      tag_540\n      tag_359\n      jump\t// in\n    tag_540:\n        /* \"#utility.yul\":11660:11696   */\n    tag_539:\n        /* \"#utility.yul\":11512:11703   */\n      swap3\n      swap2\n      pop\n      pop\n      jump\t// out\n        /* \"#utility.yul\":11709:11808   */\n    tag_360:\n        /* \"#utility.yul\":11761:11767   */\n      0x00\n        /* \"#utility.yul\":11795:11800   */\n      dup2\n        /* \"#utility.yul\":11789:11801   */\n      mload\n        /* \"#utility.yul\":11779:11801   */\n      swap1\n      pop\n        /* \"#utility.yul\":11709:11808   */\n      swap2\n      swap1\n      pop\n      jump\t// out\n        /* \"#utility.yul\":11814:11994   */\n    tag_361:\n        /* \"#utility.yul\":11862:11939   */\n      0x4e487b7100000000000000000000000000000000000000000000000000000000\n        /* \"#utility.yul\":11859:11860   */\n      0x00\n        /* \"#utility.yul\":11852:11940   */\n      mstore\n        /* \"#utility.yul\":11959:11963   */\n      0x22\n        /* \"#utility.yul\":11956:11957   */\n      0x04\n        /* \"#utility.yul\":11949:11964   */\n      mstore\n        /* \"#utility.yul\":11983:11987   */\n      0x24\n        /* \"#utility.yul\":11980:11981   */\n      0x00\n        /* \"#utility.yul\":11973:11988   */\n      revert\n        /* \"#utility.yul\":12000:12320   */\n    tag_362:\n        /* \"#utility.yul\":12044:12050   */\n      0x00\n        /* \"#utility.yul\":12081:12082   */\n      0x02\n        /* \"#utility.yul\":12075:12079   */\n      dup3\n        /* \"#utility.yul\":12071:12083   */\n      div\n        /* \"#utility.yul\":12061:12083   */\n      swap1\n      pop\n        /* \"#utility.yul\":12128:12129   */\n      0x01\n        /* \"#utility.yul\":12122:12126   */\n      dup3\n        /* \"#utility.yul\":12118:12130   */\n      and\n        /* \"#utility.yul\":12149:12167   */\n      dup1\n        /* \"#utility.yul\":12139:12220   */\n      tag_544\n      jumpi\n        /* \"#utility.yul\":12205:12209   */\n      0x7f\n        /* \"#utility.yul\":12197:12203   */\n      dup3\n        /* \"#utility.yul\":12193:12210   */\n      and\n        /* \"#utility.yul\":12183:12210   */\n      swap2\n      pop\n        /* \"#utility.yul\":12139:12220   */\n    tag_544:\n        /* \"#utility.yul\":12267:12269   */\n      0x20\n        /* \"#utility.yul\":12259:12265   */\n      dup3\n        /* \"#utility.yul\":12256:12270   */\n      lt\n        /* \"#utility.yul\":12236:12254   */\n      dup2\n        /* \"#utility.yul\":12233:12271   */\n      sub\n        /* \"#utility.yul\":12230:12314   */\n      tag_545\n      jumpi\n        /* \"#utility.yul\":12286:12304   */\n      tag_546\n      tag_361\n      jump\t// in\n    tag_546:\n        /* \"#utility.yul\":12230:12314   */\n    tag_545:\n        /* \"#utility.yul\":12051:12320   */\n      pop\n        /* \"#utility.yul\":12000:12320   */\n      swap2\n      swap1\n      pop\n      jump\t// out\n        /* \"#utility.yul\":12326:12467   */\n    tag_363:\n        /* \"#utility.yul\":12375:12379   */\n      0x00\n        /* \"#utility.yul\":12398:12401   */\n      dup2\n        /* \"#utility.yul\":12390:12401   */\n      swap1\n      pop\n        /* \"#utility.yul\":12421:12424   */\n      dup2\n        /* \"#utility.yul\":12418:12419   */\n      0x00\n        /* \"#utility.yul\":12411:12425   */\n      mstore\n        /* \"#utility.yul\":12455:12459   */\n      0x20\n        /* \"#utility.yul\":12452:12453   */\n      0x00\n        /* \"#utility.yul\":12442:12460   */\n      keccak256\n        /* \"#utility.yul\":12434:12460   */\n      swap1\n      pop\n        /* \"#utility.yul\":12326:12467   */\n      swap2\n      swap1\n      pop\n      jump\t// out\n        /* \"#utility.yul\":12473:12566   */\n    tag_364:\n        /* \"#utility.yul\":12510:12516   */\n      0x00\n        /* \"#utility.yul\":12557:12559   */\n      0x20\n        /* \"#utility.yul\":12552:12554   */\n      0x1f\n        /* \"#utility.yul\":12545:12550   */\n      dup4\n        /* \"#utility.yul\":12541:12555   */\n      add\n        /* \"#utility.yul\":12537:12560   */\n      div\n        /* \"#utility.yul\":12527:12560   */\n      swap1\n      pop\n        /* \"#utility.yul\":12473:12566   */\n      swap2\n      swap1\n      pop\n      jump\t// out\n        /* \"#utility.yul\":12572:12679   */\n    tag_365:\n        /* \"#utility.yul\":12616:12624   */\n      0x00\n        /* \"#utility.yul\":12666:12671   */\n      dup3\n        /* \"#utility.yul\":12660:12664   */\n      dup3\n        /* \"#utility.yul\":12656:12672   */\n      shl\n        /* \"#utility.yul\":12635:12672   */\n      swap1\n      pop\n        /* \"#utility.yul\":12572:12679   */\n      swap3\n      swap2\n      pop\n      pop\n      jump\t// out\n        /* \"#utility.yul\":12685:13078   */\n    tag_366:\n        /* \"#utility.yul\":12754:12760   */\n      0x00\n        /* \"#utility.yul\":12804:12805   */\n      0x08\n        /* \"#utility.yul\":12792:12802   */\n      dup4\n        /* \"#utility.yul\":12788:12806   */\n      mul\n        /* \"#utility.yul\":12827:12924   */\n      tag_551\n        /* \"#utility.yul\":12857:12923   */\n      0xffffffffffffffffffffffffffffffffffffffffffffffffffffffffffffffff\n        /* \"#utility.yul\":12846:12855   */\n      dup3\n        /* \"#utility.yul\":12827:12924   */\n      tag_365\n      jump\t// in\n    tag_551:\n        /* \"#utility.yul\":12945:12984   */\n      tag_552\n        /* \"#utility.yul\":12975:12983   */\n      dup7\n        /* \"#utility.yul\":12964:12973   */\n      dup4\n        /* \"#utility.yul\":12945:12984   */\n      tag_365\n      jump\t// in\n    tag_552:\n        /* \"#utility.yul\":12933:12984   */\n      swap6\n      pop\n        /* \"#utility.yul\":13017:13021   */\n      dup1\n        /* \"#utility.yul\":13013:13022   */\n      not\n        /* \"#utility.yul\":13006:13011   */\n      dup5\n        /* \"#utility.yul\":13002:13023   */\n      and\n        /* \"#utility.yul\":12993:13023   */\n      swap4\n      pop\n        /* \"#utility.yul\":13066:13070   */\n      dup1\n        /* \"#utility.yul\":13056:13064   */\n      dup7\n        /* \"#utility.yul\":13052:13071   */\n      and\n        /* \"#utility.yul\":13045:13050   */\n      dup5\n        /* \"#utility.yul\":13042:13072   */\n      or\n        /* \"#utility.yul\":13032:13072   */\n      swap3\n      pop\n        /* \"#utility.yul\":12761:13078   */\n      pop\n      pop\n        /* \"#utility.yul\":12685:13078   */\n      swap4\n      swap3\n      pop\n      pop\n      pop\n      jump\t// out\n        /* \"#utility.yul\":13084:13226   */\n    tag_367:\n        /* \"#utility.yul\":13134:13143   */\n      0x00\n        /* \"#utility.yul\":13167:13220   */\n      tag_554\n        /* \"#utility.yul\":13185:13219   */\n      tag_555\n        /* \"#utility.yul\":13194:13218   */\n      tag_556\n        /* \"#utility.yul\":13212:13217   */\n      dup5\n        /* \"#utility.yul\":13194:13218   */\n      tag_340\n      jump\t// in\n    tag_556:\n        /* \"#utility.yul\":13185:13219   */\n      tag_354\n      jump\t// in\n    tag_555:\n        /* \"#utility.yul\":13167:13220   */\n      tag_340\n      jump\t// in\n    tag_554:\n        /* \"#utility.yul\":13154:13220   */\n      swap1\n      pop\n        /* \"#utility.yul\":13084:13226   */\n      swap2\n      swap1\n      pop\n      jump\t// out\n        /* \"#utility.yul\":13232:13307   */\n    tag_368:\n        /* \"#utility.yul\":13275:13278   */\n      0x00\n        /* \"#utility.yul\":13296:13301   */\n      dup2\n        /* \"#utility.yul\":13289:13301   */\n      swap1\n      pop\n        /* \"#utility.yul\":13232:13307   */\n      swap2\n      swap1\n      pop\n      jump\t// out\n        /* \"#utility.yul\":13313:13582   */\n    tag_369:\n        /* \"#utility.yul\":13423:13462   */\n      tag_559\n        /* \"#utility.yul\":13454:13461   */\n      dup4\n        /* \"#utility.yul\":13423:13462   */\n      tag_367\n      jump\t// in\n    tag_559:\n        /* \"#utility.yul\":13484:13575   */\n      tag_560\n        /* \"#utility.yul\":13533:13574   */\n      tag_561\n        /* \"#utility.yul\":13557:13573   */\n      dup3\n        /* \"#utility.yul\":13533:13574   */\n      tag_368\n      jump\t// in\n    tag_561:\n        /* \"#utility.yul\":13525:13531   */\n      dup5\n        /* \"#utility.yul\":13518:13522   */\n      dup5\n        /* \"#utility.yul\":13512:13523   */\n      sload\n        /* \"#utility.yul\":13484:13575   */\n      tag_366\n      jump\t// in\n    tag_560:\n        /* \"#utility.yul\":13478:13482   */\n      dup3\n        /* \"#utility.yul\":13471:13576   */\n      sstore\n        /* \"#utility.yul\":13389:13582   */\n      pop\n        /* \"#utility.yul\":13313:13582   */\n      pop\n      pop\n      pop\n      jump\t// out\n        /* \"#utility.yul\":13588:13661   */\n    tag_370:\n        /* \"#utility.yul\":13633:13636   */\n      0x00\n        /* \"#utility.yul\":13588:13661   */\n      swap1\n      jump\t// out\n        /* \"#utility.yul\":13667:13856   */\n    tag_371:\n        /* \"#utility.yul\":13744:13776   */\n      tag_564\n      tag_370\n      jump\t// in\n    tag_564:\n        /* \"#utility.yul\":13785:13850   */\n      tag_565\n        /* \"#utility.yul\":13843:13849   */\n      dup2\n        /* \"#utility.yul\":13835:13841   */\n      dup5\n        /* \"#utility.yul\":13829:13833   */\n      dup5\n        /* \"#utility.yul\":13785:13850   */\n      tag_369\n      jump\t// in\n    tag_565:\n        /* \"#utility.yul\":13720:13856   */\n      pop\n        /* \"#utility.yul\":13667:13856   */\n      pop\n      pop\n      jump\t// out\n        /* \"#utility.yul\":13862:14048   */\n    tag_372:\n        /* \"#utility.yul\":13922:14042   */\n    tag_567:\n        /* \"#utility.yul\":13939:13942   */\n      dup2\n        /* \"#utility.yul\":13932:13937   */\n      dup2\n        /* \"#utility.yul\":13929:13943   */\n      lt\n        /* \"#utility.yul\":13922:14042   */\n      iszero\n      tag_569\n      jumpi\n        /* \"#utility.yul\":13993:14032   */\n      tag_570\n        /* \"#utility.yul\":14030:14031   */\n      0x00\n        /* \"#utility.yul\":14023:14028   */\n      dup3\n        /* \"#utility.yul\":13993:14032   */\n      tag_371\n      jump\t// in\n    tag_570:\n        /* \"#utility.yul\":13966:13967   */\n      0x01\n        /* \"#utility.yul\":13959:13964   */\n      dup2\n        /* \"#utility.yul\":13955:13968   */\n      add\n        /* \"#utility.yul\":13946:13968   */\n      swap1\n      pop\n        /* \"#utility.yul\":13922:14042   */\n      jump(tag_567)\n    tag_569:\n        /* \"#utility.yul\":13862:14048   */\n      pop\n      pop\n      jump\t// out\n        /* \"#utility.yul\":14054:14597   */\n    tag_373:\n        /* \"#utility.yul\":14155:14157   */\n      0x1f\n        /* \"#utility.yul\":14150:14153   */\n      dup3\n        /* \"#utility.yul\":14147:14158   */\n      gt\n        /* \"#utility.yul\":14144:14590   */\n      iszero\n      tag_572\n      jumpi\n        /* \"#utility.yul\":14189:14227   */\n      tag_573\n        /* \"#utility.yul\":14221:14226   */\n      dup2\n        /* \"#utility.yul\":14189:14227   */\n      tag_363\n      jump\t// in\n    tag_573:\n        /* \"#utility.yul\":14273:14302   */\n      tag_574\n        /* \"#utility.yul\":14291:14301   */\n      dup5\n        /* \"#utility.yul\":14273:14302   */\n      tag_364\n      jump\t// in\n    tag_574:\n        /* \"#utility.yul\":14263:14271   */\n      dup2\n        /* \"#utility.yul\":14259:14303   */\n      add\n        /* \"#utility.yul\":14456:14458   */\n      0x20\n        /* \"#utility.yul\":14444:14454   */\n      dup6\n        /* \"#utility.yul\":14441:14459   */\n      lt\n        /* \"#utility.yul\":14438:14487   */\n      iszero\n      tag_575\n      jumpi\n        /* \"#utility.yul\":14477:14485   */\n      dup2\n        /* \"#utility.yul\":14462:14485   */\n      swap1\n      pop\n        /* \"#utility.yul\":14438:14487   */\n    tag_575:\n        /* \"#utility.yul\":14500:14580   */\n      tag_576\n        /* \"#utility.yul\":14556:14578   */\n      tag_577\n        /* \"#utility.yul\":14574:14577   */\n      dup6\n        /* \"#utility.yul\":14556:14578   */\n      tag_364\n      jump\t// in\n    tag_577:\n        /* \"#utility.yul\":14546:14554   */\n      dup4\n        /* \"#utility.yul\":14542:14579   */\n      add\n        /* \"#utility.yul\":14529:14540   */\n      dup3\n        /* \"#utility.yul\":14500:14580   */\n      tag_372\n      jump\t// in\n    tag_576:\n        /* \"#utility.yul\":14159:14590   */\n      pop\n      pop\n        /* \"#utility.yul\":14144:14590   */\n    tag_572:\n        /* \"#utility.yul\":14054:14597   */\n      pop\n      pop\n      pop\n      jump\t// out\n        /* \"#utility.yul\":14603:14720   */\n    tag_374:\n        /* \"#utility.yul\":14657:14665   */\n      0x00\n        /* \"#utility.yul\":14707:14712   */\n      dup3\n        /* \"#utility.yul\":14701:14705   */\n      dup3\n        /* \"#utility.yul\":14697:14713   */\n      shr\n        /* \"#utility.yul\":14676:14713   */\n      swap1\n      pop\n        /* \"#utility.yul\":14603:14720   */\n      swap3\n      swap2\n      pop\n      pop\n      jump\t// out\n        /* \"#utility.yul\":14726:14895   */\n    tag_375:\n        /* \"#utility.yul\":14770:14776   */\n      0x00\n        /* \"#utility.yul\":14803:14854   */\n      tag_580\n        /* \"#utility.yul\":14851:14852   */\n      0x00\n        /* \"#utility.yul\":14847:14853   */\n      not\n        /* \"#utility.yul\":14839:14844   */\n      dup5\n        /* \"#utility.yul\":14836:14837   */\n      0x08\n        /* \"#utility.yul\":14832:14845   */\n      mul\n        /* \"#utility.yul\":14803:14854   */\n      tag_374\n      jump\t// in\n    tag_580:\n        /* \"#utility.yul\":14799:14855   */\n      not\n        /* \"#utility.yul\":14884:14888   */\n      dup1\n        /* \"#utility.yul\":14878:14882   */\n      dup4\n        /* \"#utility.yul\":14874:14889   */\n      and\n        /* \"#utility.yul\":14864:14889   */\n      swap2\n      pop\n        /* \"#utility.yul\":14777:14895   */\n      pop\n        /* \"#utility.yul\":14726:14895   */\n      swap3\n      swap2\n      pop\n      pop\n      jump\t// out\n        /* \"#utility.yul\":14900:15195   */\n    tag_376:\n        /* \"#utility.yul\":14976:14980   */\n      0x00\n        /* \"#utility.yul\":15122:15151   */\n      tag_582\n        /* \"#utility.yul\":15147:15150   */\n      dup4\n        /* \"#utility.yul\":15141:15145   */\n      dup4\n        /* \"#utility.yul\":15122:15151   */\n      tag_375\n      jump\t// in\n    tag_582:\n        /* \"#utility.yul\":15114:15151   */\n      swap2\n      pop\n        /* \"#utility.yul\":15184:15187   */\n      dup3\n        /* \"#utility.yul\":15181:15182   */\n      0x02\n        /* \"#utility.yul\":15177:15188   */\n      mul\n        /* \"#utility.yul\":15171:15175   */\n      dup3\n        /* \"#utility.yul\":15168:15189   */\n      or\n        /* \"#utility.yul\":15160:15189   */\n      swap1\n      pop\n        /* \"#utility.yul\":14900:15195   */\n      swap3\n      swap2\n      pop\n      pop\n      jump\t// out\n        /* \"#utility.yul\":15200:16595   */\n    tag_150:\n        /* \"#utility.yul\":15317:15354   */\n      tag_584\n        /* \"#utility.yul\":15350:15353   */\n      dup3\n        /* \"#utility.yul\":15317:15354   */\n      tag_360\n      jump\t// in\n    tag_584:\n        /* \"#utility.yul\":15419:15437   */\n      0xffffffffffffffff\n        /* \"#utility.yul\":15411:15417   */\n      dup2\n        /* \"#utility.yul\":15408:15438   */\n      gt\n        /* \"#utility.yul\":15405:15461   */\n      iszero\n      tag_585\n      jumpi\n        /* \"#utility.yul\":15441:15459   */\n      tag_586\n      tag_329\n      jump\t// in\n    tag_586:\n        /* \"#utility.yul\":15405:15461   */\n    tag_585:\n        /* \"#utility.yul\":15485:15523   */\n      tag_587\n        /* \"#utility.yul\":15517:15521   */\n      dup3\n        /* \"#utility.yul\":15511:15522   */\n      sload\n        /* \"#utility.yul\":15485:15523   */\n      tag_362\n      jump\t// in\n    tag_587:\n        /* \"#utility.yul\":15570:15637   */\n      tag_588\n        /* \"#utility.yul\":15630:15636   */\n      dup3\n        /* \"#utility.yul\":15622:15628   */\n      dup3\n        /* \"#utility.yul\":15616:15620   */\n      dup6\n        /* \"#utility.yul\":15570:15637   */\n      tag_373\n      jump\t// in\n    tag_588:\n        /* \"#utility.yul\":15664:15665   */\n      0x00\n        /* \"#utility.yul\":15688:15692   */\n      0x20\n        /* \"#utility.yul\":15675:15692   */\n      swap1\n      pop\n        /* \"#utility.yul\":15720:15722   */\n      0x1f\n        /* \"#utility.yul\":15712:15718   */\n      dup4\n        /* \"#utility.yul\":15709:15723   */\n      gt\n        /* \"#utility.yul\":15737:15738   */\n      0x01\n        /* \"#utility.yul\":15732:16350   */\n      dup2\n      eq\n      tag_590\n      jumpi\n        /* \"#utility.yul\":16394:16395   */\n      0x00\n        /* \"#utility.yul\":16411:16417   */\n      dup5\n        /* \"#utility.yul\":16408:16485   */\n      iszero\n      tag_591\n      jumpi\n        /* \"#utility.yul\":16460:16469   */\n      dup3\n        /* \"#utility.yul\":16455:16458   */\n      dup8\n        /* \"#utility.yul\":16451:16470   */\n      add\n        /* \"#utility.yul\":16445:16471   */\n      mload\n        /* \"#utility.yul\":16436:16471   */\n      swap1\n      pop\n        /* \"#utility.yul\":16408:16485   */\n    tag_591:\n        /* \"#utility.yul\":16511:16578   */\n      tag_592\n        /* \"#utility.yul\":16571:16577   */\n      dup6\n        /* \"#utility.yul\":16564:16569   */\n      dup3\n        /* \"#utility.yul\":16511:16578   */\n      tag_376\n      jump\t// in\n    tag_592:\n        /* \"#utility.yul\":16505:16509   */\n      dup7\n        /* \"#utility.yul\":16498:16579   */\n      sstore\n        /* \"#utility.yul\":16367:16589   */\n      pop\n        /* \"#utility.yul\":15702:16589   */\n      jump(tag_589)\n        /* \"#utility.yul\":15732:16350   */\n    tag_590:\n        /* \"#utility.yul\":15784:15788   */\n      0x1f\n        /* \"#utility.yul\":15780:15789   */\n      not\n        /* \"#utility.yul\":15772:15778   */\n      dup5\n        /* \"#utility.yul\":15768:15790   */\n      and\n        /* \"#utility.yul\":15818:15855   */\n      tag_593\n        /* \"#utility.yul\":15850:15854   */\n      dup7\n        /* \"#utility.yul\":15818:15855   */\n      tag_363\n      jump\t// in\n    tag_593:\n        /* \"#utility.yul\":15877:15878   */\n      0x00\n        /* \"#utility.yul\":15891:16099   */\n    tag_594:\n        /* \"#utility.yul\":15905:15912   */\n      dup3\n        /* \"#utility.yul\":15902:15903   */\n      dup2\n        /* \"#utility.yul\":15899:15913   */\n      lt\n        /* \"#utility.yul\":15891:16099   */\n      iszero\n      tag_596\n      jumpi\n        /* \"#utility.yul\":15984:15993   */\n      dup5\n        /* \"#utility.yul\":15979:15982   */\n      dup10\n        /* \"#utility.yul\":15975:15994   */\n      add\n        /* \"#utility.yul\":15969:15995   */\n      mload\n        /* \"#utility.yul\":15961:15967   */\n      dup3\n        /* \"#utility.yul\":15954:15996   */\n      sstore\n        /* \"#utility.yul\":16035:16036   */\n      0x01\n        /* \"#utility.yul\":16027:16033   */\n      dup3\n        /* \"#utility.yul\":16023:16037   */\n      add\n        /* \"#utility.yul\":16013:16037   */\n      swap2\n      pop\n        /* \"#utility.yul\":16082:16084   */\n      0x20\n        /* \"#utility.yul\":16071:16080   */\n      dup6\n        /* \"#utility.yul\":16067:16085   */\n      add\n        /* \"#utility.yul\":16054:16085   */\n      swap5\n      pop\n        /* \"#utility.yul\":15928:15932   */\n      0x20\n        /* \"#utility.yul\":15925:15926   */\n      dup2\n        /* \"#utility.yul\":15921:15933   */\n      add\n        /* \"#utility.yul\":15916:15933   */\n      swap1\n      pop\n        /* \"#utility.yul\":15891:16099   */\n      jump(tag_594)\n    tag_596:\n        /* \"#utility.yul\":16127:16133   */\n      dup7\n        /* \"#utility.yul\":16118:16125   */\n      dup4\n        /* \"#utility.yul\":16115:16134   */\n      lt\n        /* \"#utility.yul\":16112:16291   */\n      iszero\n      tag_597\n      jumpi\n        /* \"#utility.yul\":16185:16194   */\n      dup5\n        /* \"#utility.yul\":16180:16183   */\n      dup10\n        /* \"#utility.yul\":16176:16195   */\n      add\n        /* \"#utility.yul\":16170:16196   */\n      mload\n        /* \"#utility.yul\":16228:16276   */\n      tag_598\n        /* \"#utility.yul\":16270:16274   */\n      0x1f\n        /* \"#utility.yul\":16262:16268   */\n      dup10\n        /* \"#utility.yul\":16258:16275   */\n      and\n        /* \"#utility.yul\":16247:16256   */\n      dup3\n        /* \"#utility.yul\":16228:16276   */\n      tag_375\n      jump\t// in\n    tag_598:\n        /* \"#utility.yul\":16220:16226   */\n      dup4\n        /* \"#utility.yul\":16213:16277   */\n      sstore\n        /* \"#utility.yul\":16135:16291   */\n      pop\n        /* \"#utility.yul\":16112:16291   */\n    tag_597:\n        /* \"#utility.yul\":16337:16338   */\n      0x01\n        /* \"#utility.yul\":16333:16334   */\n      0x02\n        /* \"#utility.yul\":16325:16331   */\n      dup9\n        /* \"#utility.yul\":16321:16335   */\n      mul\n        /* \"#utility.yul\":16317:16339   */\n      add\n        /* \"#utility.yul\":16311:16315   */\n      dup9\n        /* \"#utility.yul\":16304:16340   */\n      sstore\n        /* \"#utility.yul\":15739:16350   */\n      pop\n      pop\n      pop\n        /* \"#utility.yul\":15702:16589   */\n    tag_589:\n      pop\n        /* \"#utility.yul\":15292:16595   */\n      pop\n      pop\n      pop\n        /* \"#utility.yul\":15200:16595   */\n      pop\n      pop\n      jump\t// out\n        /* \"#utility.yul\":16601:16834   */\n    tag_156:\n        /* \"#utility.yul\":16640:16643   */\n      0x00\n        /* \"#utility.yul\":16663:16687   */\n      tag_600\n        /* \"#utility.yul\":16681:16686   */\n      dup3\n        /* \"#utility.yul\":16663:16687   */\n      tag_340\n      jump\t// in\n    tag_600:\n        /* \"#utility.yul\":16654:16687   */\n      swap2\n      pop\n        /* \"#utility.yul\":16709:16775   */\n      0xffffffffffffffffffffffffffffffffffffffffffffffffffffffffffffffff\n        /* \"#utility.yul\":16702:16707   */\n      dup3\n        /* \"#utility.yul\":16699:16776   */\n      sub\n        /* \"#utility.yul\":16696:16799   */\n      tag_601\n      jumpi\n        /* \"#utility.yul\":16779:16797   */\n      tag_602\n      tag_359\n      jump\t// in\n    tag_602:\n        /* \"#utility.yul\":16696:16799   */\n    tag_601:\n        /* \"#utility.yul\":16826:16827   */\n      0x01\n        /* \"#utility.yul\":16819:16824   */\n      dup3\n        /* \"#utility.yul\":16815:16828   */\n      add\n        /* \"#utility.yul\":16808:16828   */\n      swap1\n      pop\n        /* \"#utility.yul\":16601:16834   */\n      swap2\n      swap1\n      pop\n      jump\t// out\n        /* \"#utility.yul\":16840:17250   */\n    tag_162:\n        /* \"#utility.yul\":16880:16887   */\n      0x00\n        /* \"#utility.yul\":16903:16923   */\n      tag_604\n        /* \"#utility.yul\":16921:16922   */\n      dup3\n        /* \"#utility.yul\":16903:16923   */\n      tag_340\n      jump\t// in\n    tag_604:\n        /* \"#utility.yul\":16898:16923   */\n      swap2\n      pop\n        /* \"#utility.yul\":16937:16957   */\n      tag_605\n        /* \"#utility.yul\":16955:16956   */\n      dup4\n        /* \"#utility.yul\":16937:16957   */\n      tag_340\n      jump\t// in\n    tag_605:\n        /* \"#utility.yul\":16932:16957   */\n      swap3\n      pop\n        /* \"#utility.yul\":16992:16993   */\n      dup3\n        /* \"#utility.yul\":16989:16990   */\n      dup3\n        /* \"#utility.yul\":16985:16994   */\n      mul\n        /* \"#utility.yul\":17014:17044   */\n      tag_606\n        /* \"#utility.yul\":17032:17043   */\n      dup2\n        /* \"#utility.yul\":17014:17044   */\n      tag_340\n      jump\t// in\n    tag_606:\n        /* \"#utility.yul\":17003:17044   */\n      swap2\n      pop\n        /* \"#utility.yul\":17193:17194   */\n      dup3\n        /* \"#utility.yul\":17184:17191   */\n      dup3\n        /* \"#utility.yul\":17180:17195   */\n      div\n        /* \"#utility.yul\":17177:17178   */\n      dup5\n        /* \"#utility.yul\":17174:17196   */\n      eq\n        /* \"#utility.yul\":17154:17155   */\n      dup4\n        /* \"#utility.yul\":17147:17156   */\n      iszero\n        /* \"#utility.yul\":17127:17210   */\n      or\n        /* \"#utility.yul\":17104:17243   */\n      tag_607\n      jumpi\n        /* \"#utility.yul\":17223:17241   */\n      tag_608\n      tag_359\n      jump\t// in\n    tag_608:\n        /* \"#utility.yul\":17104:17243   */\n    tag_607:\n        /* \"#utility.yul\":16888:17250   */\n      pop\n        /* \"#utility.yul\":16840:17250   */\n      swap3\n      swap2\n      pop\n      pop\n      jump\t// out\n        /* \"#utility.yul\":17256:17436   */\n    tag_377:\n        /* \"#utility.yul\":17304:17381   */\n      0x4e487b7100000000000000000000000000000000000000000000000000000000\n        /* \"#utility.yul\":17301:17302   */\n      0x00\n        /* \"#utility.yul\":17294:17382   */\n      mstore\n        /* \"#utility.yul\":17401:17405   */\n      0x12\n        /* \"#utility.yul\":17398:17399   */\n      0x04\n        /* \"#utility.yul\":17391:17406   */\n      mstore\n        /* \"#utility.yul\":17425:17429   */\n      0x24\n        /* \"#utility.yul\":17422:17423   */\n      0x00\n        /* \"#utility.yul\":17415:17430   */\n      revert\n        /* \"#utility.yul\":17442:17627   */\n    tag_164:\n        /* \"#utility.yul\":17482:17483   */\n      0x00\n        /* \"#utility.yul\":17499:17519   */\n      tag_611\n        /* \"#utility.yul\":17517:17518   */\n      dup3\n        /* \"#utility.yul\":17499:17519   */\n      tag_340\n      jump\t// in\n    tag_611:\n        /* \"#utility.yul\":17494:17519   */\n      swap2\n      pop\n        /* \"#utility.yul\":17533:17553   */\n      tag_612\n        /* \"#utility.yul\":17551:17552   */\n      dup4\n        /* \"#utility.yul\":17533:17553   */\n      tag_340\n      jump\t// in\n    tag_612:\n        /* \"#utility.yul\":17528:17553   */\n      swap3\n      pop\n        /* \"#utility.yul\":17572:17573   */\n      dup3\n        /* \"#utility.yul\":17562:17597   */\n      tag_613\n      jumpi\n        /* \"#utility.yul\":17577:17595   */\n      tag_614\n      tag_377\n      jump\t// in\n    tag_614:\n        /* \"#utility.yul\":17562:17597   */\n    tag_613:\n        /* \"#utility.yul\":17619:17620   */\n      dup3\n        /* \"#utility.yul\":17616:17617   */\n      dup3\n        /* \"#utility.yul\":17612:17621   */\n      div\n        /* \"#utility.yul\":17607:17621   */\n      swap1\n      pop\n        /* \"#utility.yul\":17442:17627   */\n      swap3\n      swap2\n      pop\n      pop\n      jump\t// out\n        /* \"#utility.yul\":17633:17965   */\n    tag_172:\n        /* \"#utility.yul\":17754:17758   */\n      0x00\n        /* \"#utility.yul\":17792:17794   */\n      0x40\n        /* \"#utility.yul\":17781:17790   */\n      dup3\n        /* \"#utility.yul\":17777:17795   */\n      add\n        /* \"#utility.yul\":17769:17795   */\n      swap1\n      pop\n        /* \"#utility.yul\":17805:17876   */\n      tag_616\n        /* \"#utility.yul\":17873:17874   */\n      0x00\n        /* \"#utility.yul\":17862:17871   */\n      dup4\n        /* \"#utility.yul\":17858:17875   */\n      add\n        /* \"#utility.yul\":17849:17855   */\n      dup6\n        /* \"#utility.yul\":17805:17876   */\n      tag_343\n      jump\t// in\n    tag_616:\n        /* \"#utility.yul\":17886:17958   */\n      tag_617\n        /* \"#utility.yul\":17954:17956   */\n      0x20\n        /* \"#utility.yul\":17943:17952   */\n      dup4\n        /* \"#utility.yul\":17939:17957   */\n      add\n        /* \"#utility.yul\":17930:17936   */\n      dup5\n        /* \"#utility.yul\":17886:17958   */\n      tag_343\n      jump\t// in\n    tag_617:\n        /* \"#utility.yul\":17633:17965   */\n      swap4\n      swap3\n      pop\n      pop\n      pop\n      jump\t// out\n        /* \"#utility.yul\":17971:18165   */\n    tag_176:\n        /* \"#utility.yul\":18011:18015   */\n      0x00\n        /* \"#utility.yul\":18031:18051   */\n      tag_619\n        /* \"#utility.yul\":18049:18050   */\n      dup3\n        /* \"#utility.yul\":18031:18051   */\n      tag_340\n      jump\t// in\n    tag_619:\n        /* \"#utility.yul\":18026:18051   */\n      swap2\n      pop\n        /* \"#utility.yul\":18065:18085   */\n      tag_620\n        /* \"#utility.yul\":18083:18084   */\n      dup4\n        /* \"#utility.yul\":18065:18085   */\n      tag_340\n      jump\t// in\n    tag_620:\n        /* \"#utility.yul\":18060:18085   */\n      swap3\n      pop\n        /* \"#utility.yul\":18109:18110   */\n      dup3\n        /* \"#utility.yul\":18106:18107   */\n      dup3\n        /* \"#utility.yul\":18102:18111   */\n      sub\n        /* \"#utility.yul\":18094:18111   */\n      swap1\n      pop\n        /* \"#utility.yul\":18133:18134   */\n      dup2\n        /* \"#utility.yul\":18127:18131   */\n      dup2\n        /* \"#utility.yul\":18124:18135   */\n      gt\n        /* \"#utility.yul\":18121:18158   */\n      iszero\n      tag_621\n      jumpi\n        /* \"#utility.yul\":18138:18156   */\n      tag_622\n      tag_359\n      jump\t// in\n    tag_622:\n        /* \"#utility.yul\":18121:18158   */\n    tag_621:\n        /* \"#utility.yul\":17971:18165   */\n      swap3\n      swap2\n      pop\n      pop\n      jump\t// out\n        /* \"#utility.yul\":18171:18318   */\n    tag_378:\n        /* \"#utility.yul\":18272:18283   */\n      0x00\n        /* \"#utility.yul\":18309:18312   */\n      dup2\n        /* \"#utility.yul\":18294:18312   */\n      swap1\n      pop\n        /* \"#utility.yul\":18171:18318   */\n      swap3\n      swap2\n      pop\n      pop\n      jump\t// out\n        /* \"#utility.yul\":18324:18438   */\n    tag_379:\n      pop\n      jump\t// out\n        /* \"#utility.yul\":18444:18842   */\n    tag_380:\n        /* \"#utility.yul\":18603:18606   */\n      0x00\n        /* \"#utility.yul\":18624:18707   */\n      tag_626\n        /* \"#utility.yul\":18705:18706   */\n      0x00\n        /* \"#utility.yul\":18700:18703   */\n      dup4\n        /* \"#utility.yul\":18624:18707   */\n      tag_378\n      jump\t// in\n    tag_626:\n        /* \"#utility.yul\":18617:18707   */\n      swap2\n      pop\n        /* \"#utility.yul\":18716:18809   */\n      tag_627\n        /* \"#utility.yul\":18805:18808   */\n      dup3\n        /* \"#utility.yul\":18716:18809   */\n      tag_379\n      jump\t// in\n    tag_627:\n        /* \"#utility.yul\":18834:18835   */\n      0x00\n        /* \"#utility.yul\":18829:18832   */\n      dup3\n        /* \"#utility.yul\":18825:18836   */\n      add\n        /* \"#utility.yul\":18818:18836   */\n      swap1\n      pop\n        /* \"#utility.yul\":18444:18842   */\n      swap2\n      swap1\n      pop\n      jump\t// out\n        /* \"#utility.yul\":18848:19227   */\n    tag_180:\n        /* \"#utility.yul\":19032:19035   */\n      0x00\n        /* \"#utility.yul\":19054:19201   */\n      tag_629\n        /* \"#utility.yul\":19197:19200   */\n      dup3\n        /* \"#utility.yul\":19054:19201   */\n      tag_380\n      jump\t// in\n    tag_629:\n        /* \"#utility.yul\":19047:19201   */\n      swap2\n      pop\n        /* \"#utility.yul\":19218:19221   */\n      dup2\n        /* \"#utility.yul\":19211:19221   */\n      swap1\n      pop\n        /* \"#utility.yul\":18848:19227   */\n      swap2\n      swap1\n      pop\n      jump\t// out\n        /* \"#utility.yul\":19233:19413   */\n    tag_199:\n        /* \"#utility.yul\":19281:19358   */\n      0x4e487b7100000000000000000000000000000000000000000000000000000000\n        /* \"#utility.yul\":19278:19279   */\n      0x00\n        /* \"#utility.yul\":19271:19359   */\n      mstore\n        /* \"#utility.yul\":19378:19382   */\n      0x21\n        /* \"#utility.yul\":19375:19376   */\n      0x04\n        /* \"#utility.yul\":19368:19383   */\n      mstore\n        /* \"#utility.yul\":19402:19406   */\n      0x24\n        /* \"#utility.yul\":19399:19400   */\n      0x00\n        /* \"#utility.yul\":19392:19407   */\n      revert\n        /* \"#utility.yul\":19419:19539   */\n    tag_381:\n        /* \"#utility.yul\":19507:19508   */\n      0x02\n        /* \"#utility.yul\":19500:19505   */\n      dup2\n        /* \"#utility.yul\":19497:19509   */\n      lt\n        /* \"#utility.yul\":19487:19533   */\n      tag_632\n      jumpi\n        /* \"#utility.yul\":19513:19531   */\n      tag_633\n      tag_199\n      jump\t// in\n    tag_633:\n        /* \"#utility.yul\":19487:19533   */\n    tag_632:\n        /* \"#utility.yul\":19419:19539   */\n      pop\n      jump\t// out\n        /* \"#utility.yul\":19545:19686   */\n    tag_382:\n        /* \"#utility.yul\":19597:19604   */\n      0x00\n        /* \"#utility.yul\":19626:19631   */\n      dup2\n        /* \"#utility.yul\":19615:19631   */\n      swap1\n      pop\n        /* \"#utility.yul\":19632:19680   */\n      tag_635\n        /* \"#utility.yul\":19674:19679   */\n      dup3\n        /* \"#utility.yul\":19632:19680   */\n      tag_381\n      jump\t// in\n    tag_635:\n        /* \"#utility.yul\":19545:19686   */\n      swap2\n      swap1\n      pop\n      jump\t// out\n        /* \"#utility.yul\":19692:19833   */\n    tag_383:\n        /* \"#utility.yul\":19755:19764   */\n      0x00\n        /* \"#utility.yul\":19788:19827   */\n      tag_637\n        /* \"#utility.yul\":19821:19826   */\n      dup3\n        /* \"#utility.yul\":19788:19827   */\n      tag_382\n      jump\t// in\n    tag_637:\n        /* \"#utility.yul\":19775:19827   */\n      swap1\n      pop\n        /* \"#utility.yul\":19692:19833   */\n      swap2\n      swap1\n      pop\n      jump\t// out\n        /* \"#utility.yul\":19839:19996   */\n    tag_384:\n        /* \"#utility.yul\":19939:19989   */\n      tag_639\n        /* \"#utility.yul\":19983:19988   */\n      dup2\n        /* \"#utility.yul\":19939:19989   */\n      tag_383\n      jump\t// in\n    tag_639:\n        /* \"#utility.yul\":19934:19937   */\n      dup3\n        /* \"#utility.yul\":19927:19990   */\n      mstore\n        /* \"#utility.yul\":19839:19996   */\n      pop\n      pop\n      jump\t// out\n        /* \"#utility.yul\":20002:20250   */\n    tag_230:\n        /* \"#utility.yul\":20108:20112   */\n      0x00\n        /* \"#utility.yul\":20146:20148   */\n      0x20\n        /* \"#utility.yul\":20135:20144   */\n      dup3\n        /* \"#utility.yul\":20131:20149   */\n      add\n        /* \"#utility.yul\":20123:20149   */\n      swap1\n      pop\n        /* \"#utility.yul\":20159:20243   */\n      tag_641\n        /* \"#utility.yul\":20240:20241   */\n      0x00\n        /* \"#utility.yul\":20229:20238   */\n      dup4\n        /* \"#utility.yul\":20225:20242   */\n      add\n        /* \"#utility.yul\":20216:20222   */\n      dup5\n        /* \"#utility.yul\":20159:20243   */\n      tag_384\n      jump\t// in\n    tag_641:\n        /* \"#utility.yul\":20002:20250   */\n      swap3\n      swap2\n      pop\n      pop\n      jump\t// out\n        /* \"#utility.yul\":20256:20361   */\n    tag_385:\n        /* \"#utility.yul\":20292:20299   */\n      0x00\n        /* \"#utility.yul\":20332:20354   */\n      0xffffffffffffffffffff\n        /* \"#utility.yul\":20325:20330   */\n      dup3\n        /* \"#utility.yul\":20321:20355   */\n      and\n        /* \"#utility.yul\":20310:20355   */\n      swap1\n      pop\n        /* \"#utility.yul\":20256:20361   */\n      swap2\n      swap1\n      pop\n      jump\t// out\n        /* \"#utility.yul\":20367:20487   */\n    tag_386:\n        /* \"#utility.yul\":20439:20462   */\n      tag_644\n        /* \"#utility.yul\":20456:20461   */\n      dup2\n        /* \"#utility.yul\":20439:20462   */\n      tag_385\n      jump\t// in\n    tag_644:\n        /* \"#utility.yul\":20432:20437   */\n      dup2\n        /* \"#utility.yul\":20429:20463   */\n      eq\n        /* \"#utility.yul\":20419:20481   */\n      tag_645\n      jumpi\n        /* \"#utility.yul\":20477:20478   */\n      0x00\n        /* \"#utility.yul\":20474:20475   */\n      dup1\n        /* \"#utility.yul\":20467:20479   */\n      revert\n        /* \"#utility.yul\":20419:20481   */\n    tag_645:\n        /* \"#utility.yul\":20367:20487   */\n      pop\n      jump\t// out\n        /* \"#utility.yul\":20493:20634   */\n    tag_387:\n        /* \"#utility.yul\":20549:20554   */\n      0x00\n        /* \"#utility.yul\":20580:20586   */\n      dup2\n        /* \"#utility.yul\":20574:20587   */\n      mload\n        /* \"#utility.yul\":20565:20587   */\n      swap1\n      pop\n        /* \"#utility.yul\":20596:20628   */\n      tag_647\n        /* \"#utility.yul\":20622:20627   */\n      dup2\n        /* \"#utility.yul\":20596:20628   */\n      tag_386\n      jump\t// in\n    tag_647:\n        /* \"#utility.yul\":20493:20634   */\n      swap3\n      swap2\n      pop\n      pop\n      jump\t// out\n        /* \"#utility.yul\":20640:20716   */\n    tag_388:\n        /* \"#utility.yul\":20676:20683   */\n      0x00\n        /* \"#utility.yul\":20705:20710   */\n      dup2\n        /* \"#utility.yul\":20694:20710   */\n      swap1\n      pop\n        /* \"#utility.yul\":20640:20716   */\n      swap2\n      swap1\n      pop\n      jump\t// out\n        /* \"#utility.yul\":20722:20842   */\n    tag_389:\n        /* \"#utility.yul\":20794:20817   */\n      tag_650\n        /* \"#utility.yul\":20811:20816   */\n      dup2\n        /* \"#utility.yul\":20794:20817   */\n      tag_388\n      jump\t// in\n    tag_650:\n        /* \"#utility.yul\":20787:20792   */\n      dup2\n        /* \"#utility.yul\":20784:20818   */\n      eq\n        /* \"#utility.yul\":20774:20836   */\n      tag_651\n      jumpi\n        /* \"#utility.yul\":20832:20833   */\n      0x00\n        /* \"#utility.yul\":20829:20830   */\n      dup1\n        /* \"#utility.yul\":20822:20834   */\n      revert\n        /* \"#utility.yul\":20774:20836   */\n    tag_651:\n        /* \"#utility.yul\":20722:20842   */\n      pop\n      jump\t// out\n        /* \"#utility.yul\":20848:20989   */\n    tag_390:\n        /* \"#utility.yul\":20904:20909   */\n      0x00\n        /* \"#utility.yul\":20935:20941   */\n      dup2\n        /* \"#utility.yul\":20929:20942   */\n      mload\n        /* \"#utility.yul\":20920:20942   */\n      swap1\n      pop\n        /* \"#utility.yul\":20951:20983   */\n      tag_653\n        /* \"#utility.yul\":20977:20982   */\n      dup2\n        /* \"#utility.yul\":20951:20983   */\n      tag_389\n      jump\t// in\n    tag_653:\n        /* \"#utility.yul\":20848:20989   */\n      swap3\n      swap2\n      pop\n      pop\n      jump\t// out\n        /* \"#utility.yul\":20995:21138   */\n    tag_391:\n        /* \"#utility.yul\":21052:21057   */\n      0x00\n        /* \"#utility.yul\":21083:21089   */\n      dup2\n        /* \"#utility.yul\":21077:21090   */\n      mload\n        /* \"#utility.yul\":21068:21090   */\n      swap1\n      pop\n        /* \"#utility.yul\":21099:21132   */\n      tag_655\n        /* \"#utility.yul\":21126:21131   */\n      dup2\n        /* \"#utility.yul\":21099:21132   */\n      tag_341\n      jump\t// in\n    tag_655:\n        /* \"#utility.yul\":20995:21138   */\n      swap3\n      swap2\n      pop\n      pop\n      jump\t// out\n        /* \"#utility.yul\":21144:22115   */\n    tag_276:\n        /* \"#utility.yul\":21247:21253   */\n      0x00\n        /* \"#utility.yul\":21255:21261   */\n      dup1\n        /* \"#utility.yul\":21263:21269   */\n      0x00\n        /* \"#utility.yul\":21271:21277   */\n      dup1\n        /* \"#utility.yul\":21279:21285   */\n      0x00\n        /* \"#utility.yul\":21328:21331   */\n      0xa0\n        /* \"#utility.yul\":21316:21325   */\n      dup7\n        /* \"#utility.yul\":21307:21314   */\n      dup9\n        /* \"#utility.yul\":21303:21326   */\n      sub\n        /* \"#utility.yul\":21299:21332   */\n      slt\n        /* \"#utility.yul\":21296:21416   */\n      iszero\n      tag_657\n      jumpi\n        /* \"#utility.yul\":21335:21414   */\n      tag_658\n      tag_319\n      jump\t// in\n    tag_658:\n        /* \"#utility.yul\":21296:21416   */\n    tag_657:\n        /* \"#utility.yul\":21455:21456   */\n      0x00\n        /* \"#utility.yul\":21480:21543   */\n      tag_659\n        /* \"#utility.yul\":21535:21542   */\n      dup9\n        /* \"#utility.yul\":21526:21532   */\n      dup3\n        /* \"#utility.yul\":21515:21524   */\n      dup10\n        /* \"#utility.yul\":21511:21533   */\n      add\n        /* \"#utility.yul\":21480:21543   */\n      tag_387\n      jump\t// in\n    tag_659:\n        /* \"#utility.yul\":21470:21543   */\n      swap6\n      pop\n        /* \"#utility.yul\":21426:21553   */\n      pop\n        /* \"#utility.yul\":21592:21594   */\n      0x20\n        /* \"#utility.yul\":21618:21681   */\n      tag_660\n        /* \"#utility.yul\":21673:21680   */\n      dup9\n        /* \"#utility.yul\":21664:21670   */\n      dup3\n        /* \"#utility.yul\":21653:21662   */\n      dup10\n        /* \"#utility.yul\":21649:21671   */\n      add\n        /* \"#utility.yul\":21618:21681   */\n      tag_390\n      jump\t// in\n    tag_660:\n        /* \"#utility.yul\":21608:21681   */\n      swap5\n      pop\n        /* \"#utility.yul\":21563:21691   */\n      pop\n        /* \"#utility.yul\":21730:21732   */\n      0x40\n        /* \"#utility.yul\":21756:21820   */\n      tag_661\n        /* \"#utility.yul\":21812:21819   */\n      dup9\n        /* \"#utility.yul\":21803:21809   */\n      dup3\n        /* \"#utility.yul\":21792:21801   */\n      dup10\n        /* \"#utility.yul\":21788:21810   */\n      add\n        /* \"#utility.yul\":21756:21820   */\n      tag_391\n      jump\t// in\n    tag_661:\n        /* \"#utility.yul\":21746:21820   */\n      swap4\n      pop\n        /* \"#utility.yul\":21701:21830   */\n      pop\n        /* \"#utility.yul\":21869:21871   */\n      0x60\n        /* \"#utility.yul\":21895:21959   */\n      tag_662\n        /* \"#utility.yul\":21951:21958   */\n      dup9\n        /* \"#utility.yul\":21942:21948   */\n      dup3\n        /* \"#utility.yul\":21931:21940   */\n      dup10\n        /* \"#utility.yul\":21927:21949   */\n      add\n        /* \"#utility.yul\":21895:21959   */\n      tag_391\n      jump\t// in\n    tag_662:\n        /* \"#utility.yul\":21885:21959   */\n      swap3\n      pop\n        /* \"#utility.yul\":21840:21969   */\n      pop\n        /* \"#utility.yul\":22008:22011   */\n      0x80\n        /* \"#utility.yul\":22035:22098   */\n      tag_663\n        /* \"#utility.yul\":22090:22097   */\n      dup9\n        /* \"#utility.yul\":22081:22087   */\n      dup3\n        /* \"#utility.yul\":22070:22079   */\n      dup10\n        /* \"#utility.yul\":22066:22088   */\n      add\n        /* \"#utility.yul\":22035:22098   */\n      tag_387\n      jump\t// in\n    tag_663:\n        /* \"#utility.yul\":22025:22098   */\n      swap2\n      pop\n        /* \"#utility.yul\":21979:22108   */\n      pop\n        /* \"#utility.yul\":21144:22115   */\n      swap3\n      swap6\n      pop\n      swap3\n      swap6\n      swap1\n      swap4\n      pop\n      jump\t// out\n        /* \"#utility.yul\":22121:22290   */\n    tag_392:\n        /* \"#utility.yul\":22205:22216   */\n      0x00\n        /* \"#utility.yul\":22239:22245   */\n      dup3\n        /* \"#utility.yul\":22234:22237   */\n      dup3\n        /* \"#utility.yul\":22227:22246   */\n      mstore\n        /* \"#utility.yul\":22279:22283   */\n      0x20\n        /* \"#utility.yul\":22274:22277   */\n      dup3\n        /* \"#utility.yul\":22270:22284   */\n      add\n        /* \"#utility.yul\":22255:22284   */\n      swap1\n      pop\n        /* \"#utility.yul\":22121:22290   */\n      swap3\n      swap2\n      pop\n      pop\n      jump\t// out\n        /* \"#utility.yul\":22296:22477   */\n    tag_393:\n        /* \"#utility.yul\":22436:22469   */\n      0x5265656e7472616e637947756172643a207265656e7472616e742063616c6c00\n        /* \"#utility.yul\":22432:22433   */\n      0x00\n        /* \"#utility.yul\":22424:22430   */\n      dup3\n        /* \"#utility.yul\":22420:22434   */\n      add\n        /* \"#utility.yul\":22413:22470   */\n      mstore\n        /* \"#utility.yul\":22296:22477   */\n      pop\n      jump\t// out\n        /* \"#utility.yul\":22483:22849   */\n    tag_394:\n        /* \"#utility.yul\":22625:22628   */\n      0x00\n        /* \"#utility.yul\":22646:22713   */\n      tag_667\n        /* \"#utility.yul\":22710:22712   */\n      0x1f\n        /* \"#utility.yul\":22705:22708   */\n      dup4\n        /* \"#utility.yul\":22646:22713   */\n      tag_392\n      jump\t// in\n    tag_667:\n        /* \"#utility.yul\":22639:22713   */\n      swap2\n      pop\n        /* \"#utility.yul\":22722:22815   */\n      tag_668\n        /* \"#utility.yul\":22811:22814   */\n      dup3\n        /* \"#utility.yul\":22722:22815   */\n      tag_393\n      jump\t// in\n    tag_668:\n        /* \"#utility.yul\":22840:22842   */\n      0x20\n        /* \"#utility.yul\":22835:22838   */\n      dup3\n        /* \"#utility.yul\":22831:22843   */\n      add\n        /* \"#utility.yul\":22824:22843   */\n      swap1\n      pop\n        /* \"#utility.yul\":22483:22849   */\n      swap2\n      swap1\n      pop\n      jump\t// out\n        /* \"#utility.yul\":22855:23274   */\n    tag_281:\n        /* \"#utility.yul\":23021:23025   */\n      0x00\n        /* \"#utility.yul\":23059:23061   */\n      0x20\n        /* \"#utility.yul\":23048:23057   */\n      dup3\n        /* \"#utility.yul\":23044:23062   */\n      add\n        /* \"#utility.yul\":23036:23062   */\n      swap1\n      pop\n        /* \"#utility.yul\":23108:23117   */\n      dup2\n        /* \"#utility.yul\":23102:23106   */\n      dup2\n        /* \"#utility.yul\":23098:23118   */\n      sub\n        /* \"#utility.yul\":23094:23095   */\n      0x00\n        /* \"#utility.yul\":23083:23092   */\n      dup4\n        /* \"#utility.yul\":23079:23096   */\n      add\n        /* \"#utility.yul\":23072:23119   */\n      mstore\n        /* \"#utility.yul\":23136:23267   */\n      tag_670\n        /* \"#utility.yul\":23262:23266   */\n      dup2\n        /* \"#utility.yul\":23136:23267   */\n      tag_394\n      jump\t// in\n    tag_670:\n        /* \"#utility.yul\":23128:23267   */\n      swap1\n      pop\n        /* \"#utility.yul\":22855:23274   */\n      swap2\n      swap1\n      pop\n      jump\t// out\n        /* \"#utility.yul\":23280:23722   */\n    tag_295:\n        /* \"#utility.yul\":23429:23433   */\n      0x00\n        /* \"#utility.yul\":23467:23469   */\n      0x60\n        /* \"#utility.yul\":23456:23465   */\n      dup3\n        /* \"#utility.yul\":23452:23470   */\n      add\n        /* \"#utility.yul\":23444:23470   */\n      swap1\n      pop\n        /* \"#utility.yul\":23480:23551   */\n      tag_672\n        /* \"#utility.yul\":23548:23549   */\n      0x00\n        /* \"#utility.yul\":23537:23546   */\n      dup4\n        /* \"#utility.yul\":23533:23550   */\n      add\n        /* \"#utility.yul\":23524:23530   */\n      dup7\n        /* \"#utility.yul\":23480:23551   */\n      tag_348\n      jump\t// in\n    tag_672:\n        /* \"#utility.yul\":23561:23633   */\n      tag_673\n        /* \"#utility.yul\":23629:23631   */\n      0x20\n        /* \"#utility.yul\":23618:23627   */\n      dup4\n        /* \"#utility.yul\":23614:23632   */\n      add\n        /* \"#utility.yul\":23605:23611   */\n      dup6\n        /* \"#utility.yul\":23561:23633   */\n      tag_348\n      jump\t// in\n    tag_673:\n        /* \"#utility.yul\":23643:23715   */\n      tag_674\n        /* \"#utility.yul\":23711:23713   */\n      0x40\n        /* \"#utility.yul\":23700:23709   */\n      dup4\n        /* \"#utility.yul\":23696:23714   */\n      add\n        /* \"#utility.yul\":23687:23693   */\n      dup5\n        /* \"#utility.yul\":23643:23715   */\n      tag_343\n      jump\t// in\n    tag_674:\n        /* \"#utility.yul\":23280:23722   */\n      swap5\n      swap4\n      pop\n      pop\n      pop\n      pop\n      jump\t// out\n        /* \"#utility.yul\":23728:24060   */\n    tag_306:\n        /* \"#utility.yul\":23849:23853   */\n      0x00\n        /* \"#utility.yul\":23887:23889   */\n      0x40\n        /* \"#utility.yul\":23876:23885   */\n      dup3\n        /* \"#utility.yul\":23872:23890   */\n      add\n        /* \"#utility.yul\":23864:23890   */\n      swap1\n      pop\n        /* \"#utility.yul\":23900:23971   */\n      tag_676\n        /* \"#utility.yul\":23968:23969   */\n      0x00\n        /* \"#utility.yul\":23957:23966   */\n      dup4\n        /* \"#utility.yul\":23953:23970   */\n      add\n        /* \"#utility.yul\":23944:23950   */\n      dup6\n        /* \"#utility.yul\":23900:23971   */\n      tag_348\n      jump\t// in\n    tag_676:\n        /* \"#utility.yul\":23981:24053   */\n      tag_677\n        /* \"#utility.yul\":24049:24051   */\n      0x20\n        /* \"#utility.yul\":24038:24047   */\n      dup4\n        /* \"#utility.yul\":24034:24052   */\n      add\n        /* \"#utility.yul\":24025:24031   */\n      dup5\n        /* \"#utility.yul\":23981:24053   */\n      tag_343\n      jump\t// in\n    tag_677:\n        /* \"#utility.yul\":23728:24060   */\n      swap4\n      swap3\n      pop\n      pop\n      pop\n      jump\t// out\n        /* \"#utility.yul\":24066:24398   */\n    tag_311:\n        /* \"#utility.yul\":24187:24191   */\n      0x00\n        /* \"#utility.yul\":24225:24227   */\n      0x40\n        /* \"#utility.yul\":24214:24223   */\n      dup3\n        /* \"#utility.yul\":24210:24228   */\n      add\n        /* \"#utility.yul\":24202:24228   */\n      swap1\n      pop\n        /* \"#utility.yul\":24238:24309   */\n      tag_679\n        /* \"#utility.yul\":24306:24307   */\n      0x00\n        /* \"#utility.yul\":24295:24304   */\n      dup4\n        /* \"#utility.yul\":24291:24308   */\n      add\n        /* \"#utility.yul\":24282:24288   */\n      dup6\n        /* \"#utility.yul\":24238:24309   */\n      tag_348\n      jump\t// in\n    tag_679:\n        /* \"#utility.yul\":24319:24391   */\n      tag_680\n        /* \"#utility.yul\":24387:24389   */\n      0x20\n        /* \"#utility.yul\":24376:24385   */\n      dup4\n        /* \"#utility.yul\":24372:24390   */\n      add\n        /* \"#utility.yul\":24363:24369   */\n      dup5\n        /* \"#utility.yul\":24319:24391   */\n      tag_339\n      jump\t// in\n    tag_680:\n        /* \"#utility.yul\":24066:24398   */\n      swap4\n      swap3\n      pop\n      pop\n      pop\n      jump\t// out\n\n    auxdata: 0xa26469706673582212207b3e87135a3e30972853d6754fd3a8c03c08a44bf44d0342aff4351a242df3b764736f6c634300081a0033\n}\n",
				"bytecode": {
					"linkReferences": {},
					"object": "60c060405234801561000f575f80fd5b506040516130333803806130338339818101604052810190610031919061027e565b6001808190555061004a5f801b3361008e60201b60201c565b508173ffffffffffffffffffffffffffffffffffffffff1660a08173ffffffffffffffffffffffffffffffffffffffff1681525050806080818152505050506102bc565b5f61009f838361018360201b60201c565b6101795760015f808581526020019081526020015f205f015f8473ffffffffffffffffffffffffffffffffffffffff1673ffffffffffffffffffffffffffffffffffffffff1681526020019081526020015f205f6101000a81548160ff0219169083151502179055506101166101e660201b60201c565b73ffffffffffffffffffffffffffffffffffffffff168273ffffffffffffffffffffffffffffffffffffffff16847f2f8788117e7eff1d82e926ec794901d17c78024a50270940304540a733656f0d60405160405180910390a46001905061017d565b5f90505b92915050565b5f805f8481526020019081526020015f205f015f8373ffffffffffffffffffffffffffffffffffffffff1673ffffffffffffffffffffffffffffffffffffffff1681526020019081526020015f205f9054906101000a900460ff16905092915050565b5f33905090565b5f80fd5b5f73ffffffffffffffffffffffffffffffffffffffff82169050919050565b5f61021a826101f1565b9050919050565b61022a81610210565b8114610234575f80fd5b50565b5f8151905061024581610221565b92915050565b5f819050919050565b61025d8161024b565b8114610267575f80fd5b50565b5f8151905061027881610254565b92915050565b5f8060408385031215610294576102936101ed565b5b5f6102a185828601610237565b92505060206102b28582860161026a565b9150509250929050565b60805160a051612d416102f25f395f81816116f40152611a8801525f818161065b015281816117d40152611b2a0152612d415ff3fe60806040526004361061014a575f3560e01c806375b238fc116100b5578063d0e30db01161006e578063d0e30db014610470578063d4fac45d1461047a578063d547741f146104b6578063d67b98a9146104de578063d7128c5814610508578063f6687af7146105325761014a565b806375b238fc1461036457806391d148541461038e5780639363a141146103ca5780639e281a98146103f4578063a217fddf1461041c578063b60fc72e146104465761014a565b806331f7d9641161010757806331f7d9641461026e578063338b5dea1461029857806336568abe146102c057806344ba0ea2146102e857806347d04c71146103125780634914e2ce1461033c5761014a565b806301ffc9a71461014e578063192892871461018a578063248a9ca3146101a657806327281025146101e25780632e1a7d4d1461021e5780632f2ff15d14610246575b5f80fd5b348015610159575f80fd5b50610174600480360381019061016f919061204d565b61055c565b6040516101819190612092565b60405180910390f35b6101a4600480360381019061019f91906121e7565b6105d5565b005b3480156101b1575f80fd5b506101cc60048036038101906101c79190612290565b6108a6565b6040516101d991906122ca565b60405180910390f35b3480156101ed575f80fd5b5061020860048036038101906102039190612316565b6108c2565b6040516102159190612350565b60405180910390f35b348015610229575f80fd5b50610244600480360381019061023f9190612316565b6108f5565b005b348015610251575f80fd5b5061026c600480360381019061026791906123c3565b610c68565b005b348015610279575f80fd5b50610282610c8a565b60405161028f9190612410565b60405180910390f35b3480156102a3575f80fd5b506102be60048036038101906102b99190612429565b610c8e565b005b3480156102cb575f80fd5b506102e660048036038101906102e191906123c3565b610fdb565b005b3480156102f3575f80fd5b506102fc611056565b6040516103099190612350565b60405180910390f35b34801561031d575f80fd5b50610326611062565b6040516103339190612350565b60405180910390f35b348015610347575f80fd5b50610362600480360381019061035d91906124c7565b61106b565b005b34801561036f575f80fd5b5061037861123d565b60405161038591906122ca565b60405180910390f35b348015610399575f80fd5b506103b460048036038101906103af91906123c3565b611243565b6040516103c19190612092565b60405180910390f35b3480156103d5575f80fd5b506103de6112a6565b6040516103eb9190612350565b60405180910390f35b3480156103ff575f80fd5b5061041a60048036038101906104159190612429565b6112af565b005b348015610427575f80fd5b506104306116ec565b60405161043d91906122ca565b60405180910390f35b348015610451575f80fd5b5061045a6116f2565b6040516104679190612586565b60405180910390f35b610478611716565b005b348015610485575f80fd5b506104a0600480360381019061049b919061259f565b61195d565b6040516104ad9190612350565b60405180910390f35b3480156104c1575f80fd5b506104dc60048036038101906104d791906123c3565b611a62565b005b3480156104e9575f80fd5b506104f2611a84565b6040516104ff9190612350565b60405180910390f35b348015610513575f80fd5b5061051c611b20565b6040516105299190612350565b60405180910390f35b34801561053d575f80fd5b50610546611b28565b6040516105539190612350565b60405180910390f35b5f7f7965db0b000000000000000000000000000000000000000000000000000000007bffffffffffffffffffffffffffffffffffffffffffffffffffffffff1916827bffffffffffffffffffffffffffffffffffffffffffffffffffffffff191614806105ce57506105cd82611b4c565b5b9050919050565b60025f3373ffffffffffffffffffffffffffffffffffffffff1673ffffffffffffffffffffffffffffffffffffffff1681526020019081526020015f206003015f9054906101000a900460ff1615610659576040517f7845597700000000000000000000000000000000000000000000000000000000815260040160405180910390fd5b7f000000000000000000000000000000000000000000000000000000000000000034600754610688919061260a565b11156106c0576040517f97651d1e00000000000000000000000000000000000000000000000000000000815260040160405180910390fd5b60405180608001604052805f81526020018281526020018381526020016001151581525060025f3373ffffffffffffffffffffffffffffffffffffffff1673ffffffffffffffffffffffffffffffffffffffff1681526020019081526020015f205f820151815f0155602082015181600101908161073e9190612838565b5060408201518160020190816107549190612838565b506060820151816003015f6101000a81548160ff0219169083151502179055509050505f3411156108a2573460035f3373ffffffffffffffffffffffffffffffffffffffff1673ffffffffffffffffffffffffffffffffffffffff1681526020019081526020015f205f8073ffffffffffffffffffffffffffffffffffffffff1673ffffffffffffffffffffffffffffffffffffffff1681526020019081526020015f205f828254610806919061260a565b925050819055503460075f82825461081e919061260a565b9250508190555060055f81548092919061083790612907565b91905055505f73ffffffffffffffffffffffffffffffffffffffff163373ffffffffffffffffffffffffffffffffffffffff167f01ece9c685ac991a7352754de4bb96f7d41fdbc35b4bc423326539149879c008346040516108999190612350565b60405180910390a35b5050565b5f805f8381526020019081526020015f20600101549050919050565b5f806108cc611a84565b9050670de0b6b3a764000081846108e3919061294e565b6108ed91906129bc565b915050919050565b6108fd611bb5565b60025f3373ffffffffffffffffffffffffffffffffffffffff1673ffffffffffffffffffffffffffffffffffffffff1681526020019081526020015f206003015f9054906101000a900460ff16610980576040517f566b044000000000000000000000000000000000000000000000000000000000815260040160405180910390fd5b67016345785d8a00008111156109d75767016345785d8a0000816040517fd859cbba0000000000000000000000000000000000000000000000000000000081526004016109ce9291906129ec565b60405180910390fd5b5f60035f3373ffffffffffffffffffffffffffffffffffffffff1673ffffffffffffffffffffffffffffffffffffffff1681526020019081526020015f205f8073ffffffffffffffffffffffffffffffffffffffff1673ffffffffffffffffffffffffffffffffffffffff1681526020019081526020015f2054905081811015610a9a5780826040517f70e6417b000000000000000000000000000000000000000000000000000000008152600401610a919291906129ec565b60405180910390fd5b8160035f3373ffffffffffffffffffffffffffffffffffffffff1673ffffffffffffffffffffffffffffffffffffffff1681526020019081526020015f205f8073ffffffffffffffffffffffffffffffffffffffff1673ffffffffffffffffffffffffffffffffffffffff1681526020019081526020015f205f828254610b219190612a13565b925050819055508160075f828254610b399190612a13565b9250508190555060065f815480929190610b5290612907565b91905055505f3373ffffffffffffffffffffffffffffffffffffffff1683604051610b7c90612a73565b5f6040518083038185875af1925050503d805f8114610bb6576040519150601f19603f3d011682016040523d82523d5f602084013e610bbb565b606091505b5050905080610bf6576040517fbd6bfd0a00000000000000000000000000000000000000000000000000000000815260040160405180910390fd5b5f73ffffffffffffffffffffffffffffffffffffffff163373ffffffffffffffffffffffffffffffffffffffff167fc8b1e2a9be32ce8c5fe81b6681739e4a0016bf546706482b49989431fe3d55ee85604051610c539190612350565b60405180910390a35050610c65611c04565b50565b610c71826108a6565b610c7a81611c0d565b610c848383611c21565b50505050565b5f81565b60025f3373ffffffffffffffffffffffffffffffffffffffff1673ffffffffffffffffffffffffffffffffffffffff1681526020019081526020015f206003015f9054906101000a900460ff16610d11576040517f566b044000000000000000000000000000000000000000000000000000000000815260040160405180910390fd5b5f60045f8473ffffffffffffffffffffffffffffffffffffffff1673ffffffffffffffffffffffffffffffffffffffff1681526020019081526020015f206040518060600160405290815f82015f9054906101000a900460ff166001811115610d7d57610d7c612a87565b5b6001811115610d8f57610d8e612a87565b5b81526020015f820160019054906101000a900460ff1660ff1660ff1681526020015f820160029054906101000a900473ffffffffffffffffffffffffffffffffffffffff1673ffffffffffffffffffffffffffffffffffffffff1673ffffffffffffffffffffffffffffffffffffffff16815250509050600180811115610e1957610e18612a87565b5b815f01516001811115610e2f57610e2e612a87565b5b14610e66576040517f5694952100000000000000000000000000000000000000000000000000000000815260040160405180910390fd5b5f8203610e9f576040517f7803844200000000000000000000000000000000000000000000000000000000815260040160405180910390fd5b8160035f3373ffffffffffffffffffffffffffffffffffffffff1673ffffffffffffffffffffffffffffffffffffffff1681526020019081526020015f205f8573ffffffffffffffffffffffffffffffffffffffff1673ffffffffffffffffffffffffffffffffffffffff1681526020019081526020015f205f828254610f26919061260a565b9250508190555060055f815480929190610f3f90612907565b9190505550610f713330848673ffffffffffffffffffffffffffffffffffffffff16611d0a909392919063ffffffff16565b8273ffffffffffffffffffffffffffffffffffffffff163373ffffffffffffffffffffffffffffffffffffffff167f01ece9c685ac991a7352754de4bb96f7d41fdbc35b4bc423326539149879c00884604051610fce9190612350565b60405180910390a3505050565b610fe3611d8c565b73ffffffffffffffffffffffffffffffffffffffff168173ffffffffffffffffffffffffffffffffffffffff1614611047576040517f6697b23200000000000000000000000000000000000000000000000000000000815260040160405180910390fd5b6110518282611d93565b505050565b67016345785d8a000081565b5f600654905090565b5f801b61107781611c0d565b60405180606001604052808361108d575f611090565b60015b60018111156110a2576110a1612a87565b5b81526020018560ff1681526020018473ffffffffffffffffffffffffffffffffffffffff1681525060045f8773ffffffffffffffffffffffffffffffffffffffff1673ffffffffffffffffffffffffffffffffffffffff1681526020019081526020015f205f820151815f015f6101000a81548160ff0219169083600181111561112f5761112e612a87565b5b02179055506020820151815f0160016101000a81548160ff021916908360ff1602179055506040820151815f0160026101000a81548173ffffffffffffffffffffffffffffffffffffffff021916908373ffffffffffffffffffffffffffffffffffffffff1602179055509050508473ffffffffffffffffffffffffffffffffffffffff167f243c26e9467b186d248bf33b7722de99a559aceda24c02928c2636071be4d99260045f8873ffffffffffffffffffffffffffffffffffffffff1673ffffffffffffffffffffffffffffffffffffffff1681526020019081526020015f205f015f9054906101000a900460ff1660405161122e9190612afa565b60405180910390a25050505050565b5f801b81565b5f805f8481526020019081526020015f205f015f8373ffffffffffffffffffffffffffffffffffffffff1673ffffffffffffffffffffffffffffffffffffffff1681526020019081526020015f205f9054906101000a900460ff16905092915050565b5f600554905090565b6112b7611bb5565b60025f3373ffffffffffffffffffffffffffffffffffffffff1673ffffffffffffffffffffffffffffffffffffffff1681526020019081526020015f206003015f9054906101000a900460ff1661133a576040517f566b044000000000000000000000000000000000000000000000000000000000815260040160405180910390fd5b5f60045f8473ffffffffffffffffffffffffffffffffffffffff1673ffffffffffffffffffffffffffffffffffffffff1681526020019081526020015f206040518060600160405290815f82015f9054906101000a900460ff1660018111156113a6576113a5612a87565b5b60018111156113b8576113b7612a87565b5b81526020015f820160019054906101000a900460ff1660ff1660ff1681526020015f820160029054906101000a900473ffffffffffffffffffffffffffffffffffffffff1673ffffffffffffffffffffffffffffffffffffffff1673ffffffffffffffffffffffffffffffffffffffff1681525050905060018081111561144257611441612a87565b5b815f0151600181111561145857611457612a87565b5b1461148f576040517f5694952100000000000000000000000000000000000000000000000000000000815260040160405180910390fd5b67016345785d8a00008211156114e65767016345785d8a0000826040517fd859cbba0000000000000000000000000000000000000000000000000000000081526004016114dd9291906129ec565b60405180910390fd5b5f60035f3373ffffffffffffffffffffffffffffffffffffffff1673ffffffffffffffffffffffffffffffffffffffff1681526020019081526020015f205f8573ffffffffffffffffffffffffffffffffffffffff1673ffffffffffffffffffffffffffffffffffffffff1681526020019081526020015f20549050828110156115a95780836040517f70e6417b0000000000000000000000000000000000000000000000000000000081526004016115a09291906129ec565b60405180910390fd5b8260035f3373ffffffffffffffffffffffffffffffffffffffff1673ffffffffffffffffffffffffffffffffffffffff1681526020019081526020015f205f8673ffffffffffffffffffffffffffffffffffffffff1673ffffffffffffffffffffffffffffffffffffffff1681526020019081526020015f205f8282546116309190612a13565b9250508190555060065f81548092919061164990612907565b919050555061167933848673ffffffffffffffffffffffffffffffffffffffff16611e7c9092919063ffffffff16565b8373ffffffffffffffffffffffffffffffffffffffff163373ffffffffffffffffffffffffffffffffffffffff167fc8b1e2a9be32ce8c5fe81b6681739e4a0016bf546706482b49989431fe3d55ee856040516116d69190612350565b60405180910390a350506116e8611c04565b5050565b5f801b81565b7f000000000000000000000000000000000000000000000000000000000000000081565b60025f3373ffffffffffffffffffffffffffffffffffffffff1673ffffffffffffffffffffffffffffffffffffffff1681526020019081526020015f206003015f9054906101000a900460ff16611799576040517f566b044000000000000000000000000000000000000000000000000000000000815260040160405180910390fd5b5f34036117d2576040517f7803844200000000000000000000000000000000000000000000000000000000815260040160405180910390fd5b7f000000000000000000000000000000000000000000000000000000000000000034600754611801919061260a565b1115611839576040517f97651d1e00000000000000000000000000000000000000000000000000000000815260040160405180910390fd5b3460035f3373ffffffffffffffffffffffffffffffffffffffff1673ffffffffffffffffffffffffffffffffffffffff1681526020019081526020015f205f8073ffffffffffffffffffffffffffffffffffffffff1673ffffffffffffffffffffffffffffffffffffffff1681526020019081526020015f205f8282546118c0919061260a565b925050819055503460075f8282546118d8919061260a565b9250508190555060055f8154809291906118f190612907565b91905055505f73ffffffffffffffffffffffffffffffffffffffff163373ffffffffffffffffffffffffffffffffffffffff167f01ece9c685ac991a7352754de4bb96f7d41fdbc35b4bc423326539149879c008346040516119539190612350565b60405180910390a3565b5f60025f8473ffffffffffffffffffffffffffffffffffffffff1673ffffffffffffffffffffffffffffffffffffffff1681526020019081526020015f206003015f9054906101000a900460ff166119e1576040517f566b044000000000000000000000000000000000000000000000000000000000815260040160405180910390fd5b60035f8473ffffffffffffffffffffffffffffffffffffffff1673ffffffffffffffffffffffffffffffffffffffff1681526020019081526020015f205f8373ffffffffffffffffffffffffffffffffffffffff1673ffffffffffffffffffffffffffffffffffffffff1681526020019081526020015f2054905092915050565b611a6b826108a6565b611a7481611c0d565b611a7e8383611d93565b50505050565b5f807f000000000000000000000000000000000000000000000000000000000000000073ffffffffffffffffffffffffffffffffffffffff1663feaf968c6040518163ffffffff1660e01b815260040160a060405180830381865afa158015611aef573d5f803e3d5ffd5b505050506040513d601f19601f82011682018060405250810190611b139190612b99565b5050509150508091505090565b6305f5e10081565b7f000000000000000000000000000000000000000000000000000000000000000081565b5f7f01ffc9a7000000000000000000000000000000000000000000000000000000007bffffffffffffffffffffffffffffffffffffffffffffffffffffffff1916827bffffffffffffffffffffffffffffffffffffffffffffffffffffffff1916149050919050565b600260015403611bfa576040517f08c379a0000000000000000000000000000000000000000000000000000000008152600401611bf190612c6a565b60405180910390fd5b6002600181905550565b60018081905550565b611c1e81611c19611d8c565b611efb565b50565b5f611c2c8383611243565b611d005760015f808581526020019081526020015f205f015f8473ffffffffffffffffffffffffffffffffffffffff1673ffffffffffffffffffffffffffffffffffffffff1681526020019081526020015f205f6101000a81548160ff021916908315150217905550611c9d611d8c565b73ffffffffffffffffffffffffffffffffffffffff168273ffffffffffffffffffffffffffffffffffffffff16847f2f8788117e7eff1d82e926ec794901d17c78024a50270940304540a733656f0d60405160405180910390a460019050611d04565b5f90505b92915050565b611d86848573ffffffffffffffffffffffffffffffffffffffff166323b872dd868686604051602401611d3f93929190612c88565b604051602081830303815290604052915060e01b6020820180517bffffffffffffffffffffffffffffffffffffffffffffffffffffffff8381831617835250505050611f4c565b50505050565b5f33905090565b5f611d9e8383611243565b15611e72575f805f8581526020019081526020015f205f015f8473ffffffffffffffffffffffffffffffffffffffff1673ffffffffffffffffffffffffffffffffffffffff1681526020019081526020015f205f6101000a81548160ff021916908315150217905550611e0f611d8c565b73ffffffffffffffffffffffffffffffffffffffff168273ffffffffffffffffffffffffffffffffffffffff16847ff6391f5c32d9c69d2a47ea670b442974b53935d1edc7fd64eb21e047a839171b60405160405180910390a460019050611e76565b5f90505b92915050565b611ef6838473ffffffffffffffffffffffffffffffffffffffff1663a9059cbb8585604051602401611eaf929190612cbd565b604051602081830303815290604052915060e01b6020820180517bffffffffffffffffffffffffffffffffffffffffffffffffffffffff8381831617835250505050611f4c565b505050565b611f058282611243565b611f485780826040517fe2517d3f000000000000000000000000000000000000000000000000000000008152600401611f3f929190612ce4565b60405180910390fd5b5050565b5f8060205f8451602086015f885af180611f6b576040513d5f823e3d81fd5b3d92505f519150505f8214611f84576001811415611f9f565b5f8473ffffffffffffffffffffffffffffffffffffffff163b145b15611fe157836040517f5274afe7000000000000000000000000000000000000000000000000000000008152600401611fd89190612410565b60405180910390fd5b50505050565b5f604051905090565b5f80fd5b5f80fd5b5f7fffffffff0000000000000000000000000000000000000000000000000000000082169050919050565b61202c81611ff8565b8114612036575f80fd5b50565b5f8135905061204781612023565b92915050565b5f6020828403121561206257612061611ff0565b5b5f61206f84828501612039565b91505092915050565b5f8115159050919050565b61208c81612078565b82525050565b5f6020820190506120a55f830184612083565b92915050565b5f80fd5b5f80fd5b5f601f19601f8301169050919050565b7f4e487b71000000000000000000000000000000000000000000000000000000005f52604160045260245ffd5b6120f9826120b3565b810181811067ffffffffffffffff82111715612118576121176120c3565b5b80604052505050565b5f61212a611fe7565b905061213682826120f0565b919050565b5f67ffffffffffffffff821115612155576121546120c3565b5b61215e826120b3565b9050602081019050919050565b828183375f83830152505050565b5f61218b6121868461213b565b612121565b9050828152602081018484840111156121a7576121a66120af565b5b6121b284828561216b565b509392505050565b5f82601f8301126121ce576121cd6120ab565b5b81356121de848260208601612179565b91505092915050565b5f80604083850312156121fd576121fc611ff0565b5b5f83013567ffffffffffffffff81111561221a57612219611ff4565b5b612226858286016121ba565b925050602083013567ffffffffffffffff81111561224757612246611ff4565b5b612253858286016121ba565b9150509250929050565b5f819050919050565b61226f8161225d565b8114612279575f80fd5b50565b5f8135905061228a81612266565b92915050565b5f602082840312156122a5576122a4611ff0565b5b5f6122b28482850161227c565b91505092915050565b6122c48161225d565b82525050565b5f6020820190506122dd5f8301846122bb565b92915050565b5f819050919050565b6122f5816122e3565b81146122ff575f80fd5b50565b5f81359050612310816122ec565b92915050565b5f6020828403121561232b5761232a611ff0565b5b5f61233884828501612302565b91505092915050565b61234a816122e3565b82525050565b5f6020820190506123635f830184612341565b92915050565b5f73ffffffffffffffffffffffffffffffffffffffff82169050919050565b5f61239282612369565b9050919050565b6123a281612388565b81146123ac575f80fd5b50565b5f813590506123bd81612399565b92915050565b5f80604083850312156123d9576123d8611ff0565b5b5f6123e68582860161227c565b92505060206123f7858286016123af565b9150509250929050565b61240a81612388565b82525050565b5f6020820190506124235f830184612401565b92915050565b5f806040838503121561243f5761243e611ff0565b5b5f61244c858286016123af565b925050602061245d85828601612302565b9150509250929050565b5f60ff82169050919050565b61247c81612467565b8114612486575f80fd5b50565b5f8135905061249781612473565b92915050565b6124a681612078565b81146124b0575f80fd5b50565b5f813590506124c18161249d565b92915050565b5f805f80608085870312156124df576124de611ff0565b5b5f6124ec878288016123af565b94505060206124fd87828801612489565b935050604061250e878288016123af565b925050606061251f878288016124b3565b91505092959194509250565b5f819050919050565b5f61254e61254961254484612369565b61252b565b612369565b9050919050565b5f61255f82612534565b9050919050565b5f61257082612555565b9050919050565b61258081612566565b82525050565b5f6020820190506125995f830184612577565b92915050565b5f80604083850312156125b5576125b4611ff0565b5b5f6125c2858286016123af565b92505060206125d3858286016123af565b9150509250929050565b7f4e487b71000000000000000000000000000000000000000000000000000000005f52601160045260245ffd5b5f612614826122e3565b915061261f836122e3565b9250828201905080821115612637576126366125dd565b5b92915050565b5f81519050919050565b7f4e487b71000000000000000000000000000000000000000000000000000000005f52602260045260245ffd5b5f600282049050600182168061268b57607f821691505b60208210810361269e5761269d612647565b5b50919050565b5f819050815f5260205f209050919050565b5f6020601f8301049050919050565b5f82821b905092915050565b5f600883026127007fffffffffffffffffffffffffffffffffffffffffffffffffffffffffffffffff826126c5565b61270a86836126c5565b95508019841693508086168417925050509392505050565b5f61273c612737612732846122e3565b61252b565b6122e3565b9050919050565b5f819050919050565b61275583612722565b61276961276182612743565b8484546126d1565b825550505050565b5f90565b61277d612771565b61278881848461274c565b505050565b5b818110156127ab576127a05f82612775565b60018101905061278e565b5050565b601f8211156127f0576127c1816126a4565b6127ca846126b6565b810160208510156127d9578190505b6127ed6127e5856126b6565b83018261278d565b50505b505050565b5f82821c905092915050565b5f6128105f19846008026127f5565b1980831691505092915050565b5f6128288383612801565b9150826002028217905092915050565b6128418261263d565b67ffffffffffffffff81111561285a576128596120c3565b5b6128648254612674565b61286f8282856127af565b5f60209050601f8311600181146128a0575f841561288e578287015190505b612898858261281d565b8655506128ff565b601f1984166128ae866126a4565b5f5b828110156128d5578489015182556001820191506020850194506020810190506128b0565b868310156128f257848901516128ee601f891682612801565b8355505b6001600288020188555050505b505050505050565b5f612911826122e3565b91507fffffffffffffffffffffffffffffffffffffffffffffffffffffffffffffffff8203612943576129426125dd565b5b600182019050919050565b5f612958826122e3565b9150612963836122e3565b9250828202612971816122e3565b91508282048414831517612988576129876125dd565b5b5092915050565b7f4e487b71000000000000000000000000000000000000000000000000000000005f52601260045260245ffd5b5f6129c6826122e3565b91506129d1836122e3565b9250826129e1576129e061298f565b5b828204905092915050565b5f6040820190506129ff5f830185612341565b612a0c6020830184612341565b9392505050565b5f612a1d826122e3565b9150612a28836122e3565b9250828203905081811115612a4057612a3f6125dd565b5b92915050565b5f81905092915050565b50565b5f612a5e5f83612a46565b9150612a6982612a50565b5f82019050919050565b5f612a7d82612a53565b9150819050919050565b7f4e487b71000000000000000000000000000000000000000000000000000000005f52602160045260245ffd5b60028110612ac557612ac4612a87565b5b50565b5f819050612ad582612ab4565b919050565b5f612ae482612ac8565b9050919050565b612af481612ada565b82525050565b5f602082019050612b0d5f830184612aeb565b92915050565b5f69ffffffffffffffffffff82169050919050565b612b3181612b13565b8114612b3b575f80fd5b50565b5f81519050612b4c81612b28565b92915050565b5f819050919050565b612b6481612b52565b8114612b6e575f80fd5b50565b5f81519050612b7f81612b5b565b92915050565b5f81519050612b93816122ec565b92915050565b5f805f805f60a08688031215612bb257612bb1611ff0565b5b5f612bbf88828901612b3e565b9550506020612bd088828901612b71565b9450506040612be188828901612b85565b9350506060612bf288828901612b85565b9250506080612c0388828901612b3e565b9150509295509295909350565b5f82825260208201905092915050565b7f5265656e7472616e637947756172643a207265656e7472616e742063616c6c005f82015250565b5f612c54601f83612c10565b9150612c5f82612c20565b602082019050919050565b5f6020820190508181035f830152612c8181612c48565b9050919050565b5f606082019050612c9b5f830186612401565b612ca86020830185612401565b612cb56040830184612341565b949350505050565b5f604082019050612cd05f830185612401565b612cdd6020830184612341565b9392505050565b5f604082019050612cf75f830185612401565b612d0460208301846122bb565b939250505056fea26469706673582212207b3e87135a3e30972853d6754fd3a8c03c08a44bf44d0342aff4351a242df3b764736f6c634300081a0033",
					"opcodes": "PUSH1 0xC0 PUSH1 0x40 MSTORE CALLVALUE DUP1 ISZERO PUSH2 0xF JUMPI PUSH0 DUP1 REVERT JUMPDEST POP PUSH1 0x40 MLOAD PUSH2 0x3033 CODESIZE SUB DUP1 PUSH2 0x3033 DUP4 CODECOPY DUP2 DUP2 ADD PUSH1 0x40 MSTORE DUP2 ADD SWAP1 PUSH2 0x31 SWAP2 SWAP1 PUSH2 0x27E JUMP JUMPDEST PUSH1 0x1 DUP1 DUP2 SWAP1 SSTORE POP PUSH2 0x4A PUSH0 DUP1 SHL CALLER PUSH2 0x8E PUSH1 0x20 SHL PUSH1 0x20 SHR JUMP JUMPDEST POP DUP2 PUSH20 0xFFFFFFFFFFFFFFFFFFFFFFFFFFFFFFFFFFFFFFFF AND PUSH1 0xA0 DUP2 PUSH20 0xFFFFFFFFFFFFFFFFFFFFFFFFFFFFFFFFFFFFFFFF AND DUP2 MSTORE POP POP DUP1 PUSH1 0x80 DUP2 DUP2 MSTORE POP POP POP POP PUSH2 0x2BC JUMP JUMPDEST PUSH0 PUSH2 0x9F DUP4 DUP4 PUSH2 0x183 PUSH1 0x20 SHL PUSH1 0x20 SHR JUMP JUMPDEST PUSH2 0x179 JUMPI PUSH1 0x1 PUSH0 DUP1 DUP6 DUP2 MSTORE PUSH1 0x20 ADD SWAP1 DUP2 MSTORE PUSH1 0x20 ADD PUSH0 KECCAK256 PUSH0 ADD PUSH0 DUP5 PUSH20 0xFFFFFFFFFFFFFFFFFFFFFFFFFFFFFFFFFFFFFFFF AND PUSH20 0xFFFFFFFFFFFFFFFFFFFFFFFFFFFFFFFFFFFFFFFF AND DUP2 MSTORE PUSH1 0x20 ADD SWAP1 DUP2 MSTORE PUSH1 0x20 ADD PUSH0 KECCAK256 PUSH0 PUSH2 0x100 EXP DUP2 SLOAD DUP2 PUSH1 0xFF MUL NOT AND SWAP1 DUP4 ISZERO ISZERO MUL OR SWAP1 SSTORE POP PUSH2 0x116 PUSH2 0x1E6 PUSH1 0x20 SHL PUSH1 0x20 SHR JUMP JUMPDEST PUSH20 0xFFFFFFFFFFFFFFFFFFFFFFFFFFFFFFFFFFFFFFFF AND DUP3 PUSH20 0xFFFFFFFFFFFFFFFFFFFFFFFFFFFFFFFFFFFFFFFF AND DUP5 PUSH32 0x2F8788117E7EFF1D82E926EC794901D17C78024A50270940304540A733656F0D PUSH1 0x40 MLOAD PUSH1 0x40 MLOAD DUP1 SWAP2 SUB SWAP1 LOG4 PUSH1 0x1 SWAP1 POP PUSH2 0x17D JUMP JUMPDEST PUSH0 SWAP1 POP JUMPDEST SWAP3 SWAP2 POP POP JUMP JUMPDEST PUSH0 DUP1 PUSH0 DUP5 DUP2 MSTORE PUSH1 0x20 ADD SWAP1 DUP2 MSTORE PUSH1 0x20 ADD PUSH0 KECCAK256 PUSH0 ADD PUSH0 DUP4 PUSH20 0xFFFFFFFFFFFFFFFFFFFFFFFFFFFFFFFFFFFFFFFF AND PUSH20 0xFFFFFFFFFFFFFFFFFFFFFFFFFFFFFFFFFFFFFFFF AND DUP2 MSTORE PUSH1 0x20 ADD SWAP1 DUP2 MSTORE PUSH1 0x20 ADD PUSH0 KECCAK256 PUSH0 SWAP1 SLOAD SWAP1 PUSH2 0x100 EXP SWAP1 DIV PUSH1 0xFF AND SWAP1 POP SWAP3 SWAP2 POP POP JUMP JUMPDEST PUSH0 CALLER SWAP1 POP SWAP1 JUMP JUMPDEST PUSH0 DUP1 REVERT JUMPDEST PUSH0 PUSH20 0xFFFFFFFFFFFFFFFFFFFFFFFFFFFFFFFFFFFFFFFF DUP3 AND SWAP1 POP SWAP2 SWAP1 POP JUMP JUMPDEST PUSH0 PUSH2 0x21A DUP3 PUSH2 0x1F1 JUMP JUMPDEST SWAP1 POP SWAP2 SWAP1 POP JUMP JUMPDEST PUSH2 0x22A DUP2 PUSH2 0x210 JUMP JUMPDEST DUP2 EQ PUSH2 0x234 JUMPI PUSH0 DUP1 REVERT JUMPDEST POP JUMP JUMPDEST PUSH0 DUP2 MLOAD SWAP1 POP PUSH2 0x245 DUP2 PUSH2 0x221 JUMP JUMPDEST SWAP3 SWAP2 POP POP JUMP JUMPDEST PUSH0 DUP2 SWAP1 POP SWAP2 SWAP1 POP JUMP JUMPDEST PUSH2 0x25D DUP2 PUSH2 0x24B JUMP JUMPDEST DUP2 EQ PUSH2 0x267 JUMPI PUSH0 DUP1 REVERT JUMPDEST POP JUMP JUMPDEST PUSH0 DUP2 MLOAD SWAP1 POP PUSH2 0x278 DUP2 PUSH2 0x254 JUMP JUMPDEST SWAP3 SWAP2 POP POP JUMP JUMPDEST PUSH0 DUP1 PUSH1 0x40 DUP4 DUP6 SUB SLT ISZERO PUSH2 0x294 JUMPI PUSH2 0x293 PUSH2 0x1ED JUMP JUMPDEST JUMPDEST PUSH0 PUSH2 0x2A1 DUP6 DUP3 DUP7 ADD PUSH2 0x237 JUMP JUMPDEST SWAP3 POP POP PUSH1 0x20 PUSH2 0x2B2 DUP6 DUP3 DUP7 ADD PUSH2 0x26A JUMP JUMPDEST SWAP2 POP POP SWAP3 POP SWAP3 SWAP1 POP JUMP JUMPDEST PUSH1 0x80 MLOAD PUSH1 0xA0 MLOAD PUSH2 0x2D41 PUSH2 0x2F2 PUSH0 CODECOPY PUSH0 DUP2 DUP2 PUSH2 0x16F4 ADD MSTORE PUSH2 0x1A88 ADD MSTORE PUSH0 DUP2 DUP2 PUSH2 0x65B ADD MSTORE DUP2 DUP2 PUSH2 0x17D4 ADD MSTORE PUSH2 0x1B2A ADD MSTORE PUSH2 0x2D41 PUSH0 RETURN INVALID PUSH1 0x80 PUSH1 0x40 MSTORE PUSH1 0x4 CALLDATASIZE LT PUSH2 0x14A JUMPI PUSH0 CALLDATALOAD PUSH1 0xE0 SHR DUP1 PUSH4 0x75B238FC GT PUSH2 0xB5 JUMPI DUP1 PUSH4 0xD0E30DB0 GT PUSH2 0x6E JUMPI DUP1 PUSH4 0xD0E30DB0 EQ PUSH2 0x470 JUMPI DUP1 PUSH4 0xD4FAC45D EQ PUSH2 0x47A JUMPI DUP1 PUSH4 0xD547741F EQ PUSH2 0x4B6 JUMPI DUP1 PUSH4 0xD67B98A9 EQ PUSH2 0x4DE JUMPI DUP1 PUSH4 0xD7128C58 EQ PUSH2 0x508 JUMPI DUP1 PUSH4 0xF6687AF7 EQ PUSH2 0x532 JUMPI PUSH2 0x14A JUMP JUMPDEST DUP1 PUSH4 0x75B238FC EQ PUSH2 0x364 JUMPI DUP1 PUSH4 0x91D14854 EQ PUSH2 0x38E JUMPI DUP1 PUSH4 0x9363A141 EQ PUSH2 0x3CA JUMPI DUP1 PUSH4 0x9E281A98 EQ PUSH2 0x3F4 JUMPI DUP1 PUSH4 0xA217FDDF EQ PUSH2 0x41C JUMPI DUP1 PUSH4 0xB60FC72E EQ PUSH2 0x446 JUMPI PUSH2 0x14A JUMP JUMPDEST DUP1 PUSH4 0x31F7D964 GT PUSH2 0x107 JUMPI DUP1 PUSH4 0x31F7D964 EQ PUSH2 0x26E JUMPI DUP1 PUSH4 0x338B5DEA EQ PUSH2 0x298 JUMPI DUP1 PUSH4 0x36568ABE EQ PUSH2 0x2C0 JUMPI DUP1 PUSH4 0x44BA0EA2 EQ PUSH2 0x2E8 JUMPI DUP1 PUSH4 0x47D04C71 EQ PUSH2 0x312 JUMPI DUP1 PUSH4 0x4914E2CE EQ PUSH2 0x33C JUMPI PUSH2 0x14A JUMP JUMPDEST DUP1 PUSH4 0x1FFC9A7 EQ PUSH2 0x14E JUMPI DUP1 PUSH4 0x19289287 EQ PUSH2 0x18A JUMPI DUP1 PUSH4 0x248A9CA3 EQ PUSH2 0x1A6 JUMPI DUP1 PUSH4 0x27281025 EQ PUSH2 0x1E2 JUMPI DUP1 PUSH4 0x2E1A7D4D EQ PUSH2 0x21E JUMPI DUP1 PUSH4 0x2F2FF15D EQ PUSH2 0x246 JUMPI JUMPDEST PUSH0 DUP1 REVERT JUMPDEST CALLVALUE DUP1 ISZERO PUSH2 0x159 JUMPI PUSH0 DUP1 REVERT JUMPDEST POP PUSH2 0x174 PUSH1 0x4 DUP1 CALLDATASIZE SUB DUP2 ADD SWAP1 PUSH2 0x16F SWAP2 SWAP1 PUSH2 0x204D JUMP JUMPDEST PUSH2 0x55C JUMP JUMPDEST PUSH1 0x40 MLOAD PUSH2 0x181 SWAP2 SWAP1 PUSH2 0x2092 JUMP JUMPDEST PUSH1 0x40 MLOAD DUP1 SWAP2 SUB SWAP1 RETURN JUMPDEST PUSH2 0x1A4 PUSH1 0x4 DUP1 CALLDATASIZE SUB DUP2 ADD SWAP1 PUSH2 0x19F SWAP2 SWAP1 PUSH2 0x21E7 JUMP JUMPDEST PUSH2 0x5D5 JUMP JUMPDEST STOP JUMPDEST CALLVALUE DUP1 ISZERO PUSH2 0x1B1 JUMPI PUSH0 DUP1 REVERT JUMPDEST POP PUSH2 0x1CC PUSH1 0x4 DUP1 CALLDATASIZE SUB DUP2 ADD SWAP1 PUSH2 0x1C7 SWAP2 SWAP1 PUSH2 0x2290 JUMP JUMPDEST PUSH2 0x8A6 JUMP JUMPDEST PUSH1 0x40 MLOAD PUSH2 0x1D9 SWAP2 SWAP1 PUSH2 0x22CA JUMP JUMPDEST PUSH1 0x40 MLOAD DUP1 SWAP2 SUB SWAP1 RETURN JUMPDEST CALLVALUE DUP1 ISZERO PUSH2 0x1ED JUMPI PUSH0 DUP1 REVERT JUMPDEST POP PUSH2 0x208 PUSH1 0x4 DUP1 CALLDATASIZE SUB DUP2 ADD SWAP1 PUSH2 0x203 SWAP2 SWAP1 PUSH2 0x2316 JUMP JUMPDEST PUSH2 0x8C2 JUMP JUMPDEST PUSH1 0x40 MLOAD PUSH2 0x215 SWAP2 SWAP1 PUSH2 0x2350 JUMP JUMPDEST PUSH1 0x40 MLOAD DUP1 SWAP2 SUB SWAP1 RETURN JUMPDEST CALLVALUE DUP1 ISZERO PUSH2 0x229 JUMPI PUSH0 DUP1 REVERT JUMPDEST POP PUSH2 0x244 PUSH1 0x4 DUP1 CALLDATASIZE SUB DUP2 ADD SWAP1 PUSH2 0x23F SWAP2 SWAP1 PUSH2 0x2316 JUMP JUMPDEST PUSH2 0x8F5 JUMP JUMPDEST STOP JUMPDEST CALLVALUE DUP1 ISZERO PUSH2 0x251 JUMPI PUSH0 DUP1 REVERT JUMPDEST POP PUSH2 0x26C PUSH1 0x4 DUP1 CALLDATASIZE SUB DUP2 ADD SWAP1 PUSH2 0x267 SWAP2 SWAP1 PUSH2 0x23C3 JUMP JUMPDEST PUSH2 0xC68 JUMP JUMPDEST STOP JUMPDEST CALLVALUE DUP1 ISZERO PUSH2 0x279 JUMPI PUSH0 DUP1 REVERT JUMPDEST POP PUSH2 0x282 PUSH2 0xC8A JUMP JUMPDEST PUSH1 0x40 MLOAD PUSH2 0x28F SWAP2 SWAP1 PUSH2 0x2410 JUMP JUMPDEST PUSH1 0x40 MLOAD DUP1 SWAP2 SUB SWAP1 RETURN JUMPDEST CALLVALUE DUP1 ISZERO PUSH2 0x2A3 JUMPI PUSH0 DUP1 REVERT JUMPDEST POP PUSH2 0x2BE PUSH1 0x4 DUP1 CALLDATASIZE SUB DUP2 ADD SWAP1 PUSH2 0x2B9 SWAP2 SWAP1 PUSH2 0x2429 JUMP JUMPDEST PUSH2 0xC8E JUMP JUMPDEST STOP JUMPDEST CALLVALUE DUP1 ISZERO PUSH2 0x2CB JUMPI PUSH0 DUP1 REVERT JUMPDEST POP PUSH2 0x2E6 PUSH1 0x4 DUP1 CALLDATASIZE SUB DUP2 ADD SWAP1 PUSH2 0x2E1 SWAP2 SWAP1 PUSH2 0x23C3 JUMP JUMPDEST PUSH2 0xFDB JUMP JUMPDEST STOP JUMPDEST CALLVALUE DUP1 ISZERO PUSH2 0x2F3 JUMPI PUSH0 DUP1 REVERT JUMPDEST POP PUSH2 0x2FC PUSH2 0x1056 JUMP JUMPDEST PUSH1 0x40 MLOAD PUSH2 0x309 SWAP2 SWAP1 PUSH2 0x2350 JUMP JUMPDEST PUSH1 0x40 MLOAD DUP1 SWAP2 SUB SWAP1 RETURN JUMPDEST CALLVALUE DUP1 ISZERO PUSH2 0x31D JUMPI PUSH0 DUP1 REVERT JUMPDEST POP PUSH2 0x326 PUSH2 0x1062 JUMP JUMPDEST PUSH1 0x40 MLOAD PUSH2 0x333 SWAP2 SWAP1 PUSH2 0x2350 JUMP JUMPDEST PUSH1 0x40 MLOAD DUP1 SWAP2 SUB SWAP1 RETURN JUMPDEST CALLVALUE DUP1 ISZERO PUSH2 0x347 JUMPI PUSH0 DUP1 REVERT JUMPDEST POP PUSH2 0x362 PUSH1 0x4 DUP1 CALLDATASIZE SUB DUP2 ADD SWAP1 PUSH2 0x35D SWAP2 SWAP1 PUSH2 0x24C7 JUMP JUMPDEST PUSH2 0x106B JUMP JUMPDEST STOP JUMPDEST CALLVALUE DUP1 ISZERO PUSH2 0x36F JUMPI PUSH0 DUP1 REVERT JUMPDEST POP PUSH2 0x378 PUSH2 0x123D JUMP JUMPDEST PUSH1 0x40 MLOAD PUSH2 0x385 SWAP2 SWAP1 PUSH2 0x22CA JUMP JUMPDEST PUSH1 0x40 MLOAD DUP1 SWAP2 SUB SWAP1 RETURN JUMPDEST CALLVALUE DUP1 ISZERO PUSH2 0x399 JUMPI PUSH0 DUP1 REVERT JUMPDEST POP PUSH2 0x3B4 PUSH1 0x4 DUP1 CALLDATASIZE SUB DUP2 ADD SWAP1 PUSH2 0x3AF SWAP2 SWAP1 PUSH2 0x23C3 JUMP JUMPDEST PUSH2 0x1243 JUMP JUMPDEST PUSH1 0x40 MLOAD PUSH2 0x3C1 SWAP2 SWAP1 PUSH2 0x2092 JUMP JUMPDEST PUSH1 0x40 MLOAD DUP1 SWAP2 SUB SWAP1 RETURN JUMPDEST CALLVALUE DUP1 ISZERO PUSH2 0x3D5 JUMPI PUSH0 DUP1 REVERT JUMPDEST POP PUSH2 0x3DE PUSH2 0x12A6 JUMP JUMPDEST PUSH1 0x40 MLOAD PUSH2 0x3EB SWAP2 SWAP1 PUSH2 0x2350 JUMP JUMPDEST PUSH1 0x40 MLOAD DUP1 SWAP2 SUB SWAP1 RETURN JUMPDEST CALLVALUE DUP1 ISZERO PUSH2 0x3FF JUMPI PUSH0 DUP1 REVERT JUMPDEST POP PUSH2 0x41A PUSH1 0x4 DUP1 CALLDATASIZE SUB DUP2 ADD SWAP1 PUSH2 0x415 SWAP2 SWAP1 PUSH2 0x2429 JUMP JUMPDEST PUSH2 0x12AF JUMP JUMPDEST STOP JUMPDEST CALLVALUE DUP1 ISZERO PUSH2 0x427 JUMPI PUSH0 DUP1 REVERT JUMPDEST POP PUSH2 0x430 PUSH2 0x16EC JUMP JUMPDEST PUSH1 0x40 MLOAD PUSH2 0x43D SWAP2 SWAP1 PUSH2 0x22CA JUMP JUMPDEST PUSH1 0x40 MLOAD DUP1 SWAP2 SUB SWAP1 RETURN JUMPDEST CALLVALUE DUP1 ISZERO PUSH2 0x451 JUMPI PUSH0 DUP1 REVERT JUMPDEST POP PUSH2 0x45A PUSH2 0x16F2 JUMP JUMPDEST PUSH1 0x40 MLOAD PUSH2 0x467 SWAP2 SWAP1 PUSH2 0x2586 JUMP JUMPDEST PUSH1 0x40 MLOAD DUP1 SWAP2 SUB SWAP1 RETURN JUMPDEST PUSH2 0x478 PUSH2 0x1716 JUMP JUMPDEST STOP JUMPDEST CALLVALUE DUP1 ISZERO PUSH2 0x485 JUMPI PUSH0 DUP1 REVERT JUMPDEST POP PUSH2 0x4A0 PUSH1 0x4 DUP1 CALLDATASIZE SUB DUP2 ADD SWAP1 PUSH2 0x49B SWAP2 SWAP1 PUSH2 0x259F JUMP JUMPDEST PUSH2 0x195D JUMP JUMPDEST PUSH1 0x40 MLOAD PUSH2 0x4AD SWAP2 SWAP1 PUSH2 0x2350 JUMP JUMPDEST PUSH1 0x40 MLOAD DUP1 SWAP2 SUB SWAP1 RETURN JUMPDEST CALLVALUE DUP1 ISZERO PUSH2 0x4C1 JUMPI PUSH0 DUP1 REVERT JUMPDEST POP PUSH2 0x4DC PUSH1 0x4 DUP1 CALLDATASIZE SUB DUP2 ADD SWAP1 PUSH2 0x4D7 SWAP2 SWAP1 PUSH2 0x23C3 JUMP JUMPDEST PUSH2 0x1A62 JUMP JUMPDEST STOP JUMPDEST CALLVALUE DUP1 ISZERO PUSH2 0x4E9 JUMPI PUSH0 DUP1 REVERT JUMPDEST POP PUSH2 0x4F2 PUSH2 0x1A84 JUMP JUMPDEST PUSH1 0x40 MLOAD PUSH2 0x4FF SWAP2 SWAP1 PUSH2 0x2350 JUMP JUMPDEST PUSH1 0x40 MLOAD DUP1 SWAP2 SUB SWAP1 RETURN JUMPDEST CALLVALUE DUP1 ISZERO PUSH2 0x513 JUMPI PUSH0 DUP1 REVERT JUMPDEST POP PUSH2 0x51C PUSH2 0x1B20 JUMP JUMPDEST PUSH1 0x40 MLOAD PUSH2 0x529 SWAP2 SWAP1 PUSH2 0x2350 JUMP JUMPDEST PUSH1 0x40 MLOAD DUP1 SWAP2 SUB SWAP1 RETURN JUMPDEST CALLVALUE DUP1 ISZERO PUSH2 0x53D JUMPI PUSH0 DUP1 REVERT JUMPDEST POP PUSH2 0x546 PUSH2 0x1B28 JUMP JUMPDEST PUSH1 0x40 MLOAD PUSH2 0x553 SWAP2 SWAP1 PUSH2 0x2350 JUMP JUMPDEST PUSH1 0x40 MLOAD DUP1 SWAP2 SUB SWAP1 RETURN JUMPDEST PUSH0 PUSH32 0x7965DB0B00000000000000000000000000000000000000000000000000000000 PUSH28 0xFFFFFFFFFFFFFFFFFFFFFFFFFFFFFFFFFFFFFFFFFFFFFFFFFFFFFFFF NOT AND DUP3 PUSH28 0xFFFFFFFFFFFFFFFFFFFFFFFFFFFFFFFFFFFFFFFFFFFFFFFFFFFFFFFF NOT AND EQ DUP1 PUSH2 0x5CE JUMPI POP PUSH2 0x5CD DUP3 PUSH2 0x1B4C JUMP JUMPDEST JUMPDEST SWAP1 POP SWAP2 SWAP1 POP JUMP JUMPDEST PUSH1 0x2 PUSH0 CALLER PUSH20 0xFFFFFFFFFFFFFFFFFFFFFFFFFFFFFFFFFFFFFFFF AND PUSH20 0xFFFFFFFFFFFFFFFFFFFFFFFFFFFFFFFFFFFFFFFF AND DUP2 MSTORE PUSH1 0x20 ADD SWAP1 DUP2 MSTORE PUSH1 0x20 ADD PUSH0 KECCAK256 PUSH1 0x3 ADD PUSH0 SWAP1 SLOAD SWAP1 PUSH2 0x100 EXP SWAP1 DIV PUSH1 0xFF AND ISZERO PUSH2 0x659 JUMPI PUSH1 0x40 MLOAD PUSH32 0x7845597700000000000000000000000000000000000000000000000000000000 DUP2 MSTORE PUSH1 0x4 ADD PUSH1 0x40 MLOAD DUP1 SWAP2 SUB SWAP1 REVERT JUMPDEST PUSH32 0x0 CALLVALUE PUSH1 0x7 SLOAD PUSH2 0x688 SWAP2 SWAP1 PUSH2 0x260A JUMP JUMPDEST GT ISZERO PUSH2 0x6C0 JUMPI PUSH1 0x40 MLOAD PUSH32 0x97651D1E00000000000000000000000000000000000000000000000000000000 DUP2 MSTORE PUSH1 0x4 ADD PUSH1 0x40 MLOAD DUP1 SWAP2 SUB SWAP1 REVERT JUMPDEST PUSH1 0x40 MLOAD DUP1 PUSH1 0x80 ADD PUSH1 0x40 MSTORE DUP1 PUSH0 DUP2 MSTORE PUSH1 0x20 ADD DUP3 DUP2 MSTORE PUSH1 0x20 ADD DUP4 DUP2 MSTORE PUSH1 0x20 ADD PUSH1 0x1 ISZERO ISZERO DUP2 MSTORE POP PUSH1 0x2 PUSH0 CALLER PUSH20 0xFFFFFFFFFFFFFFFFFFFFFFFFFFFFFFFFFFFFFFFF AND PUSH20 0xFFFFFFFFFFFFFFFFFFFFFFFFFFFFFFFFFFFFFFFF AND DUP2 MSTORE PUSH1 0x20 ADD SWAP1 DUP2 MSTORE PUSH1 0x20 ADD PUSH0 KECCAK256 PUSH0 DUP3 ADD MLOAD DUP2 PUSH0 ADD SSTORE PUSH1 0x20 DUP3 ADD MLOAD DUP2 PUSH1 0x1 ADD SWAP1 DUP2 PUSH2 0x73E SWAP2 SWAP1 PUSH2 0x2838 JUMP JUMPDEST POP PUSH1 0x40 DUP3 ADD MLOAD DUP2 PUSH1 0x2 ADD SWAP1 DUP2 PUSH2 0x754 SWAP2 SWAP1 PUSH2 0x2838 JUMP JUMPDEST POP PUSH1 0x60 DUP3 ADD MLOAD DUP2 PUSH1 0x3 ADD PUSH0 PUSH2 0x100 EXP DUP2 SLOAD DUP2 PUSH1 0xFF MUL NOT AND SWAP1 DUP4 ISZERO ISZERO MUL OR SWAP1 SSTORE POP SWAP1 POP POP PUSH0 CALLVALUE GT ISZERO PUSH2 0x8A2 JUMPI CALLVALUE PUSH1 0x3 PUSH0 CALLER PUSH20 0xFFFFFFFFFFFFFFFFFFFFFFFFFFFFFFFFFFFFFFFF AND PUSH20 0xFFFFFFFFFFFFFFFFFFFFFFFFFFFFFFFFFFFFFFFF AND DUP2 MSTORE PUSH1 0x20 ADD SWAP1 DUP2 MSTORE PUSH1 0x20 ADD PUSH0 KECCAK256 PUSH0 DUP1 PUSH20 0xFFFFFFFFFFFFFFFFFFFFFFFFFFFFFFFFFFFFFFFF AND PUSH20 0xFFFFFFFFFFFFFFFFFFFFFFFFFFFFFFFFFFFFFFFF AND DUP2 MSTORE PUSH1 0x20 ADD SWAP1 DUP2 MSTORE PUSH1 0x20 ADD PUSH0 KECCAK256 PUSH0 DUP3 DUP3 SLOAD PUSH2 0x806 SWAP2 SWAP1 PUSH2 0x260A JUMP JUMPDEST SWAP3 POP POP DUP2 SWAP1 SSTORE POP CALLVALUE PUSH1 0x7 PUSH0 DUP3 DUP3 SLOAD PUSH2 0x81E SWAP2 SWAP1 PUSH2 0x260A JUMP JUMPDEST SWAP3 POP POP DUP2 SWAP1 SSTORE POP PUSH1 0x5 PUSH0 DUP2 SLOAD DUP1 SWAP3 SWAP2 SWAP1 PUSH2 0x837 SWAP1 PUSH2 0x2907 JUMP JUMPDEST SWAP2 SWAP1 POP SSTORE POP PUSH0 PUSH20 0xFFFFFFFFFFFFFFFFFFFFFFFFFFFFFFFFFFFFFFFF AND CALLER PUSH20 0xFFFFFFFFFFFFFFFFFFFFFFFFFFFFFFFFFFFFFFFF AND PUSH32 0x1ECE9C685AC991A7352754DE4BB96F7D41FDBC35B4BC423326539149879C008 CALLVALUE PUSH1 0x40 MLOAD PUSH2 0x899 SWAP2 SWAP1 PUSH2 0x2350 JUMP JUMPDEST PUSH1 0x40 MLOAD DUP1 SWAP2 SUB SWAP1 LOG3 JUMPDEST POP POP JUMP JUMPDEST PUSH0 DUP1 PUSH0 DUP4 DUP2 MSTORE PUSH1 0x20 ADD SWAP1 DUP2 MSTORE PUSH1 0x20 ADD PUSH0 KECCAK256 PUSH1 0x1 ADD SLOAD SWAP1 POP SWAP2 SWAP1 POP JUMP JUMPDEST PUSH0 DUP1 PUSH2 0x8CC PUSH2 0x1A84 JUMP JUMPDEST SWAP1 POP PUSH8 0xDE0B6B3A7640000 DUP2 DUP5 PUSH2 0x8E3 SWAP2 SWAP1 PUSH2 0x294E JUMP JUMPDEST PUSH2 0x8ED SWAP2 SWAP1 PUSH2 0x29BC JUMP JUMPDEST SWAP2 POP POP SWAP2 SWAP1 POP JUMP JUMPDEST PUSH2 0x8FD PUSH2 0x1BB5 JUMP JUMPDEST PUSH1 0x2 PUSH0 CALLER PUSH20 0xFFFFFFFFFFFFFFFFFFFFFFFFFFFFFFFFFFFFFFFF AND PUSH20 0xFFFFFFFFFFFFFFFFFFFFFFFFFFFFFFFFFFFFFFFF AND DUP2 MSTORE PUSH1 0x20 ADD SWAP1 DUP2 MSTORE PUSH1 0x20 ADD PUSH0 KECCAK256 PUSH1 0x3 ADD PUSH0 SWAP1 SLOAD SWAP1 PUSH2 0x100 EXP SWAP1 DIV PUSH1 0xFF AND PUSH2 0x980 JUMPI PUSH1 0x40 MLOAD PUSH32 0x566B044000000000000000000000000000000000000000000000000000000000 DUP2 MSTORE PUSH1 0x4 ADD PUSH1 0x40 MLOAD DUP1 SWAP2 SUB SWAP1 REVERT JUMPDEST PUSH8 0x16345785D8A0000 DUP2 GT ISZERO PUSH2 0x9D7 JUMPI PUSH8 0x16345785D8A0000 DUP2 PUSH1 0x40 MLOAD PUSH32 0xD859CBBA00000000000000000000000000000000000000000000000000000000 DUP2 MSTORE PUSH1 0x4 ADD PUSH2 0x9CE SWAP3 SWAP2 SWAP1 PUSH2 0x29EC JUMP JUMPDEST PUSH1 0x40 MLOAD DUP1 SWAP2 SUB SWAP1 REVERT JUMPDEST PUSH0 PUSH1 0x3 PUSH0 CALLER PUSH20 0xFFFFFFFFFFFFFFFFFFFFFFFFFFFFFFFFFFFFFFFF AND PUSH20 0xFFFFFFFFFFFFFFFFFFFFFFFFFFFFFFFFFFFFFFFF AND DUP2 MSTORE PUSH1 0x20 ADD SWAP1 DUP2 MSTORE PUSH1 0x20 ADD PUSH0 KECCAK256 PUSH0 DUP1 PUSH20 0xFFFFFFFFFFFFFFFFFFFFFFFFFFFFFFFFFFFFFFFF AND PUSH20 0xFFFFFFFFFFFFFFFFFFFFFFFFFFFFFFFFFFFFFFFF AND DUP2 MSTORE PUSH1 0x20 ADD SWAP1 DUP2 MSTORE PUSH1 0x20 ADD PUSH0 KECCAK256 SLOAD SWAP1 POP DUP2 DUP2 LT ISZERO PUSH2 0xA9A JUMPI DUP1 DUP3 PUSH1 0x40 MLOAD PUSH32 0x70E6417B00000000000000000000000000000000000000000000000000000000 DUP2 MSTORE PUSH1 0x4 ADD PUSH2 0xA91 SWAP3 SWAP2 SWAP1 PUSH2 0x29EC JUMP JUMPDEST PUSH1 0x40 MLOAD DUP1 SWAP2 SUB SWAP1 REVERT JUMPDEST DUP2 PUSH1 0x3 PUSH0 CALLER PUSH20 0xFFFFFFFFFFFFFFFFFFFFFFFFFFFFFFFFFFFFFFFF AND PUSH20 0xFFFFFFFFFFFFFFFFFFFFFFFFFFFFFFFFFFFFFFFF AND DUP2 MSTORE PUSH1 0x20 ADD SWAP1 DUP2 MSTORE PUSH1 0x20 ADD PUSH0 KECCAK256 PUSH0 DUP1 PUSH20 0xFFFFFFFFFFFFFFFFFFFFFFFFFFFFFFFFFFFFFFFF AND PUSH20 0xFFFFFFFFFFFFFFFFFFFFFFFFFFFFFFFFFFFFFFFF AND DUP2 MSTORE PUSH1 0x20 ADD SWAP1 DUP2 MSTORE PUSH1 0x20 ADD PUSH0 KECCAK256 PUSH0 DUP3 DUP3 SLOAD PUSH2 0xB21 SWAP2 SWAP1 PUSH2 0x2A13 JUMP JUMPDEST SWAP3 POP POP DUP2 SWAP1 SSTORE POP DUP2 PUSH1 0x7 PUSH0 DUP3 DUP3 SLOAD PUSH2 0xB39 SWAP2 SWAP1 PUSH2 0x2A13 JUMP JUMPDEST SWAP3 POP POP DUP2 SWAP1 SSTORE POP PUSH1 0x6 PUSH0 DUP2 SLOAD DUP1 SWAP3 SWAP2 SWAP1 PUSH2 0xB52 SWAP1 PUSH2 0x2907 JUMP JUMPDEST SWAP2 SWAP1 POP SSTORE POP PUSH0 CALLER PUSH20 0xFFFFFFFFFFFFFFFFFFFFFFFFFFFFFFFFFFFFFFFF AND DUP4 PUSH1 0x40 MLOAD PUSH2 0xB7C SWAP1 PUSH2 0x2A73 JUMP JUMPDEST PUSH0 PUSH1 0x40 MLOAD DUP1 DUP4 SUB DUP2 DUP6 DUP8 GAS CALL SWAP3 POP POP POP RETURNDATASIZE DUP1 PUSH0 DUP2 EQ PUSH2 0xBB6 JUMPI PUSH1 0x40 MLOAD SWAP2 POP PUSH1 0x1F NOT PUSH1 0x3F RETURNDATASIZE ADD AND DUP3 ADD PUSH1 0x40 MSTORE RETURNDATASIZE DUP3 MSTORE RETURNDATASIZE PUSH0 PUSH1 0x20 DUP5 ADD RETURNDATACOPY PUSH2 0xBBB JUMP JUMPDEST PUSH1 0x60 SWAP2 POP JUMPDEST POP POP SWAP1 POP DUP1 PUSH2 0xBF6 JUMPI PUSH1 0x40 MLOAD PUSH32 0xBD6BFD0A00000000000000000000000000000000000000000000000000000000 DUP2 MSTORE PUSH1 0x4 ADD PUSH1 0x40 MLOAD DUP1 SWAP2 SUB SWAP1 REVERT JUMPDEST PUSH0 PUSH20 0xFFFFFFFFFFFFFFFFFFFFFFFFFFFFFFFFFFFFFFFF AND CALLER PUSH20 0xFFFFFFFFFFFFFFFFFFFFFFFFFFFFFFFFFFFFFFFF AND PUSH32 0xC8B1E2A9BE32CE8C5FE81B6681739E4A0016BF546706482B49989431FE3D55EE DUP6 PUSH1 0x40 MLOAD PUSH2 0xC53 SWAP2 SWAP1 PUSH2 0x2350 JUMP JUMPDEST PUSH1 0x40 MLOAD DUP1 SWAP2 SUB SWAP1 LOG3 POP POP PUSH2 0xC65 PUSH2 0x1C04 JUMP JUMPDEST POP JUMP JUMPDEST PUSH2 0xC71 DUP3 PUSH2 0x8A6 JUMP JUMPDEST PUSH2 0xC7A DUP2 PUSH2 0x1C0D JUMP JUMPDEST PUSH2 0xC84 DUP4 DUP4 PUSH2 0x1C21 JUMP JUMPDEST POP POP POP POP JUMP JUMPDEST PUSH0 DUP2 JUMP JUMPDEST PUSH1 0x2 PUSH0 CALLER PUSH20 0xFFFFFFFFFFFFFFFFFFFFFFFFFFFFFFFFFFFFFFFF AND PUSH20 0xFFFFFFFFFFFFFFFFFFFFFFFFFFFFFFFFFFFFFFFF AND DUP2 MSTORE PUSH1 0x20 ADD SWAP1 DUP2 MSTORE PUSH1 0x20 ADD PUSH0 KECCAK256 PUSH1 0x3 ADD PUSH0 SWAP1 SLOAD SWAP1 PUSH2 0x100 EXP SWAP1 DIV PUSH1 0xFF AND PUSH2 0xD11 JUMPI PUSH1 0x40 MLOAD PUSH32 0x566B044000000000000000000000000000000000000000000000000000000000 DUP2 MSTORE PUSH1 0x4 ADD PUSH1 0x40 MLOAD DUP1 SWAP2 SUB SWAP1 REVERT JUMPDEST PUSH0 PUSH1 0x4 PUSH0 DUP5 PUSH20 0xFFFFFFFFFFFFFFFFFFFFFFFFFFFFFFFFFFFFFFFF AND PUSH20 0xFFFFFFFFFFFFFFFFFFFFFFFFFFFFFFFFFFFFFFFF AND DUP2 MSTORE PUSH1 0x20 ADD SWAP1 DUP2 MSTORE PUSH1 0x20 ADD PUSH0 KECCAK256 PUSH1 0x40 MLOAD DUP1 PUSH1 0x60 ADD PUSH1 0x40 MSTORE SWAP1 DUP2 PUSH0 DUP3 ADD PUSH0 SWAP1 SLOAD SWAP1 PUSH2 0x100 EXP SWAP1 DIV PUSH1 0xFF AND PUSH1 0x1 DUP2 GT ISZERO PUSH2 0xD7D JUMPI PUSH2 0xD7C PUSH2 0x2A87 JUMP JUMPDEST JUMPDEST PUSH1 0x1 DUP2 GT ISZERO PUSH2 0xD8F JUMPI PUSH2 0xD8E PUSH2 0x2A87 JUMP JUMPDEST JUMPDEST DUP2 MSTORE PUSH1 0x20 ADD PUSH0 DUP3 ADD PUSH1 0x1 SWAP1 SLOAD SWAP1 PUSH2 0x100 EXP SWAP1 DIV PUSH1 0xFF AND PUSH1 0xFF AND PUSH1 0xFF AND DUP2 MSTORE PUSH1 0x20 ADD PUSH0 DUP3 ADD PUSH1 0x2 SWAP1 SLOAD SWAP1 PUSH2 0x100 EXP SWAP1 DIV PUSH20 0xFFFFFFFFFFFFFFFFFFFFFFFFFFFFFFFFFFFFFFFF AND PUSH20 0xFFFFFFFFFFFFFFFFFFFFFFFFFFFFFFFFFFFFFFFF AND PUSH20 0xFFFFFFFFFFFFFFFFFFFFFFFFFFFFFFFFFFFFFFFF AND DUP2 MSTORE POP POP SWAP1 POP PUSH1 0x1 DUP1 DUP2 GT ISZERO PUSH2 0xE19 JUMPI PUSH2 0xE18 PUSH2 0x2A87 JUMP JUMPDEST JUMPDEST DUP2 PUSH0 ADD MLOAD PUSH1 0x1 DUP2 GT ISZERO PUSH2 0xE2F JUMPI PUSH2 0xE2E PUSH2 0x2A87 JUMP JUMPDEST JUMPDEST EQ PUSH2 0xE66 JUMPI PUSH1 0x40 MLOAD PUSH32 0x5694952100000000000000000000000000000000000000000000000000000000 DUP2 MSTORE PUSH1 0x4 ADD PUSH1 0x40 MLOAD DUP1 SWAP2 SUB SWAP1 REVERT JUMPDEST PUSH0 DUP3 SUB PUSH2 0xE9F JUMPI PUSH1 0x40 MLOAD PUSH32 0x7803844200000000000000000000000000000000000000000000000000000000 DUP2 MSTORE PUSH1 0x4 ADD PUSH1 0x40 MLOAD DUP1 SWAP2 SUB SWAP1 REVERT JUMPDEST DUP2 PUSH1 0x3 PUSH0 CALLER PUSH20 0xFFFFFFFFFFFFFFFFFFFFFFFFFFFFFFFFFFFFFFFF AND PUSH20 0xFFFFFFFFFFFFFFFFFFFFFFFFFFFFFFFFFFFFFFFF AND DUP2 MSTORE PUSH1 0x20 ADD SWAP1 DUP2 MSTORE PUSH1 0x20 ADD PUSH0 KECCAK256 PUSH0 DUP6 PUSH20 0xFFFFFFFFFFFFFFFFFFFFFFFFFFFFFFFFFFFFFFFF AND PUSH20 0xFFFFFFFFFFFFFFFFFFFFFFFFFFFFFFFFFFFFFFFF AND DUP2 MSTORE PUSH1 0x20 ADD SWAP1 DUP2 MSTORE PUSH1 0x20 ADD PUSH0 KECCAK256 PUSH0 DUP3 DUP3 SLOAD PUSH2 0xF26 SWAP2 SWAP1 PUSH2 0x260A JUMP JUMPDEST SWAP3 POP POP DUP2 SWAP1 SSTORE POP PUSH1 0x5 PUSH0 DUP2 SLOAD DUP1 SWAP3 SWAP2 SWAP1 PUSH2 0xF3F SWAP1 PUSH2 0x2907 JUMP JUMPDEST SWAP2 SWAP1 POP SSTORE POP PUSH2 0xF71 CALLER ADDRESS DUP5 DUP7 PUSH20 0xFFFFFFFFFFFFFFFFFFFFFFFFFFFFFFFFFFFFFFFF AND PUSH2 0x1D0A SWAP1 SWAP4 SWAP3 SWAP2 SWAP1 PUSH4 0xFFFFFFFF AND JUMP JUMPDEST DUP3 PUSH20 0xFFFFFFFFFFFFFFFFFFFFFFFFFFFFFFFFFFFFFFFF AND CALLER PUSH20 0xFFFFFFFFFFFFFFFFFFFFFFFFFFFFFFFFFFFFFFFF AND PUSH32 0x1ECE9C685AC991A7352754DE4BB96F7D41FDBC35B4BC423326539149879C008 DUP5 PUSH1 0x40 MLOAD PUSH2 0xFCE SWAP2 SWAP1 PUSH2 0x2350 JUMP JUMPDEST PUSH1 0x40 MLOAD DUP1 SWAP2 SUB SWAP1 LOG3 POP POP POP JUMP JUMPDEST PUSH2 0xFE3 PUSH2 0x1D8C JUMP JUMPDEST PUSH20 0xFFFFFFFFFFFFFFFFFFFFFFFFFFFFFFFFFFFFFFFF AND DUP2 PUSH20 0xFFFFFFFFFFFFFFFFFFFFFFFFFFFFFFFFFFFFFFFF AND EQ PUSH2 0x1047 JUMPI PUSH1 0x40 MLOAD PUSH32 0x6697B23200000000000000000000000000000000000000000000000000000000 DUP2 MSTORE PUSH1 0x4 ADD PUSH1 0x40 MLOAD DUP1 SWAP2 SUB SWAP1 REVERT JUMPDEST PUSH2 0x1051 DUP3 DUP3 PUSH2 0x1D93 JUMP JUMPDEST POP POP POP JUMP JUMPDEST PUSH8 0x16345785D8A0000 DUP2 JUMP JUMPDEST PUSH0 PUSH1 0x6 SLOAD SWAP1 POP SWAP1 JUMP JUMPDEST PUSH0 DUP1 SHL PUSH2 0x1077 DUP2 PUSH2 0x1C0D JUMP JUMPDEST PUSH1 0x40 MLOAD DUP1 PUSH1 0x60 ADD PUSH1 0x40 MSTORE DUP1 DUP4 PUSH2 0x108D JUMPI PUSH0 PUSH2 0x1090 JUMP JUMPDEST PUSH1 0x1 JUMPDEST PUSH1 0x1 DUP2 GT ISZERO PUSH2 0x10A2 JUMPI PUSH2 0x10A1 PUSH2 0x2A87 JUMP JUMPDEST JUMPDEST DUP2 MSTORE PUSH1 0x20 ADD DUP6 PUSH1 0xFF AND DUP2 MSTORE PUSH1 0x20 ADD DUP5 PUSH20 0xFFFFFFFFFFFFFFFFFFFFFFFFFFFFFFFFFFFFFFFF AND DUP2 MSTORE POP PUSH1 0x4 PUSH0 DUP8 PUSH20 0xFFFFFFFFFFFFFFFFFFFFFFFFFFFFFFFFFFFFFFFF AND PUSH20 0xFFFFFFFFFFFFFFFFFFFFFFFFFFFFFFFFFFFFFFFF AND DUP2 MSTORE PUSH1 0x20 ADD SWAP1 DUP2 MSTORE PUSH1 0x20 ADD PUSH0 KECCAK256 PUSH0 DUP3 ADD MLOAD DUP2 PUSH0 ADD PUSH0 PUSH2 0x100 EXP DUP2 SLOAD DUP2 PUSH1 0xFF MUL NOT AND SWAP1 DUP4 PUSH1 0x1 DUP2 GT ISZERO PUSH2 0x112F JUMPI PUSH2 0x112E PUSH2 0x2A87 JUMP JUMPDEST JUMPDEST MUL OR SWAP1 SSTORE POP PUSH1 0x20 DUP3 ADD MLOAD DUP2 PUSH0 ADD PUSH1 0x1 PUSH2 0x100 EXP DUP2 SLOAD DUP2 PUSH1 0xFF MUL NOT AND SWAP1 DUP4 PUSH1 0xFF AND MUL OR SWAP1 SSTORE POP PUSH1 0x40 DUP3 ADD MLOAD DUP2 PUSH0 ADD PUSH1 0x2 PUSH2 0x100 EXP DUP2 SLOAD DUP2 PUSH20 0xFFFFFFFFFFFFFFFFFFFFFFFFFFFFFFFFFFFFFFFF MUL NOT AND SWAP1 DUP4 PUSH20 0xFFFFFFFFFFFFFFFFFFFFFFFFFFFFFFFFFFFFFFFF AND MUL OR SWAP1 SSTORE POP SWAP1 POP POP DUP5 PUSH20 0xFFFFFFFFFFFFFFFFFFFFFFFFFFFFFFFFFFFFFFFF AND PUSH32 0x243C26E9467B186D248BF33B7722DE99A559ACEDA24C02928C2636071BE4D992 PUSH1 0x4 PUSH0 DUP9 PUSH20 0xFFFFFFFFFFFFFFFFFFFFFFFFFFFFFFFFFFFFFFFF AND PUSH20 0xFFFFFFFFFFFFFFFFFFFFFFFFFFFFFFFFFFFFFFFF AND DUP2 MSTORE PUSH1 0x20 ADD SWAP1 DUP2 MSTORE PUSH1 0x20 ADD PUSH0 KECCAK256 PUSH0 ADD PUSH0 SWAP1 SLOAD SWAP1 PUSH2 0x100 EXP SWAP1 DIV PUSH1 0xFF AND PUSH1 0x40 MLOAD PUSH2 0x122E SWAP2 SWAP1 PUSH2 0x2AFA JUMP JUMPDEST PUSH1 0x40 MLOAD DUP1 SWAP2 SUB SWAP1 LOG2 POP POP POP POP POP JUMP JUMPDEST PUSH0 DUP1 SHL DUP2 JUMP JUMPDEST PUSH0 DUP1 PUSH0 DUP5 DUP2 MSTORE PUSH1 0x20 ADD SWAP1 DUP2 MSTORE PUSH1 0x20 ADD PUSH0 KECCAK256 PUSH0 ADD PUSH0 DUP4 PUSH20 0xFFFFFFFFFFFFFFFFFFFFFFFFFFFFFFFFFFFFFFFF AND PUSH20 0xFFFFFFFFFFFFFFFFFFFFFFFFFFFFFFFFFFFFFFFF AND DUP2 MSTORE PUSH1 0x20 ADD SWAP1 DUP2 MSTORE PUSH1 0x20 ADD PUSH0 KECCAK256 PUSH0 SWAP1 SLOAD SWAP1 PUSH2 0x100 EXP SWAP1 DIV PUSH1 0xFF AND SWAP1 POP SWAP3 SWAP2 POP POP JUMP JUMPDEST PUSH0 PUSH1 0x5 SLOAD SWAP1 POP SWAP1 JUMP JUMPDEST PUSH2 0x12B7 PUSH2 0x1BB5 JUMP JUMPDEST PUSH1 0x2 PUSH0 CALLER PUSH20 0xFFFFFFFFFFFFFFFFFFFFFFFFFFFFFFFFFFFFFFFF AND PUSH20 0xFFFFFFFFFFFFFFFFFFFFFFFFFFFFFFFFFFFFFFFF AND DUP2 MSTORE PUSH1 0x20 ADD SWAP1 DUP2 MSTORE PUSH1 0x20 ADD PUSH0 KECCAK256 PUSH1 0x3 ADD PUSH0 SWAP1 SLOAD SWAP1 PUSH2 0x100 EXP SWAP1 DIV PUSH1 0xFF AND PUSH2 0x133A JUMPI PUSH1 0x40 MLOAD PUSH32 0x566B044000000000000000000000000000000000000000000000000000000000 DUP2 MSTORE PUSH1 0x4 ADD PUSH1 0x40 MLOAD DUP1 SWAP2 SUB SWAP1 REVERT JUMPDEST PUSH0 PUSH1 0x4 PUSH0 DUP5 PUSH20 0xFFFFFFFFFFFFFFFFFFFFFFFFFFFFFFFFFFFFFFFF AND PUSH20 0xFFFFFFFFFFFFFFFFFFFFFFFFFFFFFFFFFFFFFFFF AND DUP2 MSTORE PUSH1 0x20 ADD SWAP1 DUP2 MSTORE PUSH1 0x20 ADD PUSH0 KECCAK256 PUSH1 0x40 MLOAD DUP1 PUSH1 0x60 ADD PUSH1 0x40 MSTORE SWAP1 DUP2 PUSH0 DUP3 ADD PUSH0 SWAP1 SLOAD SWAP1 PUSH2 0x100 EXP SWAP1 DIV PUSH1 0xFF AND PUSH1 0x1 DUP2 GT ISZERO PUSH2 0x13A6 JUMPI PUSH2 0x13A5 PUSH2 0x2A87 JUMP JUMPDEST JUMPDEST PUSH1 0x1 DUP2 GT ISZERO PUSH2 0x13B8 JUMPI PUSH2 0x13B7 PUSH2 0x2A87 JUMP JUMPDEST JUMPDEST DUP2 MSTORE PUSH1 0x20 ADD PUSH0 DUP3 ADD PUSH1 0x1 SWAP1 SLOAD SWAP1 PUSH2 0x100 EXP SWAP1 DIV PUSH1 0xFF AND PUSH1 0xFF AND PUSH1 0xFF AND DUP2 MSTORE PUSH1 0x20 ADD PUSH0 DUP3 ADD PUSH1 0x2 SWAP1 SLOAD SWAP1 PUSH2 0x100 EXP SWAP1 DIV PUSH20 0xFFFFFFFFFFFFFFFFFFFFFFFFFFFFFFFFFFFFFFFF AND PUSH20 0xFFFFFFFFFFFFFFFFFFFFFFFFFFFFFFFFFFFFFFFF AND PUSH20 0xFFFFFFFFFFFFFFFFFFFFFFFFFFFFFFFFFFFFFFFF AND DUP2 MSTORE POP POP SWAP1 POP PUSH1 0x1 DUP1 DUP2 GT ISZERO PUSH2 0x1442 JUMPI PUSH2 0x1441 PUSH2 0x2A87 JUMP JUMPDEST JUMPDEST DUP2 PUSH0 ADD MLOAD PUSH1 0x1 DUP2 GT ISZERO PUSH2 0x1458 JUMPI PUSH2 0x1457 PUSH2 0x2A87 JUMP JUMPDEST JUMPDEST EQ PUSH2 0x148F JUMPI PUSH1 0x40 MLOAD PUSH32 0x5694952100000000000000000000000000000000000000000000000000000000 DUP2 MSTORE PUSH1 0x4 ADD PUSH1 0x40 MLOAD DUP1 SWAP2 SUB SWAP1 REVERT JUMPDEST PUSH8 0x16345785D8A0000 DUP3 GT ISZERO PUSH2 0x14E6 JUMPI PUSH8 0x16345785D8A0000 DUP3 PUSH1 0x40 MLOAD PUSH32 0xD859CBBA00000000000000000000000000000000000000000000000000000000 DUP2 MSTORE PUSH1 0x4 ADD PUSH2 0x14DD SWAP3 SWAP2 SWAP1 PUSH2 0x29EC JUMP JUMPDEST PUSH1 0x40 MLOAD DUP1 SWAP2 SUB SWAP1 REVERT JUMPDEST PUSH0 PUSH1 0x3 PUSH0 CALLER PUSH20 0xFFFFFFFFFFFFFFFFFFFFFFFFFFFFFFFFFFFFFFFF AND PUSH20 0xFFFFFFFFFFFFFFFFFFFFFFFFFFFFFFFFFFFFFFFF AND DUP2 MSTORE PUSH1 0x20 ADD SWAP1 DUP2 MSTORE PUSH1 0x20 ADD PUSH0 KECCAK256 PUSH0 DUP6 PUSH20 0xFFFFFFFFFFFFFFFFFFFFFFFFFFFFFFFFFFFFFFFF AND PUSH20 0xFFFFFFFFFFFFFFFFFFFFFFFFFFFFFFFFFFFFFFFF AND DUP2 MSTORE PUSH1 0x20 ADD SWAP1 DUP2 MSTORE PUSH1 0x20 ADD PUSH0 KECCAK256 SLOAD SWAP1 POP DUP3 DUP2 LT ISZERO PUSH2 0x15A9 JUMPI DUP1 DUP4 PUSH1 0x40 MLOAD PUSH32 0x70E6417B00000000000000000000000000000000000000000000000000000000 DUP2 MSTORE PUSH1 0x4 ADD PUSH2 0x15A0 SWAP3 SWAP2 SWAP1 PUSH2 0x29EC JUMP JUMPDEST PUSH1 0x40 MLOAD DUP1 SWAP2 SUB SWAP1 REVERT JUMPDEST DUP3 PUSH1 0x3 PUSH0 CALLER PUSH20 0xFFFFFFFFFFFFFFFFFFFFFFFFFFFFFFFFFFFFFFFF AND PUSH20 0xFFFFFFFFFFFFFFFFFFFFFFFFFFFFFFFFFFFFFFFF AND DUP2 MSTORE PUSH1 0x20 ADD SWAP1 DUP2 MSTORE PUSH1 0x20 ADD PUSH0 KECCAK256 PUSH0 DUP7 PUSH20 0xFFFFFFFFFFFFFFFFFFFFFFFFFFFFFFFFFFFFFFFF AND PUSH20 0xFFFFFFFFFFFFFFFFFFFFFFFFFFFFFFFFFFFFFFFF AND DUP2 MSTORE PUSH1 0x20 ADD SWAP1 DUP2 MSTORE PUSH1 0x20 ADD PUSH0 KECCAK256 PUSH0 DUP3 DUP3 SLOAD PUSH2 0x1630 SWAP2 SWAP1 PUSH2 0x2A13 JUMP JUMPDEST SWAP3 POP POP DUP2 SWAP1 SSTORE POP PUSH1 0x6 PUSH0 DUP2 SLOAD DUP1 SWAP3 SWAP2 SWAP1 PUSH2 0x1649 SWAP1 PUSH2 0x2907 JUMP JUMPDEST SWAP2 SWAP1 POP SSTORE POP PUSH2 0x1679 CALLER DUP5 DUP7 PUSH20 0xFFFFFFFFFFFFFFFFFFFFFFFFFFFFFFFFFFFFFFFF AND PUSH2 0x1E7C SWAP1 SWAP3 SWAP2 SWAP1 PUSH4 0xFFFFFFFF AND JUMP JUMPDEST DUP4 PUSH20 0xFFFFFFFFFFFFFFFFFFFFFFFFFFFFFFFFFFFFFFFF AND CALLER PUSH20 0xFFFFFFFFFFFFFFFFFFFFFFFFFFFFFFFFFFFFFFFF AND PUSH32 0xC8B1E2A9BE32CE8C5FE81B6681739E4A0016BF546706482B49989431FE3D55EE DUP6 PUSH1 0x40 MLOAD PUSH2 0x16D6 SWAP2 SWAP1 PUSH2 0x2350 JUMP JUMPDEST PUSH1 0x40 MLOAD DUP1 SWAP2 SUB SWAP1 LOG3 POP POP PUSH2 0x16E8 PUSH2 0x1C04 JUMP JUMPDEST POP POP JUMP JUMPDEST PUSH0 DUP1 SHL DUP2 JUMP JUMPDEST PUSH32 0x0 DUP2 JUMP JUMPDEST PUSH1 0x2 PUSH0 CALLER PUSH20 0xFFFFFFFFFFFFFFFFFFFFFFFFFFFFFFFFFFFFFFFF AND PUSH20 0xFFFFFFFFFFFFFFFFFFFFFFFFFFFFFFFFFFFFFFFF AND DUP2 MSTORE PUSH1 0x20 ADD SWAP1 DUP2 MSTORE PUSH1 0x20 ADD PUSH0 KECCAK256 PUSH1 0x3 ADD PUSH0 SWAP1 SLOAD SWAP1 PUSH2 0x100 EXP SWAP1 DIV PUSH1 0xFF AND PUSH2 0x1799 JUMPI PUSH1 0x40 MLOAD PUSH32 0x566B044000000000000000000000000000000000000000000000000000000000 DUP2 MSTORE PUSH1 0x4 ADD PUSH1 0x40 MLOAD DUP1 SWAP2 SUB SWAP1 REVERT JUMPDEST PUSH0 CALLVALUE SUB PUSH2 0x17D2 JUMPI PUSH1 0x40 MLOAD PUSH32 0x7803844200000000000000000000000000000000000000000000000000000000 DUP2 MSTORE PUSH1 0x4 ADD PUSH1 0x40 MLOAD DUP1 SWAP2 SUB SWAP1 REVERT JUMPDEST PUSH32 0x0 CALLVALUE PUSH1 0x7 SLOAD PUSH2 0x1801 SWAP2 SWAP1 PUSH2 0x260A JUMP JUMPDEST GT ISZERO PUSH2 0x1839 JUMPI PUSH1 0x40 MLOAD PUSH32 0x97651D1E00000000000000000000000000000000000000000000000000000000 DUP2 MSTORE PUSH1 0x4 ADD PUSH1 0x40 MLOAD DUP1 SWAP2 SUB SWAP1 REVERT JUMPDEST CALLVALUE PUSH1 0x3 PUSH0 CALLER PUSH20 0xFFFFFFFFFFFFFFFFFFFFFFFFFFFFFFFFFFFFFFFF AND PUSH20 0xFFFFFFFFFFFFFFFFFFFFFFFFFFFFFFFFFFFFFFFF AND DUP2 MSTORE PUSH1 0x20 ADD SWAP1 DUP2 MSTORE PUSH1 0x20 ADD PUSH0 KECCAK256 PUSH0 DUP1 PUSH20 0xFFFFFFFFFFFFFFFFFFFFFFFFFFFFFFFFFFFFFFFF AND PUSH20 0xFFFFFFFFFFFFFFFFFFFFFFFFFFFFFFFFFFFFFFFF AND DUP2 MSTORE PUSH1 0x20 ADD SWAP1 DUP2 MSTORE PUSH1 0x20 ADD PUSH0 KECCAK256 PUSH0 DUP3 DUP3 SLOAD PUSH2 0x18C0 SWAP2 SWAP1 PUSH2 0x260A JUMP JUMPDEST SWAP3 POP POP DUP2 SWAP1 SSTORE POP CALLVALUE PUSH1 0x7 PUSH0 DUP3 DUP3 SLOAD PUSH2 0x18D8 SWAP2 SWAP1 PUSH2 0x260A JUMP JUMPDEST SWAP3 POP POP DUP2 SWAP1 SSTORE POP PUSH1 0x5 PUSH0 DUP2 SLOAD DUP1 SWAP3 SWAP2 SWAP1 PUSH2 0x18F1 SWAP1 PUSH2 0x2907 JUMP JUMPDEST SWAP2 SWAP1 POP SSTORE POP PUSH0 PUSH20 0xFFFFFFFFFFFFFFFFFFFFFFFFFFFFFFFFFFFFFFFF AND CALLER PUSH20 0xFFFFFFFFFFFFFFFFFFFFFFFFFFFFFFFFFFFFFFFF AND PUSH32 0x1ECE9C685AC991A7352754DE4BB96F7D41FDBC35B4BC423326539149879C008 CALLVALUE PUSH1 0x40 MLOAD PUSH2 0x1953 SWAP2 SWAP1 PUSH2 0x2350 JUMP JUMPDEST PUSH1 0x40 MLOAD DUP1 SWAP2 SUB SWAP1 LOG3 JUMP JUMPDEST PUSH0 PUSH1 0x2 PUSH0 DUP5 PUSH20 0xFFFFFFFFFFFFFFFFFFFFFFFFFFFFFFFFFFFFFFFF AND PUSH20 0xFFFFFFFFFFFFFFFFFFFFFFFFFFFFFFFFFFFFFFFF AND DUP2 MSTORE PUSH1 0x20 ADD SWAP1 DUP2 MSTORE PUSH1 0x20 ADD PUSH0 KECCAK256 PUSH1 0x3 ADD PUSH0 SWAP1 SLOAD SWAP1 PUSH2 0x100 EXP SWAP1 DIV PUSH1 0xFF AND PUSH2 0x19E1 JUMPI PUSH1 0x40 MLOAD PUSH32 0x566B044000000000000000000000000000000000000000000000000000000000 DUP2 MSTORE PUSH1 0x4 ADD PUSH1 0x40 MLOAD DUP1 SWAP2 SUB SWAP1 REVERT JUMPDEST PUSH1 0x3 PUSH0 DUP5 PUSH20 0xFFFFFFFFFFFFFFFFFFFFFFFFFFFFFFFFFFFFFFFF AND PUSH20 0xFFFFFFFFFFFFFFFFFFFFFFFFFFFFFFFFFFFFFFFF AND DUP2 MSTORE PUSH1 0x20 ADD SWAP1 DUP2 MSTORE PUSH1 0x20 ADD PUSH0 KECCAK256 PUSH0 DUP4 PUSH20 0xFFFFFFFFFFFFFFFFFFFFFFFFFFFFFFFFFFFFFFFF AND PUSH20 0xFFFFFFFFFFFFFFFFFFFFFFFFFFFFFFFFFFFFFFFF AND DUP2 MSTORE PUSH1 0x20 ADD SWAP1 DUP2 MSTORE PUSH1 0x20 ADD PUSH0 KECCAK256 SLOAD SWAP1 POP SWAP3 SWAP2 POP POP JUMP JUMPDEST PUSH2 0x1A6B DUP3 PUSH2 0x8A6 JUMP JUMPDEST PUSH2 0x1A74 DUP2 PUSH2 0x1C0D JUMP JUMPDEST PUSH2 0x1A7E DUP4 DUP4 PUSH2 0x1D93 JUMP JUMPDEST POP POP POP POP JUMP JUMPDEST PUSH0 DUP1 PUSH32 0x0 PUSH20 0xFFFFFFFFFFFFFFFFFFFFFFFFFFFFFFFFFFFFFFFF AND PUSH4 0xFEAF968C PUSH1 0x40 MLOAD DUP2 PUSH4 0xFFFFFFFF AND PUSH1 0xE0 SHL DUP2 MSTORE PUSH1 0x4 ADD PUSH1 0xA0 PUSH1 0x40 MLOAD DUP1 DUP4 SUB DUP2 DUP7 GAS STATICCALL ISZERO DUP1 ISZERO PUSH2 0x1AEF JUMPI RETURNDATASIZE PUSH0 DUP1 RETURNDATACOPY RETURNDATASIZE PUSH0 REVERT JUMPDEST POP POP POP POP PUSH1 0x40 MLOAD RETURNDATASIZE PUSH1 0x1F NOT PUSH1 0x1F DUP3 ADD AND DUP3 ADD DUP1 PUSH1 0x40 MSTORE POP DUP2 ADD SWAP1 PUSH2 0x1B13 SWAP2 SWAP1 PUSH2 0x2B99 JUMP JUMPDEST POP POP POP SWAP2 POP POP DUP1 SWAP2 POP POP SWAP1 JUMP JUMPDEST PUSH4 0x5F5E100 DUP2 JUMP JUMPDEST PUSH32 0x0 DUP2 JUMP JUMPDEST PUSH0 PUSH32 0x1FFC9A700000000000000000000000000000000000000000000000000000000 PUSH28 0xFFFFFFFFFFFFFFFFFFFFFFFFFFFFFFFFFFFFFFFFFFFFFFFFFFFFFFFF NOT AND DUP3 PUSH28 0xFFFFFFFFFFFFFFFFFFFFFFFFFFFFFFFFFFFFFFFFFFFFFFFFFFFFFFFF NOT AND EQ SWAP1 POP SWAP2 SWAP1 POP JUMP JUMPDEST PUSH1 0x2 PUSH1 0x1 SLOAD SUB PUSH2 0x1BFA JUMPI PUSH1 0x40 MLOAD PUSH32 0x8C379A000000000000000000000000000000000000000000000000000000000 DUP2 MSTORE PUSH1 0x4 ADD PUSH2 0x1BF1 SWAP1 PUSH2 0x2C6A JUMP JUMPDEST PUSH1 0x40 MLOAD DUP1 SWAP2 SUB SWAP1 REVERT JUMPDEST PUSH1 0x2 PUSH1 0x1 DUP2 SWAP1 SSTORE POP JUMP JUMPDEST PUSH1 0x1 DUP1 DUP2 SWAP1 SSTORE POP JUMP JUMPDEST PUSH2 0x1C1E DUP2 PUSH2 0x1C19 PUSH2 0x1D8C JUMP JUMPDEST PUSH2 0x1EFB JUMP JUMPDEST POP JUMP JUMPDEST PUSH0 PUSH2 0x1C2C DUP4 DUP4 PUSH2 0x1243 JUMP JUMPDEST PUSH2 0x1D00 JUMPI PUSH1 0x1 PUSH0 DUP1 DUP6 DUP2 MSTORE PUSH1 0x20 ADD SWAP1 DUP2 MSTORE PUSH1 0x20 ADD PUSH0 KECCAK256 PUSH0 ADD PUSH0 DUP5 PUSH20 0xFFFFFFFFFFFFFFFFFFFFFFFFFFFFFFFFFFFFFFFF AND PUSH20 0xFFFFFFFFFFFFFFFFFFFFFFFFFFFFFFFFFFFFFFFF AND DUP2 MSTORE PUSH1 0x20 ADD SWAP1 DUP2 MSTORE PUSH1 0x20 ADD PUSH0 KECCAK256 PUSH0 PUSH2 0x100 EXP DUP2 SLOAD DUP2 PUSH1 0xFF MUL NOT AND SWAP1 DUP4 ISZERO ISZERO MUL OR SWAP1 SSTORE POP PUSH2 0x1C9D PUSH2 0x1D8C JUMP JUMPDEST PUSH20 0xFFFFFFFFFFFFFFFFFFFFFFFFFFFFFFFFFFFFFFFF AND DUP3 PUSH20 0xFFFFFFFFFFFFFFFFFFFFFFFFFFFFFFFFFFFFFFFF AND DUP5 PUSH32 0x2F8788117E7EFF1D82E926EC794901D17C78024A50270940304540A733656F0D PUSH1 0x40 MLOAD PUSH1 0x40 MLOAD DUP1 SWAP2 SUB SWAP1 LOG4 PUSH1 0x1 SWAP1 POP PUSH2 0x1D04 JUMP JUMPDEST PUSH0 SWAP1 POP JUMPDEST SWAP3 SWAP2 POP POP JUMP JUMPDEST PUSH2 0x1D86 DUP5 DUP6 PUSH20 0xFFFFFFFFFFFFFFFFFFFFFFFFFFFFFFFFFFFFFFFF AND PUSH4 0x23B872DD DUP7 DUP7 DUP7 PUSH1 0x40 MLOAD PUSH1 0x24 ADD PUSH2 0x1D3F SWAP4 SWAP3 SWAP2 SWAP1 PUSH2 0x2C88 JUMP JUMPDEST PUSH1 0x40 MLOAD PUSH1 0x20 DUP2 DUP4 SUB SUB DUP2 MSTORE SWAP1 PUSH1 0x40 MSTORE SWAP2 POP PUSH1 0xE0 SHL PUSH1 0x20 DUP3 ADD DUP1 MLOAD PUSH28 0xFFFFFFFFFFFFFFFFFFFFFFFFFFFFFFFFFFFFFFFFFFFFFFFFFFFFFFFF DUP4 DUP2 DUP4 AND OR DUP4 MSTORE POP POP POP POP PUSH2 0x1F4C JUMP JUMPDEST POP POP POP POP JUMP JUMPDEST PUSH0 CALLER SWAP1 POP SWAP1 JUMP JUMPDEST PUSH0 PUSH2 0x1D9E DUP4 DUP4 PUSH2 0x1243 JUMP JUMPDEST ISZERO PUSH2 0x1E72 JUMPI PUSH0 DUP1 PUSH0 DUP6 DUP2 MSTORE PUSH1 0x20 ADD SWAP1 DUP2 MSTORE PUSH1 0x20 ADD PUSH0 KECCAK256 PUSH0 ADD PUSH0 DUP5 PUSH20 0xFFFFFFFFFFFFFFFFFFFFFFFFFFFFFFFFFFFFFFFF AND PUSH20 0xFFFFFFFFFFFFFFFFFFFFFFFFFFFFFFFFFFFFFFFF AND DUP2 MSTORE PUSH1 0x20 ADD SWAP1 DUP2 MSTORE PUSH1 0x20 ADD PUSH0 KECCAK256 PUSH0 PUSH2 0x100 EXP DUP2 SLOAD DUP2 PUSH1 0xFF MUL NOT AND SWAP1 DUP4 ISZERO ISZERO MUL OR SWAP1 SSTORE POP PUSH2 0x1E0F PUSH2 0x1D8C JUMP JUMPDEST PUSH20 0xFFFFFFFFFFFFFFFFFFFFFFFFFFFFFFFFFFFFFFFF AND DUP3 PUSH20 0xFFFFFFFFFFFFFFFFFFFFFFFFFFFFFFFFFFFFFFFF AND DUP5 PUSH32 0xF6391F5C32D9C69D2A47EA670B442974B53935D1EDC7FD64EB21E047A839171B PUSH1 0x40 MLOAD PUSH1 0x40 MLOAD DUP1 SWAP2 SUB SWAP1 LOG4 PUSH1 0x1 SWAP1 POP PUSH2 0x1E76 JUMP JUMPDEST PUSH0 SWAP1 POP JUMPDEST SWAP3 SWAP2 POP POP JUMP JUMPDEST PUSH2 0x1EF6 DUP4 DUP5 PUSH20 0xFFFFFFFFFFFFFFFFFFFFFFFFFFFFFFFFFFFFFFFF AND PUSH4 0xA9059CBB DUP6 DUP6 PUSH1 0x40 MLOAD PUSH1 0x24 ADD PUSH2 0x1EAF SWAP3 SWAP2 SWAP1 PUSH2 0x2CBD JUMP JUMPDEST PUSH1 0x40 MLOAD PUSH1 0x20 DUP2 DUP4 SUB SUB DUP2 MSTORE SWAP1 PUSH1 0x40 MSTORE SWAP2 POP PUSH1 0xE0 SHL PUSH1 0x20 DUP3 ADD DUP1 MLOAD PUSH28 0xFFFFFFFFFFFFFFFFFFFFFFFFFFFFFFFFFFFFFFFFFFFFFFFFFFFFFFFF DUP4 DUP2 DUP4 AND OR DUP4 MSTORE POP POP POP POP PUSH2 0x1F4C JUMP JUMPDEST POP POP POP JUMP JUMPDEST PUSH2 0x1F05 DUP3 DUP3 PUSH2 0x1243 JUMP JUMPDEST PUSH2 0x1F48 JUMPI DUP1 DUP3 PUSH1 0x40 MLOAD PUSH32 0xE2517D3F00000000000000000000000000000000000000000000000000000000 DUP2 MSTORE PUSH1 0x4 ADD PUSH2 0x1F3F SWAP3 SWAP2 SWAP1 PUSH2 0x2CE4 JUMP JUMPDEST PUSH1 0x40 MLOAD DUP1 SWAP2 SUB SWAP1 REVERT JUMPDEST POP POP JUMP JUMPDEST PUSH0 DUP1 PUSH1 0x20 PUSH0 DUP5 MLOAD PUSH1 0x20 DUP7 ADD PUSH0 DUP9 GAS CALL DUP1 PUSH2 0x1F6B JUMPI PUSH1 0x40 MLOAD RETURNDATASIZE PUSH0 DUP3 RETURNDATACOPY RETURNDATASIZE DUP2 REVERT JUMPDEST RETURNDATASIZE SWAP3 POP PUSH0 MLOAD SWAP2 POP POP PUSH0 DUP3 EQ PUSH2 0x1F84 JUMPI PUSH1 0x1 DUP2 EQ ISZERO PUSH2 0x1F9F JUMP JUMPDEST PUSH0 DUP5 PUSH20 0xFFFFFFFFFFFFFFFFFFFFFFFFFFFFFFFFFFFFFFFF AND EXTCODESIZE EQ JUMPDEST ISZERO PUSH2 0x1FE1 JUMPI DUP4 PUSH1 0x40 MLOAD PUSH32 0x5274AFE700000000000000000000000000000000000000000000000000000000 DUP2 MSTORE PUSH1 0x4 ADD PUSH2 0x1FD8 SWAP2 SWAP1 PUSH2 0x2410 JUMP JUMPDEST PUSH1 0x40 MLOAD DUP1 SWAP2 SUB SWAP1 REVERT JUMPDEST POP POP POP POP JUMP JUMPDEST PUSH0 PUSH1 0x40 MLOAD SWAP1 POP SWAP1 JUMP JUMPDEST PUSH0 DUP1 REVERT JUMPDEST PUSH0 DUP1 REVERT JUMPDEST PUSH0 PUSH32 0xFFFFFFFF00000000000000000000000000000000000000000000000000000000 DUP3 AND SWAP1 POP SWAP2 SWAP1 POP JUMP JUMPDEST PUSH2 0x202C DUP2 PUSH2 0x1FF8 JUMP JUMPDEST DUP2 EQ PUSH2 0x2036 JUMPI PUSH0 DUP1 REVERT JUMPDEST POP JUMP JUMPDEST PUSH0 DUP2 CALLDATALOAD SWAP1 POP PUSH2 0x2047 DUP2 PUSH2 0x2023 JUMP JUMPDEST SWAP3 SWAP2 POP POP JUMP JUMPDEST PUSH0 PUSH1 0x20 DUP3 DUP5 SUB SLT ISZERO PUSH2 0x2062 JUMPI PUSH2 0x2061 PUSH2 0x1FF0 JUMP JUMPDEST JUMPDEST PUSH0 PUSH2 0x206F DUP5 DUP3 DUP6 ADD PUSH2 0x2039 JUMP JUMPDEST SWAP2 POP POP SWAP3 SWAP2 POP POP JUMP JUMPDEST PUSH0 DUP2 ISZERO ISZERO SWAP1 POP SWAP2 SWAP1 POP JUMP JUMPDEST PUSH2 0x208C DUP2 PUSH2 0x2078 JUMP JUMPDEST DUP3 MSTORE POP POP JUMP JUMPDEST PUSH0 PUSH1 0x20 DUP3 ADD SWAP1 POP PUSH2 0x20A5 PUSH0 DUP4 ADD DUP5 PUSH2 0x2083 JUMP JUMPDEST SWAP3 SWAP2 POP POP JUMP JUMPDEST PUSH0 DUP1 REVERT JUMPDEST PUSH0 DUP1 REVERT JUMPDEST PUSH0 PUSH1 0x1F NOT PUSH1 0x1F DUP4 ADD AND SWAP1 POP SWAP2 SWAP1 POP JUMP JUMPDEST PUSH32 0x4E487B7100000000000000000000000000000000000000000000000000000000 PUSH0 MSTORE PUSH1 0x41 PUSH1 0x4 MSTORE PUSH1 0x24 PUSH0 REVERT JUMPDEST PUSH2 0x20F9 DUP3 PUSH2 0x20B3 JUMP JUMPDEST DUP2 ADD DUP2 DUP2 LT PUSH8 0xFFFFFFFFFFFFFFFF DUP3 GT OR ISZERO PUSH2 0x2118 JUMPI PUSH2 0x2117 PUSH2 0x20C3 JUMP JUMPDEST JUMPDEST DUP1 PUSH1 0x40 MSTORE POP POP POP JUMP JUMPDEST PUSH0 PUSH2 0x212A PUSH2 0x1FE7 JUMP JUMPDEST SWAP1 POP PUSH2 0x2136 DUP3 DUP3 PUSH2 0x20F0 JUMP JUMPDEST SWAP2 SWAP1 POP JUMP JUMPDEST PUSH0 PUSH8 0xFFFFFFFFFFFFFFFF DUP3 GT ISZERO PUSH2 0x2155 JUMPI PUSH2 0x2154 PUSH2 0x20C3 JUMP JUMPDEST JUMPDEST PUSH2 0x215E DUP3 PUSH2 0x20B3 JUMP JUMPDEST SWAP1 POP PUSH1 0x20 DUP2 ADD SWAP1 POP SWAP2 SWAP1 POP JUMP JUMPDEST DUP3 DUP2 DUP4 CALLDATACOPY PUSH0 DUP4 DUP4 ADD MSTORE POP POP POP JUMP JUMPDEST PUSH0 PUSH2 0x218B PUSH2 0x2186 DUP5 PUSH2 0x213B JUMP JUMPDEST PUSH2 0x2121 JUMP JUMPDEST SWAP1 POP DUP3 DUP2 MSTORE PUSH1 0x20 DUP2 ADD DUP5 DUP5 DUP5 ADD GT ISZERO PUSH2 0x21A7 JUMPI PUSH2 0x21A6 PUSH2 0x20AF JUMP JUMPDEST JUMPDEST PUSH2 0x21B2 DUP5 DUP3 DUP6 PUSH2 0x216B JUMP JUMPDEST POP SWAP4 SWAP3 POP POP POP JUMP JUMPDEST PUSH0 DUP3 PUSH1 0x1F DUP4 ADD SLT PUSH2 0x21CE JUMPI PUSH2 0x21CD PUSH2 0x20AB JUMP JUMPDEST JUMPDEST DUP2 CALLDATALOAD PUSH2 0x21DE DUP5 DUP3 PUSH1 0x20 DUP7 ADD PUSH2 0x2179 JUMP JUMPDEST SWAP2 POP POP SWAP3 SWAP2 POP POP JUMP JUMPDEST PUSH0 DUP1 PUSH1 0x40 DUP4 DUP6 SUB SLT ISZERO PUSH2 0x21FD JUMPI PUSH2 0x21FC PUSH2 0x1FF0 JUMP JUMPDEST JUMPDEST PUSH0 DUP4 ADD CALLDATALOAD PUSH8 0xFFFFFFFFFFFFFFFF DUP2 GT ISZERO PUSH2 0x221A JUMPI PUSH2 0x2219 PUSH2 0x1FF4 JUMP JUMPDEST JUMPDEST PUSH2 0x2226 DUP6 DUP3 DUP7 ADD PUSH2 0x21BA JUMP JUMPDEST SWAP3 POP POP PUSH1 0x20 DUP4 ADD CALLDATALOAD PUSH8 0xFFFFFFFFFFFFFFFF DUP2 GT ISZERO PUSH2 0x2247 JUMPI PUSH2 0x2246 PUSH2 0x1FF4 JUMP JUMPDEST JUMPDEST PUSH2 0x2253 DUP6 DUP3 DUP7 ADD PUSH2 0x21BA JUMP JUMPDEST SWAP2 POP POP SWAP3 POP SWAP3 SWAP1 POP JUMP JUMPDEST PUSH0 DUP2 SWAP1 POP SWAP2 SWAP1 POP JUMP JUMPDEST PUSH2 0x226F DUP2 PUSH2 0x225D JUMP JUMPDEST DUP2 EQ PUSH2 0x2279 JUMPI PUSH0 DUP1 REVERT JUMPDEST POP JUMP JUMPDEST PUSH0 DUP2 CALLDATALOAD SWAP1 POP PUSH2 0x228A DUP2 PUSH2 0x2266 JUMP JUMPDEST SWAP3 SWAP2 POP POP JUMP JUMPDEST PUSH0 PUSH1 0x20 DUP3 DUP5 SUB SLT ISZERO PUSH2 0x22A5 JUMPI PUSH2 0x22A4 PUSH2 0x1FF0 JUMP JUMPDEST JUMPDEST PUSH0 PUSH2 0x22B2 DUP5 DUP3 DUP6 ADD PUSH2 0x227C JUMP JUMPDEST SWAP2 POP POP SWAP3 SWAP2 POP POP JUMP JUMPDEST PUSH2 0x22C4 DUP2 PUSH2 0x225D JUMP JUMPDEST DUP3 MSTORE POP POP JUMP JUMPDEST PUSH0 PUSH1 0x20 DUP3 ADD SWAP1 POP PUSH2 0x22DD PUSH0 DUP4 ADD DUP5 PUSH2 0x22BB JUMP JUMPDEST SWAP3 SWAP2 POP POP JUMP JUMPDEST PUSH0 DUP2 SWAP1 POP SWAP2 SWAP1 POP JUMP JUMPDEST PUSH2 0x22F5 DUP2 PUSH2 0x22E3 JUMP JUMPDEST DUP2 EQ PUSH2 0x22FF JUMPI PUSH0 DUP1 REVERT JUMPDEST POP JUMP JUMPDEST PUSH0 DUP2 CALLDATALOAD SWAP1 POP PUSH2 0x2310 DUP2 PUSH2 0x22EC JUMP JUMPDEST SWAP3 SWAP2 POP POP JUMP JUMPDEST PUSH0 PUSH1 0x20 DUP3 DUP5 SUB SLT ISZERO PUSH2 0x232B JUMPI PUSH2 0x232A PUSH2 0x1FF0 JUMP JUMPDEST JUMPDEST PUSH0 PUSH2 0x2338 DUP5 DUP3 DUP6 ADD PUSH2 0x2302 JUMP JUMPDEST SWAP2 POP POP SWAP3 SWAP2 POP POP JUMP JUMPDEST PUSH2 0x234A DUP2 PUSH2 0x22E3 JUMP JUMPDEST DUP3 MSTORE POP POP JUMP JUMPDEST PUSH0 PUSH1 0x20 DUP3 ADD SWAP1 POP PUSH2 0x2363 PUSH0 DUP4 ADD DUP5 PUSH2 0x2341 JUMP JUMPDEST SWAP3 SWAP2 POP POP JUMP JUMPDEST PUSH0 PUSH20 0xFFFFFFFFFFFFFFFFFFFFFFFFFFFFFFFFFFFFFFFF DUP3 AND SWAP1 POP SWAP2 SWAP1 POP JUMP JUMPDEST PUSH0 PUSH2 0x2392 DUP3 PUSH2 0x2369 JUMP JUMPDEST SWAP1 POP SWAP2 SWAP1 POP JUMP JUMPDEST PUSH2 0x23A2 DUP2 PUSH2 0x2388 JUMP JUMPDEST DUP2 EQ PUSH2 0x23AC JUMPI PUSH0 DUP1 REVERT JUMPDEST POP JUMP JUMPDEST PUSH0 DUP2 CALLDATALOAD SWAP1 POP PUSH2 0x23BD DUP2 PUSH2 0x2399 JUMP JUMPDEST SWAP3 SWAP2 POP POP JUMP JUMPDEST PUSH0 DUP1 PUSH1 0x40 DUP4 DUP6 SUB SLT ISZERO PUSH2 0x23D9 JUMPI PUSH2 0x23D8 PUSH2 0x1FF0 JUMP JUMPDEST JUMPDEST PUSH0 PUSH2 0x23E6 DUP6 DUP3 DUP7 ADD PUSH2 0x227C JUMP JUMPDEST SWAP3 POP POP PUSH1 0x20 PUSH2 0x23F7 DUP6 DUP3 DUP7 ADD PUSH2 0x23AF JUMP JUMPDEST SWAP2 POP POP SWAP3 POP SWAP3 SWAP1 POP JUMP JUMPDEST PUSH2 0x240A DUP2 PUSH2 0x2388 JUMP JUMPDEST DUP3 MSTORE POP POP JUMP JUMPDEST PUSH0 PUSH1 0x20 DUP3 ADD SWAP1 POP PUSH2 0x2423 PUSH0 DUP4 ADD DUP5 PUSH2 0x2401 JUMP JUMPDEST SWAP3 SWAP2 POP POP JUMP JUMPDEST PUSH0 DUP1 PUSH1 0x40 DUP4 DUP6 SUB SLT ISZERO PUSH2 0x243F JUMPI PUSH2 0x243E PUSH2 0x1FF0 JUMP JUMPDEST JUMPDEST PUSH0 PUSH2 0x244C DUP6 DUP3 DUP7 ADD PUSH2 0x23AF JUMP JUMPDEST SWAP3 POP POP PUSH1 0x20 PUSH2 0x245D DUP6 DUP3 DUP7 ADD PUSH2 0x2302 JUMP JUMPDEST SWAP2 POP POP SWAP3 POP SWAP3 SWAP1 POP JUMP JUMPDEST PUSH0 PUSH1 0xFF DUP3 AND SWAP1 POP SWAP2 SWAP1 POP JUMP JUMPDEST PUSH2 0x247C DUP2 PUSH2 0x2467 JUMP JUMPDEST DUP2 EQ PUSH2 0x2486 JUMPI PUSH0 DUP1 REVERT JUMPDEST POP JUMP JUMPDEST PUSH0 DUP2 CALLDATALOAD SWAP1 POP PUSH2 0x2497 DUP2 PUSH2 0x2473 JUMP JUMPDEST SWAP3 SWAP2 POP POP JUMP JUMPDEST PUSH2 0x24A6 DUP2 PUSH2 0x2078 JUMP JUMPDEST DUP2 EQ PUSH2 0x24B0 JUMPI PUSH0 DUP1 REVERT JUMPDEST POP JUMP JUMPDEST PUSH0 DUP2 CALLDATALOAD SWAP1 POP PUSH2 0x24C1 DUP2 PUSH2 0x249D JUMP JUMPDEST SWAP3 SWAP2 POP POP JUMP JUMPDEST PUSH0 DUP1 PUSH0 DUP1 PUSH1 0x80 DUP6 DUP8 SUB SLT ISZERO PUSH2 0x24DF JUMPI PUSH2 0x24DE PUSH2 0x1FF0 JUMP JUMPDEST JUMPDEST PUSH0 PUSH2 0x24EC DUP8 DUP3 DUP9 ADD PUSH2 0x23AF JUMP JUMPDEST SWAP5 POP POP PUSH1 0x20 PUSH2 0x24FD DUP8 DUP3 DUP9 ADD PUSH2 0x2489 JUMP JUMPDEST SWAP4 POP POP PUSH1 0x40 PUSH2 0x250E DUP8 DUP3 DUP9 ADD PUSH2 0x23AF JUMP JUMPDEST SWAP3 POP POP PUSH1 0x60 PUSH2 0x251F DUP8 DUP3 DUP9 ADD PUSH2 0x24B3 JUMP JUMPDEST SWAP2 POP POP SWAP3 SWAP6 SWAP2 SWAP5 POP SWAP3 POP JUMP JUMPDEST PUSH0 DUP2 SWAP1 POP SWAP2 SWAP1 POP JUMP JUMPDEST PUSH0 PUSH2 0x254E PUSH2 0x2549 PUSH2 0x2544 DUP5 PUSH2 0x2369 JUMP JUMPDEST PUSH2 0x252B JUMP JUMPDEST PUSH2 0x2369 JUMP JUMPDEST SWAP1 POP SWAP2 SWAP1 POP JUMP JUMPDEST PUSH0 PUSH2 0x255F DUP3 PUSH2 0x2534 JUMP JUMPDEST SWAP1 POP SWAP2 SWAP1 POP JUMP JUMPDEST PUSH0 PUSH2 0x2570 DUP3 PUSH2 0x2555 JUMP JUMPDEST SWAP1 POP SWAP2 SWAP1 POP JUMP JUMPDEST PUSH2 0x2580 DUP2 PUSH2 0x2566 JUMP JUMPDEST DUP3 MSTORE POP POP JUMP JUMPDEST PUSH0 PUSH1 0x20 DUP3 ADD SWAP1 POP PUSH2 0x2599 PUSH0 DUP4 ADD DUP5 PUSH2 0x2577 JUMP JUMPDEST SWAP3 SWAP2 POP POP JUMP JUMPDEST PUSH0 DUP1 PUSH1 0x40 DUP4 DUP6 SUB SLT ISZERO PUSH2 0x25B5 JUMPI PUSH2 0x25B4 PUSH2 0x1FF0 JUMP JUMPDEST JUMPDEST PUSH0 PUSH2 0x25C2 DUP6 DUP3 DUP7 ADD PUSH2 0x23AF JUMP JUMPDEST SWAP3 POP POP PUSH1 0x20 PUSH2 0x25D3 DUP6 DUP3 DUP7 ADD PUSH2 0x23AF JUMP JUMPDEST SWAP2 POP POP SWAP3 POP SWAP3 SWAP1 POP JUMP JUMPDEST PUSH32 0x4E487B7100000000000000000000000000000000000000000000000000000000 PUSH0 MSTORE PUSH1 0x11 PUSH1 0x4 MSTORE PUSH1 0x24 PUSH0 REVERT JUMPDEST PUSH0 PUSH2 0x2614 DUP3 PUSH2 0x22E3 JUMP JUMPDEST SWAP2 POP PUSH2 0x261F DUP4 PUSH2 0x22E3 JUMP JUMPDEST SWAP3 POP DUP3 DUP3 ADD SWAP1 POP DUP1 DUP3 GT ISZERO PUSH2 0x2637 JUMPI PUSH2 0x2636 PUSH2 0x25DD JUMP JUMPDEST JUMPDEST SWAP3 SWAP2 POP POP JUMP JUMPDEST PUSH0 DUP2 MLOAD SWAP1 POP SWAP2 SWAP1 POP JUMP JUMPDEST PUSH32 0x4E487B7100000000000000000000000000000000000000000000000000000000 PUSH0 MSTORE PUSH1 0x22 PUSH1 0x4 MSTORE PUSH1 0x24 PUSH0 REVERT JUMPDEST PUSH0 PUSH1 0x2 DUP3 DIV SWAP1 POP PUSH1 0x1 DUP3 AND DUP1 PUSH2 0x268B JUMPI PUSH1 0x7F DUP3 AND SWAP2 POP JUMPDEST PUSH1 0x20 DUP3 LT DUP2 SUB PUSH2 0x269E JUMPI PUSH2 0x269D PUSH2 0x2647 JUMP JUMPDEST JUMPDEST POP SWAP2 SWAP1 POP JUMP JUMPDEST PUSH0 DUP2 SWAP1 POP DUP2 PUSH0 MSTORE PUSH1 0x20 PUSH0 KECCAK256 SWAP1 POP SWAP2 SWAP1 POP JUMP JUMPDEST PUSH0 PUSH1 0x20 PUSH1 0x1F DUP4 ADD DIV SWAP1 POP SWAP2 SWAP1 POP JUMP JUMPDEST PUSH0 DUP3 DUP3 SHL SWAP1 POP SWAP3 SWAP2 POP POP JUMP JUMPDEST PUSH0 PUSH1 0x8 DUP4 MUL PUSH2 0x2700 PUSH32 0xFFFFFFFFFFFFFFFFFFFFFFFFFFFFFFFFFFFFFFFFFFFFFFFFFFFFFFFFFFFFFFFF DUP3 PUSH2 0x26C5 JUMP JUMPDEST PUSH2 0x270A DUP7 DUP4 PUSH2 0x26C5 JUMP JUMPDEST SWAP6 POP DUP1 NOT DUP5 AND SWAP4 POP DUP1 DUP7 AND DUP5 OR SWAP3 POP POP POP SWAP4 SWAP3 POP POP POP JUMP JUMPDEST PUSH0 PUSH2 0x273C PUSH2 0x2737 PUSH2 0x2732 DUP5 PUSH2 0x22E3 JUMP JUMPDEST PUSH2 0x252B JUMP JUMPDEST PUSH2 0x22E3 JUMP JUMPDEST SWAP1 POP SWAP2 SWAP1 POP JUMP JUMPDEST PUSH0 DUP2 SWAP1 POP SWAP2 SWAP1 POP JUMP JUMPDEST PUSH2 0x2755 DUP4 PUSH2 0x2722 JUMP JUMPDEST PUSH2 0x2769 PUSH2 0x2761 DUP3 PUSH2 0x2743 JUMP JUMPDEST DUP5 DUP5 SLOAD PUSH2 0x26D1 JUMP JUMPDEST DUP3 SSTORE POP POP POP POP JUMP JUMPDEST PUSH0 SWAP1 JUMP JUMPDEST PUSH2 0x277D PUSH2 0x2771 JUMP JUMPDEST PUSH2 0x2788 DUP2 DUP5 DUP5 PUSH2 0x274C JUMP JUMPDEST POP POP POP JUMP JUMPDEST JUMPDEST DUP2 DUP2 LT ISZERO PUSH2 0x27AB JUMPI PUSH2 0x27A0 PUSH0 DUP3 PUSH2 0x2775 JUMP JUMPDEST PUSH1 0x1 DUP2 ADD SWAP1 POP PUSH2 0x278E JUMP JUMPDEST POP POP JUMP JUMPDEST PUSH1 0x1F DUP3 GT ISZERO PUSH2 0x27F0 JUMPI PUSH2 0x27C1 DUP2 PUSH2 0x26A4 JUMP JUMPDEST PUSH2 0x27CA DUP5 PUSH2 0x26B6 JUMP JUMPDEST DUP2 ADD PUSH1 0x20 DUP6 LT ISZERO PUSH2 0x27D9 JUMPI DUP2 SWAP1 POP JUMPDEST PUSH2 0x27ED PUSH2 0x27E5 DUP6 PUSH2 0x26B6 JUMP JUMPDEST DUP4 ADD DUP3 PUSH2 0x278D JUMP JUMPDEST POP POP JUMPDEST POP POP POP JUMP JUMPDEST PUSH0 DUP3 DUP3 SHR SWAP1 POP SWAP3 SWAP2 POP POP JUMP JUMPDEST PUSH0 PUSH2 0x2810 PUSH0 NOT DUP5 PUSH1 0x8 MUL PUSH2 0x27F5 JUMP JUMPDEST NOT DUP1 DUP4 AND SWAP2 POP POP SWAP3 SWAP2 POP POP JUMP JUMPDEST PUSH0 PUSH2 0x2828 DUP4 DUP4 PUSH2 0x2801 JUMP JUMPDEST SWAP2 POP DUP3 PUSH1 0x2 MUL DUP3 OR SWAP1 POP SWAP3 SWAP2 POP POP JUMP JUMPDEST PUSH2 0x2841 DUP3 PUSH2 0x263D JUMP JUMPDEST PUSH8 0xFFFFFFFFFFFFFFFF DUP2 GT ISZERO PUSH2 0x285A JUMPI PUSH2 0x2859 PUSH2 0x20C3 JUMP JUMPDEST JUMPDEST PUSH2 0x2864 DUP3 SLOAD PUSH2 0x2674 JUMP JUMPDEST PUSH2 0x286F DUP3 DUP3 DUP6 PUSH2 0x27AF JUMP JUMPDEST PUSH0 PUSH1 0x20 SWAP1 POP PUSH1 0x1F DUP4 GT PUSH1 0x1 DUP2 EQ PUSH2 0x28A0 JUMPI PUSH0 DUP5 ISZERO PUSH2 0x288E JUMPI DUP3 DUP8 ADD MLOAD SWAP1 POP JUMPDEST PUSH2 0x2898 DUP6 DUP3 PUSH2 0x281D JUMP JUMPDEST DUP7 SSTORE POP PUSH2 0x28FF JUMP JUMPDEST PUSH1 0x1F NOT DUP5 AND PUSH2 0x28AE DUP7 PUSH2 0x26A4 JUMP JUMPDEST PUSH0 JUMPDEST DUP3 DUP2 LT ISZERO PUSH2 0x28D5 JUMPI DUP5 DUP10 ADD MLOAD DUP3 SSTORE PUSH1 0x1 DUP3 ADD SWAP2 POP PUSH1 0x20 DUP6 ADD SWAP5 POP PUSH1 0x20 DUP2 ADD SWAP1 POP PUSH2 0x28B0 JUMP JUMPDEST DUP7 DUP4 LT ISZERO PUSH2 0x28F2 JUMPI DUP5 DUP10 ADD MLOAD PUSH2 0x28EE PUSH1 0x1F DUP10 AND DUP3 PUSH2 0x2801 JUMP JUMPDEST DUP4 SSTORE POP JUMPDEST PUSH1 0x1 PUSH1 0x2 DUP9 MUL ADD DUP9 SSTORE POP POP POP JUMPDEST POP POP POP POP POP POP JUMP JUMPDEST PUSH0 PUSH2 0x2911 DUP3 PUSH2 0x22E3 JUMP JUMPDEST SWAP2 POP PUSH32 0xFFFFFFFFFFFFFFFFFFFFFFFFFFFFFFFFFFFFFFFFFFFFFFFFFFFFFFFFFFFFFFFF DUP3 SUB PUSH2 0x2943 JUMPI PUSH2 0x2942 PUSH2 0x25DD JUMP JUMPDEST JUMPDEST PUSH1 0x1 DUP3 ADD SWAP1 POP SWAP2 SWAP1 POP JUMP JUMPDEST PUSH0 PUSH2 0x2958 DUP3 PUSH2 0x22E3 JUMP JUMPDEST SWAP2 POP PUSH2 0x2963 DUP4 PUSH2 0x22E3 JUMP JUMPDEST SWAP3 POP DUP3 DUP3 MUL PUSH2 0x2971 DUP2 PUSH2 0x22E3 JUMP JUMPDEST SWAP2 POP DUP3 DUP3 DIV DUP5 EQ DUP4 ISZERO OR PUSH2 0x2988 JUMPI PUSH2 0x2987 PUSH2 0x25DD JUMP JUMPDEST JUMPDEST POP SWAP3 SWAP2 POP POP JUMP JUMPDEST PUSH32 0x4E487B7100000000000000000000000000000000000000000000000000000000 PUSH0 MSTORE PUSH1 0x12 PUSH1 0x4 MSTORE PUSH1 0x24 PUSH0 REVERT JUMPDEST PUSH0 PUSH2 0x29C6 DUP3 PUSH2 0x22E3 JUMP JUMPDEST SWAP2 POP PUSH2 0x29D1 DUP4 PUSH2 0x22E3 JUMP JUMPDEST SWAP3 POP DUP3 PUSH2 0x29E1 JUMPI PUSH2 0x29E0 PUSH2 0x298F JUMP JUMPDEST JUMPDEST DUP3 DUP3 DIV SWAP1 POP SWAP3 SWAP2 POP POP JUMP JUMPDEST PUSH0 PUSH1 0x40 DUP3 ADD SWAP1 POP PUSH2 0x29FF PUSH0 DUP4 ADD DUP6 PUSH2 0x2341 JUMP JUMPDEST PUSH2 0x2A0C PUSH1 0x20 DUP4 ADD DUP5 PUSH2 0x2341 JUMP JUMPDEST SWAP4 SWAP3 POP POP POP JUMP JUMPDEST PUSH0 PUSH2 0x2A1D DUP3 PUSH2 0x22E3 JUMP JUMPDEST SWAP2 POP PUSH2 0x2A28 DUP4 PUSH2 0x22E3 JUMP JUMPDEST SWAP3 POP DUP3 DUP3 SUB SWAP1 POP DUP2 DUP2 GT ISZERO PUSH2 0x2A40 JUMPI PUSH2 0x2A3F PUSH2 0x25DD JUMP JUMPDEST JUMPDEST SWAP3 SWAP2 POP POP JUMP JUMPDEST PUSH0 DUP2 SWAP1 POP SWAP3 SWAP2 POP POP JUMP JUMPDEST POP JUMP JUMPDEST PUSH0 PUSH2 0x2A5E PUSH0 DUP4 PUSH2 0x2A46 JUMP JUMPDEST SWAP2 POP PUSH2 0x2A69 DUP3 PUSH2 0x2A50 JUMP JUMPDEST PUSH0 DUP3 ADD SWAP1 POP SWAP2 SWAP1 POP JUMP JUMPDEST PUSH0 PUSH2 0x2A7D DUP3 PUSH2 0x2A53 JUMP JUMPDEST SWAP2 POP DUP2 SWAP1 POP SWAP2 SWAP1 POP JUMP JUMPDEST PUSH32 0x4E487B7100000000000000000000000000000000000000000000000000000000 PUSH0 MSTORE PUSH1 0x21 PUSH1 0x4 MSTORE PUSH1 0x24 PUSH0 REVERT JUMPDEST PUSH1 0x2 DUP2 LT PUSH2 0x2AC5 JUMPI PUSH2 0x2AC4 PUSH2 0x2A87 JUMP JUMPDEST JUMPDEST POP JUMP JUMPDEST PUSH0 DUP2 SWAP1 POP PUSH2 0x2AD5 DUP3 PUSH2 0x2AB4 JUMP JUMPDEST SWAP2 SWAP1 POP JUMP JUMPDEST PUSH0 PUSH2 0x2AE4 DUP3 PUSH2 0x2AC8 JUMP JUMPDEST SWAP1 POP SWAP2 SWAP1 POP JUMP JUMPDEST PUSH2 0x2AF4 DUP2 PUSH2 0x2ADA JUMP JUMPDEST DUP3 MSTORE POP POP JUMP JUMPDEST PUSH0 PUSH1 0x20 DUP3 ADD SWAP1 POP PUSH2 0x2B0D PUSH0 DUP4 ADD DUP5 PUSH2 0x2AEB JUMP JUMPDEST SWAP3 SWAP2 POP POP JUMP JUMPDEST PUSH0 PUSH10 0xFFFFFFFFFFFFFFFFFFFF DUP3 AND SWAP1 POP SWAP2 SWAP1 POP JUMP JUMPDEST PUSH2 0x2B31 DUP2 PUSH2 0x2B13 JUMP JUMPDEST DUP2 EQ PUSH2 0x2B3B JUMPI PUSH0 DUP1 REVERT JUMPDEST POP JUMP JUMPDEST PUSH0 DUP2 MLOAD SWAP1 POP PUSH2 0x2B4C DUP2 PUSH2 0x2B28 JUMP JUMPDEST SWAP3 SWAP2 POP POP JUMP JUMPDEST PUSH0 DUP2 SWAP1 POP SWAP2 SWAP1 POP JUMP JUMPDEST PUSH2 0x2B64 DUP2 PUSH2 0x2B52 JUMP JUMPDEST DUP2 EQ PUSH2 0x2B6E JUMPI PUSH0 DUP1 REVERT JUMPDEST POP JUMP JUMPDEST PUSH0 DUP2 MLOAD SWAP1 POP PUSH2 0x2B7F DUP2 PUSH2 0x2B5B JUMP JUMPDEST SWAP3 SWAP2 POP POP JUMP JUMPDEST PUSH0 DUP2 MLOAD SWAP1 POP PUSH2 0x2B93 DUP2 PUSH2 0x22EC JUMP JUMPDEST SWAP3 SWAP2 POP POP JUMP JUMPDEST PUSH0 DUP1 PUSH0 DUP1 PUSH0 PUSH1 0xA0 DUP7 DUP9 SUB SLT ISZERO PUSH2 0x2BB2 JUMPI PUSH2 0x2BB1 PUSH2 0x1FF0 JUMP JUMPDEST JUMPDEST PUSH0 PUSH2 0x2BBF DUP9 DUP3 DUP10 ADD PUSH2 0x2B3E JUMP JUMPDEST SWAP6 POP POP PUSH1 0x20 PUSH2 0x2BD0 DUP9 DUP3 DUP10 ADD PUSH2 0x2B71 JUMP JUMPDEST SWAP5 POP POP PUSH1 0x40 PUSH2 0x2BE1 DUP9 DUP3 DUP10 ADD PUSH2 0x2B85 JUMP JUMPDEST SWAP4 POP POP PUSH1 0x60 PUSH2 0x2BF2 DUP9 DUP3 DUP10 ADD PUSH2 0x2B85 JUMP JUMPDEST SWAP3 POP POP PUSH1 0x80 PUSH2 0x2C03 DUP9 DUP3 DUP10 ADD PUSH2 0x2B3E JUMP JUMPDEST SWAP2 POP POP SWAP3 SWAP6 POP SWAP3 SWAP6 SWAP1 SWAP4 POP JUMP JUMPDEST PUSH0 DUP3 DUP3 MSTORE PUSH1 0x20 DUP3 ADD SWAP1 POP SWAP3 SWAP2 POP POP JUMP JUMPDEST PUSH32 0x5265656E7472616E637947756172643A207265656E7472616E742063616C6C00 PUSH0 DUP3 ADD MSTORE POP JUMP JUMPDEST PUSH0 PUSH2 0x2C54 PUSH1 0x1F DUP4 PUSH2 0x2C10 JUMP JUMPDEST SWAP2 POP PUSH2 0x2C5F DUP3 PUSH2 0x2C20 JUMP JUMPDEST PUSH1 0x20 DUP3 ADD SWAP1 POP SWAP2 SWAP1 POP JUMP JUMPDEST PUSH0 PUSH1 0x20 DUP3 ADD SWAP1 POP DUP2 DUP2 SUB PUSH0 DUP4 ADD MSTORE PUSH2 0x2C81 DUP2 PUSH2 0x2C48 JUMP JUMPDEST SWAP1 POP SWAP2 SWAP1 POP JUMP JUMPDEST PUSH0 PUSH1 0x60 DUP3 ADD SWAP1 POP PUSH2 0x2C9B PUSH0 DUP4 ADD DUP7 PUSH2 0x2401 JUMP JUMPDEST PUSH2 0x2CA8 PUSH1 0x20 DUP4 ADD DUP6 PUSH2 0x2401 JUMP JUMPDEST PUSH2 0x2CB5 PUSH1 0x40 DUP4 ADD DUP5 PUSH2 0x2341 JUMP JUMPDEST SWAP5 SWAP4 POP POP POP POP JUMP JUMPDEST PUSH0 PUSH1 0x40 DUP3 ADD SWAP1 POP PUSH2 0x2CD0 PUSH0 DUP4 ADD DUP6 PUSH2 0x2401 JUMP JUMPDEST PUSH2 0x2CDD PUSH1 0x20 DUP4 ADD DUP5 PUSH2 0x2341 JUMP JUMPDEST SWAP4 SWAP3 POP POP POP JUMP JUMPDEST PUSH0 PUSH1 0x40 DUP3 ADD SWAP1 POP PUSH2 0x2CF7 PUSH0 DUP4 ADD DUP6 PUSH2 0x2401 JUMP JUMPDEST PUSH2 0x2D04 PUSH1 0x20 DUP4 ADD DUP5 PUSH2 0x22BB JUMP JUMPDEST SWAP4 SWAP3 POP POP POP JUMP INVALID LOG2 PUSH5 0x6970667358 0x22 SLT KECCAK256 PUSH28 0x3E87135A3E30972853D6754FD3A8C03C08A44BF44D0342AFF4351A24 0x2D RETURN 0xB7 PUSH5 0x736F6C6343 STOP ADDMOD BYTE STOP CALLER "
				},
				"gasEstimates": {
					"creation": {
						"codeDepositCost": "2317000",
						"executionCost": "infinite",
						"totalCost": "infinite"
					},
					"external": {
						"ADMIN_ROLE()": "353",
						"DEFAULT_ADMIN_ROLE()": "441",
						"MAX_WITHDRAW_AMOUNT()": "414",
						"NATIVE_TOKEN()": "395",
						"USD_FEED_DECIMALS()": "435",
						"convertWeiToUsd(uint256)": "infinite",
						"createAccount(string,string)": "infinite",
						"deposit()": "infinite",
						"depositToken(address,uint256)": "infinite",
						"getBalance(address,address)": "infinite",
						"getDepositCount()": "2499",
						"getEthPriceInUsd()": "infinite",
						"getRoleAdmin(bytes32)": "infinite",
						"getWithdrawCount()": "2543",
						"grantRole(bytes32,address)": "infinite",
						"hasRole(bytes32,address)": "3167",
						"i_bankCap()": "infinite",
						"i_ethPriceFeed()": "infinite",
						"renounceRole(bytes32,address)": "infinite",
						"revokeRole(bytes32,address)": "infinite",
						"setToken(address,uint8,address,bool)": "infinite",
						"supportsInterface(bytes4)": "741",
						"withdraw(uint256)": "infinite",
						"withdrawToken(address,uint256)": "infinite"
					}
				},
				"methodIdentifiers": {
					"ADMIN_ROLE()": "75b238fc",
					"DEFAULT_ADMIN_ROLE()": "a217fddf",
					"MAX_WITHDRAW_AMOUNT()": "44ba0ea2",
					"NATIVE_TOKEN()": "31f7d964",
					"USD_FEED_DECIMALS()": "d7128c58",
					"convertWeiToUsd(uint256)": "27281025",
					"createAccount(string,string)": "19289287",
					"deposit()": "d0e30db0",
					"depositToken(address,uint256)": "338b5dea",
					"getBalance(address,address)": "d4fac45d",
					"getDepositCount()": "9363a141",
					"getEthPriceInUsd()": "d67b98a9",
					"getRoleAdmin(bytes32)": "248a9ca3",
					"getWithdrawCount()": "47d04c71",
					"grantRole(bytes32,address)": "2f2ff15d",
					"hasRole(bytes32,address)": "91d14854",
					"i_bankCap()": "f6687af7",
					"i_ethPriceFeed()": "b60fc72e",
					"renounceRole(bytes32,address)": "36568abe",
					"revokeRole(bytes32,address)": "d547741f",
					"setToken(address,uint8,address,bool)": "4914e2ce",
					"supportsInterface(bytes4)": "01ffc9a7",
					"withdraw(uint256)": "2e1a7d4d",
					"withdrawToken(address,uint256)": "9e281a98"
				}
			},
			"storageLayout": {
				"storage": [
					{
						"astId": 73,
						"contract": "contracts/1_KipuBankV2.sol:KipuBankV2",
						"label": "_roles",
						"offset": 0,
						"slot": "0",
						"type": "t_mapping(t_bytes32,t_struct(RoleData)68_storage)"
					},
					{
						"astId": 526,
						"contract": "contracts/1_KipuBankV2.sol:KipuBankV2",
						"label": "_status",
						"offset": 0,
						"slot": "1",
						"type": "t_uint256"
					},
					{
						"astId": 1252,
						"contract": "contracts/1_KipuBankV2.sol:KipuBankV2",
						"label": "accounts",
						"offset": 0,
						"slot": "2",
						"type": "t_mapping(t_address,t_struct(Account)1220_storage)"
					},
					{
						"astId": 1258,
						"contract": "contracts/1_KipuBankV2.sol:KipuBankV2",
						"label": "balances",
						"offset": 0,
						"slot": "3",
						"type": "t_mapping(t_address,t_mapping(t_address,t_uint256))"
					},
					{
						"astId": 1263,
						"contract": "contracts/1_KipuBankV2.sol:KipuBankV2",
						"label": "tokenCatalog",
						"offset": 0,
						"slot": "4",
						"type": "t_mapping(t_address,t_struct(TokenData)1230_storage)"
					},
					{
						"astId": 1265,
						"contract": "contracts/1_KipuBankV2.sol:KipuBankV2",
						"label": "s_depositCounter",
						"offset": 0,
						"slot": "5",
						"type": "t_uint256"
					},
					{
						"astId": 1267,
						"contract": "contracts/1_KipuBankV2.sol:KipuBankV2",
						"label": "s_withdrawCounter",
						"offset": 0,
						"slot": "6",
						"type": "t_uint256"
					},
					{
						"astId": 1269,
						"contract": "contracts/1_KipuBankV2.sol:KipuBankV2",
						"label": "s_totalBankBalance",
						"offset": 0,
						"slot": "7",
						"type": "t_uint256"
					}
				],
				"types": {
					"t_address": {
						"encoding": "inplace",
						"label": "address",
						"numberOfBytes": "20"
					},
					"t_bool": {
						"encoding": "inplace",
						"label": "bool",
						"numberOfBytes": "1"
					},
					"t_bytes32": {
						"encoding": "inplace",
						"label": "bytes32",
						"numberOfBytes": "32"
					},
					"t_enum(TokenState)1208": {
						"encoding": "inplace",
						"label": "enum KipuBankV2.TokenState",
						"numberOfBytes": "1"
					},
					"t_mapping(t_address,t_bool)": {
						"encoding": "mapping",
						"key": "t_address",
						"label": "mapping(address => bool)",
						"numberOfBytes": "32",
						"value": "t_bool"
					},
					"t_mapping(t_address,t_mapping(t_address,t_uint256))": {
						"encoding": "mapping",
						"key": "t_address",
						"label": "mapping(address => mapping(address => uint256))",
						"numberOfBytes": "32",
						"value": "t_mapping(t_address,t_uint256)"
					},
					"t_mapping(t_address,t_struct(Account)1220_storage)": {
						"encoding": "mapping",
						"key": "t_address",
						"label": "mapping(address => struct KipuBankV2.Account)",
						"numberOfBytes": "32",
						"value": "t_struct(Account)1220_storage"
					},
					"t_mapping(t_address,t_struct(TokenData)1230_storage)": {
						"encoding": "mapping",
						"key": "t_address",
						"label": "mapping(address => struct KipuBankV2.TokenData)",
						"numberOfBytes": "32",
						"value": "t_struct(TokenData)1230_storage"
					},
					"t_mapping(t_address,t_uint256)": {
						"encoding": "mapping",
						"key": "t_address",
						"label": "mapping(address => uint256)",
						"numberOfBytes": "32",
						"value": "t_uint256"
					},
					"t_mapping(t_bytes32,t_struct(RoleData)68_storage)": {
						"encoding": "mapping",
						"key": "t_bytes32",
						"label": "mapping(bytes32 => struct AccessControl.RoleData)",
						"numberOfBytes": "32",
						"value": "t_struct(RoleData)68_storage"
					},
					"t_string_storage": {
						"encoding": "bytes",
						"label": "string",
						"numberOfBytes": "32"
					},
					"t_struct(Account)1220_storage": {
						"encoding": "inplace",
						"label": "struct KipuBankV2.Account",
						"members": [
							{
								"astId": 1210,
								"contract": "contracts/1_KipuBankV2.sol:KipuBankV2",
								"label": "balance",
								"offset": 0,
								"slot": "0",
								"type": "t_uint256"
							},
							{
								"astId": 1213,
								"contract": "contracts/1_KipuBankV2.sol:KipuBankV2",
								"label": "name",
								"offset": 0,
								"slot": "1",
								"type": "t_string_storage"
							},
							{
								"astId": 1216,
								"contract": "contracts/1_KipuBankV2.sol:KipuBankV2",
								"label": "email",
								"offset": 0,
								"slot": "2",
								"type": "t_string_storage"
							},
							{
								"astId": 1219,
								"contract": "contracts/1_KipuBankV2.sol:KipuBankV2",
								"label": "exists",
								"offset": 0,
								"slot": "3",
								"type": "t_bool"
							}
						],
						"numberOfBytes": "128"
					},
					"t_struct(RoleData)68_storage": {
						"encoding": "inplace",
						"label": "struct AccessControl.RoleData",
						"members": [
							{
								"astId": 65,
								"contract": "contracts/1_KipuBankV2.sol:KipuBankV2",
								"label": "hasRole",
								"offset": 0,
								"slot": "0",
								"type": "t_mapping(t_address,t_bool)"
							},
							{
								"astId": 67,
								"contract": "contracts/1_KipuBankV2.sol:KipuBankV2",
								"label": "adminRole",
								"offset": 0,
								"slot": "1",
								"type": "t_bytes32"
							}
						],
						"numberOfBytes": "64"
					},
					"t_struct(TokenData)1230_storage": {
						"encoding": "inplace",
						"label": "struct KipuBankV2.TokenData",
						"members": [
							{
								"astId": 1223,
								"contract": "contracts/1_KipuBankV2.sol:KipuBankV2",
								"label": "state",
								"offset": 0,
								"slot": "0",
								"type": "t_enum(TokenState)1208"
							},
							{
								"astId": 1226,
								"contract": "contracts/1_KipuBankV2.sol:KipuBankV2",
								"label": "decimals",
								"offset": 1,
								"slot": "0",
								"type": "t_uint8"
							},
							{
								"astId": 1229,
								"contract": "contracts/1_KipuBankV2.sol:KipuBankV2",
								"label": "priceFeed",
								"offset": 2,
								"slot": "0",
								"type": "t_address"
							}
						],
						"numberOfBytes": "32"
					},
					"t_uint256": {
						"encoding": "inplace",
						"label": "uint256",
						"numberOfBytes": "32"
					},
					"t_uint8": {
						"encoding": "inplace",
						"label": "uint8",
						"numberOfBytes": "1"
					}
				}
			},
			"userdoc": {
				"errors": {
					"Bank_AccountAlreadyExists()": [
						{
							"notice": "Se lanza si el usuario intenta crear una cuenta que ya existe"
						}
					],
					"Bank_AccountNotExists()": [
						{
							"notice": "Se lanza si se opera con una cuenta inexistente"
						}
					],
					"Bank_ExceedBankCap()": [
						{
							"notice": "Se lanza si el depósito excede el límite global"
						}
					],
					"Bank_ExceedWithdrawAmount(uint256,uint256)": [
						{
							"notice": "Se lanza si se intenta retirar más que el límite por transacción"
						}
					],
					"Bank_InsufficientFunds(uint256,uint256)": [
						{
							"notice": "Se lanza si los fondos disponibles son insuficientes"
						}
					],
					"Bank_InvalidDeposit()": [
						{
							"notice": "Se lanza cuando el depósito es inválido (ej. cero)"
						}
					],
					"Bank_TokenNotSupported()": [
						{
							"notice": "Se lanza si el token no es soportado"
						}
					],
					"Bank_TransferError()": [
						{
							"notice": "Se lanza si la transferencia de ETH falla"
						}
					]
				},
				"kind": "user",
				"methods": {
					"convertWeiToUsd(uint256)": {
						"notice": "Convierte wei a USD usando el oráculo"
					},
					"createAccount(string,string)": {
						"notice": "Crea cuenta nueva y opcionalmente deposita ETH"
					},
					"deposit()": {
						"notice": "Deposita ETH en la bóveda del usuario"
					},
					"depositToken(address,uint256)": {
						"notice": "Deposita tokens ERC20 soportados"
					},
					"getBalance(address,address)": {
						"notice": "Devuelve balance de un usuario para un token"
					},
					"getDepositCount()": {
						"notice": "Devuelve el número total de depósitos realizados"
					},
					"getEthPriceInUsd()": {
						"notice": "Devuelve precio ETH/USD desde Chainlink"
					},
					"getWithdrawCount()": {
						"notice": "Devuelve el número total de retiros realizados"
					},
					"setToken(address,uint8,address,bool)": {
						"notice": "Agrega o actualiza un token soportado"
					},
					"withdraw(uint256)": {
						"notice": "Retira ETH respetando límite por transacción"
					},
					"withdrawToken(address,uint256)": {
						"notice": "Retira tokens ERC20 respetando límites"
					}
				},
				"version": 1
			}
		}
	}
}